{
  "_format": "hh-sol-artifact-1",
  "contractName": "NFTPropertyContractSystem",
  "sourceName": "contracts/NFTPropertyContractSystem.sol",
  "abi": [
    {
      "inputs": [],
      "stateMutability": "nonpayable",
      "type": "constructor"
    },
    {
      "anonymous": false,
      "inputs": [
        {
          "indexed": true,
          "internalType": "address",
          "name": "owner",
          "type": "address"
        },
        {
          "indexed": true,
          "internalType": "address",
          "name": "approved",
          "type": "address"
        },
        {
          "indexed": true,
          "internalType": "uint256",
          "name": "tokenId",
          "type": "uint256"
        }
      ],
      "name": "Approval",
      "type": "event"
    },
    {
      "anonymous": false,
      "inputs": [
        {
          "indexed": true,
          "internalType": "address",
          "name": "owner",
          "type": "address"
        },
        {
          "indexed": true,
          "internalType": "address",
          "name": "operator",
          "type": "address"
        },
        {
          "indexed": false,
          "internalType": "bool",
          "name": "approved",
          "type": "bool"
        }
      ],
      "name": "ApprovalForAll",
      "type": "event"
    },
    {
      "anonymous": false,
      "inputs": [
        {
          "indexed": true,
          "internalType": "uint256",
          "name": "tokenId",
          "type": "uint256"
        },
        {
          "indexed": false,
          "internalType": "address",
          "name": "seller",
          "type": "address"
        },
        {
          "indexed": false,
          "internalType": "address",
          "name": "owner",
          "type": "address"
        },
        {
          "indexed": false,
          "internalType": "string",
          "name": "propertyAddress",
          "type": "string"
        },
        {
          "indexed": false,
          "internalType": "uint256",
          "name": "bidPrice",
          "type": "uint256"
        },
        {
          "indexed": false,
          "internalType": "uint256",
          "name": "price",
          "type": "uint256"
        },
        {
          "indexed": false,
          "internalType": "uint256",
          "name": "paidAmount",
          "type": "uint256"
        },
        {
          "indexed": false,
          "internalType": "address payable",
          "name": "currentBidder",
          "type": "address"
        },
        {
          "indexed": false,
          "internalType": "bool",
          "name": "sold",
          "type": "bool"
        }
      ],
      "name": "MarketItemCreated",
      "type": "event"
    },
    {
      "anonymous": false,
      "inputs": [
        {
          "indexed": true,
          "internalType": "address",
          "name": "from",
          "type": "address"
        },
        {
          "indexed": true,
          "internalType": "address",
          "name": "to",
          "type": "address"
        },
        {
          "indexed": true,
          "internalType": "uint256",
          "name": "tokenId",
          "type": "uint256"
        }
      ],
      "name": "Transfer",
      "type": "event"
    },
    {
      "inputs": [
        {
          "internalType": "address",
          "name": "to",
          "type": "address"
        },
        {
          "internalType": "uint256",
          "name": "tokenId",
          "type": "uint256"
        }
      ],
      "name": "approve",
      "outputs": [],
      "stateMutability": "nonpayable",
      "type": "function"
    },
    {
      "inputs": [
        {
          "internalType": "address",
          "name": "owner",
          "type": "address"
        }
      ],
      "name": "balanceOf",
      "outputs": [
        {
          "internalType": "uint256",
          "name": "",
          "type": "uint256"
        }
      ],
      "stateMutability": "view",
      "type": "function"
    },
    {
      "inputs": [
        {
          "internalType": "uint256",
          "name": "tokenId",
          "type": "uint256"
        }
      ],
      "name": "buyBidProperty",
      "outputs": [],
      "stateMutability": "payable",
      "type": "function"
    },
    {
      "inputs": [
        {
          "internalType": "string",
          "name": "a",
          "type": "string"
        },
        {
          "internalType": "string",
          "name": "b",
          "type": "string"
        }
      ],
      "name": "compareStrings",
      "outputs": [
        {
          "internalType": "bool",
          "name": "",
          "type": "bool"
        }
      ],
      "stateMutability": "view",
      "type": "function"
    },
    {
      "inputs": [
        {
          "internalType": "string",
          "name": "a",
          "type": "string"
        },
        {
          "internalType": "string",
          "name": "b",
          "type": "string"
        }
      ],
      "name": "concatenate",
      "outputs": [
        {
          "internalType": "string",
          "name": "",
          "type": "string"
        }
      ],
      "stateMutability": "pure",
      "type": "function"
    },
    {
      "inputs": [
        {
          "internalType": "uint256",
          "name": "tokenId",
          "type": "uint256"
        }
      ],
      "name": "createMarketSale",
      "outputs": [],
      "stateMutability": "payable",
      "type": "function"
    },
    {
      "inputs": [
        {
          "internalType": "string",
          "name": "tokenURI",
          "type": "string"
        },
        {
          "internalType": "uint256",
          "name": "price",
          "type": "uint256"
        },
        {
          "internalType": "string",
          "name": "propertyAddress",
          "type": "string"
        },
        {
          "internalType": "uint256",
          "name": "bidPrice",
          "type": "uint256"
        }
      ],
      "name": "createTokenNFT",
      "outputs": [
        {
          "internalType": "uint256",
          "name": "",
          "type": "uint256"
        }
      ],
      "stateMutability": "payable",
      "type": "function"
    },
    {
      "inputs": [],
      "name": "fetchMarketItems",
      "outputs": [
        {
          "components": [
            {
              "internalType": "uint256",
              "name": "tokenId",
              "type": "uint256"
            },
            {
              "internalType": "address payable",
              "name": "seller",
              "type": "address"
            },
            {
              "internalType": "address payable",
              "name": "owner",
              "type": "address"
            },
            {
              "internalType": "string",
              "name": "propertyAddress",
              "type": "string"
            },
            {
              "internalType": "uint256",
              "name": "bidPrice",
              "type": "uint256"
            },
            {
              "internalType": "uint256",
              "name": "price",
              "type": "uint256"
            },
            {
              "internalType": "uint256",
              "name": "paidAmount",
              "type": "uint256"
            },
            {
              "internalType": "address payable",
              "name": "currentBidder",
              "type": "address"
            },
            {
              "internalType": "bool",
              "name": "sold",
              "type": "bool"
            }
          ],
          "internalType": "struct NFTPropertyContractSystem.MarketItem[]",
          "name": "",
          "type": "tuple[]"
        }
      ],
      "stateMutability": "view",
      "type": "function"
    },
    {
      "inputs": [],
      "name": "fetchMyNFTs",
      "outputs": [
        {
          "components": [
            {
              "internalType": "uint256",
              "name": "tokenId",
              "type": "uint256"
            },
            {
              "internalType": "address payable",
              "name": "seller",
              "type": "address"
            },
            {
              "internalType": "address payable",
              "name": "owner",
              "type": "address"
            },
            {
              "internalType": "string",
              "name": "propertyAddress",
              "type": "string"
            },
            {
              "internalType": "uint256",
              "name": "bidPrice",
              "type": "uint256"
            },
            {
              "internalType": "uint256",
              "name": "price",
              "type": "uint256"
            },
            {
              "internalType": "uint256",
              "name": "paidAmount",
              "type": "uint256"
            },
            {
              "internalType": "address payable",
              "name": "currentBidder",
              "type": "address"
            },
            {
              "internalType": "bool",
              "name": "sold",
              "type": "bool"
            }
          ],
          "internalType": "struct NFTPropertyContractSystem.MarketItem[]",
          "name": "",
          "type": "tuple[]"
        }
      ],
      "stateMutability": "view",
      "type": "function"
    },
    {
      "inputs": [
        {
          "internalType": "string",
          "name": "propertyAddress",
          "type": "string"
        }
      ],
      "name": "fetchNFTByPropertyAddress",
      "outputs": [
        {
          "components": [
            {
              "internalType": "uint256",
              "name": "tokenId",
              "type": "uint256"
            },
            {
              "internalType": "address payable",
              "name": "seller",
              "type": "address"
            },
            {
              "internalType": "address payable",
              "name": "owner",
              "type": "address"
            },
            {
              "internalType": "string",
              "name": "propertyAddress",
              "type": "string"
            },
            {
              "internalType": "uint256",
              "name": "bidPrice",
              "type": "uint256"
            },
            {
              "internalType": "uint256",
              "name": "price",
              "type": "uint256"
            },
            {
              "internalType": "uint256",
              "name": "paidAmount",
              "type": "uint256"
            },
            {
              "internalType": "address payable",
              "name": "currentBidder",
              "type": "address"
            },
            {
              "internalType": "bool",
              "name": "sold",
              "type": "bool"
            }
          ],
          "internalType": "struct NFTPropertyContractSystem.MarketItem",
          "name": "",
          "type": "tuple"
        }
      ],
      "stateMutability": "view",
      "type": "function"
    },
    {
      "inputs": [
        {
          "internalType": "uint256",
          "name": "tokenId",
          "type": "uint256"
        }
      ],
      "name": "getApproved",
      "outputs": [
        {
          "internalType": "address",
          "name": "",
          "type": "address"
        }
      ],
      "stateMutability": "view",
      "type": "function"
    },
    {
      "inputs": [],
      "name": "getListingPrice",
      "outputs": [
        {
          "internalType": "uint256",
          "name": "",
          "type": "uint256"
        }
      ],
      "stateMutability": "view",
      "type": "function"
    },
    {
      "inputs": [
        {
          "internalType": "address",
          "name": "owner",
          "type": "address"
        },
        {
          "internalType": "address",
          "name": "operator",
          "type": "address"
        }
      ],
      "name": "isApprovedForAll",
      "outputs": [
        {
          "internalType": "bool",
          "name": "",
          "type": "bool"
        }
      ],
      "stateMutability": "view",
      "type": "function"
    },
    {
      "inputs": [],
      "name": "name",
      "outputs": [
        {
          "internalType": "string",
          "name": "",
          "type": "string"
        }
      ],
      "stateMutability": "view",
      "type": "function"
    },
    {
      "inputs": [
        {
          "internalType": "uint256",
          "name": "tokenId",
          "type": "uint256"
        }
      ],
      "name": "ownerOf",
      "outputs": [
        {
          "internalType": "address",
          "name": "",
          "type": "address"
        }
      ],
      "stateMutability": "view",
      "type": "function"
    },
    {
      "inputs": [
        {
          "internalType": "uint256",
          "name": "tokenId",
          "type": "uint256"
        }
      ],
      "name": "payPartSale",
      "outputs": [],
      "stateMutability": "payable",
      "type": "function"
    },
    {
      "inputs": [
        {
          "internalType": "uint256",
          "name": "tokenId",
          "type": "uint256"
        }
      ],
      "name": "placeDeposit",
      "outputs": [],
      "stateMutability": "payable",
      "type": "function"
    },
    {
      "inputs": [
        {
          "internalType": "address",
          "name": "from",
          "type": "address"
        },
        {
          "internalType": "address",
          "name": "to",
          "type": "address"
        },
        {
          "internalType": "uint256",
          "name": "tokenId",
          "type": "uint256"
        }
      ],
      "name": "safeTransferFrom",
      "outputs": [],
      "stateMutability": "nonpayable",
      "type": "function"
    },
    {
      "inputs": [
        {
          "internalType": "address",
          "name": "from",
          "type": "address"
        },
        {
          "internalType": "address",
          "name": "to",
          "type": "address"
        },
        {
          "internalType": "uint256",
          "name": "tokenId",
          "type": "uint256"
        },
        {
          "internalType": "bytes",
          "name": "data",
          "type": "bytes"
        }
      ],
      "name": "safeTransferFrom",
      "outputs": [],
      "stateMutability": "nonpayable",
      "type": "function"
    },
    {
      "inputs": [
        {
          "internalType": "address",
          "name": "operator",
          "type": "address"
        },
        {
          "internalType": "bool",
          "name": "approved",
          "type": "bool"
        }
      ],
      "name": "setApprovalForAll",
      "outputs": [],
      "stateMutability": "nonpayable",
      "type": "function"
    },
    {
      "inputs": [
        {
          "internalType": "bytes4",
          "name": "interfaceId",
          "type": "bytes4"
        }
      ],
      "name": "supportsInterface",
      "outputs": [
        {
          "internalType": "bool",
          "name": "",
          "type": "bool"
        }
      ],
      "stateMutability": "view",
      "type": "function"
    },
    {
      "inputs": [],
      "name": "symbol",
      "outputs": [
        {
          "internalType": "string",
          "name": "",
          "type": "string"
        }
      ],
      "stateMutability": "view",
      "type": "function"
    },
    {
      "inputs": [
        {
          "internalType": "uint256",
          "name": "tokenId",
          "type": "uint256"
        }
      ],
      "name": "tokenURI",
      "outputs": [
        {
          "internalType": "string",
          "name": "",
          "type": "string"
        }
      ],
      "stateMutability": "view",
      "type": "function"
    },
    {
      "inputs": [
        {
          "internalType": "address",
          "name": "from",
          "type": "address"
        },
        {
          "internalType": "address",
          "name": "to",
          "type": "address"
        },
        {
          "internalType": "uint256",
          "name": "tokenId",
          "type": "uint256"
        }
      ],
      "name": "transferFrom",
      "outputs": [],
      "stateMutability": "nonpayable",
      "type": "function"
    },
    {
      "inputs": [
        {
          "internalType": "uint256",
          "name": "tokenId",
          "type": "uint256"
        },
        {
          "internalType": "uint256",
          "name": "updatedPrice",
          "type": "uint256"
        }
      ],
      "name": "updateBidPrice",
      "outputs": [],
      "stateMutability": "nonpayable",
      "type": "function"
    },
    {
      "inputs": [
        {
          "internalType": "uint256",
          "name": "_listingPrice",
          "type": "uint256"
        }
      ],
      "name": "updateListingPrice",
      "outputs": [],
      "stateMutability": "payable",
      "type": "function"
    }
  ],
  "bytecode": "0x60806040526658d15e176280006009553480156200001c57600080fd5b506040518060400160405280601081526020017f4d657461766572736520546f6b656e73000000000000000000000000000000008152506040518060400160405280600481526020017f4d4554540000000000000000000000000000000000000000000000000000000081525081600090816200009a919062000370565b508060019081620000ac919062000370565b50505033600a60006101000a81548173ffffffffffffffffffffffffffffffffffffffff021916908373ffffffffffffffffffffffffffffffffffffffff16021790555062000457565b600081519050919050565b7f4e487b7100000000000000000000000000000000000000000000000000000000600052604160045260246000fd5b7f4e487b7100000000000000000000000000000000000000000000000000000000600052602260045260246000fd5b600060028204905060018216806200017857607f821691505b6020821081036200018e576200018d62000130565b5b50919050565b60008190508160005260206000209050919050565b60006020601f8301049050919050565b600082821b905092915050565b600060088302620001f87fffffffffffffffffffffffffffffffffffffffffffffffffffffffffffffffff82620001b9565b620002048683620001b9565b95508019841693508086168417925050509392505050565b6000819050919050565b6000819050919050565b6000620002516200024b62000245846200021c565b62000226565b6200021c565b9050919050565b6000819050919050565b6200026d8362000230565b620002856200027c8262000258565b848454620001c6565b825550505050565b600090565b6200029c6200028d565b620002a981848462000262565b505050565b5b81811015620002d157620002c560008262000292565b600181019050620002af565b5050565b601f8211156200032057620002ea8162000194565b620002f584620001a9565b8101602085101562000305578190505b6200031d6200031485620001a9565b830182620002ae565b50505b505050565b600082821c905092915050565b6000620003456000198460080262000325565b1980831691505092915050565b600062000360838362000332565b9150826002028217905092915050565b6200037b82620000f6565b67ffffffffffffffff81111562000397576200039662000101565b5b620003a382546200015f565b620003b0828285620002d5565b600060209050601f831160018114620003e85760008415620003d3578287015190505b620003df858262000352565b8655506200044f565b601f198416620003f88662000194565b60005b828110156200042257848901518255600182019150602085019450602081019050620003fb565b868310156200044257848901516200043e601f89168262000332565b8355505b6001600288020188555050505b505050505050565b614df680620004676000396000f3fe6080604052600436106101815760003560e01c80636352211e116100d1578063b88d4fde1161008a578063c87b56dd11610064578063c87b56dd1461056e578063e6e19597146105ab578063e985e9c5146105c7578063f8f07baa1461060457610181565b8063b88d4fde146104ec578063be9af53614610515578063bed34bba1461053157610181565b80636352211e146103c557806370a08231146104025780637ad58c4f1461043f57806395d89b411461047c578063a22cb465146104a7578063ae677aa3146104d057610181565b8063171fe6181161013e578063266001d311610118578063266001d314610327578063278ee9d714610364578063339238621461038057806342842e0e1461039c57610181565b8063171fe618146102aa578063202e3740146102d357806323b872dd146102fe57610181565b806301ffc9a71461018657806306fdde03146101c3578063081812fc146101ee578063095ea7b31461022b5780630f08efe01461025457806312e855851461027f575b600080fd5b34801561019257600080fd5b506101ad60048036038101906101a891906133d6565b610634565b6040516101ba919061341e565b60405180910390f35b3480156101cf57600080fd5b506101d8610716565b6040516101e591906134c9565b60405180910390f35b3480156101fa57600080fd5b5061021560048036038101906102109190613521565b6107a8565b604051610222919061358f565b60405180910390f35b34801561023757600080fd5b50610252600480360381019061024d91906135d6565b6107ee565b005b34801561026057600080fd5b50610269610905565b6040516102769190613826565b60405180910390f35b34801561028b57600080fd5b50610294610c6a565b6040516102a19190613857565b60405180910390f35b3480156102b657600080fd5b506102d160048036038101906102cc9190613872565b610c74565b005b3480156102df57600080fd5b506102e8610c93565b6040516102f59190613826565b60405180910390f35b34801561030a57600080fd5b50610325600480360381019061032091906138b2565b61107c565b005b34801561033357600080fd5b5061034e60048036038101906103499190613a3a565b6110dc565b60405161035b91906134c9565b60405180910390f35b61037e60048036038101906103799190613521565b611108565b005b61039a60048036038101906103959190613521565b6112f5565b005b3480156103a857600080fd5b506103c360048036038101906103be91906138b2565b61152e565b005b3480156103d157600080fd5b506103ec60048036038101906103e79190613521565b61154e565b6040516103f9919061358f565b60405180910390f35b34801561040e57600080fd5b5061042960048036038101906104249190613ab2565b6115d4565b6040516104369190613857565b60405180910390f35b34801561044b57600080fd5b5061046660048036038101906104619190613adf565b61168b565b6040516104739190613bed565b60405180910390f35b34801561048857600080fd5b5061049161199c565b60405161049e91906134c9565b60405180910390f35b3480156104b357600080fd5b506104ce60048036038101906104c99190613c3b565b611a2e565b005b6104ea60048036038101906104e59190613521565b611a44565b005b3480156104f857600080fd5b50610513600480360381019061050e9190613d1c565b611ade565b005b61052f600480360381019061052a9190613521565b611b40565b005b34801561053d57600080fd5b5061055860048036038101906105539190613a3a565b611cf9565b604051610565919061341e565b60405180910390f35b34801561057a57600080fd5b5061059560048036038101906105909190613521565b611d52565b6040516105a291906134c9565b60405180910390f35b6105c560048036038101906105c09190613521565b611e64565b005b3480156105d357600080fd5b506105ee60048036038101906105e99190613d9f565b612026565b6040516105fb919061341e565b60405180910390f35b61061e60048036038101906106199190613ddf565b6120ba565b60405161062b9190613857565b60405180910390f35b60007f80ac58cd000000000000000000000000000000000000000000000000000000007bffffffffffffffffffffffffffffffffffffffffffffffffffffffff1916827bffffffffffffffffffffffffffffffffffffffffffffffffffffffff191614806106ff57507f5b5e139f000000000000000000000000000000000000000000000000000000007bffffffffffffffffffffffffffffffffffffffffffffffffffffffff1916827bffffffffffffffffffffffffffffffffffffffffffffffffffffffff1916145b8061070f575061070e82612100565b5b9050919050565b60606000805461072590613ead565b80601f016020809104026020016040519081016040528092919081815260200182805461075190613ead565b801561079e5780601f106107735761010080835404028352916020019161079e565b820191906000526020600020905b81548152906001019060200180831161078157829003601f168201915b5050505050905090565b60006107b38261216a565b6004600083815260200190815260200160002060009054906101000a900473ffffffffffffffffffffffffffffffffffffffff169050919050565b60006107f98261154e565b90508073ffffffffffffffffffffffffffffffffffffffff168373ffffffffffffffffffffffffffffffffffffffff1603610869576040517f08c379a000000000000000000000000000000000000000000000000000000000815260040161086090613f50565b60405180910390fd5b8073ffffffffffffffffffffffffffffffffffffffff166108886121b5565b73ffffffffffffffffffffffffffffffffffffffff1614806108b757506108b6816108b16121b5565b612026565b5b6108f6576040517f08c379a00000000000000000000000000000000000000000000000000000000081526004016108ed90613fe2565b60405180910390fd5b61090083836121bd565b505050565b606060006109136007612276565b905060006109216008612276565b61092b6007612276565b6109359190614031565b90506000808267ffffffffffffffff8111156109545761095361390f565b5b60405190808252806020026020018201604052801561098d57816020015b61097a6132da565b8152602001906001900390816109725790505b50905060005b84811015610c5f573073ffffffffffffffffffffffffffffffffffffffff16600b60006001846109c39190614065565b815260200190815260200160002060020160009054906101000a900473ffffffffffffffffffffffffffffffffffffffff1673ffffffffffffffffffffffffffffffffffffffff1603610c4c576000600182610a1f9190614065565b90506000600b600083815260200190815260200160002090508060405180610120016040529081600082015481526020016001820160009054906101000a900473ffffffffffffffffffffffffffffffffffffffff1673ffffffffffffffffffffffffffffffffffffffff1673ffffffffffffffffffffffffffffffffffffffff1681526020016002820160009054906101000a900473ffffffffffffffffffffffffffffffffffffffff1673ffffffffffffffffffffffffffffffffffffffff1673ffffffffffffffffffffffffffffffffffffffff168152602001600382018054610b0b90613ead565b80601f0160208091040260200160405190810160405280929190818152602001828054610b3790613ead565b8015610b845780601f10610b5957610100808354040283529160200191610b84565b820191906000526020600020905b815481529060010190602001808311610b6757829003601f168201915b505050505081526020016004820154815260200160058201548152602001600682015481526020016007820160009054906101000a900473ffffffffffffffffffffffffffffffffffffffff1673ffffffffffffffffffffffffffffffffffffffff1673ffffffffffffffffffffffffffffffffffffffff1681526020016007820160149054906101000a900460ff161515151581525050848681518110610c2f57610c2e614099565b5b6020026020010181905250600185610c479190614065565b945050505b8080610c57906140c8565b915050610993565b508094505050505090565b6000600954905090565b80600b6000848152602001908152602001600020600401819055505050565b60606000610ca16007612276565b905060008060005b83811015610d49573373ffffffffffffffffffffffffffffffffffffffff16600b6000600184610cd99190614065565b815260200190815260200160002060020160009054906101000a900473ffffffffffffffffffffffffffffffffffffffff1673ffffffffffffffffffffffffffffffffffffffff1603610d3657600183610d339190614065565b92505b8080610d41906140c8565b915050610ca9565b5060008267ffffffffffffffff811115610d6657610d6561390f565b5b604051908082528060200260200182016040528015610d9f57816020015b610d8c6132da565b815260200190600190039081610d845790505b50905060005b84811015611071573373ffffffffffffffffffffffffffffffffffffffff16600b6000600184610dd59190614065565b815260200190815260200160002060020160009054906101000a900473ffffffffffffffffffffffffffffffffffffffff1673ffffffffffffffffffffffffffffffffffffffff160361105e576000600182610e319190614065565b90506000600b600083815260200190815260200160002090508060405180610120016040529081600082015481526020016001820160009054906101000a900473ffffffffffffffffffffffffffffffffffffffff1673ffffffffffffffffffffffffffffffffffffffff1673ffffffffffffffffffffffffffffffffffffffff1681526020016002820160009054906101000a900473ffffffffffffffffffffffffffffffffffffffff1673ffffffffffffffffffffffffffffffffffffffff1673ffffffffffffffffffffffffffffffffffffffff168152602001600382018054610f1d90613ead565b80601f0160208091040260200160405190810160405280929190818152602001828054610f4990613ead565b8015610f965780601f10610f6b57610100808354040283529160200191610f96565b820191906000526020600020905b815481529060010190602001808311610f7957829003601f168201915b505050505081526020016004820154815260200160058201548152602001600682015481526020016007820160009054906101000a900473ffffffffffffffffffffffffffffffffffffffff1673ffffffffffffffffffffffffffffffffffffffff1673ffffffffffffffffffffffffffffffffffffffff1681526020016007820160149054906101000a900460ff16151515158152505084868151811061104157611040614099565b5b60200260200101819052506001856110599190614065565b945050505b8080611069906140c8565b915050610da5565b508094505050505090565b61108d6110876121b5565b82612284565b6110cc576040517f08c379a00000000000000000000000000000000000000000000000000000000081526004016110c390614182565b60405180910390fd5b6110d7838383612319565b505050565b606082826040516020016110f192919061422a565b604051602081830303815290604052905092915050565b6000600b60008381526020019081526020016000206004015490506000604051806060016040528060408152602001614d81604091399050813410156111568261115185612612565b6110dc565b90611197576040517f08c379a000000000000000000000000000000000000000000000000000000000815260040161118e91906134c9565b60405180910390fd5b5033600b600085815260200190815260200160002060020160006101000a81548173ffffffffffffffffffffffffffffffffffffffff021916908373ffffffffffffffffffffffffffffffffffffffff1602179055506001600b600085815260200190815260200160002060070160146101000a81548160ff0219169083151502179055506000600b600085815260200190815260200160002060010160006101000a81548173ffffffffffffffffffffffffffffffffffffffff021916908373ffffffffffffffffffffffffffffffffffffffff16021790555061127c60086126e0565b611287303385612319565b600a60009054906101000a900473ffffffffffffffffffffffffffffffffffffffff1673ffffffffffffffffffffffffffffffffffffffff166108fc349081150290604051600060405180830381858888f193505050501580156112ef573d6000803e3d6000fd5b50505050565b60006064600a600b60008581526020019081526020016000206004015461131c9190614259565b61132691906142ca565b90508034101561136b576040517f08c379a00000000000000000000000000000000000000000000000000000000081526004016113629061436d565b60405180910390fd5b600034905080600b600085815260200190815260200160002060060160008282546113969190614065565b92505081905550600b600084815260200190815260200160002060040154600b600085815260200190815260200160002060060154106114c05733600b600085815260200190815260200160002060020160006101000a81548173ffffffffffffffffffffffffffffffffffffffff021916908373ffffffffffffffffffffffffffffffffffffffff1602179055506001600b600085815260200190815260200160002060070160146101000a81548160ff0219169083151502179055506000600b600085815260200190815260200160002060010160006101000a81548173ffffffffffffffffffffffffffffffffffffffff021916908373ffffffffffffffffffffffffffffffffffffffff1602179055506114b460086126e0565b6114bf303385612319565b5b600a60009054906101000a900473ffffffffffffffffffffffffffffffffffffffff1673ffffffffffffffffffffffffffffffffffffffff166108fc349081150290604051600060405180830381858888f19350505050158015611528573d6000803e3d6000fd5b50505050565b61154983838360405180602001604052806000815250611ade565b505050565b60008061155a836126f6565b9050600073ffffffffffffffffffffffffffffffffffffffff168173ffffffffffffffffffffffffffffffffffffffff16036115cb576040517f08c379a00000000000000000000000000000000000000000000000000000000081526004016115c2906143d9565b60405180910390fd5b80915050919050565b60008073ffffffffffffffffffffffffffffffffffffffff168273ffffffffffffffffffffffffffffffffffffffff1603611644576040517f08c379a000000000000000000000000000000000000000000000000000000000815260040161163b9061446b565b60405180910390fd5b600360008373ffffffffffffffffffffffffffffffffffffffff1673ffffffffffffffffffffffffffffffffffffffff168152602001908152602001600020549050919050565b6116936132da565b600061169f6007612276565b90506116a96132da565b60005b8281101561199157611768600b60006001846116c89190614065565b815260200190815260200160002060030180546116e490613ead565b80601f016020809104026020016040519081016040528092919081815260200182805461171090613ead565b801561175d5780601f106117325761010080835404028352916020019161175d565b820191906000526020600020905b81548152906001019060200180831161174057829003601f168201915b505050505086611cf9565b1561197e57600060018261177c9190614065565b90506000600b600083815260200190815260200160002090508060405180610120016040529081600082015481526020016001820160009054906101000a900473ffffffffffffffffffffffffffffffffffffffff1673ffffffffffffffffffffffffffffffffffffffff1673ffffffffffffffffffffffffffffffffffffffff1681526020016002820160009054906101000a900473ffffffffffffffffffffffffffffffffffffffff1673ffffffffffffffffffffffffffffffffffffffff1673ffffffffffffffffffffffffffffffffffffffff16815260200160038201805461186890613ead565b80601f016020809104026020016040519081016040528092919081815260200182805461189490613ead565b80156118e15780601f106118b6576101008083540402835291602001916118e1565b820191906000526020600020905b8154815290600101906020018083116118c457829003601f168201915b505050505081526020016004820154815260200160058201548152602001600682015481526020016007820160009054906101000a900473ffffffffffffffffffffffffffffffffffffffff1673ffffffffffffffffffffffffffffffffffffffff1673ffffffffffffffffffffffffffffffffffffffff1681526020016007820160149054906101000a900460ff161515151581525050935050505b8080611989906140c8565b9150506116ac565b508092505050919050565b6060600180546119ab90613ead565b80601f01602080910402602001604051908101604052809291908181526020018280546119d790613ead565b8015611a245780601f106119f957610100808354040283529160200191611a24565b820191906000526020600020905b815481529060010190602001808311611a0757829003601f168201915b5050505050905090565b611a40611a396121b5565b8383612733565b5050565b3373ffffffffffffffffffffffffffffffffffffffff16600a60009054906101000a900473ffffffffffffffffffffffffffffffffffffffff1673ffffffffffffffffffffffffffffffffffffffff1614611ad4576040517f08c379a0000000000000000000000000000000000000000000000000000000008152600401611acb906144fd565b60405180910390fd5b8060098190555050565b611aef611ae96121b5565b83612284565b611b2e576040517f08c379a0000000000000000000000000000000000000000000000000000000008152600401611b2590614182565b60405180910390fd5b611b3a8484848461289f565b50505050565b6000600b6000838152602001908152602001600020600501549050803414611b9d576040517f08c379a0000000000000000000000000000000000000000000000000000000008152600401611b949061436d565b60405180910390fd5b33600b600084815260200190815260200160002060020160006101000a81548173ffffffffffffffffffffffffffffffffffffffff021916908373ffffffffffffffffffffffffffffffffffffffff1602179055506001600b600084815260200190815260200160002060070160146101000a81548160ff0219169083151502179055506000600b600084815260200190815260200160002060010160006101000a81548173ffffffffffffffffffffffffffffffffffffffff021916908373ffffffffffffffffffffffffffffffffffffffff160217905550611c8160086126e0565b611c8c303384612319565b600a60009054906101000a900473ffffffffffffffffffffffffffffffffffffffff1673ffffffffffffffffffffffffffffffffffffffff166108fc349081150290604051600060405180830381858888f19350505050158015611cf4573d6000803e3d6000fd5b505050565b600081604051602001611d0c919061451d565b6040516020818303038152906040528051906020012083604051602001611d33919061451d565b6040516020818303038152906040528051906020012014905092915050565b6060611d5d8261216a565b6000600660008481526020019081526020016000208054611d7d90613ead565b80601f0160208091040260200160405190810160405280929190818152602001828054611da990613ead565b8015611df65780601f10611dcb57610100808354040283529160200191611df6565b820191906000526020600020905b815481529060010190602001808311611dd957829003601f168201915b505050505090506000611e076128fb565b90506000815103611e1c578192505050611e5f565b600082511115611e51578082604051602001611e39929190614534565b60405160208183030381529060405292505050611e5f565b611e5a84612912565b925050505b919050565b600034905080600b60008481526020019081526020016000206006016000828254611e8f9190614065565b92505081905550600b600083815260200190815260200160002060040154600b60008481526020019081526020016000206006015410611fb95733600b600084815260200190815260200160002060020160006101000a81548173ffffffffffffffffffffffffffffffffffffffff021916908373ffffffffffffffffffffffffffffffffffffffff1602179055506001600b600084815260200190815260200160002060070160146101000a81548160ff0219169083151502179055506000600b600084815260200190815260200160002060010160006101000a81548173ffffffffffffffffffffffffffffffffffffffff021916908373ffffffffffffffffffffffffffffffffffffffff160217905550611fad60086126e0565b611fb8303384612319565b5b600a60009054906101000a900473ffffffffffffffffffffffffffffffffffffffff1673ffffffffffffffffffffffffffffffffffffffff166108fc349081150290604051600060405180830381858888f19350505050158015612021573d6000803e3d6000fd5b505050565b6000600560008473ffffffffffffffffffffffffffffffffffffffff1673ffffffffffffffffffffffffffffffffffffffff16815260200190815260200160002060008373ffffffffffffffffffffffffffffffffffffffff1673ffffffffffffffffffffffffffffffffffffffff16815260200190815260200160002060009054906101000a900460ff16905092915050565b60006120c660076126e0565b60006120d26007612276565b90506120de338261297a565b6120e88187612b97565b6120f481868686612c04565b80915050949350505050565b60007f01ffc9a7000000000000000000000000000000000000000000000000000000007bffffffffffffffffffffffffffffffffffffffffffffffffffffffff1916827bffffffffffffffffffffffffffffffffffffffffffffffffffffffff1916149050919050565b61217381612e70565b6121b2576040517f08c379a00000000000000000000000000000000000000000000000000000000081526004016121a9906143d9565b60405180910390fd5b50565b600033905090565b816004600083815260200190815260200160002060006101000a81548173ffffffffffffffffffffffffffffffffffffffff021916908373ffffffffffffffffffffffffffffffffffffffff160217905550808273ffffffffffffffffffffffffffffffffffffffff166122308361154e565b73ffffffffffffffffffffffffffffffffffffffff167f8c5be1e5ebec7d5bd14f71427d1e84f3dd0314c0f7b2291e5b200ac8c7c3b92560405160405180910390a45050565b600081600001549050919050565b6000806122908361154e565b90508073ffffffffffffffffffffffffffffffffffffffff168473ffffffffffffffffffffffffffffffffffffffff1614806122d257506122d18185612026565b5b8061231057508373ffffffffffffffffffffffffffffffffffffffff166122f8846107a8565b73ffffffffffffffffffffffffffffffffffffffff16145b91505092915050565b8273ffffffffffffffffffffffffffffffffffffffff166123398261154e565b73ffffffffffffffffffffffffffffffffffffffff161461238f576040517f08c379a0000000000000000000000000000000000000000000000000000000008152600401612386906145ca565b60405180910390fd5b600073ffffffffffffffffffffffffffffffffffffffff168273ffffffffffffffffffffffffffffffffffffffff16036123fe576040517f08c379a00000000000000000000000000000000000000000000000000000000081526004016123f59061465c565b60405180910390fd5b61240b8383836001612eb1565b8273ffffffffffffffffffffffffffffffffffffffff1661242b8261154e565b73ffffffffffffffffffffffffffffffffffffffff1614612481576040517f08c379a0000000000000000000000000000000000000000000000000000000008152600401612478906145ca565b60405180910390fd5b6004600082815260200190815260200160002060006101000a81549073ffffffffffffffffffffffffffffffffffffffff02191690556001600360008573ffffffffffffffffffffffffffffffffffffffff1673ffffffffffffffffffffffffffffffffffffffff168152602001908152602001600020600082825403925050819055506001600360008473ffffffffffffffffffffffffffffffffffffffff1673ffffffffffffffffffffffffffffffffffffffff16815260200190815260200160002060008282540192505081905550816002600083815260200190815260200160002060006101000a81548173ffffffffffffffffffffffffffffffffffffffff021916908373ffffffffffffffffffffffffffffffffffffffff160217905550808273ffffffffffffffffffffffffffffffffffffffff168473ffffffffffffffffffffffffffffffffffffffff167fddf252ad1be2c89b69c2b068fc378daa952ba7f163c4a11628f55a4df523b3ef60405160405180910390a461260d8383836001612fd7565b505050565b60606000600161262184612fdd565b01905060008167ffffffffffffffff8111156126405761263f61390f565b5b6040519080825280601f01601f1916602001820160405280156126725781602001600182028036833780820191505090505b509050600082602001820190505b6001156126d5578080600190039150507f3031323334353637383961626364656600000000000000000000000000000000600a86061a8153600a85816126c9576126c861429b565b5b04945060008503612680575b819350505050919050565b6001816000016000828254019250508190555050565b60006002600083815260200190815260200160002060009054906101000a900473ffffffffffffffffffffffffffffffffffffffff169050919050565b8173ffffffffffffffffffffffffffffffffffffffff168373ffffffffffffffffffffffffffffffffffffffff16036127a1576040517f08c379a0000000000000000000000000000000000000000000000000000000008152600401612798906146c8565b60405180910390fd5b80600560008573ffffffffffffffffffffffffffffffffffffffff1673ffffffffffffffffffffffffffffffffffffffff16815260200190815260200160002060008473ffffffffffffffffffffffffffffffffffffffff1673ffffffffffffffffffffffffffffffffffffffff16815260200190815260200160002060006101000a81548160ff0219169083151502179055508173ffffffffffffffffffffffffffffffffffffffff168373ffffffffffffffffffffffffffffffffffffffff167f17307eab39ab6107e8899845ad3d59bd9653f200f220920489ca2b5937696c3183604051612892919061341e565b60405180910390a3505050565b6128aa848484612319565b6128b684848484613130565b6128f5576040517f08c379a00000000000000000000000000000000000000000000000000000000081526004016128ec9061475a565b60405180910390fd5b50505050565b606060405180602001604052806000815250905090565b606061291d8261216a565b60006129276128fb565b905060008151116129475760405180602001604052806000815250612972565b8061295184612612565b604051602001612962929190614534565b6040516020818303038152906040525b915050919050565b600073ffffffffffffffffffffffffffffffffffffffff168273ffffffffffffffffffffffffffffffffffffffff16036129e9576040517f08c379a00000000000000000000000000000000000000000000000000000000081526004016129e0906147c6565b60405180910390fd5b6129f281612e70565b15612a32576040517f08c379a0000000000000000000000000000000000000000000000000000000008152600401612a2990614832565b60405180910390fd5b612a40600083836001612eb1565b612a4981612e70565b15612a89576040517f08c379a0000000000000000000000000000000000000000000000000000000008152600401612a8090614832565b60405180910390fd5b6001600360008473ffffffffffffffffffffffffffffffffffffffff1673ffffffffffffffffffffffffffffffffffffffff16815260200190815260200160002060008282540192505081905550816002600083815260200190815260200160002060006101000a81548173ffffffffffffffffffffffffffffffffffffffff021916908373ffffffffffffffffffffffffffffffffffffffff160217905550808273ffffffffffffffffffffffffffffffffffffffff16600073ffffffffffffffffffffffffffffffffffffffff167fddf252ad1be2c89b69c2b068fc378daa952ba7f163c4a11628f55a4df523b3ef60405160405180910390a4612b93600083836001612fd7565b5050565b612ba082612e70565b612bdf576040517f08c379a0000000000000000000000000000000000000000000000000000000008152600401612bd6906148c4565b60405180910390fd5b80600660008481526020019081526020016000209081612bff9190614a90565b505050565b60008311612c47576040517f08c379a0000000000000000000000000000000000000000000000000000000008152600401612c3e90614bae565b60405180910390fd5b6040518061012001604052808581526020013373ffffffffffffffffffffffffffffffffffffffff1681526020013073ffffffffffffffffffffffffffffffffffffffff168152602001838152602001848152602001828152602001600081526020013073ffffffffffffffffffffffffffffffffffffffff16815260200160001515815250600b60008681526020019081526020016000206000820151816000015560208201518160010160006101000a81548173ffffffffffffffffffffffffffffffffffffffff021916908373ffffffffffffffffffffffffffffffffffffffff16021790555060408201518160020160006101000a81548173ffffffffffffffffffffffffffffffffffffffff021916908373ffffffffffffffffffffffffffffffffffffffff1602179055506060820151816003019081612d8d9190614a90565b506080820151816004015560a0820151816005015560c0820151816006015560e08201518160070160006101000a81548173ffffffffffffffffffffffffffffffffffffffff021916908373ffffffffffffffffffffffffffffffffffffffff1602179055506101008201518160070160146101000a81548160ff021916908315150217905550905050612e22333086612319565b837f458116734b59a1877680c1eff12465fdc98c13aaf438e5aa6bd6f6dcc8be006333308587866000306000604051612e62989796959493929190614c18565b60405180910390a250505050565b60008073ffffffffffffffffffffffffffffffffffffffff16612e92836126f6565b73ffffffffffffffffffffffffffffffffffffffff1614159050919050565b6001811115612fd157600073ffffffffffffffffffffffffffffffffffffffff168473ffffffffffffffffffffffffffffffffffffffff1614612f455780600360008673ffffffffffffffffffffffffffffffffffffffff1673ffffffffffffffffffffffffffffffffffffffff1681526020019081526020016000206000828254612f3d9190614031565b925050819055505b600073ffffffffffffffffffffffffffffffffffffffff168373ffffffffffffffffffffffffffffffffffffffff1614612fd05780600360008573ffffffffffffffffffffffffffffffffffffffff1673ffffffffffffffffffffffffffffffffffffffff1681526020019081526020016000206000828254612fc89190614065565b925050819055505b5b50505050565b50505050565b600080600090507a184f03e93ff9f4daa797ed6e38ed64bf6a1f010000000000000000831061303b577a184f03e93ff9f4daa797ed6e38ed64bf6a1f01000000000000000083816130315761303061429b565b5b0492506040810190505b6d04ee2d6d415b85acef81000000008310613078576d04ee2d6d415b85acef8100000000838161306e5761306d61429b565b5b0492506020810190505b662386f26fc1000083106130a757662386f26fc10000838161309d5761309c61429b565b5b0492506010810190505b6305f5e10083106130d0576305f5e10083816130c6576130c561429b565b5b0492506008810190505b61271083106130f55761271083816130eb576130ea61429b565b5b0492506004810190505b60648310613118576064838161310e5761310d61429b565b5b0492506002810190505b600a8310613127576001810190505b80915050919050565b60006131518473ffffffffffffffffffffffffffffffffffffffff166132b7565b156132aa578373ffffffffffffffffffffffffffffffffffffffff1663150b7a0261317a6121b5565b8786866040518563ffffffff1660e01b815260040161319c9493929190614cf2565b6020604051808303816000875af19250505080156131d857506040513d601f19601f820116820180604052508101906131d59190614d53565b60015b61325a573d8060008114613208576040519150601f19603f3d011682016040523d82523d6000602084013e61320d565b606091505b506000815103613252576040517f08c379a00000000000000000000000000000000000000000000000000000000081526004016132499061475a565b60405180910390fd5b805181602001fd5b63150b7a0260e01b7bffffffffffffffffffffffffffffffffffffffffffffffffffffffff1916817bffffffffffffffffffffffffffffffffffffffffffffffffffffffff1916149150506132af565b600190505b949350505050565b6000808273ffffffffffffffffffffffffffffffffffffffff163b119050919050565b60405180610120016040528060008152602001600073ffffffffffffffffffffffffffffffffffffffff168152602001600073ffffffffffffffffffffffffffffffffffffffff16815260200160608152602001600081526020016000815260200160008152602001600073ffffffffffffffffffffffffffffffffffffffff1681526020016000151581525090565b6000604051905090565b600080fd5b600080fd5b60007fffffffff0000000000000000000000000000000000000000000000000000000082169050919050565b6133b38161337e565b81146133be57600080fd5b50565b6000813590506133d0816133aa565b92915050565b6000602082840312156133ec576133eb613374565b5b60006133fa848285016133c1565b91505092915050565b60008115159050919050565b61341881613403565b82525050565b6000602082019050613433600083018461340f565b92915050565b600081519050919050565b600082825260208201905092915050565b60005b83811015613473578082015181840152602081019050613458565b60008484015250505050565b6000601f19601f8301169050919050565b600061349b82613439565b6134a58185613444565b93506134b5818560208601613455565b6134be8161347f565b840191505092915050565b600060208201905081810360008301526134e38184613490565b905092915050565b6000819050919050565b6134fe816134eb565b811461350957600080fd5b50565b60008135905061351b816134f5565b92915050565b60006020828403121561353757613536613374565b5b60006135458482850161350c565b91505092915050565b600073ffffffffffffffffffffffffffffffffffffffff82169050919050565b60006135798261354e565b9050919050565b6135898161356e565b82525050565b60006020820190506135a46000830184613580565b92915050565b6135b38161356e565b81146135be57600080fd5b50565b6000813590506135d0816135aa565b92915050565b600080604083850312156135ed576135ec613374565b5b60006135fb858286016135c1565b925050602061360c8582860161350c565b9150509250929050565b600081519050919050565b600082825260208201905092915050565b6000819050602082019050919050565b61364b816134eb565b82525050565b600061365c8261354e565b9050919050565b61366c81613651565b82525050565b600082825260208201905092915050565b600061368e82613439565b6136988185613672565b93506136a8818560208601613455565b6136b18161347f565b840191505092915050565b6136c581613403565b82525050565b6000610120830160008301516136e46000860182613642565b5060208301516136f76020860182613663565b50604083015161370a6040860182613663565b50606083015184820360608601526137228282613683565b91505060808301516137376080860182613642565b5060a083015161374a60a0860182613642565b5060c083015161375d60c0860182613642565b5060e083015161377060e0860182613663565b506101008301516137856101008601826136bc565b508091505092915050565b600061379c83836136cb565b905092915050565b6000602082019050919050565b60006137bc82613616565b6137c68185613621565b9350836020820285016137d885613632565b8060005b8581101561381457848403895281516137f58582613790565b9450613800836137a4565b925060208a019950506001810190506137dc565b50829750879550505050505092915050565b6000602082019050818103600083015261384081846137b1565b905092915050565b613851816134eb565b82525050565b600060208201905061386c6000830184613848565b92915050565b6000806040838503121561388957613888613374565b5b60006138978582860161350c565b92505060206138a88582860161350c565b9150509250929050565b6000806000606084860312156138cb576138ca613374565b5b60006138d9868287016135c1565b93505060206138ea868287016135c1565b92505060406138fb8682870161350c565b9150509250925092565b600080fd5b600080fd5b7f4e487b7100000000000000000000000000000000000000000000000000000000600052604160045260246000fd5b6139478261347f565b810181811067ffffffffffffffff821117156139665761396561390f565b5b80604052505050565b600061397961336a565b9050613985828261393e565b919050565b600067ffffffffffffffff8211156139a5576139a461390f565b5b6139ae8261347f565b9050602081019050919050565b82818337600083830152505050565b60006139dd6139d88461398a565b61396f565b9050828152602081018484840111156139f9576139f861390a565b5b613a048482856139bb565b509392505050565b600082601f830112613a2157613a20613905565b5b8135613a318482602086016139ca565b91505092915050565b60008060408385031215613a5157613a50613374565b5b600083013567ffffffffffffffff811115613a6f57613a6e613379565b5b613a7b85828601613a0c565b925050602083013567ffffffffffffffff811115613a9c57613a9b613379565b5b613aa885828601613a0c565b9150509250929050565b600060208284031215613ac857613ac7613374565b5b6000613ad6848285016135c1565b91505092915050565b600060208284031215613af557613af4613374565b5b600082013567ffffffffffffffff811115613b1357613b12613379565b5b613b1f84828501613a0c565b91505092915050565b600061012083016000830151613b416000860182613642565b506020830151613b546020860182613663565b506040830151613b676040860182613663565b5060608301518482036060860152613b7f8282613683565b9150506080830151613b946080860182613642565b5060a0830151613ba760a0860182613642565b5060c0830151613bba60c0860182613642565b5060e0830151613bcd60e0860182613663565b50610100830151613be26101008601826136bc565b508091505092915050565b60006020820190508181036000830152613c078184613b28565b905092915050565b613c1881613403565b8114613c2357600080fd5b50565b600081359050613c3581613c0f565b92915050565b60008060408385031215613c5257613c51613374565b5b6000613c60858286016135c1565b9250506020613c7185828601613c26565b9150509250929050565b600067ffffffffffffffff821115613c9657613c9561390f565b5b613c9f8261347f565b9050602081019050919050565b6000613cbf613cba84613c7b565b61396f565b905082815260208101848484011115613cdb57613cda61390a565b5b613ce68482856139bb565b509392505050565b600082601f830112613d0357613d02613905565b5b8135613d13848260208601613cac565b91505092915050565b60008060008060808587031215613d3657613d35613374565b5b6000613d44878288016135c1565b9450506020613d55878288016135c1565b9350506040613d668782880161350c565b925050606085013567ffffffffffffffff811115613d8757613d86613379565b5b613d9387828801613cee565b91505092959194509250565b60008060408385031215613db657613db5613374565b5b6000613dc4858286016135c1565b9250506020613dd5858286016135c1565b9150509250929050565b60008060008060808587031215613df957613df8613374565b5b600085013567ffffffffffffffff811115613e1757613e16613379565b5b613e2387828801613a0c565b9450506020613e348782880161350c565b935050604085013567ffffffffffffffff811115613e5557613e54613379565b5b613e6187828801613a0c565b9250506060613e728782880161350c565b91505092959194509250565b7f4e487b7100000000000000000000000000000000000000000000000000000000600052602260045260246000fd5b60006002820490506001821680613ec557607f821691505b602082108103613ed857613ed7613e7e565b5b50919050565b7f4552433732313a20617070726f76616c20746f2063757272656e74206f776e6560008201527f7200000000000000000000000000000000000000000000000000000000000000602082015250565b6000613f3a602183613444565b9150613f4582613ede565b604082019050919050565b60006020820190508181036000830152613f6981613f2d565b9050919050565b7f4552433732313a20617070726f76652063616c6c6572206973206e6f7420746f60008201527f6b656e206f776e6572206f7220617070726f76656420666f7220616c6c000000602082015250565b6000613fcc603d83613444565b9150613fd782613f70565b604082019050919050565b60006020820190508181036000830152613ffb81613fbf565b9050919050565b7f4e487b7100000000000000000000000000000000000000000000000000000000600052601160045260246000fd5b600061403c826134eb565b9150614047836134eb565b925082820390508181111561405f5761405e614002565b5b92915050565b6000614070826134eb565b915061407b836134eb565b925082820190508082111561409357614092614002565b5b92915050565b7f4e487b7100000000000000000000000000000000000000000000000000000000600052603260045260246000fd5b60006140d3826134eb565b91507fffffffffffffffffffffffffffffffffffffffffffffffffffffffffffffffff820361410557614104614002565b5b600182019050919050565b7f4552433732313a2063616c6c6572206973206e6f7420746f6b656e206f776e6560008201527f72206f7220617070726f76656400000000000000000000000000000000000000602082015250565b600061416c602d83613444565b915061417782614110565b604082019050919050565b6000602082019050818103600083015261419b8161415f565b9050919050565b600081905092915050565b60006141b882613439565b6141c281856141a2565b93506141d2818560208601613455565b80840191505092915050565b7f2000000000000000000000000000000000000000000000000000000000000000600082015250565b60006142146001836141a2565b915061421f826141de565b600182019050919050565b600061423682856141ad565b915061424182614207565b915061424d82846141ad565b91508190509392505050565b6000614264826134eb565b915061426f836134eb565b925082820261427d816134eb565b9150828204841483151761429457614293614002565b5b5092915050565b7f4e487b7100000000000000000000000000000000000000000000000000000000600052601260045260246000fd5b60006142d5826134eb565b91506142e0836134eb565b9250826142f0576142ef61429b565b5b828204905092915050565b7f506c6561736520706179207468652066756c6c20616d6f756e7420696e206f7260008201527f64657220746f20636f6d706c65746520746865207472616e73616374696f6e21602082015250565b6000614357604083613444565b9150614362826142fb565b604082019050919050565b600060208201905081810360008301526143868161434a565b9050919050565b7f4552433732313a20696e76616c696420746f6b656e2049440000000000000000600082015250565b60006143c3601883613444565b91506143ce8261438d565b602082019050919050565b600060208201905081810360008301526143f2816143b6565b9050919050565b7f4552433732313a2061646472657373207a65726f206973206e6f74206120766160008201527f6c6964206f776e65720000000000000000000000000000000000000000000000602082015250565b6000614455602983613444565b9150614460826143f9565b604082019050919050565b6000602082019050818103600083015261448481614448565b9050919050565b7f4f6e6c79206d61726b6574706c616365206f776e65722063616e20757064617460008201527f65206c697374696e672070726963652e00000000000000000000000000000000602082015250565b60006144e7603083613444565b91506144f28261448b565b604082019050919050565b60006020820190508181036000830152614516816144da565b9050919050565b600061452982846141ad565b915081905092915050565b600061454082856141ad565b915061454c82846141ad565b91508190509392505050565b7f4552433732313a207472616e736665722066726f6d20696e636f72726563742060008201527f6f776e6572000000000000000000000000000000000000000000000000000000602082015250565b60006145b4602583613444565b91506145bf82614558565b604082019050919050565b600060208201905081810360008301526145e3816145a7565b9050919050565b7f4552433732313a207472616e7366657220746f20746865207a65726f2061646460008201527f7265737300000000000000000000000000000000000000000000000000000000602082015250565b6000614646602483613444565b9150614651826145ea565b604082019050919050565b6000602082019050818103600083015261467581614639565b9050919050565b7f4552433732313a20617070726f766520746f2063616c6c657200000000000000600082015250565b60006146b2601983613444565b91506146bd8261467c565b602082019050919050565b600060208201905081810360008301526146e1816146a5565b9050919050565b7f4552433732313a207472616e7366657220746f206e6f6e20455243373231526560008201527f63656976657220696d706c656d656e7465720000000000000000000000000000602082015250565b6000614744603283613444565b915061474f826146e8565b604082019050919050565b6000602082019050818103600083015261477381614737565b9050919050565b7f4552433732313a206d696e7420746f20746865207a65726f2061646472657373600082015250565b60006147b0602083613444565b91506147bb8261477a565b602082019050919050565b600060208201905081810360008301526147df816147a3565b9050919050565b7f4552433732313a20746f6b656e20616c7265616479206d696e74656400000000600082015250565b600061481c601c83613444565b9150614827826147e6565b602082019050919050565b6000602082019050818103600083015261484b8161480f565b9050919050565b7f45524337323155524953746f726167653a2055524920736574206f66206e6f6e60008201527f6578697374656e7420746f6b656e000000000000000000000000000000000000602082015250565b60006148ae602e83613444565b91506148b982614852565b604082019050919050565b600060208201905081810360008301526148dd816148a1565b9050919050565b60008190508160005260206000209050919050565b60006020601f8301049050919050565b600082821b905092915050565b6000600883026149467fffffffffffffffffffffffffffffffffffffffffffffffffffffffffffffffff82614909565b6149508683614909565b95508019841693508086168417925050509392505050565b6000819050919050565b600061498d614988614983846134eb565b614968565b6134eb565b9050919050565b6000819050919050565b6149a783614972565b6149bb6149b382614994565b848454614916565b825550505050565b600090565b6149d06149c3565b6149db81848461499e565b505050565b5b818110156149ff576149f46000826149c8565b6001810190506149e1565b5050565b601f821115614a4457614a15816148e4565b614a1e846148f9565b81016020851015614a2d578190505b614a41614a39856148f9565b8301826149e0565b50505b505050565b600082821c905092915050565b6000614a6760001984600802614a49565b1980831691505092915050565b6000614a808383614a56565b9150826002028217905092915050565b614a9982613439565b67ffffffffffffffff811115614ab257614ab161390f565b5b614abc8254613ead565b614ac7828285614a03565b600060209050601f831160018114614afa5760008415614ae8578287015190505b614af28582614a74565b865550614b5a565b601f198416614b08866148e4565b60005b82811015614b3057848901518255600182019150602085019450602081019050614b0b565b86831015614b4d5784890151614b49601f891682614a56565b8355505b6001600288020188555050505b505050505050565b7f5072696365206d757374206265206174206c6561737420312077656900000000600082015250565b6000614b98601c83613444565b9150614ba382614b62565b602082019050919050565b60006020820190508181036000830152614bc781614b8b565b9050919050565b6000819050919050565b6000614bf3614bee614be984614bce565b614968565b6134eb565b9050919050565b614c0381614bd8565b82525050565b614c1281613651565b82525050565b600061010082019050614c2e600083018b613580565b614c3b602083018a613580565b8181036040830152614c4d8189613490565b9050614c5c6060830188613848565b614c696080830187613848565b614c7660a0830186614bfa565b614c8360c0830185614c09565b614c9060e083018461340f565b9998505050505050505050565b600081519050919050565b600082825260208201905092915050565b6000614cc482614c9d565b614cce8185614ca8565b9350614cde818560208601613455565b614ce78161347f565b840191505092915050565b6000608082019050614d076000830187613580565b614d146020830186613580565b614d216040830185613848565b8181036060830152614d338184614cb9565b905095945050505050565b600081519050614d4d816133aa565b92915050565b600060208284031215614d6957614d68613374565b5b6000614d7784828501614d3e565b9150509291505056fe506c6561736520706179207468652066756c6c20616d6f756e7420696e206f7264657220746f20636f6d706c65746520746865207472616e73616374696f6e21a2646970667358221220e39c55b8578ebe4829f89e82c32d3e616e173cde5635328ea79af1e19acc8d1a64736f6c63430008110033",
  "linkReferences": {},
  "deployedLinkReferences": {}
}