{
  "_format": "hh-sol-artifact-1",
  "contractName": "NFTTicketSystem",
  "sourceName": "contracts/NFTTicketSystem.sol",
  "abi": [
    {
      "inputs": [],
      "stateMutability": "nonpayable",
      "type": "constructor"
    },
    {
      "anonymous": false,
      "inputs": [
        {
          "indexed": true,
          "internalType": "address",
          "name": "owner",
          "type": "address"
        },
        {
          "indexed": true,
          "internalType": "address",
          "name": "approved",
          "type": "address"
        },
        {
          "indexed": true,
          "internalType": "uint256",
          "name": "tokenId",
          "type": "uint256"
        }
      ],
      "name": "Approval",
      "type": "event"
    },
    {
      "anonymous": false,
      "inputs": [
        {
          "indexed": true,
          "internalType": "address",
          "name": "owner",
          "type": "address"
        },
        {
          "indexed": true,
          "internalType": "address",
          "name": "operator",
          "type": "address"
        },
        {
          "indexed": false,
          "internalType": "bool",
          "name": "approved",
          "type": "bool"
        }
      ],
      "name": "ApprovalForAll",
      "type": "event"
    },
    {
      "anonymous": false,
      "inputs": [
        {
          "indexed": true,
          "internalType": "uint256",
          "name": "tokenId",
          "type": "uint256"
        },
        {
          "indexed": false,
          "internalType": "address",
          "name": "seller",
          "type": "address"
        },
        {
          "indexed": false,
          "internalType": "address",
          "name": "owner",
          "type": "address"
        },
        {
          "indexed": false,
          "internalType": "string",
          "name": "tourName",
          "type": "string"
        },
        {
          "indexed": false,
          "internalType": "uint256",
          "name": "price",
          "type": "uint256"
        },
        {
          "indexed": false,
          "internalType": "bool",
          "name": "sold",
          "type": "bool"
        }
      ],
      "name": "MarketItemCreated",
      "type": "event"
    },
    {
      "anonymous": false,
      "inputs": [
        {
          "indexed": true,
          "internalType": "address",
          "name": "from",
          "type": "address"
        },
        {
          "indexed": true,
          "internalType": "address",
          "name": "to",
          "type": "address"
        },
        {
          "indexed": true,
          "internalType": "uint256",
          "name": "tokenId",
          "type": "uint256"
        }
      ],
      "name": "Transfer",
      "type": "event"
    },
    {
      "inputs": [
        {
          "internalType": "address",
          "name": "to",
          "type": "address"
        },
        {
          "internalType": "uint256",
          "name": "tokenId",
          "type": "uint256"
        }
      ],
      "name": "approve",
      "outputs": [],
      "stateMutability": "nonpayable",
      "type": "function"
    },
    {
      "inputs": [
        {
          "internalType": "address",
          "name": "owner",
          "type": "address"
        }
      ],
      "name": "balanceOf",
      "outputs": [
        {
          "internalType": "uint256",
          "name": "",
          "type": "uint256"
        }
      ],
      "stateMutability": "view",
      "type": "function"
    },
    {
      "inputs": [
        {
          "internalType": "string",
          "name": "a",
          "type": "string"
        },
        {
          "internalType": "string",
          "name": "b",
          "type": "string"
        }
      ],
      "name": "compareStrings",
      "outputs": [
        {
          "internalType": "bool",
          "name": "",
          "type": "bool"
        }
      ],
      "stateMutability": "view",
      "type": "function"
    },
    {
      "inputs": [
        {
          "internalType": "uint256",
          "name": "tokenId",
          "type": "uint256"
        }
      ],
      "name": "createMarketSale",
      "outputs": [],
      "stateMutability": "payable",
      "type": "function"
    },
    {
      "inputs": [
        {
          "internalType": "string",
          "name": "tokenURI",
          "type": "string"
        },
        {
          "internalType": "uint256",
          "name": "price",
          "type": "uint256"
        },
        {
          "internalType": "string",
          "name": "tourName",
          "type": "string"
        }
      ],
      "name": "createTokenNFT",
      "outputs": [
        {
          "internalType": "uint256",
          "name": "",
          "type": "uint256"
        }
      ],
      "stateMutability": "payable",
      "type": "function"
    },
    {
      "inputs": [],
      "name": "fetchItemsListed",
      "outputs": [
        {
          "components": [
            {
              "internalType": "uint256",
              "name": "tokenId",
              "type": "uint256"
            },
            {
              "internalType": "address payable",
              "name": "seller",
              "type": "address"
            },
            {
              "internalType": "address payable",
              "name": "owner",
              "type": "address"
            },
            {
              "internalType": "string",
              "name": "tourName",
              "type": "string"
            },
            {
              "internalType": "uint256",
              "name": "price",
              "type": "uint256"
            },
            {
              "internalType": "bool",
              "name": "sold",
              "type": "bool"
            }
          ],
          "internalType": "struct NFTTicketSystem.MarketItem[]",
          "name": "",
          "type": "tuple[]"
        }
      ],
      "stateMutability": "view",
      "type": "function"
    },
    {
      "inputs": [],
      "name": "fetchMarketItems",
      "outputs": [
        {
          "components": [
            {
              "internalType": "uint256",
              "name": "tokenId",
              "type": "uint256"
            },
            {
              "internalType": "address payable",
              "name": "seller",
              "type": "address"
            },
            {
              "internalType": "address payable",
              "name": "owner",
              "type": "address"
            },
            {
              "internalType": "string",
              "name": "tourName",
              "type": "string"
            },
            {
              "internalType": "uint256",
              "name": "price",
              "type": "uint256"
            },
            {
              "internalType": "bool",
              "name": "sold",
              "type": "bool"
            }
          ],
          "internalType": "struct NFTTicketSystem.MarketItem[]",
          "name": "",
          "type": "tuple[]"
        }
      ],
      "stateMutability": "view",
      "type": "function"
    },
    {
      "inputs": [],
      "name": "fetchMyNFTs",
      "outputs": [
        {
          "components": [
            {
              "internalType": "uint256",
              "name": "tokenId",
              "type": "uint256"
            },
            {
              "internalType": "address payable",
              "name": "seller",
              "type": "address"
            },
            {
              "internalType": "address payable",
              "name": "owner",
              "type": "address"
            },
            {
              "internalType": "string",
              "name": "tourName",
              "type": "string"
            },
            {
              "internalType": "uint256",
              "name": "price",
              "type": "uint256"
            },
            {
              "internalType": "bool",
              "name": "sold",
              "type": "bool"
            }
          ],
          "internalType": "struct NFTTicketSystem.MarketItem[]",
          "name": "",
          "type": "tuple[]"
        }
      ],
      "stateMutability": "view",
      "type": "function"
    },
    {
      "inputs": [
        {
          "internalType": "string",
          "name": "tourName",
          "type": "string"
        }
      ],
      "name": "fetchTourNFTs",
      "outputs": [
        {
          "components": [
            {
              "internalType": "uint256",
              "name": "tokenId",
              "type": "uint256"
            },
            {
              "internalType": "address payable",
              "name": "seller",
              "type": "address"
            },
            {
              "internalType": "address payable",
              "name": "owner",
              "type": "address"
            },
            {
              "internalType": "string",
              "name": "tourName",
              "type": "string"
            },
            {
              "internalType": "uint256",
              "name": "price",
              "type": "uint256"
            },
            {
              "internalType": "bool",
              "name": "sold",
              "type": "bool"
            }
          ],
          "internalType": "struct NFTTicketSystem.MarketItem[]",
          "name": "",
          "type": "tuple[]"
        }
      ],
      "stateMutability": "view",
      "type": "function"
    },
    {
      "inputs": [
        {
          "internalType": "uint256",
          "name": "tokenId",
          "type": "uint256"
        }
      ],
      "name": "getApproved",
      "outputs": [
        {
          "internalType": "address",
          "name": "",
          "type": "address"
        }
      ],
      "stateMutability": "view",
      "type": "function"
    },
    {
      "inputs": [],
      "name": "getListingPrice",
      "outputs": [
        {
          "internalType": "uint256",
          "name": "",
          "type": "uint256"
        }
      ],
      "stateMutability": "view",
      "type": "function"
    },
    {
      "inputs": [
        {
          "internalType": "address",
          "name": "owner",
          "type": "address"
        },
        {
          "internalType": "address",
          "name": "operator",
          "type": "address"
        }
      ],
      "name": "isApprovedForAll",
      "outputs": [
        {
          "internalType": "bool",
          "name": "",
          "type": "bool"
        }
      ],
      "stateMutability": "view",
      "type": "function"
    },
    {
      "inputs": [],
      "name": "name",
      "outputs": [
        {
          "internalType": "string",
          "name": "",
          "type": "string"
        }
      ],
      "stateMutability": "view",
      "type": "function"
    },
    {
      "inputs": [
        {
          "internalType": "uint256",
          "name": "tokenId",
          "type": "uint256"
        }
      ],
      "name": "ownerOf",
      "outputs": [
        {
          "internalType": "address",
          "name": "",
          "type": "address"
        }
      ],
      "stateMutability": "view",
      "type": "function"
    },
    {
      "inputs": [
        {
          "internalType": "address",
          "name": "from",
          "type": "address"
        },
        {
          "internalType": "address",
          "name": "to",
          "type": "address"
        },
        {
          "internalType": "uint256",
          "name": "tokenId",
          "type": "uint256"
        }
      ],
      "name": "safeTransferFrom",
      "outputs": [],
      "stateMutability": "nonpayable",
      "type": "function"
    },
    {
      "inputs": [
        {
          "internalType": "address",
          "name": "from",
          "type": "address"
        },
        {
          "internalType": "address",
          "name": "to",
          "type": "address"
        },
        {
          "internalType": "uint256",
          "name": "tokenId",
          "type": "uint256"
        },
        {
          "internalType": "bytes",
          "name": "data",
          "type": "bytes"
        }
      ],
      "name": "safeTransferFrom",
      "outputs": [],
      "stateMutability": "nonpayable",
      "type": "function"
    },
    {
      "inputs": [
        {
          "internalType": "address",
          "name": "operator",
          "type": "address"
        },
        {
          "internalType": "bool",
          "name": "approved",
          "type": "bool"
        }
      ],
      "name": "setApprovalForAll",
      "outputs": [],
      "stateMutability": "nonpayable",
      "type": "function"
    },
    {
      "inputs": [
        {
          "internalType": "bytes4",
          "name": "interfaceId",
          "type": "bytes4"
        }
      ],
      "name": "supportsInterface",
      "outputs": [
        {
          "internalType": "bool",
          "name": "",
          "type": "bool"
        }
      ],
      "stateMutability": "view",
      "type": "function"
    },
    {
      "inputs": [],
      "name": "symbol",
      "outputs": [
        {
          "internalType": "string",
          "name": "",
          "type": "string"
        }
      ],
      "stateMutability": "view",
      "type": "function"
    },
    {
      "inputs": [
        {
          "internalType": "uint256",
          "name": "tokenId",
          "type": "uint256"
        }
      ],
      "name": "tokenURI",
      "outputs": [
        {
          "internalType": "string",
          "name": "",
          "type": "string"
        }
      ],
      "stateMutability": "view",
      "type": "function"
    },
    {
      "inputs": [
        {
          "internalType": "address",
          "name": "from",
          "type": "address"
        },
        {
          "internalType": "address",
          "name": "to",
          "type": "address"
        },
        {
          "internalType": "uint256",
          "name": "tokenId",
          "type": "uint256"
        }
      ],
      "name": "transferFrom",
      "outputs": [],
      "stateMutability": "nonpayable",
      "type": "function"
    },
    {
      "inputs": [
        {
          "internalType": "uint256",
          "name": "_listingPrice",
          "type": "uint256"
        }
      ],
      "name": "updateListingPrice",
      "outputs": [],
      "stateMutability": "payable",
      "type": "function"
    }
  ],
  "bytecode": "0x60806040526658d15e176280006009553480156200001c57600080fd5b506040518060400160405280601081526020017f4d657461766572736520546f6b656e73000000000000000000000000000000008152506040518060400160405280600481526020017f4d4554540000000000000000000000000000000000000000000000000000000081525081600090816200009a919062000370565b508060019081620000ac919062000370565b50505033600a60006101000a81548173ffffffffffffffffffffffffffffffffffffffff021916908373ffffffffffffffffffffffffffffffffffffffff16021790555062000457565b600081519050919050565b7f4e487b7100000000000000000000000000000000000000000000000000000000600052604160045260246000fd5b7f4e487b7100000000000000000000000000000000000000000000000000000000600052602260045260246000fd5b600060028204905060018216806200017857607f821691505b6020821081036200018e576200018d62000130565b5b50919050565b60008190508160005260206000209050919050565b60006020601f8301049050919050565b600082821b905092915050565b600060088302620001f87fffffffffffffffffffffffffffffffffffffffffffffffffffffffffffffffff82620001b9565b620002048683620001b9565b95508019841693508086168417925050509392505050565b6000819050919050565b6000819050919050565b6000620002516200024b62000245846200021c565b62000226565b6200021c565b9050919050565b6000819050919050565b6200026d8362000230565b620002856200027c8262000258565b848454620001c6565b825550505050565b600090565b6200029c6200028d565b620002a981848462000262565b505050565b5b81811015620002d157620002c560008262000292565b600181019050620002af565b5050565b601f8211156200032057620002ea8162000194565b620002f584620001a9565b8101602085101562000305578190505b6200031d6200031485620001a9565b830182620002ae565b50505b505050565b600082821c905092915050565b6000620003456000198460080262000325565b1980831691505092915050565b600062000360838362000332565b9150826002028217905092915050565b6200037b82620000f6565b67ffffffffffffffff81111562000397576200039662000101565b5b620003a382546200015f565b620003b0828285620002d5565b600060209050601f831160018114620003e85760008415620003d3578287015190505b620003df858262000352565b8655506200044f565b601f198416620003f88662000194565b60005b828110156200042257848901518255600182019150602085019450602081019050620003fb565b868310156200044257848901516200043e601f89168262000332565b8355505b6001600288020188555050505b505050505050565b6146b180620004676000396000f3fe6080604052600436106101355760003560e01c806370a08231116100ab578063be9af5361161006f578063be9af53614610419578063bed34bba14610435578063c5a9110314610472578063c87b56dd146104a2578063c9026b8b146104df578063e985e9c51461051c57610135565b806370a082311461034357806395d89b4114610380578063a22cb465146103ab578063ae677aa3146103d4578063b88d4fde146103f057610135565b806312e85585116100fd57806312e8558514610233578063202e37401461025e57806323b872dd1461028957806342842e0e146102b257806345f8fa80146102db5780636352211e1461030657610135565b806301ffc9a71461013a57806306fdde0314610177578063081812fc146101a2578063095ea7b3146101df5780630f08efe014610208575b600080fd5b34801561014657600080fd5b50610161600480360381019061015c9190612fab565b610559565b60405161016e9190612ff3565b60405180910390f35b34801561018357600080fd5b5061018c61063b565b604051610199919061309e565b60405180910390f35b3480156101ae57600080fd5b506101c960048036038101906101c491906130f6565b6106cd565b6040516101d69190613164565b60405180910390f35b3480156101eb57600080fd5b50610206600480360381019061020191906131ab565b610713565b005b34801561021457600080fd5b5061021d61082a565b60405161022a91906133bf565b60405180910390f35b34801561023f57600080fd5b50610248610b24565b60405161025591906133f0565b60405180910390f35b34801561026a57600080fd5b50610273610b2e565b60405161028091906133bf565b60405180910390f35b34801561029557600080fd5b506102b060048036038101906102ab919061340b565b610eac565b005b3480156102be57600080fd5b506102d960048036038101906102d4919061340b565b610f0c565b005b3480156102e757600080fd5b506102f0610f2c565b6040516102fd91906133bf565b60405180910390f35b34801561031257600080fd5b5061032d600480360381019061032891906130f6565b6112aa565b60405161033a9190613164565b60405180910390f35b34801561034f57600080fd5b5061036a6004803603810190610365919061345e565b611330565b60405161037791906133f0565b60405180910390f35b34801561038c57600080fd5b506103956113e7565b6040516103a2919061309e565b60405180910390f35b3480156103b757600080fd5b506103d260048036038101906103cd91906134b7565b611479565b005b6103ee60048036038101906103e991906130f6565b61148f565b005b3480156103fc57600080fd5b506104176004803603810190610412919061362c565b611529565b005b610433600480360381019061042e91906130f6565b61158b565b005b34801561044157600080fd5b5061045c60048036038101906104579190613750565b611744565b6040516104699190612ff3565b60405180910390f35b61048c600480360381019061048791906137c8565b61179d565b60405161049991906133f0565b60405180910390f35b3480156104ae57600080fd5b506104c960048036038101906104c491906130f6565b6117e1565b6040516104d6919061309e565b60405180910390f35b3480156104eb57600080fd5b5061050660048036038101906105019190613853565b6118f3565b60405161051391906133bf565b60405180910390f35b34801561052857600080fd5b50610543600480360381019061053e919061389c565b611cfb565b6040516105509190612ff3565b60405180910390f35b60007f80ac58cd000000000000000000000000000000000000000000000000000000007bffffffffffffffffffffffffffffffffffffffffffffffffffffffff1916827bffffffffffffffffffffffffffffffffffffffffffffffffffffffff1916148061062457507f5b5e139f000000000000000000000000000000000000000000000000000000007bffffffffffffffffffffffffffffffffffffffffffffffffffffffff1916827bffffffffffffffffffffffffffffffffffffffffffffffffffffffff1916145b80610634575061063382611d8f565b5b9050919050565b60606000805461064a9061390b565b80601f01602080910402602001604051908101604052809291908181526020018280546106769061390b565b80156106c35780601f10610698576101008083540402835291602001916106c3565b820191906000526020600020905b8154815290600101906020018083116106a657829003601f168201915b5050505050905090565b60006106d882611df9565b6004600083815260200190815260200160002060009054906101000a900473ffffffffffffffffffffffffffffffffffffffff169050919050565b600061071e826112aa565b90508073ffffffffffffffffffffffffffffffffffffffff168373ffffffffffffffffffffffffffffffffffffffff160361078e576040517f08c379a0000000000000000000000000000000000000000000000000000000008152600401610785906139ae565b60405180910390fd5b8073ffffffffffffffffffffffffffffffffffffffff166107ad611e44565b73ffffffffffffffffffffffffffffffffffffffff1614806107dc57506107db816107d6611e44565b611cfb565b5b61081b576040517f08c379a000000000000000000000000000000000000000000000000000000000815260040161081290613a40565b60405180910390fd5b6108258383611e4c565b505050565b606060006108386007611f05565b905060006108466008611f05565b6108506007611f05565b61085a9190613a8f565b90506000808267ffffffffffffffff81111561087957610878613501565b5b6040519080825280602002602001820160405280156108b257816020015b61089f612edb565b8152602001906001900390816108975790505b50905060005b84811015610b19573073ffffffffffffffffffffffffffffffffffffffff16600b60006001846108e89190613ac3565b815260200190815260200160002060020160009054906101000a900473ffffffffffffffffffffffffffffffffffffffff1673ffffffffffffffffffffffffffffffffffffffff1603610b065760006001826109449190613ac3565b90506000600b60008381526020019081526020016000209050806040518060c0016040529081600082015481526020016001820160009054906101000a900473ffffffffffffffffffffffffffffffffffffffff1673ffffffffffffffffffffffffffffffffffffffff1673ffffffffffffffffffffffffffffffffffffffff1681526020016002820160009054906101000a900473ffffffffffffffffffffffffffffffffffffffff1673ffffffffffffffffffffffffffffffffffffffff1673ffffffffffffffffffffffffffffffffffffffff168152602001600382018054610a2f9061390b565b80601f0160208091040260200160405190810160405280929190818152602001828054610a5b9061390b565b8015610aa85780601f10610a7d57610100808354040283529160200191610aa8565b820191906000526020600020905b815481529060010190602001808311610a8b57829003601f168201915b50505050508152602001600482015481526020016005820160009054906101000a900460ff161515151581525050848681518110610ae957610ae8613af7565b5b6020026020010181905250600185610b019190613ac3565b945050505b8080610b1190613b26565b9150506108b8565b508094505050505090565b6000600954905090565b60606000610b3c6007611f05565b905060008060005b83811015610be4573373ffffffffffffffffffffffffffffffffffffffff16600b6000600184610b749190613ac3565b815260200190815260200160002060020160009054906101000a900473ffffffffffffffffffffffffffffffffffffffff1673ffffffffffffffffffffffffffffffffffffffff1603610bd157600183610bce9190613ac3565b92505b8080610bdc90613b26565b915050610b44565b5060008267ffffffffffffffff811115610c0157610c00613501565b5b604051908082528060200260200182016040528015610c3a57816020015b610c27612edb565b815260200190600190039081610c1f5790505b50905060005b84811015610ea1573373ffffffffffffffffffffffffffffffffffffffff16600b6000600184610c709190613ac3565b815260200190815260200160002060020160009054906101000a900473ffffffffffffffffffffffffffffffffffffffff1673ffffffffffffffffffffffffffffffffffffffff1603610e8e576000600182610ccc9190613ac3565b90506000600b60008381526020019081526020016000209050806040518060c0016040529081600082015481526020016001820160009054906101000a900473ffffffffffffffffffffffffffffffffffffffff1673ffffffffffffffffffffffffffffffffffffffff1673ffffffffffffffffffffffffffffffffffffffff1681526020016002820160009054906101000a900473ffffffffffffffffffffffffffffffffffffffff1673ffffffffffffffffffffffffffffffffffffffff1673ffffffffffffffffffffffffffffffffffffffff168152602001600382018054610db79061390b565b80601f0160208091040260200160405190810160405280929190818152602001828054610de39061390b565b8015610e305780601f10610e0557610100808354040283529160200191610e30565b820191906000526020600020905b815481529060010190602001808311610e1357829003601f168201915b50505050508152602001600482015481526020016005820160009054906101000a900460ff161515151581525050848681518110610e7157610e70613af7565b5b6020026020010181905250600185610e899190613ac3565b945050505b8080610e9990613b26565b915050610c40565b508094505050505090565b610ebd610eb7611e44565b82611f13565b610efc576040517f08c379a0000000000000000000000000000000000000000000000000000000008152600401610ef390613be0565b60405180910390fd5b610f07838383611fa8565b505050565b610f2783838360405180602001604052806000815250611529565b505050565b60606000610f3a6007611f05565b905060008060005b83811015610fe2573373ffffffffffffffffffffffffffffffffffffffff16600b6000600184610f729190613ac3565b815260200190815260200160002060010160009054906101000a900473ffffffffffffffffffffffffffffffffffffffff1673ffffffffffffffffffffffffffffffffffffffff1603610fcf57600183610fcc9190613ac3565b92505b8080610fda90613b26565b915050610f42565b5060008267ffffffffffffffff811115610fff57610ffe613501565b5b60405190808252806020026020018201604052801561103857816020015b611025612edb565b81526020019060019003908161101d5790505b50905060005b8481101561129f573373ffffffffffffffffffffffffffffffffffffffff16600b600060018461106e9190613ac3565b815260200190815260200160002060010160009054906101000a900473ffffffffffffffffffffffffffffffffffffffff1673ffffffffffffffffffffffffffffffffffffffff160361128c5760006001826110ca9190613ac3565b90506000600b60008381526020019081526020016000209050806040518060c0016040529081600082015481526020016001820160009054906101000a900473ffffffffffffffffffffffffffffffffffffffff1673ffffffffffffffffffffffffffffffffffffffff1673ffffffffffffffffffffffffffffffffffffffff1681526020016002820160009054906101000a900473ffffffffffffffffffffffffffffffffffffffff1673ffffffffffffffffffffffffffffffffffffffff1673ffffffffffffffffffffffffffffffffffffffff1681526020016003820180546111b59061390b565b80601f01602080910402602001604051908101604052809291908181526020018280546111e19061390b565b801561122e5780601f106112035761010080835404028352916020019161122e565b820191906000526020600020905b81548152906001019060200180831161121157829003601f168201915b50505050508152602001600482015481526020016005820160009054906101000a900460ff16151515158152505084868151811061126f5761126e613af7565b5b60200260200101819052506001856112879190613ac3565b945050505b808061129790613b26565b91505061103e565b508094505050505090565b6000806112b6836122a1565b9050600073ffffffffffffffffffffffffffffffffffffffff168173ffffffffffffffffffffffffffffffffffffffff1603611327576040517f08c379a000000000000000000000000000000000000000000000000000000000815260040161131e90613c4c565b60405180910390fd5b80915050919050565b60008073ffffffffffffffffffffffffffffffffffffffff168273ffffffffffffffffffffffffffffffffffffffff16036113a0576040517f08c379a000000000000000000000000000000000000000000000000000000000815260040161139790613cde565b60405180910390fd5b600360008373ffffffffffffffffffffffffffffffffffffffff1673ffffffffffffffffffffffffffffffffffffffff168152602001908152602001600020549050919050565b6060600180546113f69061390b565b80601f01602080910402602001604051908101604052809291908181526020018280546114229061390b565b801561146f5780601f106114445761010080835404028352916020019161146f565b820191906000526020600020905b81548152906001019060200180831161145257829003601f168201915b5050505050905090565b61148b611484611e44565b83836122de565b5050565b3373ffffffffffffffffffffffffffffffffffffffff16600a60009054906101000a900473ffffffffffffffffffffffffffffffffffffffff1673ffffffffffffffffffffffffffffffffffffffff161461151f576040517f08c379a000000000000000000000000000000000000000000000000000000000815260040161151690613d70565b60405180910390fd5b8060098190555050565b61153a611534611e44565b83611f13565b611579576040517f08c379a000000000000000000000000000000000000000000000000000000000815260040161157090613be0565b60405180910390fd5b6115858484848461244a565b50505050565b6000600b60008381526020019081526020016000206004015490508034146115e8576040517f08c379a00000000000000000000000000000000000000000000000000000000081526004016115df90613e02565b60405180910390fd5b33600b600084815260200190815260200160002060020160006101000a81548173ffffffffffffffffffffffffffffffffffffffff021916908373ffffffffffffffffffffffffffffffffffffffff1602179055506001600b600084815260200190815260200160002060050160006101000a81548160ff0219169083151502179055506000600b600084815260200190815260200160002060010160006101000a81548173ffffffffffffffffffffffffffffffffffffffff021916908373ffffffffffffffffffffffffffffffffffffffff1602179055506116cc60086124a6565b6116d7303384611fa8565b600a60009054906101000a900473ffffffffffffffffffffffffffffffffffffffff1673ffffffffffffffffffffffffffffffffffffffff166108fc349081150290604051600060405180830381858888f1935050505015801561173f573d6000803e3d6000fd5b505050565b6000816040516020016117579190613e5e565b604051602081830303815290604052805190602001208360405160200161177e9190613e5e565b6040516020818303038152906040528051906020012014905092915050565b60006117a960076124a6565b60006117b56007611f05565b90506117c133826124bc565b6117cb81866126d9565b6117d6818585612746565b809150509392505050565b60606117ec82611df9565b600060066000848152602001908152602001600020805461180c9061390b565b80601f01602080910402602001604051908101604052809291908181526020018280546118389061390b565b80156118855780601f1061185a57610100808354040283529160200191611885565b820191906000526020600020905b81548152906001019060200180831161186857829003601f168201915b505050505090506000611896612924565b905060008151036118ab5781925050506118ee565b6000825111156118e05780826040516020016118c8929190613e75565b604051602081830303815290604052925050506118ee565b6118e98461293b565b925050505b919050565b606060006119016007611f05565b905060008060005b838110156119ed576119c5600b60006001846119259190613ac3565b815260200190815260200160002060030180546119419061390b565b80601f016020809104026020016040519081016040528092919081815260200182805461196d9061390b565b80156119ba5780601f1061198f576101008083540402835291602001916119ba565b820191906000526020600020905b81548152906001019060200180831161199d57829003601f168201915b505050505087611744565b156119da576001836119d79190613ac3565b92505b80806119e590613b26565b915050611909565b5060008267ffffffffffffffff811115611a0a57611a09613501565b5b604051908082528060200260200182016040528015611a4357816020015b611a30612edb565b815260200190600190039081611a285790505b50905060005b84811015611cee57611b05600b6000600184611a659190613ac3565b81526020019081526020016000206003018054611a819061390b565b80601f0160208091040260200160405190810160405280929190818152602001828054611aad9061390b565b8015611afa5780601f10611acf57610100808354040283529160200191611afa565b820191906000526020600020905b815481529060010190602001808311611add57829003601f168201915b505050505088611744565b15611cdb576000600182611b199190613ac3565b90506000600b60008381526020019081526020016000209050806040518060c0016040529081600082015481526020016001820160009054906101000a900473ffffffffffffffffffffffffffffffffffffffff1673ffffffffffffffffffffffffffffffffffffffff1673ffffffffffffffffffffffffffffffffffffffff1681526020016002820160009054906101000a900473ffffffffffffffffffffffffffffffffffffffff1673ffffffffffffffffffffffffffffffffffffffff1673ffffffffffffffffffffffffffffffffffffffff168152602001600382018054611c049061390b565b80601f0160208091040260200160405190810160405280929190818152602001828054611c309061390b565b8015611c7d5780601f10611c5257610100808354040283529160200191611c7d565b820191906000526020600020905b815481529060010190602001808311611c6057829003601f168201915b50505050508152602001600482015481526020016005820160009054906101000a900460ff161515151581525050848681518110611cbe57611cbd613af7565b5b6020026020010181905250600185611cd69190613ac3565b945050505b8080611ce690613b26565b915050611a49565b5080945050505050919050565b6000600560008473ffffffffffffffffffffffffffffffffffffffff1673ffffffffffffffffffffffffffffffffffffffff16815260200190815260200160002060008373ffffffffffffffffffffffffffffffffffffffff1673ffffffffffffffffffffffffffffffffffffffff16815260200190815260200160002060009054906101000a900460ff16905092915050565b60007f01ffc9a7000000000000000000000000000000000000000000000000000000007bffffffffffffffffffffffffffffffffffffffffffffffffffffffff1916827bffffffffffffffffffffffffffffffffffffffffffffffffffffffff1916149050919050565b611e02816129a3565b611e41576040517f08c379a0000000000000000000000000000000000000000000000000000000008152600401611e3890613c4c565b60405180910390fd5b50565b600033905090565b816004600083815260200190815260200160002060006101000a81548173ffffffffffffffffffffffffffffffffffffffff021916908373ffffffffffffffffffffffffffffffffffffffff160217905550808273ffffffffffffffffffffffffffffffffffffffff16611ebf836112aa565b73ffffffffffffffffffffffffffffffffffffffff167f8c5be1e5ebec7d5bd14f71427d1e84f3dd0314c0f7b2291e5b200ac8c7c3b92560405160405180910390a45050565b600081600001549050919050565b600080611f1f836112aa565b90508073ffffffffffffffffffffffffffffffffffffffff168473ffffffffffffffffffffffffffffffffffffffff161480611f615750611f608185611cfb565b5b80611f9f57508373ffffffffffffffffffffffffffffffffffffffff16611f87846106cd565b73ffffffffffffffffffffffffffffffffffffffff16145b91505092915050565b8273ffffffffffffffffffffffffffffffffffffffff16611fc8826112aa565b73ffffffffffffffffffffffffffffffffffffffff161461201e576040517f08c379a000000000000000000000000000000000000000000000000000000000815260040161201590613f0b565b60405180910390fd5b600073ffffffffffffffffffffffffffffffffffffffff168273ffffffffffffffffffffffffffffffffffffffff160361208d576040517f08c379a000000000000000000000000000000000000000000000000000000000815260040161208490613f9d565b60405180910390fd5b61209a83838360016129e4565b8273ffffffffffffffffffffffffffffffffffffffff166120ba826112aa565b73ffffffffffffffffffffffffffffffffffffffff1614612110576040517f08c379a000000000000000000000000000000000000000000000000000000000815260040161210790613f0b565b60405180910390fd5b6004600082815260200190815260200160002060006101000a81549073ffffffffffffffffffffffffffffffffffffffff02191690556001600360008573ffffffffffffffffffffffffffffffffffffffff1673ffffffffffffffffffffffffffffffffffffffff168152602001908152602001600020600082825403925050819055506001600360008473ffffffffffffffffffffffffffffffffffffffff1673ffffffffffffffffffffffffffffffffffffffff16815260200190815260200160002060008282540192505081905550816002600083815260200190815260200160002060006101000a81548173ffffffffffffffffffffffffffffffffffffffff021916908373ffffffffffffffffffffffffffffffffffffffff160217905550808273ffffffffffffffffffffffffffffffffffffffff168473ffffffffffffffffffffffffffffffffffffffff167fddf252ad1be2c89b69c2b068fc378daa952ba7f163c4a11628f55a4df523b3ef60405160405180910390a461229c8383836001612b0a565b505050565b60006002600083815260200190815260200160002060009054906101000a900473ffffffffffffffffffffffffffffffffffffffff169050919050565b8173ffffffffffffffffffffffffffffffffffffffff168373ffffffffffffffffffffffffffffffffffffffff160361234c576040517f08c379a000000000000000000000000000000000000000000000000000000000815260040161234390614009565b60405180910390fd5b80600560008573ffffffffffffffffffffffffffffffffffffffff1673ffffffffffffffffffffffffffffffffffffffff16815260200190815260200160002060008473ffffffffffffffffffffffffffffffffffffffff1673ffffffffffffffffffffffffffffffffffffffff16815260200190815260200160002060006101000a81548160ff0219169083151502179055508173ffffffffffffffffffffffffffffffffffffffff168373ffffffffffffffffffffffffffffffffffffffff167f17307eab39ab6107e8899845ad3d59bd9653f200f220920489ca2b5937696c318360405161243d9190612ff3565b60405180910390a3505050565b612455848484611fa8565b61246184848484612b10565b6124a0576040517f08c379a00000000000000000000000000000000000000000000000000000000081526004016124979061409b565b60405180910390fd5b50505050565b6001816000016000828254019250508190555050565b600073ffffffffffffffffffffffffffffffffffffffff168273ffffffffffffffffffffffffffffffffffffffff160361252b576040517f08c379a000000000000000000000000000000000000000000000000000000000815260040161252290614107565b60405180910390fd5b612534816129a3565b15612574576040517f08c379a000000000000000000000000000000000000000000000000000000000815260040161256b90614173565b60405180910390fd5b6125826000838360016129e4565b61258b816129a3565b156125cb576040517f08c379a00000000000000000000000000000000000000000000000000000000081526004016125c290614173565b60405180910390fd5b6001600360008473ffffffffffffffffffffffffffffffffffffffff1673ffffffffffffffffffffffffffffffffffffffff16815260200190815260200160002060008282540192505081905550816002600083815260200190815260200160002060006101000a81548173ffffffffffffffffffffffffffffffffffffffff021916908373ffffffffffffffffffffffffffffffffffffffff160217905550808273ffffffffffffffffffffffffffffffffffffffff16600073ffffffffffffffffffffffffffffffffffffffff167fddf252ad1be2c89b69c2b068fc378daa952ba7f163c4a11628f55a4df523b3ef60405160405180910390a46126d5600083836001612b0a565b5050565b6126e2826129a3565b612721576040517f08c379a000000000000000000000000000000000000000000000000000000000815260040161271890614205565b60405180910390fd5b8060066000848152602001908152602001600020908161274191906143d1565b505050565b60008211612789576040517f08c379a0000000000000000000000000000000000000000000000000000000008152600401612780906144ef565b60405180910390fd5b6040518060c001604052808481526020013373ffffffffffffffffffffffffffffffffffffffff1681526020013073ffffffffffffffffffffffffffffffffffffffff16815260200182815260200183815260200160001515815250600b60008581526020019081526020016000206000820151816000015560208201518160010160006101000a81548173ffffffffffffffffffffffffffffffffffffffff021916908373ffffffffffffffffffffffffffffffffffffffff16021790555060408201518160020160006101000a81548173ffffffffffffffffffffffffffffffffffffffff021916908373ffffffffffffffffffffffffffffffffffffffff16021790555060608201518160030190816128a591906143d1565b506080820151816004015560a08201518160050160006101000a81548160ff0219169083151502179055509050506128de333085611fa8565b827f0caaa5ce39caf79bec1b915a32b0d8d247a8dbf6fd440f953d11757f50ce6c3e33308486600060405161291795949392919061450f565b60405180910390a2505050565b606060405180602001604052806000815250905090565b606061294682611df9565b6000612950612924565b90506000815111612970576040518060200160405280600081525061299b565b8061297a84612c97565b60405160200161298b929190613e75565b6040516020818303038152906040525b915050919050565b60008073ffffffffffffffffffffffffffffffffffffffff166129c5836122a1565b73ffffffffffffffffffffffffffffffffffffffff1614159050919050565b6001811115612b0457600073ffffffffffffffffffffffffffffffffffffffff168473ffffffffffffffffffffffffffffffffffffffff1614612a785780600360008673ffffffffffffffffffffffffffffffffffffffff1673ffffffffffffffffffffffffffffffffffffffff1681526020019081526020016000206000828254612a709190613a8f565b925050819055505b600073ffffffffffffffffffffffffffffffffffffffff168373ffffffffffffffffffffffffffffffffffffffff1614612b035780600360008573ffffffffffffffffffffffffffffffffffffffff1673ffffffffffffffffffffffffffffffffffffffff1681526020019081526020016000206000828254612afb9190613ac3565b925050819055505b5b50505050565b50505050565b6000612b318473ffffffffffffffffffffffffffffffffffffffff16612d65565b15612c8a578373ffffffffffffffffffffffffffffffffffffffff1663150b7a02612b5a611e44565b8786866040518563ffffffff1660e01b8152600401612b7c94939291906145be565b6020604051808303816000875af1925050508015612bb857506040513d601f19601f82011682018060405250810190612bb5919061461f565b60015b612c3a573d8060008114612be8576040519150601f19603f3d011682016040523d82523d6000602084013e612bed565b606091505b506000815103612c32576040517f08c379a0000000000000000000000000000000000000000000000000000000008152600401612c299061409b565b60405180910390fd5b805181602001fd5b63150b7a0260e01b7bffffffffffffffffffffffffffffffffffffffffffffffffffffffff1916817bffffffffffffffffffffffffffffffffffffffffffffffffffffffff191614915050612c8f565b600190505b949350505050565b606060006001612ca684612d88565b01905060008167ffffffffffffffff811115612cc557612cc4613501565b5b6040519080825280601f01601f191660200182016040528015612cf75781602001600182028036833780820191505090505b509050600082602001820190505b600115612d5a578080600190039150507f3031323334353637383961626364656600000000000000000000000000000000600a86061a8153600a8581612d4e57612d4d61464c565b5b04945060008503612d05575b819350505050919050565b6000808273ffffffffffffffffffffffffffffffffffffffff163b119050919050565b600080600090507a184f03e93ff9f4daa797ed6e38ed64bf6a1f0100000000000000008310612de6577a184f03e93ff9f4daa797ed6e38ed64bf6a1f0100000000000000008381612ddc57612ddb61464c565b5b0492506040810190505b6d04ee2d6d415b85acef81000000008310612e23576d04ee2d6d415b85acef81000000008381612e1957612e1861464c565b5b0492506020810190505b662386f26fc100008310612e5257662386f26fc100008381612e4857612e4761464c565b5b0492506010810190505b6305f5e1008310612e7b576305f5e1008381612e7157612e7061464c565b5b0492506008810190505b6127108310612ea0576127108381612e9657612e9561464c565b5b0492506004810190505b60648310612ec35760648381612eb957612eb861464c565b5b0492506002810190505b600a8310612ed2576001810190505b80915050919050565b6040518060c0016040528060008152602001600073ffffffffffffffffffffffffffffffffffffffff168152602001600073ffffffffffffffffffffffffffffffffffffffff16815260200160608152602001600081526020016000151581525090565b6000604051905090565b600080fd5b600080fd5b60007fffffffff0000000000000000000000000000000000000000000000000000000082169050919050565b612f8881612f53565b8114612f9357600080fd5b50565b600081359050612fa581612f7f565b92915050565b600060208284031215612fc157612fc0612f49565b5b6000612fcf84828501612f96565b91505092915050565b60008115159050919050565b612fed81612fd8565b82525050565b60006020820190506130086000830184612fe4565b92915050565b600081519050919050565b600082825260208201905092915050565b60005b8381101561304857808201518184015260208101905061302d565b60008484015250505050565b6000601f19601f8301169050919050565b60006130708261300e565b61307a8185613019565b935061308a81856020860161302a565b61309381613054565b840191505092915050565b600060208201905081810360008301526130b88184613065565b905092915050565b6000819050919050565b6130d3816130c0565b81146130de57600080fd5b50565b6000813590506130f0816130ca565b92915050565b60006020828403121561310c5761310b612f49565b5b600061311a848285016130e1565b91505092915050565b600073ffffffffffffffffffffffffffffffffffffffff82169050919050565b600061314e82613123565b9050919050565b61315e81613143565b82525050565b60006020820190506131796000830184613155565b92915050565b61318881613143565b811461319357600080fd5b50565b6000813590506131a58161317f565b92915050565b600080604083850312156131c2576131c1612f49565b5b60006131d085828601613196565b92505060206131e1858286016130e1565b9150509250929050565b600081519050919050565b600082825260208201905092915050565b6000819050602082019050919050565b613220816130c0565b82525050565b600061323182613123565b9050919050565b61324181613226565b82525050565b600082825260208201905092915050565b60006132638261300e565b61326d8185613247565b935061327d81856020860161302a565b61328681613054565b840191505092915050565b61329a81612fd8565b82525050565b600060c0830160008301516132b86000860182613217565b5060208301516132cb6020860182613238565b5060408301516132de6040860182613238565b50606083015184820360608601526132f68282613258565b915050608083015161330b6080860182613217565b5060a083015161331e60a0860182613291565b508091505092915050565b600061333583836132a0565b905092915050565b6000602082019050919050565b6000613355826131eb565b61335f81856131f6565b93508360208202850161337185613207565b8060005b858110156133ad578484038952815161338e8582613329565b94506133998361333d565b925060208a01995050600181019050613375565b50829750879550505050505092915050565b600060208201905081810360008301526133d9818461334a565b905092915050565b6133ea816130c0565b82525050565b600060208201905061340560008301846133e1565b92915050565b60008060006060848603121561342457613423612f49565b5b600061343286828701613196565b935050602061344386828701613196565b9250506040613454868287016130e1565b9150509250925092565b60006020828403121561347457613473612f49565b5b600061348284828501613196565b91505092915050565b61349481612fd8565b811461349f57600080fd5b50565b6000813590506134b18161348b565b92915050565b600080604083850312156134ce576134cd612f49565b5b60006134dc85828601613196565b92505060206134ed858286016134a2565b9150509250929050565b600080fd5b600080fd5b7f4e487b7100000000000000000000000000000000000000000000000000000000600052604160045260246000fd5b61353982613054565b810181811067ffffffffffffffff8211171561355857613557613501565b5b80604052505050565b600061356b612f3f565b90506135778282613530565b919050565b600067ffffffffffffffff82111561359757613596613501565b5b6135a082613054565b9050602081019050919050565b82818337600083830152505050565b60006135cf6135ca8461357c565b613561565b9050828152602081018484840111156135eb576135ea6134fc565b5b6135f68482856135ad565b509392505050565b600082601f830112613613576136126134f7565b5b81356136238482602086016135bc565b91505092915050565b6000806000806080858703121561364657613645612f49565b5b600061365487828801613196565b945050602061366587828801613196565b9350506040613676878288016130e1565b925050606085013567ffffffffffffffff81111561369757613696612f4e565b5b6136a3878288016135fe565b91505092959194509250565b600067ffffffffffffffff8211156136ca576136c9613501565b5b6136d382613054565b9050602081019050919050565b60006136f36136ee846136af565b613561565b90508281526020810184848401111561370f5761370e6134fc565b5b61371a8482856135ad565b509392505050565b600082601f830112613737576137366134f7565b5b81356137478482602086016136e0565b91505092915050565b6000806040838503121561376757613766612f49565b5b600083013567ffffffffffffffff81111561378557613784612f4e565b5b61379185828601613722565b925050602083013567ffffffffffffffff8111156137b2576137b1612f4e565b5b6137be85828601613722565b9150509250929050565b6000806000606084860312156137e1576137e0612f49565b5b600084013567ffffffffffffffff8111156137ff576137fe612f4e565b5b61380b86828701613722565b935050602061381c868287016130e1565b925050604084013567ffffffffffffffff81111561383d5761383c612f4e565b5b61384986828701613722565b9150509250925092565b60006020828403121561386957613868612f49565b5b600082013567ffffffffffffffff81111561388757613886612f4e565b5b61389384828501613722565b91505092915050565b600080604083850312156138b3576138b2612f49565b5b60006138c185828601613196565b92505060206138d285828601613196565b9150509250929050565b7f4e487b7100000000000000000000000000000000000000000000000000000000600052602260045260246000fd5b6000600282049050600182168061392357607f821691505b602082108103613936576139356138dc565b5b50919050565b7f4552433732313a20617070726f76616c20746f2063757272656e74206f776e6560008201527f7200000000000000000000000000000000000000000000000000000000000000602082015250565b6000613998602183613019565b91506139a38261393c565b604082019050919050565b600060208201905081810360008301526139c78161398b565b9050919050565b7f4552433732313a20617070726f76652063616c6c6572206973206e6f7420746f60008201527f6b656e206f776e6572206f7220617070726f76656420666f7220616c6c000000602082015250565b6000613a2a603d83613019565b9150613a35826139ce565b604082019050919050565b60006020820190508181036000830152613a5981613a1d565b9050919050565b7f4e487b7100000000000000000000000000000000000000000000000000000000600052601160045260246000fd5b6000613a9a826130c0565b9150613aa5836130c0565b9250828203905081811115613abd57613abc613a60565b5b92915050565b6000613ace826130c0565b9150613ad9836130c0565b9250828201905080821115613af157613af0613a60565b5b92915050565b7f4e487b7100000000000000000000000000000000000000000000000000000000600052603260045260246000fd5b6000613b31826130c0565b91507fffffffffffffffffffffffffffffffffffffffffffffffffffffffffffffffff8203613b6357613b62613a60565b5b600182019050919050565b7f4552433732313a2063616c6c6572206973206e6f7420746f6b656e206f776e6560008201527f72206f7220617070726f76656400000000000000000000000000000000000000602082015250565b6000613bca602d83613019565b9150613bd582613b6e565b604082019050919050565b60006020820190508181036000830152613bf981613bbd565b9050919050565b7f4552433732313a20696e76616c696420746f6b656e2049440000000000000000600082015250565b6000613c36601883613019565b9150613c4182613c00565b602082019050919050565b60006020820190508181036000830152613c6581613c29565b9050919050565b7f4552433732313a2061646472657373207a65726f206973206e6f74206120766160008201527f6c6964206f776e65720000000000000000000000000000000000000000000000602082015250565b6000613cc8602983613019565b9150613cd382613c6c565b604082019050919050565b60006020820190508181036000830152613cf781613cbb565b9050919050565b7f4f6e6c79206d61726b6574706c616365206f776e65722063616e20757064617460008201527f65206c697374696e672070726963652e00000000000000000000000000000000602082015250565b6000613d5a603083613019565b9150613d6582613cfe565b604082019050919050565b60006020820190508181036000830152613d8981613d4d565b9050919050565b7f506c6561736520706179207468652066756c6c20616d6f756e7420696e206f7260008201527f64657220746f20636f6d706c65746520746865207472616e73616374696f6e21602082015250565b6000613dec604083613019565b9150613df782613d90565b604082019050919050565b60006020820190508181036000830152613e1b81613ddf565b9050919050565b600081905092915050565b6000613e388261300e565b613e428185613e22565b9350613e5281856020860161302a565b80840191505092915050565b6000613e6a8284613e2d565b915081905092915050565b6000613e818285613e2d565b9150613e8d8284613e2d565b91508190509392505050565b7f4552433732313a207472616e736665722066726f6d20696e636f72726563742060008201527f6f776e6572000000000000000000000000000000000000000000000000000000602082015250565b6000613ef5602583613019565b9150613f0082613e99565b604082019050919050565b60006020820190508181036000830152613f2481613ee8565b9050919050565b7f4552433732313a207472616e7366657220746f20746865207a65726f2061646460008201527f7265737300000000000000000000000000000000000000000000000000000000602082015250565b6000613f87602483613019565b9150613f9282613f2b565b604082019050919050565b60006020820190508181036000830152613fb681613f7a565b9050919050565b7f4552433732313a20617070726f766520746f2063616c6c657200000000000000600082015250565b6000613ff3601983613019565b9150613ffe82613fbd565b602082019050919050565b6000602082019050818103600083015261402281613fe6565b9050919050565b7f4552433732313a207472616e7366657220746f206e6f6e20455243373231526560008201527f63656976657220696d706c656d656e7465720000000000000000000000000000602082015250565b6000614085603283613019565b915061409082614029565b604082019050919050565b600060208201905081810360008301526140b481614078565b9050919050565b7f4552433732313a206d696e7420746f20746865207a65726f2061646472657373600082015250565b60006140f1602083613019565b91506140fc826140bb565b602082019050919050565b60006020820190508181036000830152614120816140e4565b9050919050565b7f4552433732313a20746f6b656e20616c7265616479206d696e74656400000000600082015250565b600061415d601c83613019565b915061416882614127565b602082019050919050565b6000602082019050818103600083015261418c81614150565b9050919050565b7f45524337323155524953746f726167653a2055524920736574206f66206e6f6e60008201527f6578697374656e7420746f6b656e000000000000000000000000000000000000602082015250565b60006141ef602e83613019565b91506141fa82614193565b604082019050919050565b6000602082019050818103600083015261421e816141e2565b9050919050565b60008190508160005260206000209050919050565b60006020601f8301049050919050565b600082821b905092915050565b6000600883026142877fffffffffffffffffffffffffffffffffffffffffffffffffffffffffffffffff8261424a565b614291868361424a565b95508019841693508086168417925050509392505050565b6000819050919050565b60006142ce6142c96142c4846130c0565b6142a9565b6130c0565b9050919050565b6000819050919050565b6142e8836142b3565b6142fc6142f4826142d5565b848454614257565b825550505050565b600090565b614311614304565b61431c8184846142df565b505050565b5b8181101561434057614335600082614309565b600181019050614322565b5050565b601f8211156143855761435681614225565b61435f8461423a565b8101602085101561436e578190505b61438261437a8561423a565b830182614321565b50505b505050565b600082821c905092915050565b60006143a86000198460080261438a565b1980831691505092915050565b60006143c18383614397565b9150826002028217905092915050565b6143da8261300e565b67ffffffffffffffff8111156143f3576143f2613501565b5b6143fd825461390b565b614408828285614344565b600060209050601f83116001811461443b5760008415614429578287015190505b61443385826143b5565b86555061449b565b601f19841661444986614225565b60005b828110156144715784890151825560018201915060208501945060208101905061444c565b8683101561448e578489015161448a601f891682614397565b8355505b6001600288020188555050505b505050505050565b7f5072696365206d757374206265206174206c6561737420312077656900000000600082015250565b60006144d9601c83613019565b91506144e4826144a3565b602082019050919050565b60006020820190508181036000830152614508816144cc565b9050919050565b600060a0820190506145246000830188613155565b6145316020830187613155565b81810360408301526145438186613065565b905061455260608301856133e1565b61455f6080830184612fe4565b9695505050505050565b600081519050919050565b600082825260208201905092915050565b600061459082614569565b61459a8185614574565b93506145aa81856020860161302a565b6145b381613054565b840191505092915050565b60006080820190506145d36000830187613155565b6145e06020830186613155565b6145ed60408301856133e1565b81810360608301526145ff8184614585565b905095945050505050565b60008151905061461981612f7f565b92915050565b60006020828403121561463557614634612f49565b5b60006146438482850161460a565b91505092915050565b7f4e487b7100000000000000000000000000000000000000000000000000000000600052601260045260246000fdfea2646970667358221220d833c2862a0073d0eec3d27752a7ea57196ea5d69ee43064df2cf6292129762d64736f6c63430008110033",
  "linkReferences": {},
  "deployedLinkReferences": {}
}