{
  "_format": "hh-sol-artifact-1",
  "contractName": "NFTTicketSystem",
  "sourceName": "contracts/NFTTicketSystem.sol",
  "abi": [
    {
      "inputs": [],
      "stateMutability": "nonpayable",
      "type": "constructor"
    },
    {
      "anonymous": false,
      "inputs": [
        {
          "indexed": true,
          "internalType": "address",
          "name": "owner",
          "type": "address"
        },
        {
          "indexed": true,
          "internalType": "address",
          "name": "approved",
          "type": "address"
        },
        {
          "indexed": true,
          "internalType": "uint256",
          "name": "tokenId",
          "type": "uint256"
        }
      ],
      "name": "Approval",
      "type": "event"
    },
    {
      "anonymous": false,
      "inputs": [
        {
          "indexed": true,
          "internalType": "address",
          "name": "owner",
          "type": "address"
        },
        {
          "indexed": true,
          "internalType": "address",
          "name": "operator",
          "type": "address"
        },
        {
          "indexed": false,
          "internalType": "bool",
          "name": "approved",
          "type": "bool"
        }
      ],
      "name": "ApprovalForAll",
      "type": "event"
    },
    {
      "anonymous": false,
      "inputs": [
        {
          "indexed": true,
          "internalType": "uint256",
          "name": "tokenId",
          "type": "uint256"
        },
        {
          "indexed": false,
          "internalType": "address",
          "name": "seller",
          "type": "address"
        },
        {
          "indexed": false,
          "internalType": "address",
          "name": "owner",
          "type": "address"
        },
        {
          "indexed": false,
          "internalType": "string",
          "name": "tourName",
          "type": "string"
        },
        {
          "indexed": false,
          "internalType": "string",
          "name": "tourDate",
          "type": "string"
        },
        {
          "indexed": false,
          "internalType": "uint256",
          "name": "price",
          "type": "uint256"
        },
        {
          "indexed": false,
          "internalType": "bool",
          "name": "sold",
          "type": "bool"
        }
      ],
      "name": "MarketItemCreated",
      "type": "event"
    },
    {
      "anonymous": false,
      "inputs": [
        {
          "indexed": true,
          "internalType": "address",
          "name": "from",
          "type": "address"
        },
        {
          "indexed": true,
          "internalType": "address",
          "name": "to",
          "type": "address"
        },
        {
          "indexed": true,
          "internalType": "uint256",
          "name": "tokenId",
          "type": "uint256"
        }
      ],
      "name": "Transfer",
      "type": "event"
    },
    {
      "inputs": [
        {
          "internalType": "address",
          "name": "to",
          "type": "address"
        },
        {
          "internalType": "uint256",
          "name": "tokenId",
          "type": "uint256"
        }
      ],
      "name": "approve",
      "outputs": [],
      "stateMutability": "nonpayable",
      "type": "function"
    },
    {
      "inputs": [
        {
          "internalType": "address",
          "name": "owner",
          "type": "address"
        }
      ],
      "name": "balanceOf",
      "outputs": [
        {
          "internalType": "uint256",
          "name": "",
          "type": "uint256"
        }
      ],
      "stateMutability": "view",
      "type": "function"
    },
    {
      "inputs": [
        {
          "internalType": "uint256",
          "name": "tokenId",
          "type": "uint256"
        }
      ],
      "name": "createMarketSale",
      "outputs": [],
      "stateMutability": "payable",
      "type": "function"
    },
    {
      "inputs": [
        {
          "internalType": "string",
          "name": "tokenURI",
          "type": "string"
        },
        {
          "internalType": "uint256",
          "name": "price",
          "type": "uint256"
        },
        {
          "internalType": "string",
          "name": "tourName",
          "type": "string"
        },
        {
          "internalType": "string",
          "name": "tourDate",
          "type": "string"
        }
      ],
      "name": "createToken",
      "outputs": [
        {
          "internalType": "uint256",
          "name": "",
          "type": "uint256"
        }
      ],
      "stateMutability": "payable",
      "type": "function"
    },
    {
      "inputs": [],
      "name": "fetchItemsListed",
      "outputs": [
        {
          "components": [
            {
              "internalType": "uint256",
              "name": "tokenId",
              "type": "uint256"
            },
            {
              "internalType": "address payable",
              "name": "seller",
              "type": "address"
            },
            {
              "internalType": "address payable",
              "name": "owner",
              "type": "address"
            },
            {
              "internalType": "string",
              "name": "tourName",
              "type": "string"
            },
            {
              "internalType": "string",
              "name": "tourDate",
              "type": "string"
            },
            {
              "internalType": "uint256",
              "name": "price",
              "type": "uint256"
            },
            {
              "internalType": "bool",
              "name": "sold",
              "type": "bool"
            }
          ],
          "internalType": "struct NFTTicketSystem.MarketItem[]",
          "name": "",
          "type": "tuple[]"
        }
      ],
      "stateMutability": "view",
      "type": "function"
    },
    {
      "inputs": [],
      "name": "fetchMarketItems",
      "outputs": [
        {
          "components": [
            {
              "internalType": "uint256",
              "name": "tokenId",
              "type": "uint256"
            },
            {
              "internalType": "address payable",
              "name": "seller",
              "type": "address"
            },
            {
              "internalType": "address payable",
              "name": "owner",
              "type": "address"
            },
            {
              "internalType": "string",
              "name": "tourName",
              "type": "string"
            },
            {
              "internalType": "string",
              "name": "tourDate",
              "type": "string"
            },
            {
              "internalType": "uint256",
              "name": "price",
              "type": "uint256"
            },
            {
              "internalType": "bool",
              "name": "sold",
              "type": "bool"
            }
          ],
          "internalType": "struct NFTTicketSystem.MarketItem[]",
          "name": "",
          "type": "tuple[]"
        }
      ],
      "stateMutability": "view",
      "type": "function"
    },
    {
      "inputs": [],
      "name": "fetchMyNFTs",
      "outputs": [
        {
          "components": [
            {
              "internalType": "uint256",
              "name": "tokenId",
              "type": "uint256"
            },
            {
              "internalType": "address payable",
              "name": "seller",
              "type": "address"
            },
            {
              "internalType": "address payable",
              "name": "owner",
              "type": "address"
            },
            {
              "internalType": "string",
              "name": "tourName",
              "type": "string"
            },
            {
              "internalType": "string",
              "name": "tourDate",
              "type": "string"
            },
            {
              "internalType": "uint256",
              "name": "price",
              "type": "uint256"
            },
            {
              "internalType": "bool",
              "name": "sold",
              "type": "bool"
            }
          ],
          "internalType": "struct NFTTicketSystem.MarketItem[]",
          "name": "",
          "type": "tuple[]"
        }
      ],
      "stateMutability": "view",
      "type": "function"
    },
    {
      "inputs": [
        {
          "internalType": "uint256",
          "name": "tokenId",
          "type": "uint256"
        }
      ],
      "name": "getApproved",
      "outputs": [
        {
          "internalType": "address",
          "name": "",
          "type": "address"
        }
      ],
      "stateMutability": "view",
      "type": "function"
    },
    {
      "inputs": [
        {
          "internalType": "address",
          "name": "owner",
          "type": "address"
        },
        {
          "internalType": "address",
          "name": "operator",
          "type": "address"
        }
      ],
      "name": "isApprovedForAll",
      "outputs": [
        {
          "internalType": "bool",
          "name": "",
          "type": "bool"
        }
      ],
      "stateMutability": "view",
      "type": "function"
    },
    {
      "inputs": [],
      "name": "name",
      "outputs": [
        {
          "internalType": "string",
          "name": "",
          "type": "string"
        }
      ],
      "stateMutability": "view",
      "type": "function"
    },
    {
      "inputs": [
        {
          "internalType": "uint256",
          "name": "tokenId",
          "type": "uint256"
        }
      ],
      "name": "ownerOf",
      "outputs": [
        {
          "internalType": "address",
          "name": "",
          "type": "address"
        }
      ],
      "stateMutability": "view",
      "type": "function"
    },
    {
      "inputs": [
        {
          "internalType": "address",
          "name": "from",
          "type": "address"
        },
        {
          "internalType": "address",
          "name": "to",
          "type": "address"
        },
        {
          "internalType": "uint256",
          "name": "tokenId",
          "type": "uint256"
        }
      ],
      "name": "safeTransferFrom",
      "outputs": [],
      "stateMutability": "nonpayable",
      "type": "function"
    },
    {
      "inputs": [
        {
          "internalType": "address",
          "name": "from",
          "type": "address"
        },
        {
          "internalType": "address",
          "name": "to",
          "type": "address"
        },
        {
          "internalType": "uint256",
          "name": "tokenId",
          "type": "uint256"
        },
        {
          "internalType": "bytes",
          "name": "data",
          "type": "bytes"
        }
      ],
      "name": "safeTransferFrom",
      "outputs": [],
      "stateMutability": "nonpayable",
      "type": "function"
    },
    {
      "inputs": [
        {
          "internalType": "address",
          "name": "operator",
          "type": "address"
        },
        {
          "internalType": "bool",
          "name": "approved",
          "type": "bool"
        }
      ],
      "name": "setApprovalForAll",
      "outputs": [],
      "stateMutability": "nonpayable",
      "type": "function"
    },
    {
      "inputs": [
        {
          "internalType": "bytes4",
          "name": "interfaceId",
          "type": "bytes4"
        }
      ],
      "name": "supportsInterface",
      "outputs": [
        {
          "internalType": "bool",
          "name": "",
          "type": "bool"
        }
      ],
      "stateMutability": "view",
      "type": "function"
    },
    {
      "inputs": [],
      "name": "symbol",
      "outputs": [
        {
          "internalType": "string",
          "name": "",
          "type": "string"
        }
      ],
      "stateMutability": "view",
      "type": "function"
    },
    {
      "inputs": [
        {
          "internalType": "uint256",
          "name": "tokenId",
          "type": "uint256"
        }
      ],
      "name": "tokenURI",
      "outputs": [
        {
          "internalType": "string",
          "name": "",
          "type": "string"
        }
      ],
      "stateMutability": "view",
      "type": "function"
    },
    {
      "inputs": [
        {
          "internalType": "address",
          "name": "from",
          "type": "address"
        },
        {
          "internalType": "address",
          "name": "to",
          "type": "address"
        },
        {
          "internalType": "uint256",
          "name": "tokenId",
          "type": "uint256"
        }
      ],
      "name": "transferFrom",
      "outputs": [],
      "stateMutability": "nonpayable",
      "type": "function"
    }
  ],
  "bytecode": "0x60806040526658d15e17628000600b553480156200001c57600080fd5b506040518060400160405280601081526020017f4d657461766572736520546f6b656e73000000000000000000000000000000008152506040518060400160405280600481526020017f4d4554540000000000000000000000000000000000000000000000000000000081525081600090816200009a919062000370565b508060019081620000ac919062000370565b50505033600c60006101000a81548173ffffffffffffffffffffffffffffffffffffffff021916908373ffffffffffffffffffffffffffffffffffffffff16021790555062000457565b600081519050919050565b7f4e487b7100000000000000000000000000000000000000000000000000000000600052604160045260246000fd5b7f4e487b7100000000000000000000000000000000000000000000000000000000600052602260045260246000fd5b600060028204905060018216806200017857607f821691505b6020821081036200018e576200018d62000130565b5b50919050565b60008190508160005260206000209050919050565b60006020601f8301049050919050565b600082821b905092915050565b600060088302620001f87fffffffffffffffffffffffffffffffffffffffffffffffffffffffffffffffff82620001b9565b620002048683620001b9565b95508019841693508086168417925050509392505050565b6000819050919050565b6000819050919050565b6000620002516200024b62000245846200021c565b62000226565b6200021c565b9050919050565b6000819050919050565b6200026d8362000230565b620002856200027c8262000258565b848454620001c6565b825550505050565b600090565b6200029c6200028d565b620002a981848462000262565b505050565b5b81811015620002d157620002c560008262000292565b600181019050620002af565b5050565b601f8211156200032057620002ea8162000194565b620002f584620001a9565b8101602085101562000305578190505b6200031d6200031485620001a9565b830182620002ae565b50505b505050565b600082821c905092915050565b6000620003456000198460080262000325565b1980831691505092915050565b600062000360838362000332565b9150826002028217905092915050565b6200037b82620000f6565b67ffffffffffffffff81111562000397576200039662000101565b5b620003a382546200015f565b620003b0828285620002d5565b600060209050601f831160018114620003e85760008415620003d3578287015190505b620003df858262000352565b8655506200044f565b601f198416620003f88662000194565b60005b828110156200042257848901518255600182019150602085019450602081019050620003fb565b868310156200044257848901516200043e601f89168262000332565b8355505b6001600288020188555050505b505050505050565b61426880620004676000396000f3fe6080604052600436106101095760003560e01c80636352211e11610095578063b88d4fde11610064578063b88d4fde1461037d578063be9af536146103a6578063c87b56dd146103c2578063e7c3a03e146103ff578063e985e9c51461042f57610109565b80636352211e146102af57806370a08231146102ec57806395d89b4114610329578063a22cb4651461035457610109565b80630f08efe0116100dc5780630f08efe0146101dc578063202e37401461020757806323b872dd1461023257806342842e0e1461025b57806345f8fa801461028457610109565b806301ffc9a71461010e57806306fdde031461014b578063081812fc14610176578063095ea7b3146101b3575b600080fd5b34801561011a57600080fd5b5061013560048036038101906101309190612bdb565b61046c565b6040516101429190612c23565b60405180910390f35b34801561015757600080fd5b5061016061054e565b60405161016d9190612cce565b60405180910390f35b34801561018257600080fd5b5061019d60048036038101906101989190612d26565b6105e0565b6040516101aa9190612d94565b60405180910390f35b3480156101bf57600080fd5b506101da60048036038101906101d59190612ddb565b610626565b005b3480156101e857600080fd5b506101f161073d565b6040516101fe9190613009565b60405180910390f35b34801561021357600080fd5b5061021c610ac9565b6040516102299190613009565b60405180910390f35b34801561023e57600080fd5b506102596004803603810190610254919061302b565b610ed9565b005b34801561026757600080fd5b50610282600480360381019061027d919061302b565b610f39565b005b34801561029057600080fd5b50610299610f59565b6040516102a69190613009565b60405180910390f35b3480156102bb57600080fd5b506102d660048036038101906102d19190612d26565b611369565b6040516102e39190612d94565b60405180910390f35b3480156102f857600080fd5b50610313600480360381019061030e919061307e565b6113ef565b60405161032091906130ba565b60405180910390f35b34801561033557600080fd5b5061033e6114a6565b60405161034b9190612cce565b60405180910390f35b34801561036057600080fd5b5061037b60048036038101906103769190613101565b611538565b005b34801561038957600080fd5b506103a4600480360381019061039f9190613276565b61154e565b005b6103c060048036038101906103bb9190612d26565b6115b0565b005b3480156103ce57600080fd5b506103e960048036038101906103e49190612d26565b611769565b6040516103f69190612cce565b60405180910390f35b6104196004803603810190610414919061339a565b61187b565b60405161042691906130ba565b60405180910390f35b34801561043b57600080fd5b5061045660048036038101906104519190613455565b6118c1565b6040516104639190612c23565b60405180910390f35b60007f80ac58cd000000000000000000000000000000000000000000000000000000007bffffffffffffffffffffffffffffffffffffffffffffffffffffffff1916827bffffffffffffffffffffffffffffffffffffffffffffffffffffffff1916148061053757507f5b5e139f000000000000000000000000000000000000000000000000000000007bffffffffffffffffffffffffffffffffffffffffffffffffffffffff1916827bffffffffffffffffffffffffffffffffffffffffffffffffffffffff1916145b80610547575061054682611955565b5b9050919050565b60606000805461055d906134c4565b80601f0160208091040260200160405190810160405280929190818152602001828054610589906134c4565b80156105d65780601f106105ab576101008083540402835291602001916105d6565b820191906000526020600020905b8154815290600101906020018083116105b957829003601f168201915b5050505050905090565b60006105eb826119bf565b6004600083815260200190815260200160002060009054906101000a900473ffffffffffffffffffffffffffffffffffffffff169050919050565b600061063182611369565b90508073ffffffffffffffffffffffffffffffffffffffff168373ffffffffffffffffffffffffffffffffffffffff16036106a1576040517f08c379a000000000000000000000000000000000000000000000000000000000815260040161069890613567565b60405180910390fd5b8073ffffffffffffffffffffffffffffffffffffffff166106c0611a0a565b73ffffffffffffffffffffffffffffffffffffffff1614806106ef57506106ee816106e9611a0a565b6118c1565b5b61072e576040517f08c379a0000000000000000000000000000000000000000000000000000000008152600401610725906135f9565b60405180910390fd5b6107388383611a12565b505050565b6060600061074b6007611acb565b905060006107596008611acb565b6107636007611acb565b61076d9190613648565b90506000808267ffffffffffffffff81111561078c5761078b61314b565b5b6040519080825280602002602001820160405280156107c557816020015b6107b2612b04565b8152602001906001900390816107aa5790505b50905060005b84811015610abe573073ffffffffffffffffffffffffffffffffffffffff16600d60006001846107fb919061367c565b815260200190815260200160002060020160009054906101000a900473ffffffffffffffffffffffffffffffffffffffff1673ffffffffffffffffffffffffffffffffffffffff1603610aab576000600182610857919061367c565b90506000600d60008381526020019081526020016000209050806040518060e0016040529081600082015481526020016001820160009054906101000a900473ffffffffffffffffffffffffffffffffffffffff1673ffffffffffffffffffffffffffffffffffffffff1673ffffffffffffffffffffffffffffffffffffffff1681526020016002820160009054906101000a900473ffffffffffffffffffffffffffffffffffffffff1673ffffffffffffffffffffffffffffffffffffffff1673ffffffffffffffffffffffffffffffffffffffff168152602001600382018054610942906134c4565b80601f016020809104026020016040519081016040528092919081815260200182805461096e906134c4565b80156109bb5780601f10610990576101008083540402835291602001916109bb565b820191906000526020600020905b81548152906001019060200180831161099e57829003601f168201915b505050505081526020016004820180546109d4906134c4565b80601f0160208091040260200160405190810160405280929190818152602001828054610a00906134c4565b8015610a4d5780601f10610a2257610100808354040283529160200191610a4d565b820191906000526020600020905b815481529060010190602001808311610a3057829003601f168201915b50505050508152602001600582015481526020016006820160009054906101000a900460ff161515151581525050848681518110610a8e57610a8d6136b0565b5b6020026020010181905250600185610aa6919061367c565b945050505b8080610ab6906136df565b9150506107cb565b508094505050505090565b60606000610ad76007611acb565b905060008060005b83811015610b7f573373ffffffffffffffffffffffffffffffffffffffff16600d6000600184610b0f919061367c565b815260200190815260200160002060020160009054906101000a900473ffffffffffffffffffffffffffffffffffffffff1673ffffffffffffffffffffffffffffffffffffffff1603610b6c57600183610b69919061367c565b92505b8080610b77906136df565b915050610adf565b5060008267ffffffffffffffff811115610b9c57610b9b61314b565b5b604051908082528060200260200182016040528015610bd557816020015b610bc2612b04565b815260200190600190039081610bba5790505b50905060005b84811015610ece573373ffffffffffffffffffffffffffffffffffffffff16600d6000600184610c0b919061367c565b815260200190815260200160002060020160009054906101000a900473ffffffffffffffffffffffffffffffffffffffff1673ffffffffffffffffffffffffffffffffffffffff1603610ebb576000600182610c67919061367c565b90506000600d60008381526020019081526020016000209050806040518060e0016040529081600082015481526020016001820160009054906101000a900473ffffffffffffffffffffffffffffffffffffffff1673ffffffffffffffffffffffffffffffffffffffff1673ffffffffffffffffffffffffffffffffffffffff1681526020016002820160009054906101000a900473ffffffffffffffffffffffffffffffffffffffff1673ffffffffffffffffffffffffffffffffffffffff1673ffffffffffffffffffffffffffffffffffffffff168152602001600382018054610d52906134c4565b80601f0160208091040260200160405190810160405280929190818152602001828054610d7e906134c4565b8015610dcb5780601f10610da057610100808354040283529160200191610dcb565b820191906000526020600020905b815481529060010190602001808311610dae57829003601f168201915b50505050508152602001600482018054610de4906134c4565b80601f0160208091040260200160405190810160405280929190818152602001828054610e10906134c4565b8015610e5d5780601f10610e3257610100808354040283529160200191610e5d565b820191906000526020600020905b815481529060010190602001808311610e4057829003601f168201915b50505050508152602001600582015481526020016006820160009054906101000a900460ff161515151581525050848681518110610e9e57610e9d6136b0565b5b6020026020010181905250600185610eb6919061367c565b945050505b8080610ec6906136df565b915050610bdb565b508094505050505090565b610eea610ee4611a0a565b82611ad9565b610f29576040517f08c379a0000000000000000000000000000000000000000000000000000000008152600401610f2090613799565b60405180910390fd5b610f34838383611b6e565b505050565b610f548383836040518060200160405280600081525061154e565b505050565b60606000610f676007611acb565b905060008060005b8381101561100f573373ffffffffffffffffffffffffffffffffffffffff16600d6000600184610f9f919061367c565b815260200190815260200160002060010160009054906101000a900473ffffffffffffffffffffffffffffffffffffffff1673ffffffffffffffffffffffffffffffffffffffff1603610ffc57600183610ff9919061367c565b92505b8080611007906136df565b915050610f6f565b5060008267ffffffffffffffff81111561102c5761102b61314b565b5b60405190808252806020026020018201604052801561106557816020015b611052612b04565b81526020019060019003908161104a5790505b50905060005b8481101561135e573373ffffffffffffffffffffffffffffffffffffffff16600d600060018461109b919061367c565b815260200190815260200160002060010160009054906101000a900473ffffffffffffffffffffffffffffffffffffffff1673ffffffffffffffffffffffffffffffffffffffff160361134b5760006001826110f7919061367c565b90506000600d60008381526020019081526020016000209050806040518060e0016040529081600082015481526020016001820160009054906101000a900473ffffffffffffffffffffffffffffffffffffffff1673ffffffffffffffffffffffffffffffffffffffff1673ffffffffffffffffffffffffffffffffffffffff1681526020016002820160009054906101000a900473ffffffffffffffffffffffffffffffffffffffff1673ffffffffffffffffffffffffffffffffffffffff1673ffffffffffffffffffffffffffffffffffffffff1681526020016003820180546111e2906134c4565b80601f016020809104026020016040519081016040528092919081815260200182805461120e906134c4565b801561125b5780601f106112305761010080835404028352916020019161125b565b820191906000526020600020905b81548152906001019060200180831161123e57829003601f168201915b50505050508152602001600482018054611274906134c4565b80601f01602080910402602001604051908101604052809291908181526020018280546112a0906134c4565b80156112ed5780601f106112c2576101008083540402835291602001916112ed565b820191906000526020600020905b8154815290600101906020018083116112d057829003601f168201915b50505050508152602001600582015481526020016006820160009054906101000a900460ff16151515158152505084868151811061132e5761132d6136b0565b5b6020026020010181905250600185611346919061367c565b945050505b8080611356906136df565b91505061106b565b508094505050505090565b60008061137583611e67565b9050600073ffffffffffffffffffffffffffffffffffffffff168173ffffffffffffffffffffffffffffffffffffffff16036113e6576040517f08c379a00000000000000000000000000000000000000000000000000000000081526004016113dd90613805565b60405180910390fd5b80915050919050565b60008073ffffffffffffffffffffffffffffffffffffffff168273ffffffffffffffffffffffffffffffffffffffff160361145f576040517f08c379a000000000000000000000000000000000000000000000000000000000815260040161145690613897565b60405180910390fd5b600360008373ffffffffffffffffffffffffffffffffffffffff1673ffffffffffffffffffffffffffffffffffffffff168152602001908152602001600020549050919050565b6060600180546114b5906134c4565b80601f01602080910402602001604051908101604052809291908181526020018280546114e1906134c4565b801561152e5780601f106115035761010080835404028352916020019161152e565b820191906000526020600020905b81548152906001019060200180831161151157829003601f168201915b5050505050905090565b61154a611543611a0a565b8383611ea4565b5050565b61155f611559611a0a565b83611ad9565b61159e576040517f08c379a000000000000000000000000000000000000000000000000000000000815260040161159590613799565b60405180910390fd5b6115aa84848484612010565b50505050565b6000600d600083815260200190815260200160002060050154905080341461160d576040517f08c379a000000000000000000000000000000000000000000000000000000000815260040161160490613929565b60405180910390fd5b33600d600084815260200190815260200160002060020160006101000a81548173ffffffffffffffffffffffffffffffffffffffff021916908373ffffffffffffffffffffffffffffffffffffffff1602179055506001600d600084815260200190815260200160002060060160006101000a81548160ff0219169083151502179055506000600d600084815260200190815260200160002060010160006101000a81548173ffffffffffffffffffffffffffffffffffffffff021916908373ffffffffffffffffffffffffffffffffffffffff1602179055506116f1600861206c565b6116fc303384611b6e565b600c60009054906101000a900473ffffffffffffffffffffffffffffffffffffffff1673ffffffffffffffffffffffffffffffffffffffff166108fc349081150290604051600060405180830381858888f19350505050158015611764573d6000803e3d6000fd5b505050565b6060611774826119bf565b6000600660008481526020019081526020016000208054611794906134c4565b80601f01602080910402602001604051908101604052809291908181526020018280546117c0906134c4565b801561180d5780601f106117e25761010080835404028352916020019161180d565b820191906000526020600020905b8154815290600101906020018083116117f057829003601f168201915b50505050509050600061181e612082565b90506000815103611833578192505050611876565b600082511115611868578082604051602001611850929190613985565b60405160208183030381529060405292505050611876565b61187184612099565b925050505b919050565b6000611887600761206c565b60006118936007611acb565b905061189f3382612101565b6118a9818761231e565b6118b58186868661238b565b80915050949350505050565b6000600560008473ffffffffffffffffffffffffffffffffffffffff1673ffffffffffffffffffffffffffffffffffffffff16815260200190815260200160002060008373ffffffffffffffffffffffffffffffffffffffff1673ffffffffffffffffffffffffffffffffffffffff16815260200190815260200160002060009054906101000a900460ff16905092915050565b60007f01ffc9a7000000000000000000000000000000000000000000000000000000007bffffffffffffffffffffffffffffffffffffffffffffffffffffffff1916827bffffffffffffffffffffffffffffffffffffffffffffffffffffffff1916149050919050565b6119c8816125cc565b611a07576040517f08c379a00000000000000000000000000000000000000000000000000000000081526004016119fe90613805565b60405180910390fd5b50565b600033905090565b816004600083815260200190815260200160002060006101000a81548173ffffffffffffffffffffffffffffffffffffffff021916908373ffffffffffffffffffffffffffffffffffffffff160217905550808273ffffffffffffffffffffffffffffffffffffffff16611a8583611369565b73ffffffffffffffffffffffffffffffffffffffff167f8c5be1e5ebec7d5bd14f71427d1e84f3dd0314c0f7b2291e5b200ac8c7c3b92560405160405180910390a45050565b600081600001549050919050565b600080611ae583611369565b90508073ffffffffffffffffffffffffffffffffffffffff168473ffffffffffffffffffffffffffffffffffffffff161480611b275750611b2681856118c1565b5b80611b6557508373ffffffffffffffffffffffffffffffffffffffff16611b4d846105e0565b73ffffffffffffffffffffffffffffffffffffffff16145b91505092915050565b8273ffffffffffffffffffffffffffffffffffffffff16611b8e82611369565b73ffffffffffffffffffffffffffffffffffffffff1614611be4576040517f08c379a0000000000000000000000000000000000000000000000000000000008152600401611bdb90613a1b565b60405180910390fd5b600073ffffffffffffffffffffffffffffffffffffffff168273ffffffffffffffffffffffffffffffffffffffff1603611c53576040517f08c379a0000000000000000000000000000000000000000000000000000000008152600401611c4a90613aad565b60405180910390fd5b611c60838383600161260d565b8273ffffffffffffffffffffffffffffffffffffffff16611c8082611369565b73ffffffffffffffffffffffffffffffffffffffff1614611cd6576040517f08c379a0000000000000000000000000000000000000000000000000000000008152600401611ccd90613a1b565b60405180910390fd5b6004600082815260200190815260200160002060006101000a81549073ffffffffffffffffffffffffffffffffffffffff02191690556001600360008573ffffffffffffffffffffffffffffffffffffffff1673ffffffffffffffffffffffffffffffffffffffff168152602001908152602001600020600082825403925050819055506001600360008473ffffffffffffffffffffffffffffffffffffffff1673ffffffffffffffffffffffffffffffffffffffff16815260200190815260200160002060008282540192505081905550816002600083815260200190815260200160002060006101000a81548173ffffffffffffffffffffffffffffffffffffffff021916908373ffffffffffffffffffffffffffffffffffffffff160217905550808273ffffffffffffffffffffffffffffffffffffffff168473ffffffffffffffffffffffffffffffffffffffff167fddf252ad1be2c89b69c2b068fc378daa952ba7f163c4a11628f55a4df523b3ef60405160405180910390a4611e628383836001612733565b505050565b60006002600083815260200190815260200160002060009054906101000a900473ffffffffffffffffffffffffffffffffffffffff169050919050565b8173ffffffffffffffffffffffffffffffffffffffff168373ffffffffffffffffffffffffffffffffffffffff1603611f12576040517f08c379a0000000000000000000000000000000000000000000000000000000008152600401611f0990613b19565b60405180910390fd5b80600560008573ffffffffffffffffffffffffffffffffffffffff1673ffffffffffffffffffffffffffffffffffffffff16815260200190815260200160002060008473ffffffffffffffffffffffffffffffffffffffff1673ffffffffffffffffffffffffffffffffffffffff16815260200190815260200160002060006101000a81548160ff0219169083151502179055508173ffffffffffffffffffffffffffffffffffffffff168373ffffffffffffffffffffffffffffffffffffffff167f17307eab39ab6107e8899845ad3d59bd9653f200f220920489ca2b5937696c31836040516120039190612c23565b60405180910390a3505050565b61201b848484611b6e565b61202784848484612739565b612066576040517f08c379a000000000000000000000000000000000000000000000000000000000815260040161205d90613bab565b60405180910390fd5b50505050565b6001816000016000828254019250508190555050565b606060405180602001604052806000815250905090565b60606120a4826119bf565b60006120ae612082565b905060008151116120ce57604051806020016040528060008152506120f9565b806120d8846128c0565b6040516020016120e9929190613985565b6040516020818303038152906040525b915050919050565b600073ffffffffffffffffffffffffffffffffffffffff168273ffffffffffffffffffffffffffffffffffffffff1603612170576040517f08c379a000000000000000000000000000000000000000000000000000000000815260040161216790613c17565b60405180910390fd5b612179816125cc565b156121b9576040517f08c379a00000000000000000000000000000000000000000000000000000000081526004016121b090613c83565b60405180910390fd5b6121c760008383600161260d565b6121d0816125cc565b15612210576040517f08c379a000000000000000000000000000000000000000000000000000000000815260040161220790613c83565b60405180910390fd5b6001600360008473ffffffffffffffffffffffffffffffffffffffff1673ffffffffffffffffffffffffffffffffffffffff16815260200190815260200160002060008282540192505081905550816002600083815260200190815260200160002060006101000a81548173ffffffffffffffffffffffffffffffffffffffff021916908373ffffffffffffffffffffffffffffffffffffffff160217905550808273ffffffffffffffffffffffffffffffffffffffff16600073ffffffffffffffffffffffffffffffffffffffff167fddf252ad1be2c89b69c2b068fc378daa952ba7f163c4a11628f55a4df523b3ef60405160405180910390a461231a600083836001612733565b5050565b612327826125cc565b612366576040517f08c379a000000000000000000000000000000000000000000000000000000000815260040161235d90613d15565b60405180910390fd5b806006600084815260200190815260200160002090816123869190613ee1565b505050565b600083116123ce576040517f08c379a00000000000000000000000000000000000000000000000000000000081526004016123c590613fff565b60405180910390fd5b600b543414612412576040517f08c379a000000000000000000000000000000000000000000000000000000000815260040161240990614091565b60405180910390fd5b6040518060e001604052808581526020013373ffffffffffffffffffffffffffffffffffffffff1681526020013073ffffffffffffffffffffffffffffffffffffffff16815260200183815260200182815260200184815260200160001515815250600d60008681526020019081526020016000206000820151816000015560208201518160010160006101000a81548173ffffffffffffffffffffffffffffffffffffffff021916908373ffffffffffffffffffffffffffffffffffffffff16021790555060408201518160020160006101000a81548173ffffffffffffffffffffffffffffffffffffffff021916908373ffffffffffffffffffffffffffffffffffffffff16021790555060608201518160030190816125349190613ee1565b50608082015181600401908161254a9190613ee1565b5060a0820151816005015560c08201518160060160006101000a81548160ff021916908315150217905550905050612583333086611b6e565b837f283baf4c3002427ff19d6e9680abeab7e45401dcce1b7f38af7913c6d493d360333085858860006040516125be969594939291906140b1565b60405180910390a250505050565b60008073ffffffffffffffffffffffffffffffffffffffff166125ee83611e67565b73ffffffffffffffffffffffffffffffffffffffff1614159050919050565b600181111561272d57600073ffffffffffffffffffffffffffffffffffffffff168473ffffffffffffffffffffffffffffffffffffffff16146126a15780600360008673ffffffffffffffffffffffffffffffffffffffff1673ffffffffffffffffffffffffffffffffffffffff16815260200190815260200160002060008282546126999190613648565b925050819055505b600073ffffffffffffffffffffffffffffffffffffffff168373ffffffffffffffffffffffffffffffffffffffff161461272c5780600360008573ffffffffffffffffffffffffffffffffffffffff1673ffffffffffffffffffffffffffffffffffffffff1681526020019081526020016000206000828254612724919061367c565b925050819055505b5b50505050565b50505050565b600061275a8473ffffffffffffffffffffffffffffffffffffffff1661298e565b156128b3578373ffffffffffffffffffffffffffffffffffffffff1663150b7a02612783611a0a565b8786866040518563ffffffff1660e01b81526004016127a59493929190614175565b6020604051808303816000875af19250505080156127e157506040513d601f19601f820116820180604052508101906127de91906141d6565b60015b612863573d8060008114612811576040519150601f19603f3d011682016040523d82523d6000602084013e612816565b606091505b50600081510361285b576040517f08c379a000000000000000000000000000000000000000000000000000000000815260040161285290613bab565b60405180910390fd5b805181602001fd5b63150b7a0260e01b7bffffffffffffffffffffffffffffffffffffffffffffffffffffffff1916817bffffffffffffffffffffffffffffffffffffffffffffffffffffffff1916149150506128b8565b600190505b949350505050565b6060600060016128cf846129b1565b01905060008167ffffffffffffffff8111156128ee576128ed61314b565b5b6040519080825280601f01601f1916602001820160405280156129205781602001600182028036833780820191505090505b509050600082602001820190505b600115612983578080600190039150507f3031323334353637383961626364656600000000000000000000000000000000600a86061a8153600a858161297757612976614203565b5b0494506000850361292e575b819350505050919050565b6000808273ffffffffffffffffffffffffffffffffffffffff163b119050919050565b600080600090507a184f03e93ff9f4daa797ed6e38ed64bf6a1f0100000000000000008310612a0f577a184f03e93ff9f4daa797ed6e38ed64bf6a1f0100000000000000008381612a0557612a04614203565b5b0492506040810190505b6d04ee2d6d415b85acef81000000008310612a4c576d04ee2d6d415b85acef81000000008381612a4257612a41614203565b5b0492506020810190505b662386f26fc100008310612a7b57662386f26fc100008381612a7157612a70614203565b5b0492506010810190505b6305f5e1008310612aa4576305f5e1008381612a9a57612a99614203565b5b0492506008810190505b6127108310612ac9576127108381612abf57612abe614203565b5b0492506004810190505b60648310612aec5760648381612ae257612ae1614203565b5b0492506002810190505b600a8310612afb576001810190505b80915050919050565b6040518060e0016040528060008152602001600073ffffffffffffffffffffffffffffffffffffffff168152602001600073ffffffffffffffffffffffffffffffffffffffff1681526020016060815260200160608152602001600081526020016000151581525090565b6000604051905090565b600080fd5b600080fd5b60007fffffffff0000000000000000000000000000000000000000000000000000000082169050919050565b612bb881612b83565b8114612bc357600080fd5b50565b600081359050612bd581612baf565b92915050565b600060208284031215612bf157612bf0612b79565b5b6000612bff84828501612bc6565b91505092915050565b60008115159050919050565b612c1d81612c08565b82525050565b6000602082019050612c386000830184612c14565b92915050565b600081519050919050565b600082825260208201905092915050565b60005b83811015612c78578082015181840152602081019050612c5d565b60008484015250505050565b6000601f19601f8301169050919050565b6000612ca082612c3e565b612caa8185612c49565b9350612cba818560208601612c5a565b612cc381612c84565b840191505092915050565b60006020820190508181036000830152612ce88184612c95565b905092915050565b6000819050919050565b612d0381612cf0565b8114612d0e57600080fd5b50565b600081359050612d2081612cfa565b92915050565b600060208284031215612d3c57612d3b612b79565b5b6000612d4a84828501612d11565b91505092915050565b600073ffffffffffffffffffffffffffffffffffffffff82169050919050565b6000612d7e82612d53565b9050919050565b612d8e81612d73565b82525050565b6000602082019050612da96000830184612d85565b92915050565b612db881612d73565b8114612dc357600080fd5b50565b600081359050612dd581612daf565b92915050565b60008060408385031215612df257612df1612b79565b5b6000612e0085828601612dc6565b9250506020612e1185828601612d11565b9150509250929050565b600081519050919050565b600082825260208201905092915050565b6000819050602082019050919050565b612e5081612cf0565b82525050565b6000612e6182612d53565b9050919050565b612e7181612e56565b82525050565b600082825260208201905092915050565b6000612e9382612c3e565b612e9d8185612e77565b9350612ead818560208601612c5a565b612eb681612c84565b840191505092915050565b612eca81612c08565b82525050565b600060e083016000830151612ee86000860182612e47565b506020830151612efb6020860182612e68565b506040830151612f0e6040860182612e68565b5060608301518482036060860152612f268282612e88565b91505060808301518482036080860152612f408282612e88565b91505060a0830151612f5560a0860182612e47565b5060c0830151612f6860c0860182612ec1565b508091505092915050565b6000612f7f8383612ed0565b905092915050565b6000602082019050919050565b6000612f9f82612e1b565b612fa98185612e26565b935083602082028501612fbb85612e37565b8060005b85811015612ff75784840389528151612fd88582612f73565b9450612fe383612f87565b925060208a01995050600181019050612fbf565b50829750879550505050505092915050565b600060208201905081810360008301526130238184612f94565b905092915050565b60008060006060848603121561304457613043612b79565b5b600061305286828701612dc6565b935050602061306386828701612dc6565b925050604061307486828701612d11565b9150509250925092565b60006020828403121561309457613093612b79565b5b60006130a284828501612dc6565b91505092915050565b6130b481612cf0565b82525050565b60006020820190506130cf60008301846130ab565b92915050565b6130de81612c08565b81146130e957600080fd5b50565b6000813590506130fb816130d5565b92915050565b6000806040838503121561311857613117612b79565b5b600061312685828601612dc6565b9250506020613137858286016130ec565b9150509250929050565b600080fd5b600080fd5b7f4e487b7100000000000000000000000000000000000000000000000000000000600052604160045260246000fd5b61318382612c84565b810181811067ffffffffffffffff821117156131a2576131a161314b565b5b80604052505050565b60006131b5612b6f565b90506131c1828261317a565b919050565b600067ffffffffffffffff8211156131e1576131e061314b565b5b6131ea82612c84565b9050602081019050919050565b82818337600083830152505050565b6000613219613214846131c6565b6131ab565b90508281526020810184848401111561323557613234613146565b5b6132408482856131f7565b509392505050565b600082601f83011261325d5761325c613141565b5b813561326d848260208601613206565b91505092915050565b600080600080608085870312156132905761328f612b79565b5b600061329e87828801612dc6565b94505060206132af87828801612dc6565b93505060406132c087828801612d11565b925050606085013567ffffffffffffffff8111156132e1576132e0612b7e565b5b6132ed87828801613248565b91505092959194509250565b600067ffffffffffffffff8211156133145761331361314b565b5b61331d82612c84565b9050602081019050919050565b600061333d613338846132f9565b6131ab565b90508281526020810184848401111561335957613358613146565b5b6133648482856131f7565b509392505050565b600082601f83011261338157613380613141565b5b813561339184826020860161332a565b91505092915050565b600080600080608085870312156133b4576133b3612b79565b5b600085013567ffffffffffffffff8111156133d2576133d1612b7e565b5b6133de8782880161336c565b94505060206133ef87828801612d11565b935050604085013567ffffffffffffffff8111156134105761340f612b7e565b5b61341c8782880161336c565b925050606085013567ffffffffffffffff81111561343d5761343c612b7e565b5b6134498782880161336c565b91505092959194509250565b6000806040838503121561346c5761346b612b79565b5b600061347a85828601612dc6565b925050602061348b85828601612dc6565b9150509250929050565b7f4e487b7100000000000000000000000000000000000000000000000000000000600052602260045260246000fd5b600060028204905060018216806134dc57607f821691505b6020821081036134ef576134ee613495565b5b50919050565b7f4552433732313a20617070726f76616c20746f2063757272656e74206f776e6560008201527f7200000000000000000000000000000000000000000000000000000000000000602082015250565b6000613551602183612c49565b915061355c826134f5565b604082019050919050565b6000602082019050818103600083015261358081613544565b9050919050565b7f4552433732313a20617070726f76652063616c6c6572206973206e6f7420746f60008201527f6b656e206f776e6572206f7220617070726f76656420666f7220616c6c000000602082015250565b60006135e3603d83612c49565b91506135ee82613587565b604082019050919050565b60006020820190508181036000830152613612816135d6565b9050919050565b7f4e487b7100000000000000000000000000000000000000000000000000000000600052601160045260246000fd5b600061365382612cf0565b915061365e83612cf0565b925082820390508181111561367657613675613619565b5b92915050565b600061368782612cf0565b915061369283612cf0565b92508282019050808211156136aa576136a9613619565b5b92915050565b7f4e487b7100000000000000000000000000000000000000000000000000000000600052603260045260246000fd5b60006136ea82612cf0565b91507fffffffffffffffffffffffffffffffffffffffffffffffffffffffffffffffff820361371c5761371b613619565b5b600182019050919050565b7f4552433732313a2063616c6c6572206973206e6f7420746f6b656e206f776e6560008201527f72206f7220617070726f76656400000000000000000000000000000000000000602082015250565b6000613783602d83612c49565b915061378e82613727565b604082019050919050565b600060208201905081810360008301526137b281613776565b9050919050565b7f4552433732313a20696e76616c696420746f6b656e2049440000000000000000600082015250565b60006137ef601883612c49565b91506137fa826137b9565b602082019050919050565b6000602082019050818103600083015261381e816137e2565b9050919050565b7f4552433732313a2061646472657373207a65726f206973206e6f74206120766160008201527f6c6964206f776e65720000000000000000000000000000000000000000000000602082015250565b6000613881602983612c49565b915061388c82613825565b604082019050919050565b600060208201905081810360008301526138b081613874565b9050919050565b7f506c6561736520706179207468652066756c6c20616d6f756e7420696e206f7260008201527f64657220746f20636f6d706c65746520746865207472616e73616374696f6e21602082015250565b6000613913604083612c49565b915061391e826138b7565b604082019050919050565b6000602082019050818103600083015261394281613906565b9050919050565b600081905092915050565b600061395f82612c3e565b6139698185613949565b9350613979818560208601612c5a565b80840191505092915050565b60006139918285613954565b915061399d8284613954565b91508190509392505050565b7f4552433732313a207472616e736665722066726f6d20696e636f72726563742060008201527f6f776e6572000000000000000000000000000000000000000000000000000000602082015250565b6000613a05602583612c49565b9150613a10826139a9565b604082019050919050565b60006020820190508181036000830152613a34816139f8565b9050919050565b7f4552433732313a207472616e7366657220746f20746865207a65726f2061646460008201527f7265737300000000000000000000000000000000000000000000000000000000602082015250565b6000613a97602483612c49565b9150613aa282613a3b565b604082019050919050565b60006020820190508181036000830152613ac681613a8a565b9050919050565b7f4552433732313a20617070726f766520746f2063616c6c657200000000000000600082015250565b6000613b03601983612c49565b9150613b0e82613acd565b602082019050919050565b60006020820190508181036000830152613b3281613af6565b9050919050565b7f4552433732313a207472616e7366657220746f206e6f6e20455243373231526560008201527f63656976657220696d706c656d656e7465720000000000000000000000000000602082015250565b6000613b95603283612c49565b9150613ba082613b39565b604082019050919050565b60006020820190508181036000830152613bc481613b88565b9050919050565b7f4552433732313a206d696e7420746f20746865207a65726f2061646472657373600082015250565b6000613c01602083612c49565b9150613c0c82613bcb565b602082019050919050565b60006020820190508181036000830152613c3081613bf4565b9050919050565b7f4552433732313a20746f6b656e20616c7265616479206d696e74656400000000600082015250565b6000613c6d601c83612c49565b9150613c7882613c37565b602082019050919050565b60006020820190508181036000830152613c9c81613c60565b9050919050565b7f45524337323155524953746f726167653a2055524920736574206f66206e6f6e60008201527f6578697374656e7420746f6b656e000000000000000000000000000000000000602082015250565b6000613cff602e83612c49565b9150613d0a82613ca3565b604082019050919050565b60006020820190508181036000830152613d2e81613cf2565b9050919050565b60008190508160005260206000209050919050565b60006020601f8301049050919050565b600082821b905092915050565b600060088302613d977fffffffffffffffffffffffffffffffffffffffffffffffffffffffffffffffff82613d5a565b613da18683613d5a565b95508019841693508086168417925050509392505050565b6000819050919050565b6000613dde613dd9613dd484612cf0565b613db9565b612cf0565b9050919050565b6000819050919050565b613df883613dc3565b613e0c613e0482613de5565b848454613d67565b825550505050565b600090565b613e21613e14565b613e2c818484613def565b505050565b5b81811015613e5057613e45600082613e19565b600181019050613e32565b5050565b601f821115613e9557613e6681613d35565b613e6f84613d4a565b81016020851015613e7e578190505b613e92613e8a85613d4a565b830182613e31565b50505b505050565b600082821c905092915050565b6000613eb860001984600802613e9a565b1980831691505092915050565b6000613ed18383613ea7565b9150826002028217905092915050565b613eea82612c3e565b67ffffffffffffffff811115613f0357613f0261314b565b5b613f0d82546134c4565b613f18828285613e54565b600060209050601f831160018114613f4b5760008415613f39578287015190505b613f438582613ec5565b865550613fab565b601f198416613f5986613d35565b60005b82811015613f8157848901518255600182019150602085019450602081019050613f5c565b86831015613f9e5784890151613f9a601f891682613ea7565b8355505b6001600288020188555050505b505050505050565b7f5072696365206d757374206265206174206c6561737420312077656900000000600082015250565b6000613fe9601c83612c49565b9150613ff482613fb3565b602082019050919050565b6000602082019050818103600083015261401881613fdc565b9050919050565b7f5072696365206d75737420626520657175616c20746f206c697374696e67207060008201527f7269636500000000000000000000000000000000000000000000000000000000602082015250565b600061407b602483612c49565b91506140868261401f565b604082019050919050565b600060208201905081810360008301526140aa8161406e565b9050919050565b600060c0820190506140c66000830189612d85565b6140d36020830188612d85565b81810360408301526140e58187612c95565b905081810360608301526140f98186612c95565b905061410860808301856130ab565b61411560a0830184612c14565b979650505050505050565b600081519050919050565b600082825260208201905092915050565b600061414782614120565b614151818561412b565b9350614161818560208601612c5a565b61416a81612c84565b840191505092915050565b600060808201905061418a6000830187612d85565b6141976020830186612d85565b6141a460408301856130ab565b81810360608301526141b6818461413c565b905095945050505050565b6000815190506141d081612baf565b92915050565b6000602082840312156141ec576141eb612b79565b5b60006141fa848285016141c1565b91505092915050565b7f4e487b7100000000000000000000000000000000000000000000000000000000600052601260045260246000fdfea26469706673582212200fa38b90b1a111f57f6575e40180999136c79d2e3462ff1bbea9a4caa78f5f2964736f6c63430008110033",
  "linkReferences": {},
  "deployedLinkReferences": {}
}