{
  "_format": "hh-sol-artifact-1",
  "contractName": "NFTTicketSystem",
  "sourceName": "contracts/NFTTicketSystem.sol",
  "abi": [
    {
      "inputs": [],
      "stateMutability": "nonpayable",
      "type": "constructor"
    },
    {
      "anonymous": false,
      "inputs": [
        {
          "indexed": true,
          "internalType": "address",
          "name": "owner",
          "type": "address"
        },
        {
          "indexed": true,
          "internalType": "address",
          "name": "approved",
          "type": "address"
        },
        {
          "indexed": true,
          "internalType": "uint256",
          "name": "tokenId",
          "type": "uint256"
        }
      ],
      "name": "Approval",
      "type": "event"
    },
    {
      "anonymous": false,
      "inputs": [
        {
          "indexed": true,
          "internalType": "address",
          "name": "owner",
          "type": "address"
        },
        {
          "indexed": true,
          "internalType": "address",
          "name": "operator",
          "type": "address"
        },
        {
          "indexed": false,
          "internalType": "bool",
          "name": "approved",
          "type": "bool"
        }
      ],
      "name": "ApprovalForAll",
      "type": "event"
    },
    {
      "anonymous": false,
      "inputs": [
        {
          "indexed": true,
          "internalType": "uint256",
          "name": "tokenId",
          "type": "uint256"
        },
        {
          "indexed": false,
          "internalType": "address",
          "name": "seller",
          "type": "address"
        },
        {
          "indexed": false,
          "internalType": "address",
          "name": "owner",
          "type": "address"
        },
        {
          "indexed": false,
          "internalType": "uint256",
          "name": "price",
          "type": "uint256"
        },
        {
          "indexed": false,
          "internalType": "bool",
          "name": "sold",
          "type": "bool"
        }
      ],
      "name": "MarketItemCreated",
      "type": "event"
    },
    {
      "anonymous": false,
      "inputs": [
        {
          "indexed": true,
          "internalType": "address",
          "name": "from",
          "type": "address"
        },
        {
          "indexed": true,
          "internalType": "address",
          "name": "to",
          "type": "address"
        },
        {
          "indexed": true,
          "internalType": "uint256",
          "name": "tokenId",
          "type": "uint256"
        }
      ],
      "name": "Transfer",
      "type": "event"
    },
    {
      "inputs": [
        {
          "internalType": "address",
          "name": "to",
          "type": "address"
        },
        {
          "internalType": "uint256",
          "name": "tokenId",
          "type": "uint256"
        }
      ],
      "name": "approve",
      "outputs": [],
      "stateMutability": "nonpayable",
      "type": "function"
    },
    {
      "inputs": [
        {
          "internalType": "address",
          "name": "owner",
          "type": "address"
        }
      ],
      "name": "balanceOf",
      "outputs": [
        {
          "internalType": "uint256",
          "name": "",
          "type": "uint256"
        }
      ],
      "stateMutability": "view",
      "type": "function"
    },
    {
      "inputs": [
        {
          "internalType": "uint256",
          "name": "tokenId",
          "type": "uint256"
        }
      ],
      "name": "createMarketSale",
      "outputs": [],
      "stateMutability": "payable",
      "type": "function"
    },
    {
      "inputs": [
        {
          "internalType": "string",
          "name": "tokenURI",
          "type": "string"
        },
        {
          "internalType": "uint256",
          "name": "price",
          "type": "uint256"
        }
      ],
      "name": "createTokenNFT",
      "outputs": [
        {
          "internalType": "uint256",
          "name": "",
          "type": "uint256"
        }
      ],
      "stateMutability": "payable",
      "type": "function"
    },
    {
      "inputs": [],
      "name": "fetchItemsListed",
      "outputs": [
        {
          "components": [
            {
              "internalType": "uint256",
              "name": "tokenId",
              "type": "uint256"
            },
            {
              "internalType": "address payable",
              "name": "seller",
              "type": "address"
            },
            {
              "internalType": "address payable",
              "name": "owner",
              "type": "address"
            },
            {
              "internalType": "uint256",
              "name": "price",
              "type": "uint256"
            },
            {
              "internalType": "bool",
              "name": "sold",
              "type": "bool"
            }
          ],
          "internalType": "struct NFTTicketSystem.MarketItem[]",
          "name": "",
          "type": "tuple[]"
        }
      ],
      "stateMutability": "view",
      "type": "function"
    },
    {
      "inputs": [],
      "name": "fetchMarketItems",
      "outputs": [
        {
          "components": [
            {
              "internalType": "uint256",
              "name": "tokenId",
              "type": "uint256"
            },
            {
              "internalType": "address payable",
              "name": "seller",
              "type": "address"
            },
            {
              "internalType": "address payable",
              "name": "owner",
              "type": "address"
            },
            {
              "internalType": "uint256",
              "name": "price",
              "type": "uint256"
            },
            {
              "internalType": "bool",
              "name": "sold",
              "type": "bool"
            }
          ],
          "internalType": "struct NFTTicketSystem.MarketItem[]",
          "name": "",
          "type": "tuple[]"
        }
      ],
      "stateMutability": "view",
      "type": "function"
    },
    {
      "inputs": [],
      "name": "fetchMyNFTs",
      "outputs": [
        {
          "components": [
            {
              "internalType": "uint256",
              "name": "tokenId",
              "type": "uint256"
            },
            {
              "internalType": "address payable",
              "name": "seller",
              "type": "address"
            },
            {
              "internalType": "address payable",
              "name": "owner",
              "type": "address"
            },
            {
              "internalType": "uint256",
              "name": "price",
              "type": "uint256"
            },
            {
              "internalType": "bool",
              "name": "sold",
              "type": "bool"
            }
          ],
          "internalType": "struct NFTTicketSystem.MarketItem[]",
          "name": "",
          "type": "tuple[]"
        }
      ],
      "stateMutability": "view",
      "type": "function"
    },
    {
      "inputs": [
        {
          "internalType": "uint256",
          "name": "tokenId",
          "type": "uint256"
        }
      ],
      "name": "getApproved",
      "outputs": [
        {
          "internalType": "address",
          "name": "",
          "type": "address"
        }
      ],
      "stateMutability": "view",
      "type": "function"
    },
    {
      "inputs": [],
      "name": "getListingPrice",
      "outputs": [
        {
          "internalType": "uint256",
          "name": "",
          "type": "uint256"
        }
      ],
      "stateMutability": "view",
      "type": "function"
    },
    {
      "inputs": [
        {
          "internalType": "address",
          "name": "owner",
          "type": "address"
        },
        {
          "internalType": "address",
          "name": "operator",
          "type": "address"
        }
      ],
      "name": "isApprovedForAll",
      "outputs": [
        {
          "internalType": "bool",
          "name": "",
          "type": "bool"
        }
      ],
      "stateMutability": "view",
      "type": "function"
    },
    {
      "inputs": [],
      "name": "name",
      "outputs": [
        {
          "internalType": "string",
          "name": "",
          "type": "string"
        }
      ],
      "stateMutability": "view",
      "type": "function"
    },
    {
      "inputs": [
        {
          "internalType": "uint256",
          "name": "tokenId",
          "type": "uint256"
        }
      ],
      "name": "ownerOf",
      "outputs": [
        {
          "internalType": "address",
          "name": "",
          "type": "address"
        }
      ],
      "stateMutability": "view",
      "type": "function"
    },
    {
      "inputs": [
        {
          "internalType": "address",
          "name": "from",
          "type": "address"
        },
        {
          "internalType": "address",
          "name": "to",
          "type": "address"
        },
        {
          "internalType": "uint256",
          "name": "tokenId",
          "type": "uint256"
        }
      ],
      "name": "safeTransferFrom",
      "outputs": [],
      "stateMutability": "nonpayable",
      "type": "function"
    },
    {
      "inputs": [
        {
          "internalType": "address",
          "name": "from",
          "type": "address"
        },
        {
          "internalType": "address",
          "name": "to",
          "type": "address"
        },
        {
          "internalType": "uint256",
          "name": "tokenId",
          "type": "uint256"
        },
        {
          "internalType": "bytes",
          "name": "data",
          "type": "bytes"
        }
      ],
      "name": "safeTransferFrom",
      "outputs": [],
      "stateMutability": "nonpayable",
      "type": "function"
    },
    {
      "inputs": [
        {
          "internalType": "address",
          "name": "operator",
          "type": "address"
        },
        {
          "internalType": "bool",
          "name": "approved",
          "type": "bool"
        }
      ],
      "name": "setApprovalForAll",
      "outputs": [],
      "stateMutability": "nonpayable",
      "type": "function"
    },
    {
      "inputs": [
        {
          "internalType": "bytes4",
          "name": "interfaceId",
          "type": "bytes4"
        }
      ],
      "name": "supportsInterface",
      "outputs": [
        {
          "internalType": "bool",
          "name": "",
          "type": "bool"
        }
      ],
      "stateMutability": "view",
      "type": "function"
    },
    {
      "inputs": [],
      "name": "symbol",
      "outputs": [
        {
          "internalType": "string",
          "name": "",
          "type": "string"
        }
      ],
      "stateMutability": "view",
      "type": "function"
    },
    {
      "inputs": [
        {
          "internalType": "uint256",
          "name": "tokenId",
          "type": "uint256"
        }
      ],
      "name": "tokenURI",
      "outputs": [
        {
          "internalType": "string",
          "name": "",
          "type": "string"
        }
      ],
      "stateMutability": "view",
      "type": "function"
    },
    {
      "inputs": [
        {
          "internalType": "address",
          "name": "from",
          "type": "address"
        },
        {
          "internalType": "address",
          "name": "to",
          "type": "address"
        },
        {
          "internalType": "uint256",
          "name": "tokenId",
          "type": "uint256"
        }
      ],
      "name": "transferFrom",
      "outputs": [],
      "stateMutability": "nonpayable",
      "type": "function"
    },
    {
      "inputs": [
        {
          "internalType": "uint256",
          "name": "_listingPrice",
          "type": "uint256"
        }
      ],
      "name": "updateListingPrice",
      "outputs": [],
      "stateMutability": "payable",
      "type": "function"
    }
  ],
  "bytecode": "0x60806040526658d15e176280006009553480156200001c57600080fd5b506040518060400160405280601081526020017f4d657461766572736520546f6b656e73000000000000000000000000000000008152506040518060400160405280600481526020017f4d4554540000000000000000000000000000000000000000000000000000000081525081600090816200009a919062000370565b508060019081620000ac919062000370565b50505033600a60006101000a81548173ffffffffffffffffffffffffffffffffffffffff021916908373ffffffffffffffffffffffffffffffffffffffff16021790555062000457565b600081519050919050565b7f4e487b7100000000000000000000000000000000000000000000000000000000600052604160045260246000fd5b7f4e487b7100000000000000000000000000000000000000000000000000000000600052602260045260246000fd5b600060028204905060018216806200017857607f821691505b6020821081036200018e576200018d62000130565b5b50919050565b60008190508160005260206000209050919050565b60006020601f8301049050919050565b600082821b905092915050565b600060088302620001f87fffffffffffffffffffffffffffffffffffffffffffffffffffffffffffffffff82620001b9565b620002048683620001b9565b95508019841693508086168417925050509392505050565b6000819050919050565b6000819050919050565b6000620002516200024b62000245846200021c565b62000226565b6200021c565b9050919050565b6000819050919050565b6200026d8362000230565b620002856200027c8262000258565b848454620001c6565b825550505050565b600090565b6200029c6200028d565b620002a981848462000262565b505050565b5b81811015620002d157620002c560008262000292565b600181019050620002af565b5050565b601f8211156200032057620002ea8162000194565b620002f584620001a9565b8101602085101562000305578190505b6200031d6200031485620001a9565b830182620002ae565b50505b505050565b600082821c905092915050565b6000620003456000198460080262000325565b1980831691505092915050565b600062000360838362000332565b9150826002028217905092915050565b6200037b82620000f6565b67ffffffffffffffff81111562000397576200039662000101565b5b620003a382546200015f565b620003b0828285620002d5565b600060209050601f831160018114620003e85760008415620003d3578287015190505b620003df858262000352565b8655506200044f565b601f198416620003f88662000194565b60005b828110156200042257848901518255600182019150602085019450602081019050620003fb565b868310156200044257848901516200043e601f89168262000332565b8355505b6001600288020188555050505b505050505050565b613e4880620004676000396000f3fe60806040526004361061011f5760003560e01c80636352211e116100a0578063b88d4fde11610064578063b88d4fde146103da578063be9af53614610403578063c78d68f31461041f578063c87b56dd1461044f578063e985e9c51461048c5761011f565b80636352211e146102f057806370a082311461032d57806395d89b411461036a578063a22cb46514610395578063ae677aa3146103be5761011f565b806312e85585116100e757806312e855851461021d578063202e37401461024857806323b872dd1461027357806342842e0e1461029c57806345f8fa80146102c55761011f565b806301ffc9a71461012457806306fdde0314610161578063081812fc1461018c578063095ea7b3146101c95780630f08efe0146101f2575b600080fd5b34801561013057600080fd5b5061014b600480360381019061014691906128dc565b6104c9565b6040516101589190612924565b60405180910390f35b34801561016d57600080fd5b506101766105ab565b60405161018391906129cf565b60405180910390f35b34801561019857600080fd5b506101b360048036038101906101ae9190612a27565b61063d565b6040516101c09190612a95565b60405180910390f35b3480156101d557600080fd5b506101f060048036038101906101eb9190612adc565b610683565b005b3480156101fe57600080fd5b5061020761079a565b6040516102149190612c72565b60405180910390f35b34801561022957600080fd5b50610232610a02565b60405161023f9190612ca3565b60405180910390f35b34801561025457600080fd5b5061025d610a0c565b60405161026a9190612c72565b60405180910390f35b34801561027f57600080fd5b5061029a60048036038101906102959190612cbe565b610cf8565b005b3480156102a857600080fd5b506102c360048036038101906102be9190612cbe565b610d58565b005b3480156102d157600080fd5b506102da610d78565b6040516102e79190612c72565b60405180910390f35b3480156102fc57600080fd5b5061031760048036038101906103129190612a27565b611064565b6040516103249190612a95565b60405180910390f35b34801561033957600080fd5b50610354600480360381019061034f9190612d11565b6110ea565b6040516103619190612ca3565b60405180910390f35b34801561037657600080fd5b5061037f6111a1565b60405161038c91906129cf565b60405180910390f35b3480156103a157600080fd5b506103bc60048036038101906103b79190612d6a565b611233565b005b6103d860048036038101906103d39190612a27565b611249565b005b3480156103e657600080fd5b5061040160048036038101906103fc9190612edf565b6112e3565b005b61041d60048036038101906104189190612a27565b611345565b005b61043960048036038101906104349190613003565b6114fe565b6040516104469190612ca3565b60405180910390f35b34801561045b57600080fd5b5061047660048036038101906104719190612a27565b611540565b60405161048391906129cf565b60405180910390f35b34801561049857600080fd5b506104b360048036038101906104ae919061305f565b611652565b6040516104c09190612924565b60405180910390f35b60007f80ac58cd000000000000000000000000000000000000000000000000000000007bffffffffffffffffffffffffffffffffffffffffffffffffffffffff1916827bffffffffffffffffffffffffffffffffffffffffffffffffffffffff1916148061059457507f5b5e139f000000000000000000000000000000000000000000000000000000007bffffffffffffffffffffffffffffffffffffffffffffffffffffffff1916827bffffffffffffffffffffffffffffffffffffffffffffffffffffffff1916145b806105a457506105a3826116e6565b5b9050919050565b6060600080546105ba906130ce565b80601f01602080910402602001604051908101604052809291908181526020018280546105e6906130ce565b80156106335780601f1061060857610100808354040283529160200191610633565b820191906000526020600020905b81548152906001019060200180831161061657829003601f168201915b5050505050905090565b600061064882611750565b6004600083815260200190815260200160002060009054906101000a900473ffffffffffffffffffffffffffffffffffffffff169050919050565b600061068e82611064565b90508073ffffffffffffffffffffffffffffffffffffffff168373ffffffffffffffffffffffffffffffffffffffff16036106fe576040517f08c379a00000000000000000000000000000000000000000000000000000000081526004016106f590613171565b60405180910390fd5b8073ffffffffffffffffffffffffffffffffffffffff1661071d61179b565b73ffffffffffffffffffffffffffffffffffffffff16148061074c575061074b8161074661179b565b611652565b5b61078b576040517f08c379a000000000000000000000000000000000000000000000000000000000815260040161078290613203565b60405180910390fd5b61079583836117a3565b505050565b606060006107a8600761185c565b905060006107b6600861185c565b6107c0600761185c565b6107ca9190613252565b90506000808267ffffffffffffffff8111156107e9576107e8612db4565b5b60405190808252806020026020018201604052801561082257816020015b61080f612813565b8152602001906001900390816108075790505b50905060005b848110156109f7573073ffffffffffffffffffffffffffffffffffffffff16600b60006001846108589190613286565b815260200190815260200160002060020160009054906101000a900473ffffffffffffffffffffffffffffffffffffffff1673ffffffffffffffffffffffffffffffffffffffff16036109e45760006001826108b49190613286565b90506000600b60008381526020019081526020016000209050806040518060a0016040529081600082015481526020016001820160009054906101000a900473ffffffffffffffffffffffffffffffffffffffff1673ffffffffffffffffffffffffffffffffffffffff1673ffffffffffffffffffffffffffffffffffffffff1681526020016002820160009054906101000a900473ffffffffffffffffffffffffffffffffffffffff1673ffffffffffffffffffffffffffffffffffffffff1673ffffffffffffffffffffffffffffffffffffffff168152602001600382015481526020016004820160009054906101000a900460ff1615151515815250508486815181106109c7576109c66132ba565b5b60200260200101819052506001856109df9190613286565b945050505b80806109ef906132e9565b915050610828565b508094505050505090565b6000600954905090565b60606000610a1a600761185c565b905060008060005b83811015610ac2573373ffffffffffffffffffffffffffffffffffffffff16600b6000600184610a529190613286565b815260200190815260200160002060020160009054906101000a900473ffffffffffffffffffffffffffffffffffffffff1673ffffffffffffffffffffffffffffffffffffffff1603610aaf57600183610aac9190613286565b92505b8080610aba906132e9565b915050610a22565b5060008267ffffffffffffffff811115610adf57610ade612db4565b5b604051908082528060200260200182016040528015610b1857816020015b610b05612813565b815260200190600190039081610afd5790505b50905060005b84811015610ced573373ffffffffffffffffffffffffffffffffffffffff16600b6000600184610b4e9190613286565b815260200190815260200160002060020160009054906101000a900473ffffffffffffffffffffffffffffffffffffffff1673ffffffffffffffffffffffffffffffffffffffff1603610cda576000600182610baa9190613286565b90506000600b60008381526020019081526020016000209050806040518060a0016040529081600082015481526020016001820160009054906101000a900473ffffffffffffffffffffffffffffffffffffffff1673ffffffffffffffffffffffffffffffffffffffff1673ffffffffffffffffffffffffffffffffffffffff1681526020016002820160009054906101000a900473ffffffffffffffffffffffffffffffffffffffff1673ffffffffffffffffffffffffffffffffffffffff1673ffffffffffffffffffffffffffffffffffffffff168152602001600382015481526020016004820160009054906101000a900460ff161515151581525050848681518110610cbd57610cbc6132ba565b5b6020026020010181905250600185610cd59190613286565b945050505b8080610ce5906132e9565b915050610b1e565b508094505050505090565b610d09610d0361179b565b8261186a565b610d48576040517f08c379a0000000000000000000000000000000000000000000000000000000008152600401610d3f906133a3565b60405180910390fd5b610d538383836118ff565b505050565b610d73838383604051806020016040528060008152506112e3565b505050565b60606000610d86600761185c565b905060008060005b83811015610e2e573373ffffffffffffffffffffffffffffffffffffffff16600b6000600184610dbe9190613286565b815260200190815260200160002060010160009054906101000a900473ffffffffffffffffffffffffffffffffffffffff1673ffffffffffffffffffffffffffffffffffffffff1603610e1b57600183610e189190613286565b92505b8080610e26906132e9565b915050610d8e565b5060008267ffffffffffffffff811115610e4b57610e4a612db4565b5b604051908082528060200260200182016040528015610e8457816020015b610e71612813565b815260200190600190039081610e695790505b50905060005b84811015611059573373ffffffffffffffffffffffffffffffffffffffff16600b6000600184610eba9190613286565b815260200190815260200160002060010160009054906101000a900473ffffffffffffffffffffffffffffffffffffffff1673ffffffffffffffffffffffffffffffffffffffff1603611046576000600182610f169190613286565b90506000600b60008381526020019081526020016000209050806040518060a0016040529081600082015481526020016001820160009054906101000a900473ffffffffffffffffffffffffffffffffffffffff1673ffffffffffffffffffffffffffffffffffffffff1673ffffffffffffffffffffffffffffffffffffffff1681526020016002820160009054906101000a900473ffffffffffffffffffffffffffffffffffffffff1673ffffffffffffffffffffffffffffffffffffffff1673ffffffffffffffffffffffffffffffffffffffff168152602001600382015481526020016004820160009054906101000a900460ff161515151581525050848681518110611029576110286132ba565b5b60200260200101819052506001856110419190613286565b945050505b8080611051906132e9565b915050610e8a565b508094505050505090565b60008061107083611bf8565b9050600073ffffffffffffffffffffffffffffffffffffffff168173ffffffffffffffffffffffffffffffffffffffff16036110e1576040517f08c379a00000000000000000000000000000000000000000000000000000000081526004016110d89061340f565b60405180910390fd5b80915050919050565b60008073ffffffffffffffffffffffffffffffffffffffff168273ffffffffffffffffffffffffffffffffffffffff160361115a576040517f08c379a0000000000000000000000000000000000000000000000000000000008152600401611151906134a1565b60405180910390fd5b600360008373ffffffffffffffffffffffffffffffffffffffff1673ffffffffffffffffffffffffffffffffffffffff168152602001908152602001600020549050919050565b6060600180546111b0906130ce565b80601f01602080910402602001604051908101604052809291908181526020018280546111dc906130ce565b80156112295780601f106111fe57610100808354040283529160200191611229565b820191906000526020600020905b81548152906001019060200180831161120c57829003601f168201915b5050505050905090565b61124561123e61179b565b8383611c35565b5050565b3373ffffffffffffffffffffffffffffffffffffffff16600a60009054906101000a900473ffffffffffffffffffffffffffffffffffffffff1673ffffffffffffffffffffffffffffffffffffffff16146112d9576040517f08c379a00000000000000000000000000000000000000000000000000000000081526004016112d090613533565b60405180910390fd5b8060098190555050565b6112f46112ee61179b565b8361186a565b611333576040517f08c379a000000000000000000000000000000000000000000000000000000000815260040161132a906133a3565b60405180910390fd5b61133f84848484611da1565b50505050565b6000600b60008381526020019081526020016000206003015490508034146113a2576040517f08c379a0000000000000000000000000000000000000000000000000000000008152600401611399906135c5565b60405180910390fd5b33600b600084815260200190815260200160002060020160006101000a81548173ffffffffffffffffffffffffffffffffffffffff021916908373ffffffffffffffffffffffffffffffffffffffff1602179055506001600b600084815260200190815260200160002060040160006101000a81548160ff0219169083151502179055506000600b600084815260200190815260200160002060010160006101000a81548173ffffffffffffffffffffffffffffffffffffffff021916908373ffffffffffffffffffffffffffffffffffffffff1602179055506114866008611dfd565b6114913033846118ff565b600a60009054906101000a900473ffffffffffffffffffffffffffffffffffffffff1673ffffffffffffffffffffffffffffffffffffffff166108fc349081150290604051600060405180830381858888f193505050501580156114f9573d6000803e3d6000fd5b505050565b600061150a6007611dfd565b6000611516600761185c565b90506115223382611e13565b61152c8185612030565b611536818461209d565b8091505092915050565b606061154b82611750565b600060066000848152602001908152602001600020805461156b906130ce565b80601f0160208091040260200160405190810160405280929190818152602001828054611597906130ce565b80156115e45780601f106115b9576101008083540402835291602001916115e4565b820191906000526020600020905b8154815290600101906020018083116115c757829003601f168201915b5050505050905060006115f561225c565b9050600081510361160a57819250505061164d565b60008251111561163f578082604051602001611627929190613621565b6040516020818303038152906040529250505061164d565b61164884612273565b925050505b919050565b6000600560008473ffffffffffffffffffffffffffffffffffffffff1673ffffffffffffffffffffffffffffffffffffffff16815260200190815260200160002060008373ffffffffffffffffffffffffffffffffffffffff1673ffffffffffffffffffffffffffffffffffffffff16815260200190815260200160002060009054906101000a900460ff16905092915050565b60007f01ffc9a7000000000000000000000000000000000000000000000000000000007bffffffffffffffffffffffffffffffffffffffffffffffffffffffff1916827bffffffffffffffffffffffffffffffffffffffffffffffffffffffff1916149050919050565b611759816122db565b611798576040517f08c379a000000000000000000000000000000000000000000000000000000000815260040161178f9061340f565b60405180910390fd5b50565b600033905090565b816004600083815260200190815260200160002060006101000a81548173ffffffffffffffffffffffffffffffffffffffff021916908373ffffffffffffffffffffffffffffffffffffffff160217905550808273ffffffffffffffffffffffffffffffffffffffff1661181683611064565b73ffffffffffffffffffffffffffffffffffffffff167f8c5be1e5ebec7d5bd14f71427d1e84f3dd0314c0f7b2291e5b200ac8c7c3b92560405160405180910390a45050565b600081600001549050919050565b60008061187683611064565b90508073ffffffffffffffffffffffffffffffffffffffff168473ffffffffffffffffffffffffffffffffffffffff1614806118b857506118b78185611652565b5b806118f657508373ffffffffffffffffffffffffffffffffffffffff166118de8461063d565b73ffffffffffffffffffffffffffffffffffffffff16145b91505092915050565b8273ffffffffffffffffffffffffffffffffffffffff1661191f82611064565b73ffffffffffffffffffffffffffffffffffffffff1614611975576040517f08c379a000000000000000000000000000000000000000000000000000000000815260040161196c906136b7565b60405180910390fd5b600073ffffffffffffffffffffffffffffffffffffffff168273ffffffffffffffffffffffffffffffffffffffff16036119e4576040517f08c379a00000000000000000000000000000000000000000000000000000000081526004016119db90613749565b60405180910390fd5b6119f1838383600161231c565b8273ffffffffffffffffffffffffffffffffffffffff16611a1182611064565b73ffffffffffffffffffffffffffffffffffffffff1614611a67576040517f08c379a0000000000000000000000000000000000000000000000000000000008152600401611a5e906136b7565b60405180910390fd5b6004600082815260200190815260200160002060006101000a81549073ffffffffffffffffffffffffffffffffffffffff02191690556001600360008573ffffffffffffffffffffffffffffffffffffffff1673ffffffffffffffffffffffffffffffffffffffff168152602001908152602001600020600082825403925050819055506001600360008473ffffffffffffffffffffffffffffffffffffffff1673ffffffffffffffffffffffffffffffffffffffff16815260200190815260200160002060008282540192505081905550816002600083815260200190815260200160002060006101000a81548173ffffffffffffffffffffffffffffffffffffffff021916908373ffffffffffffffffffffffffffffffffffffffff160217905550808273ffffffffffffffffffffffffffffffffffffffff168473ffffffffffffffffffffffffffffffffffffffff167fddf252ad1be2c89b69c2b068fc378daa952ba7f163c4a11628f55a4df523b3ef60405160405180910390a4611bf38383836001612442565b505050565b60006002600083815260200190815260200160002060009054906101000a900473ffffffffffffffffffffffffffffffffffffffff169050919050565b8173ffffffffffffffffffffffffffffffffffffffff168373ffffffffffffffffffffffffffffffffffffffff1603611ca3576040517f08c379a0000000000000000000000000000000000000000000000000000000008152600401611c9a906137b5565b60405180910390fd5b80600560008573ffffffffffffffffffffffffffffffffffffffff1673ffffffffffffffffffffffffffffffffffffffff16815260200190815260200160002060008473ffffffffffffffffffffffffffffffffffffffff1673ffffffffffffffffffffffffffffffffffffffff16815260200190815260200160002060006101000a81548160ff0219169083151502179055508173ffffffffffffffffffffffffffffffffffffffff168373ffffffffffffffffffffffffffffffffffffffff167f17307eab39ab6107e8899845ad3d59bd9653f200f220920489ca2b5937696c3183604051611d949190612924565b60405180910390a3505050565b611dac8484846118ff565b611db884848484612448565b611df7576040517f08c379a0000000000000000000000000000000000000000000000000000000008152600401611dee90613847565b60405180910390fd5b50505050565b6001816000016000828254019250508190555050565b600073ffffffffffffffffffffffffffffffffffffffff168273ffffffffffffffffffffffffffffffffffffffff1603611e82576040517f08c379a0000000000000000000000000000000000000000000000000000000008152600401611e79906138b3565b60405180910390fd5b611e8b816122db565b15611ecb576040517f08c379a0000000000000000000000000000000000000000000000000000000008152600401611ec29061391f565b60405180910390fd5b611ed960008383600161231c565b611ee2816122db565b15611f22576040517f08c379a0000000000000000000000000000000000000000000000000000000008152600401611f199061391f565b60405180910390fd5b6001600360008473ffffffffffffffffffffffffffffffffffffffff1673ffffffffffffffffffffffffffffffffffffffff16815260200190815260200160002060008282540192505081905550816002600083815260200190815260200160002060006101000a81548173ffffffffffffffffffffffffffffffffffffffff021916908373ffffffffffffffffffffffffffffffffffffffff160217905550808273ffffffffffffffffffffffffffffffffffffffff16600073ffffffffffffffffffffffffffffffffffffffff167fddf252ad1be2c89b69c2b068fc378daa952ba7f163c4a11628f55a4df523b3ef60405160405180910390a461202c600083836001612442565b5050565b612039826122db565b612078576040517f08c379a000000000000000000000000000000000000000000000000000000000815260040161206f906139b1565b60405180910390fd5b806006600084815260200190815260200160002090816120989190613b7d565b505050565b600081116120e0576040517f08c379a00000000000000000000000000000000000000000000000000000000081526004016120d790613c9b565b60405180910390fd5b6040518060a001604052808381526020013373ffffffffffffffffffffffffffffffffffffffff1681526020013073ffffffffffffffffffffffffffffffffffffffff16815260200182815260200160001515815250600b60008481526020019081526020016000206000820151816000015560208201518160010160006101000a81548173ffffffffffffffffffffffffffffffffffffffff021916908373ffffffffffffffffffffffffffffffffffffffff16021790555060408201518160020160006101000a81548173ffffffffffffffffffffffffffffffffffffffff021916908373ffffffffffffffffffffffffffffffffffffffff1602179055506060820151816003015560808201518160040160006101000a81548160ff0219169083151502179055509050506122193330846118ff565b817fb640004f1d14576d0c209e240cad0410e0d8c0c33a09375861fbadae2588a98d33308460006040516122509493929190613cbb565b60405180910390a25050565b606060405180602001604052806000815250905090565b606061227e82611750565b600061228861225c565b905060008151116122a857604051806020016040528060008152506122d3565b806122b2846125cf565b6040516020016122c3929190613621565b6040516020818303038152906040525b915050919050565b60008073ffffffffffffffffffffffffffffffffffffffff166122fd83611bf8565b73ffffffffffffffffffffffffffffffffffffffff1614159050919050565b600181111561243c57600073ffffffffffffffffffffffffffffffffffffffff168473ffffffffffffffffffffffffffffffffffffffff16146123b05780600360008673ffffffffffffffffffffffffffffffffffffffff1673ffffffffffffffffffffffffffffffffffffffff16815260200190815260200160002060008282546123a89190613252565b925050819055505b600073ffffffffffffffffffffffffffffffffffffffff168373ffffffffffffffffffffffffffffffffffffffff161461243b5780600360008573ffffffffffffffffffffffffffffffffffffffff1673ffffffffffffffffffffffffffffffffffffffff16815260200190815260200160002060008282546124339190613286565b925050819055505b5b50505050565b50505050565b60006124698473ffffffffffffffffffffffffffffffffffffffff1661269d565b156125c2578373ffffffffffffffffffffffffffffffffffffffff1663150b7a0261249261179b565b8786866040518563ffffffff1660e01b81526004016124b49493929190613d55565b6020604051808303816000875af19250505080156124f057506040513d601f19601f820116820180604052508101906124ed9190613db6565b60015b612572573d8060008114612520576040519150601f19603f3d011682016040523d82523d6000602084013e612525565b606091505b50600081510361256a576040517f08c379a000000000000000000000000000000000000000000000000000000000815260040161256190613847565b60405180910390fd5b805181602001fd5b63150b7a0260e01b7bffffffffffffffffffffffffffffffffffffffffffffffffffffffff1916817bffffffffffffffffffffffffffffffffffffffffffffffffffffffff1916149150506125c7565b600190505b949350505050565b6060600060016125de846126c0565b01905060008167ffffffffffffffff8111156125fd576125fc612db4565b5b6040519080825280601f01601f19166020018201604052801561262f5781602001600182028036833780820191505090505b509050600082602001820190505b600115612692578080600190039150507f3031323334353637383961626364656600000000000000000000000000000000600a86061a8153600a858161268657612685613de3565b5b0494506000850361263d575b819350505050919050565b6000808273ffffffffffffffffffffffffffffffffffffffff163b119050919050565b600080600090507a184f03e93ff9f4daa797ed6e38ed64bf6a1f010000000000000000831061271e577a184f03e93ff9f4daa797ed6e38ed64bf6a1f010000000000000000838161271457612713613de3565b5b0492506040810190505b6d04ee2d6d415b85acef8100000000831061275b576d04ee2d6d415b85acef8100000000838161275157612750613de3565b5b0492506020810190505b662386f26fc10000831061278a57662386f26fc1000083816127805761277f613de3565b5b0492506010810190505b6305f5e10083106127b3576305f5e10083816127a9576127a8613de3565b5b0492506008810190505b61271083106127d85761271083816127ce576127cd613de3565b5b0492506004810190505b606483106127fb57606483816127f1576127f0613de3565b5b0492506002810190505b600a831061280a576001810190505b80915050919050565b6040518060a0016040528060008152602001600073ffffffffffffffffffffffffffffffffffffffff168152602001600073ffffffffffffffffffffffffffffffffffffffff168152602001600081526020016000151581525090565b6000604051905090565b600080fd5b600080fd5b60007fffffffff0000000000000000000000000000000000000000000000000000000082169050919050565b6128b981612884565b81146128c457600080fd5b50565b6000813590506128d6816128b0565b92915050565b6000602082840312156128f2576128f161287a565b5b6000612900848285016128c7565b91505092915050565b60008115159050919050565b61291e81612909565b82525050565b60006020820190506129396000830184612915565b92915050565b600081519050919050565b600082825260208201905092915050565b60005b8381101561297957808201518184015260208101905061295e565b60008484015250505050565b6000601f19601f8301169050919050565b60006129a18261293f565b6129ab818561294a565b93506129bb81856020860161295b565b6129c481612985565b840191505092915050565b600060208201905081810360008301526129e98184612996565b905092915050565b6000819050919050565b612a04816129f1565b8114612a0f57600080fd5b50565b600081359050612a21816129fb565b92915050565b600060208284031215612a3d57612a3c61287a565b5b6000612a4b84828501612a12565b91505092915050565b600073ffffffffffffffffffffffffffffffffffffffff82169050919050565b6000612a7f82612a54565b9050919050565b612a8f81612a74565b82525050565b6000602082019050612aaa6000830184612a86565b92915050565b612ab981612a74565b8114612ac457600080fd5b50565b600081359050612ad681612ab0565b92915050565b60008060408385031215612af357612af261287a565b5b6000612b0185828601612ac7565b9250506020612b1285828601612a12565b9150509250929050565b600081519050919050565b600082825260208201905092915050565b6000819050602082019050919050565b612b51816129f1565b82525050565b6000612b6282612a54565b9050919050565b612b7281612b57565b82525050565b612b8181612909565b82525050565b60a082016000820151612b9d6000850182612b48565b506020820151612bb06020850182612b69565b506040820151612bc36040850182612b69565b506060820151612bd66060850182612b48565b506080820151612be96080850182612b78565b50505050565b6000612bfb8383612b87565b60a08301905092915050565b6000602082019050919050565b6000612c1f82612b1c565b612c298185612b27565b9350612c3483612b38565b8060005b83811015612c65578151612c4c8882612bef565b9750612c5783612c07565b925050600181019050612c38565b5085935050505092915050565b60006020820190508181036000830152612c8c8184612c14565b905092915050565b612c9d816129f1565b82525050565b6000602082019050612cb86000830184612c94565b92915050565b600080600060608486031215612cd757612cd661287a565b5b6000612ce586828701612ac7565b9350506020612cf686828701612ac7565b9250506040612d0786828701612a12565b9150509250925092565b600060208284031215612d2757612d2661287a565b5b6000612d3584828501612ac7565b91505092915050565b612d4781612909565b8114612d5257600080fd5b50565b600081359050612d6481612d3e565b92915050565b60008060408385031215612d8157612d8061287a565b5b6000612d8f85828601612ac7565b9250506020612da085828601612d55565b9150509250929050565b600080fd5b600080fd5b7f4e487b7100000000000000000000000000000000000000000000000000000000600052604160045260246000fd5b612dec82612985565b810181811067ffffffffffffffff82111715612e0b57612e0a612db4565b5b80604052505050565b6000612e1e612870565b9050612e2a8282612de3565b919050565b600067ffffffffffffffff821115612e4a57612e49612db4565b5b612e5382612985565b9050602081019050919050565b82818337600083830152505050565b6000612e82612e7d84612e2f565b612e14565b905082815260208101848484011115612e9e57612e9d612daf565b5b612ea9848285612e60565b509392505050565b600082601f830112612ec657612ec5612daa565b5b8135612ed6848260208601612e6f565b91505092915050565b60008060008060808587031215612ef957612ef861287a565b5b6000612f0787828801612ac7565b9450506020612f1887828801612ac7565b9350506040612f2987828801612a12565b925050606085013567ffffffffffffffff811115612f4a57612f4961287f565b5b612f5687828801612eb1565b91505092959194509250565b600067ffffffffffffffff821115612f7d57612f7c612db4565b5b612f8682612985565b9050602081019050919050565b6000612fa6612fa184612f62565b612e14565b905082815260208101848484011115612fc257612fc1612daf565b5b612fcd848285612e60565b509392505050565b600082601f830112612fea57612fe9612daa565b5b8135612ffa848260208601612f93565b91505092915050565b6000806040838503121561301a5761301961287a565b5b600083013567ffffffffffffffff8111156130385761303761287f565b5b61304485828601612fd5565b925050602061305585828601612a12565b9150509250929050565b600080604083850312156130765761307561287a565b5b600061308485828601612ac7565b925050602061309585828601612ac7565b9150509250929050565b7f4e487b7100000000000000000000000000000000000000000000000000000000600052602260045260246000fd5b600060028204905060018216806130e657607f821691505b6020821081036130f9576130f861309f565b5b50919050565b7f4552433732313a20617070726f76616c20746f2063757272656e74206f776e6560008201527f7200000000000000000000000000000000000000000000000000000000000000602082015250565b600061315b60218361294a565b9150613166826130ff565b604082019050919050565b6000602082019050818103600083015261318a8161314e565b9050919050565b7f4552433732313a20617070726f76652063616c6c6572206973206e6f7420746f60008201527f6b656e206f776e6572206f7220617070726f76656420666f7220616c6c000000602082015250565b60006131ed603d8361294a565b91506131f882613191565b604082019050919050565b6000602082019050818103600083015261321c816131e0565b9050919050565b7f4e487b7100000000000000000000000000000000000000000000000000000000600052601160045260246000fd5b600061325d826129f1565b9150613268836129f1565b92508282039050818111156132805761327f613223565b5b92915050565b6000613291826129f1565b915061329c836129f1565b92508282019050808211156132b4576132b3613223565b5b92915050565b7f4e487b7100000000000000000000000000000000000000000000000000000000600052603260045260246000fd5b60006132f4826129f1565b91507fffffffffffffffffffffffffffffffffffffffffffffffffffffffffffffffff820361332657613325613223565b5b600182019050919050565b7f4552433732313a2063616c6c6572206973206e6f7420746f6b656e206f776e6560008201527f72206f7220617070726f76656400000000000000000000000000000000000000602082015250565b600061338d602d8361294a565b915061339882613331565b604082019050919050565b600060208201905081810360008301526133bc81613380565b9050919050565b7f4552433732313a20696e76616c696420746f6b656e2049440000000000000000600082015250565b60006133f960188361294a565b9150613404826133c3565b602082019050919050565b60006020820190508181036000830152613428816133ec565b9050919050565b7f4552433732313a2061646472657373207a65726f206973206e6f74206120766160008201527f6c6964206f776e65720000000000000000000000000000000000000000000000602082015250565b600061348b60298361294a565b91506134968261342f565b604082019050919050565b600060208201905081810360008301526134ba8161347e565b9050919050565b7f4f6e6c79206d61726b6574706c616365206f776e65722063616e20757064617460008201527f65206c697374696e672070726963652e00000000000000000000000000000000602082015250565b600061351d60308361294a565b9150613528826134c1565b604082019050919050565b6000602082019050818103600083015261354c81613510565b9050919050565b7f506c6561736520706179207468652066756c6c20616d6f756e7420696e206f7260008201527f64657220746f20636f6d706c65746520746865207472616e73616374696f6e21602082015250565b60006135af60408361294a565b91506135ba82613553565b604082019050919050565b600060208201905081810360008301526135de816135a2565b9050919050565b600081905092915050565b60006135fb8261293f565b61360581856135e5565b935061361581856020860161295b565b80840191505092915050565b600061362d82856135f0565b915061363982846135f0565b91508190509392505050565b7f4552433732313a207472616e736665722066726f6d20696e636f72726563742060008201527f6f776e6572000000000000000000000000000000000000000000000000000000602082015250565b60006136a160258361294a565b91506136ac82613645565b604082019050919050565b600060208201905081810360008301526136d081613694565b9050919050565b7f4552433732313a207472616e7366657220746f20746865207a65726f2061646460008201527f7265737300000000000000000000000000000000000000000000000000000000602082015250565b600061373360248361294a565b915061373e826136d7565b604082019050919050565b6000602082019050818103600083015261376281613726565b9050919050565b7f4552433732313a20617070726f766520746f2063616c6c657200000000000000600082015250565b600061379f60198361294a565b91506137aa82613769565b602082019050919050565b600060208201905081810360008301526137ce81613792565b9050919050565b7f4552433732313a207472616e7366657220746f206e6f6e20455243373231526560008201527f63656976657220696d706c656d656e7465720000000000000000000000000000602082015250565b600061383160328361294a565b915061383c826137d5565b604082019050919050565b6000602082019050818103600083015261386081613824565b9050919050565b7f4552433732313a206d696e7420746f20746865207a65726f2061646472657373600082015250565b600061389d60208361294a565b91506138a882613867565b602082019050919050565b600060208201905081810360008301526138cc81613890565b9050919050565b7f4552433732313a20746f6b656e20616c7265616479206d696e74656400000000600082015250565b6000613909601c8361294a565b9150613914826138d3565b602082019050919050565b60006020820190508181036000830152613938816138fc565b9050919050565b7f45524337323155524953746f726167653a2055524920736574206f66206e6f6e60008201527f6578697374656e7420746f6b656e000000000000000000000000000000000000602082015250565b600061399b602e8361294a565b91506139a68261393f565b604082019050919050565b600060208201905081810360008301526139ca8161398e565b9050919050565b60008190508160005260206000209050919050565b60006020601f8301049050919050565b600082821b905092915050565b600060088302613a337fffffffffffffffffffffffffffffffffffffffffffffffffffffffffffffffff826139f6565b613a3d86836139f6565b95508019841693508086168417925050509392505050565b6000819050919050565b6000613a7a613a75613a70846129f1565b613a55565b6129f1565b9050919050565b6000819050919050565b613a9483613a5f565b613aa8613aa082613a81565b848454613a03565b825550505050565b600090565b613abd613ab0565b613ac8818484613a8b565b505050565b5b81811015613aec57613ae1600082613ab5565b600181019050613ace565b5050565b601f821115613b3157613b02816139d1565b613b0b846139e6565b81016020851015613b1a578190505b613b2e613b26856139e6565b830182613acd565b50505b505050565b600082821c905092915050565b6000613b5460001984600802613b36565b1980831691505092915050565b6000613b6d8383613b43565b9150826002028217905092915050565b613b868261293f565b67ffffffffffffffff811115613b9f57613b9e612db4565b5b613ba982546130ce565b613bb4828285613af0565b600060209050601f831160018114613be75760008415613bd5578287015190505b613bdf8582613b61565b865550613c47565b601f198416613bf5866139d1565b60005b82811015613c1d57848901518255600182019150602085019450602081019050613bf8565b86831015613c3a5784890151613c36601f891682613b43565b8355505b6001600288020188555050505b505050505050565b7f5072696365206d757374206265206174206c6561737420312077656900000000600082015250565b6000613c85601c8361294a565b9150613c9082613c4f565b602082019050919050565b60006020820190508181036000830152613cb481613c78565b9050919050565b6000608082019050613cd06000830187612a86565b613cdd6020830186612a86565b613cea6040830185612c94565b613cf76060830184612915565b95945050505050565b600081519050919050565b600082825260208201905092915050565b6000613d2782613d00565b613d318185613d0b565b9350613d4181856020860161295b565b613d4a81612985565b840191505092915050565b6000608082019050613d6a6000830187612a86565b613d776020830186612a86565b613d846040830185612c94565b8181036060830152613d968184613d1c565b905095945050505050565b600081519050613db0816128b0565b92915050565b600060208284031215613dcc57613dcb61287a565b5b6000613dda84828501613da1565b91505092915050565b7f4e487b7100000000000000000000000000000000000000000000000000000000600052601260045260246000fdfea2646970667358221220379d592e1c14b7775b3b17d4905b33ed5f2e64f60b0faeb86ca14f481d4e16cd64736f6c63430008110033",
  "linkReferences": {},
  "deployedLinkReferences": {}
}