{
  "_format": "hh-sol-artifact-1",
  "contractName": "NFTPropertyContractSystem",
  "sourceName": "contracts/NFTPropertyContractSystem.sol",
  "abi": [
    {
      "inputs": [],
      "stateMutability": "nonpayable",
      "type": "constructor"
    },
    {
      "anonymous": false,
      "inputs": [
        {
          "indexed": true,
          "internalType": "address",
          "name": "owner",
          "type": "address"
        },
        {
          "indexed": true,
          "internalType": "address",
          "name": "approved",
          "type": "address"
        },
        {
          "indexed": true,
          "internalType": "uint256",
          "name": "tokenId",
          "type": "uint256"
        }
      ],
      "name": "Approval",
      "type": "event"
    },
    {
      "anonymous": false,
      "inputs": [
        {
          "indexed": true,
          "internalType": "address",
          "name": "owner",
          "type": "address"
        },
        {
          "indexed": true,
          "internalType": "address",
          "name": "operator",
          "type": "address"
        },
        {
          "indexed": false,
          "internalType": "bool",
          "name": "approved",
          "type": "bool"
        }
      ],
      "name": "ApprovalForAll",
      "type": "event"
    },
    {
      "anonymous": false,
      "inputs": [
        {
          "indexed": true,
          "internalType": "uint256",
          "name": "tokenId",
          "type": "uint256"
        },
        {
          "indexed": false,
          "internalType": "address",
          "name": "seller",
          "type": "address"
        },
        {
          "indexed": false,
          "internalType": "address",
          "name": "owner",
          "type": "address"
        },
        {
          "indexed": false,
          "internalType": "string",
          "name": "propertyAddress",
          "type": "string"
        },
        {
          "indexed": false,
          "internalType": "uint256",
          "name": "bidPrice",
          "type": "uint256"
        },
        {
          "indexed": false,
          "internalType": "uint256",
          "name": "paidAmount",
          "type": "uint256"
        },
        {
          "indexed": false,
          "internalType": "address payable",
          "name": "currentBidder",
          "type": "address"
        },
        {
          "indexed": false,
          "internalType": "bool",
          "name": "sold",
          "type": "bool"
        }
      ],
      "name": "MarketItemCreated",
      "type": "event"
    },
    {
      "anonymous": false,
      "inputs": [
        {
          "indexed": true,
          "internalType": "address",
          "name": "from",
          "type": "address"
        },
        {
          "indexed": true,
          "internalType": "address",
          "name": "to",
          "type": "address"
        },
        {
          "indexed": true,
          "internalType": "uint256",
          "name": "tokenId",
          "type": "uint256"
        }
      ],
      "name": "Transfer",
      "type": "event"
    },
    {
      "inputs": [
        {
          "internalType": "address",
          "name": "to",
          "type": "address"
        },
        {
          "internalType": "uint256",
          "name": "tokenId",
          "type": "uint256"
        }
      ],
      "name": "approve",
      "outputs": [],
      "stateMutability": "nonpayable",
      "type": "function"
    },
    {
      "inputs": [
        {
          "internalType": "address",
          "name": "owner",
          "type": "address"
        }
      ],
      "name": "balanceOf",
      "outputs": [
        {
          "internalType": "uint256",
          "name": "",
          "type": "uint256"
        }
      ],
      "stateMutability": "view",
      "type": "function"
    },
    {
      "inputs": [
        {
          "internalType": "uint256",
          "name": "tokenId",
          "type": "uint256"
        }
      ],
      "name": "buyBidProperty",
      "outputs": [],
      "stateMutability": "payable",
      "type": "function"
    },
    {
      "inputs": [
        {
          "internalType": "string",
          "name": "a",
          "type": "string"
        },
        {
          "internalType": "string",
          "name": "b",
          "type": "string"
        }
      ],
      "name": "compareStrings",
      "outputs": [
        {
          "internalType": "bool",
          "name": "",
          "type": "bool"
        }
      ],
      "stateMutability": "view",
      "type": "function"
    },
    {
      "inputs": [
        {
          "internalType": "string",
          "name": "a",
          "type": "string"
        },
        {
          "internalType": "string",
          "name": "b",
          "type": "string"
        }
      ],
      "name": "concatenate",
      "outputs": [
        {
          "internalType": "string",
          "name": "",
          "type": "string"
        }
      ],
      "stateMutability": "pure",
      "type": "function"
    },
    {
      "inputs": [
        {
          "internalType": "string",
          "name": "tokenURI",
          "type": "string"
        },
        {
          "internalType": "string",
          "name": "propertyAddress",
          "type": "string"
        },
        {
          "internalType": "uint256",
          "name": "bidPrice",
          "type": "uint256"
        }
      ],
      "name": "createTokenNFT",
      "outputs": [
        {
          "internalType": "uint256",
          "name": "",
          "type": "uint256"
        }
      ],
      "stateMutability": "payable",
      "type": "function"
    },
    {
      "inputs": [],
      "name": "fetchAllItems",
      "outputs": [
        {
          "internalType": "string[]",
          "name": "",
          "type": "string[]"
        }
      ],
      "stateMutability": "view",
      "type": "function"
    },
    {
      "inputs": [
        {
          "internalType": "address",
          "name": "buyer",
          "type": "address"
        }
      ],
      "name": "fetchMyNFTs",
      "outputs": [
        {
          "internalType": "string[]",
          "name": "",
          "type": "string[]"
        }
      ],
      "stateMutability": "view",
      "type": "function"
    },
    {
      "inputs": [
        {
          "internalType": "string",
          "name": "propertyAddress",
          "type": "string"
        }
      ],
      "name": "fetchNFTByPropertyAddress",
      "outputs": [
        {
          "components": [
            {
              "internalType": "uint256",
              "name": "tokenId",
              "type": "uint256"
            },
            {
              "internalType": "address payable",
              "name": "seller",
              "type": "address"
            },
            {
              "internalType": "address payable",
              "name": "owner",
              "type": "address"
            },
            {
              "internalType": "string",
              "name": "propertyAddress",
              "type": "string"
            },
            {
              "internalType": "uint256",
              "name": "bidPrice",
              "type": "uint256"
            },
            {
              "internalType": "uint256",
              "name": "paidAmount",
              "type": "uint256"
            },
            {
              "internalType": "address payable",
              "name": "currentBidder",
              "type": "address"
            },
            {
              "internalType": "bool",
              "name": "sold",
              "type": "bool"
            }
          ],
          "internalType": "struct NFTPropertyContractSystem.MarketItem",
          "name": "",
          "type": "tuple"
        }
      ],
      "stateMutability": "view",
      "type": "function"
    },
    {
      "inputs": [],
      "name": "fetchUnsoldItems",
      "outputs": [
        {
          "internalType": "string[]",
          "name": "",
          "type": "string[]"
        }
      ],
      "stateMutability": "view",
      "type": "function"
    },
    {
      "inputs": [
        {
          "internalType": "uint256",
          "name": "tokenId",
          "type": "uint256"
        }
      ],
      "name": "getApproved",
      "outputs": [
        {
          "internalType": "address",
          "name": "",
          "type": "address"
        }
      ],
      "stateMutability": "view",
      "type": "function"
    },
    {
      "inputs": [],
      "name": "getListingPrice",
      "outputs": [
        {
          "internalType": "uint256",
          "name": "",
          "type": "uint256"
        }
      ],
      "stateMutability": "view",
      "type": "function"
    },
    {
      "inputs": [
        {
          "internalType": "address",
          "name": "owner",
          "type": "address"
        },
        {
          "internalType": "address",
          "name": "operator",
          "type": "address"
        }
      ],
      "name": "isApprovedForAll",
      "outputs": [
        {
          "internalType": "bool",
          "name": "",
          "type": "bool"
        }
      ],
      "stateMutability": "view",
      "type": "function"
    },
    {
      "inputs": [],
      "name": "name",
      "outputs": [
        {
          "internalType": "string",
          "name": "",
          "type": "string"
        }
      ],
      "stateMutability": "view",
      "type": "function"
    },
    {
      "inputs": [
        {
          "internalType": "uint256",
          "name": "tokenId",
          "type": "uint256"
        }
      ],
      "name": "ownerOf",
      "outputs": [
        {
          "internalType": "address",
          "name": "",
          "type": "address"
        }
      ],
      "stateMutability": "view",
      "type": "function"
    },
    {
      "inputs": [
        {
          "internalType": "uint256",
          "name": "tokenId",
          "type": "uint256"
        }
      ],
      "name": "payPartSale",
      "outputs": [],
      "stateMutability": "payable",
      "type": "function"
    },
    {
      "inputs": [
        {
          "internalType": "uint256",
          "name": "tokenId",
          "type": "uint256"
        }
      ],
      "name": "placeDeposit",
      "outputs": [],
      "stateMutability": "payable",
      "type": "function"
    },
    {
      "inputs": [
        {
          "internalType": "address",
          "name": "from",
          "type": "address"
        },
        {
          "internalType": "address",
          "name": "to",
          "type": "address"
        },
        {
          "internalType": "uint256",
          "name": "tokenId",
          "type": "uint256"
        }
      ],
      "name": "safeTransferFrom",
      "outputs": [],
      "stateMutability": "nonpayable",
      "type": "function"
    },
    {
      "inputs": [
        {
          "internalType": "address",
          "name": "from",
          "type": "address"
        },
        {
          "internalType": "address",
          "name": "to",
          "type": "address"
        },
        {
          "internalType": "uint256",
          "name": "tokenId",
          "type": "uint256"
        },
        {
          "internalType": "bytes",
          "name": "data",
          "type": "bytes"
        }
      ],
      "name": "safeTransferFrom",
      "outputs": [],
      "stateMutability": "nonpayable",
      "type": "function"
    },
    {
      "inputs": [
        {
          "internalType": "address",
          "name": "operator",
          "type": "address"
        },
        {
          "internalType": "bool",
          "name": "approved",
          "type": "bool"
        }
      ],
      "name": "setApprovalForAll",
      "outputs": [],
      "stateMutability": "nonpayable",
      "type": "function"
    },
    {
      "inputs": [
        {
          "internalType": "bytes4",
          "name": "interfaceId",
          "type": "bytes4"
        }
      ],
      "name": "supportsInterface",
      "outputs": [
        {
          "internalType": "bool",
          "name": "",
          "type": "bool"
        }
      ],
      "stateMutability": "view",
      "type": "function"
    },
    {
      "inputs": [],
      "name": "symbol",
      "outputs": [
        {
          "internalType": "string",
          "name": "",
          "type": "string"
        }
      ],
      "stateMutability": "view",
      "type": "function"
    },
    {
      "inputs": [
        {
          "internalType": "uint256",
          "name": "tokenId",
          "type": "uint256"
        }
      ],
      "name": "tokenURI",
      "outputs": [
        {
          "internalType": "string",
          "name": "",
          "type": "string"
        }
      ],
      "stateMutability": "view",
      "type": "function"
    },
    {
      "inputs": [
        {
          "internalType": "address",
          "name": "from",
          "type": "address"
        },
        {
          "internalType": "address",
          "name": "to",
          "type": "address"
        },
        {
          "internalType": "uint256",
          "name": "tokenId",
          "type": "uint256"
        }
      ],
      "name": "transferFrom",
      "outputs": [],
      "stateMutability": "nonpayable",
      "type": "function"
    },
    {
      "inputs": [
        {
          "internalType": "uint256",
          "name": "tokenId",
          "type": "uint256"
        },
        {
          "internalType": "uint256",
          "name": "updatedPrice",
          "type": "uint256"
        }
      ],
      "name": "updateBidPrice",
      "outputs": [],
      "stateMutability": "nonpayable",
      "type": "function"
    },
    {
      "inputs": [
        {
          "internalType": "uint256",
          "name": "_listingPrice",
          "type": "uint256"
        }
      ],
      "name": "updateListingPrice",
      "outputs": [],
      "stateMutability": "payable",
      "type": "function"
    }
  ],
  "bytecode": "0x60806040526658d15e176280006009553480156200001c57600080fd5b506040518060400160405280601081526020017f4d657461766572736520546f6b656e73000000000000000000000000000000008152506040518060400160405280600481526020017f4d4554540000000000000000000000000000000000000000000000000000000081525081600090816200009a919062000370565b508060019081620000ac919062000370565b50505033600a60006101000a81548173ffffffffffffffffffffffffffffffffffffffff021916908373ffffffffffffffffffffffffffffffffffffffff16021790555062000457565b600081519050919050565b7f4e487b7100000000000000000000000000000000000000000000000000000000600052604160045260246000fd5b7f4e487b7100000000000000000000000000000000000000000000000000000000600052602260045260246000fd5b600060028204905060018216806200017857607f821691505b6020821081036200018e576200018d62000130565b5b50919050565b60008190508160005260206000209050919050565b60006020601f8301049050919050565b600082821b905092915050565b600060088302620001f87fffffffffffffffffffffffffffffffffffffffffffffffffffffffffffffffff82620001b9565b620002048683620001b9565b95508019841693508086168417925050509392505050565b6000819050919050565b6000819050919050565b6000620002516200024b62000245846200021c565b62000226565b6200021c565b9050919050565b6000819050919050565b6200026d8362000230565b620002856200027c8262000258565b848454620001c6565b825550505050565b600090565b6200029c6200028d565b620002a981848462000262565b505050565b5b81811015620002d157620002c560008262000292565b600181019050620002af565b5050565b601f8211156200032057620002ea8162000194565b620002f584620001a9565b8101602085101562000305578190505b6200031d6200031485620001a9565b830182620002ae565b50505b505050565b600082821c905092915050565b6000620003456000198460080262000325565b1980831691505092915050565b600062000360838362000332565b9150826002028217905092915050565b6200037b82620000f6565b67ffffffffffffffff81111562000397576200039662000101565b5b620003a382546200015f565b620003b0828285620002d5565b600060209050601f831160018114620003e85760008415620003d3578287015190505b620003df858262000352565b8655506200044f565b601f198416620003f88662000194565b60005b828110156200042257848901518255600182019150602085019450602081019050620003fb565b868310156200044257848901516200043e601f89168262000332565b8355505b6001600288020188555050505b505050505050565b6149f180620004676000396000f3fe6080604052600436106101815760003560e01c80636352211e116100d1578063ae677aa31161008a578063bed34bba11610064578063bed34bba14610582578063c87b56dd146105bf578063e6e19597146105fc578063e985e9c51461061857610181565b8063ae677aa314610512578063b62b6f721461052e578063b88d4fde1461055957610181565b80636352211e146103dc57806370a08231146104195780637ad58c4f1461045657806395d89b411461049357806397598cc3146104be578063a22cb465146104e957610181565b8063171fe6181161013e578063278ee9d711610118578063278ee9d71461034b578063339238621461036757806342842e0e146103835780635933d810146103ac57610181565b8063171fe618146102bc57806323b872dd146102e5578063266001d31461030e57610181565b806301ffc9a71461018657806306fdde03146101c3578063081812fc146101ee578063095ea7b31461022b57806310afee1e1461025457806312e8558514610291575b600080fd5b34801561019257600080fd5b506101ad60048036038101906101a891906130ce565b610655565b6040516101ba9190613116565b60405180910390f35b3480156101cf57600080fd5b506101d8610737565b6040516101e591906131c1565b60405180910390f35b3480156101fa57600080fd5b5061021560048036038101906102109190613219565b6107c9565b6040516102229190613287565b60405180910390f35b34801561023757600080fd5b50610252600480360381019061024d91906132ce565b61080f565b005b34801561026057600080fd5b5061027b6004803603810190610276919061330e565b610926565b6040516102889190613447565b60405180910390f35b34801561029d57600080fd5b506102a6610bb4565b6040516102b39190613478565b60405180910390f35b3480156102c857600080fd5b506102e360048036038101906102de9190613493565b610bbe565b005b3480156102f157600080fd5b5061030c600480360381019061030791906134d3565b610bdd565b005b34801561031a57600080fd5b506103356004803603810190610330919061365b565b610c3d565b60405161034291906131c1565b60405180910390f35b61036560048036038101906103609190613219565b610c69565b005b610381600480360381019061037c9190613219565b610e56565b005b34801561038f57600080fd5b506103aa60048036038101906103a591906134d3565b61108f565b005b6103c660048036038101906103c191906136d3565b6110af565b6040516103d39190613478565b60405180910390f35b3480156103e857600080fd5b5061040360048036038101906103fe9190613219565b6110f3565b6040516104109190613287565b60405180910390f35b34801561042557600080fd5b50610440600480360381019061043b919061330e565b611179565b60405161044d9190613478565b60405180910390f35b34801561046257600080fd5b5061047d6004803603810190610478919061375e565b611230565b60405161048a9190613896565b60405180910390f35b34801561049f57600080fd5b506104a8611537565b6040516104b591906131c1565b60405180910390f35b3480156104ca57600080fd5b506104d36115c9565b6040516104e09190613447565b60405180910390f35b3480156104f557600080fd5b50610510600480360381019061050b91906138e4565b611738565b005b61052c60048036038101906105279190613219565b61174e565b005b34801561053a57600080fd5b506105436117e8565b6040516105509190613447565b60405180910390f35b34801561056557600080fd5b50610580600480360381019061057b91906139c5565b6119f0565b005b34801561058e57600080fd5b506105a960048036038101906105a4919061365b565b611a52565b6040516105b69190613116565b60405180910390f35b3480156105cb57600080fd5b506105e660048036038101906105e19190613219565b611aab565b6040516105f391906131c1565b60405180910390f35b61061660048036038101906106119190613219565b611bbd565b005b34801561062457600080fd5b5061063f600480360381019061063a9190613a48565b611d7f565b60405161064c9190613116565b60405180910390f35b60007f80ac58cd000000000000000000000000000000000000000000000000000000007bffffffffffffffffffffffffffffffffffffffffffffffffffffffff1916827bffffffffffffffffffffffffffffffffffffffffffffffffffffffff1916148061072057507f5b5e139f000000000000000000000000000000000000000000000000000000007bffffffffffffffffffffffffffffffffffffffffffffffffffffffff1916827bffffffffffffffffffffffffffffffffffffffffffffffffffffffff1916145b80610730575061072f82611e13565b5b9050919050565b60606000805461074690613ab7565b80601f016020809104026020016040519081016040528092919081815260200182805461077290613ab7565b80156107bf5780601f10610794576101008083540402835291602001916107bf565b820191906000526020600020905b8154815290600101906020018083116107a257829003601f168201915b5050505050905090565b60006107d482611e7d565b6004600083815260200190815260200160002060009054906101000a900473ffffffffffffffffffffffffffffffffffffffff169050919050565b600061081a826110f3565b90508073ffffffffffffffffffffffffffffffffffffffff168373ffffffffffffffffffffffffffffffffffffffff160361088a576040517f08c379a000000000000000000000000000000000000000000000000000000000815260040161088190613b5a565b60405180910390fd5b8073ffffffffffffffffffffffffffffffffffffffff166108a9611ec8565b73ffffffffffffffffffffffffffffffffffffffff1614806108d857506108d7816108d2611ec8565b611d7f565b5b610917576040517f08c379a000000000000000000000000000000000000000000000000000000000815260040161090e90613bec565b60405180910390fd5b6109218383611ed0565b505050565b606060006109346007611f89565b905060008060005b838110156109dc578573ffffffffffffffffffffffffffffffffffffffff16600b600060018461096c9190613c3b565b815260200190815260200160002060020160009054906101000a900473ffffffffffffffffffffffffffffffffffffffff1673ffffffffffffffffffffffffffffffffffffffff16036109c9576001836109c69190613c3b565b92505b80806109d490613c6f565b91505061093c565b5060008267ffffffffffffffff8111156109f9576109f8613530565b5b604051908082528060200260200182016040528015610a2c57816020015b6060815260200190600190039081610a175790505b50905060005b84811015610ba7578673ffffffffffffffffffffffffffffffffffffffff16600b6000600184610a629190613c3b565b815260200190815260200160002060020160009054906101000a900473ffffffffffffffffffffffffffffffffffffffff1673ffffffffffffffffffffffffffffffffffffffff1603610b94576000600182610abe9190613c3b565b90506000600b60008381526020019081526020016000209050806003018054610ae690613ab7565b80601f0160208091040260200160405190810160405280929190818152602001828054610b1290613ab7565b8015610b5f5780601f10610b3457610100808354040283529160200191610b5f565b820191906000526020600020905b815481529060010190602001808311610b4257829003601f168201915b5050505050848681518110610b7757610b76613cb7565b5b6020026020010181905250600185610b8f9190613c3b565b945050505b8080610b9f90613c6f565b915050610a32565b5080945050505050919050565b6000600954905090565b80600b6000848152602001908152602001600020600401819055505050565b610bee610be8611ec8565b82611f97565b610c2d576040517f08c379a0000000000000000000000000000000000000000000000000000000008152600401610c2490613d58565b60405180910390fd5b610c3883838361202c565b505050565b60608282604051602001610c52929190613e00565b604051602081830303815290604052905092915050565b6000600b6000838152602001908152602001600020600401549050600060405180606001604052806040815260200161497c60409139905081341015610cb782610cb285612325565b610c3d565b90610cf8576040517f08c379a0000000000000000000000000000000000000000000000000000000008152600401610cef91906131c1565b60405180910390fd5b5033600b600085815260200190815260200160002060020160006101000a81548173ffffffffffffffffffffffffffffffffffffffff021916908373ffffffffffffffffffffffffffffffffffffffff1602179055506001600b600085815260200190815260200160002060060160146101000a81548160ff0219169083151502179055506000600b600085815260200190815260200160002060010160006101000a81548173ffffffffffffffffffffffffffffffffffffffff021916908373ffffffffffffffffffffffffffffffffffffffff160217905550610ddd60086123f3565b610de830338561202c565b600a60009054906101000a900473ffffffffffffffffffffffffffffffffffffffff1673ffffffffffffffffffffffffffffffffffffffff166108fc349081150290604051600060405180830381858888f19350505050158015610e50573d6000803e3d6000fd5b50505050565b60006064600a600b600085815260200190815260200160002060040154610e7d9190613e2f565b610e879190613ea0565b905080341015610ecc576040517f08c379a0000000000000000000000000000000000000000000000000000000008152600401610ec390613f43565b60405180910390fd5b600034905080600b60008581526020019081526020016000206005016000828254610ef79190613c3b565b92505081905550600b600084815260200190815260200160002060040154600b600085815260200190815260200160002060050154106110215733600b600085815260200190815260200160002060020160006101000a81548173ffffffffffffffffffffffffffffffffffffffff021916908373ffffffffffffffffffffffffffffffffffffffff1602179055506001600b600085815260200190815260200160002060060160146101000a81548160ff0219169083151502179055506000600b600085815260200190815260200160002060010160006101000a81548173ffffffffffffffffffffffffffffffffffffffff021916908373ffffffffffffffffffffffffffffffffffffffff16021790555061101560086123f3565b61102030338561202c565b5b600a60009054906101000a900473ffffffffffffffffffffffffffffffffffffffff1673ffffffffffffffffffffffffffffffffffffffff166108fc349081150290604051600060405180830381858888f19350505050158015611089573d6000803e3d6000fd5b50505050565b6110aa838383604051806020016040528060008152506119f0565b505050565b60006110bb60076123f3565b60006110c76007611f89565b90506110d33382612409565b6110dd8186612626565b6110e8818585612693565b809150509392505050565b6000806110ff836128eb565b9050600073ffffffffffffffffffffffffffffffffffffffff168173ffffffffffffffffffffffffffffffffffffffff1603611170576040517f08c379a000000000000000000000000000000000000000000000000000000000815260040161116790613faf565b60405180910390fd5b80915050919050565b60008073ffffffffffffffffffffffffffffffffffffffff168273ffffffffffffffffffffffffffffffffffffffff16036111e9576040517f08c379a00000000000000000000000000000000000000000000000000000000081526004016111e090614041565b60405180910390fd5b600360008373ffffffffffffffffffffffffffffffffffffffff1673ffffffffffffffffffffffffffffffffffffffff168152602001908152602001600020549050919050565b611238612fd9565b60006112446007611f89565b905061124e612fd9565b60005b8281101561152c5761130d600b600060018461126d9190613c3b565b8152602001908152602001600020600301805461128990613ab7565b80601f01602080910402602001604051908101604052809291908181526020018280546112b590613ab7565b80156113025780601f106112d757610100808354040283529160200191611302565b820191906000526020600020905b8154815290600101906020018083116112e557829003601f168201915b505050505086611a52565b156115195760006001826113219190613c3b565b90506000600b600083815260200190815260200160002090508060405180610100016040529081600082015481526020016001820160009054906101000a900473ffffffffffffffffffffffffffffffffffffffff1673ffffffffffffffffffffffffffffffffffffffff1673ffffffffffffffffffffffffffffffffffffffff1681526020016002820160009054906101000a900473ffffffffffffffffffffffffffffffffffffffff1673ffffffffffffffffffffffffffffffffffffffff1673ffffffffffffffffffffffffffffffffffffffff16815260200160038201805461140d90613ab7565b80601f016020809104026020016040519081016040528092919081815260200182805461143990613ab7565b80156114865780601f1061145b57610100808354040283529160200191611486565b820191906000526020600020905b81548152906001019060200180831161146957829003601f168201915b5050505050815260200160048201548152602001600582015481526020016006820160009054906101000a900473ffffffffffffffffffffffffffffffffffffffff1673ffffffffffffffffffffffffffffffffffffffff1673ffffffffffffffffffffffffffffffffffffffff1681526020016006820160149054906101000a900460ff161515151581525050935050505b808061152490613c6f565b915050611251565b508092505050919050565b60606001805461154690613ab7565b80601f016020809104026020016040519081016040528092919081815260200182805461157290613ab7565b80156115bf5780601f10611594576101008083540402835291602001916115bf565b820191906000526020600020905b8154815290600101906020018083116115a257829003601f168201915b5050505050905090565b606060006115d76007611f89565b90506000808267ffffffffffffffff8111156115f6576115f5613530565b5b60405190808252806020026020018201604052801561162957816020015b60608152602001906001900390816116145790505b50905060005b8381101561172e5760006001826116469190613c3b565b90506000600b6000838152602001908152602001600020905080600301805461166e90613ab7565b80601f016020809104026020016040519081016040528092919081815260200182805461169a90613ab7565b80156116e75780601f106116bc576101008083540402835291602001916116e7565b820191906000526020600020905b8154815290600101906020018083116116ca57829003601f168201915b50505050508486815181106116ff576116fe613cb7565b5b60200260200101819052506001856117179190613c3b565b94505050808061172690613c6f565b91505061162f565b5080935050505090565b61174a611743611ec8565b8383612928565b5050565b3373ffffffffffffffffffffffffffffffffffffffff16600a60009054906101000a900473ffffffffffffffffffffffffffffffffffffffff1673ffffffffffffffffffffffffffffffffffffffff16146117de576040517f08c379a00000000000000000000000000000000000000000000000000000000081526004016117d5906140d3565b60405180910390fd5b8060098190555050565b606060006117f66007611f89565b905060006118046008611f89565b61180e6007611f89565b61181891906140f3565b90506000808267ffffffffffffffff81111561183757611836613530565b5b60405190808252806020026020018201604052801561186a57816020015b60608152602001906001900390816118555790505b50905060005b848110156119e5573073ffffffffffffffffffffffffffffffffffffffff16600b60006001846118a09190613c3b565b815260200190815260200160002060020160009054906101000a900473ffffffffffffffffffffffffffffffffffffffff1673ffffffffffffffffffffffffffffffffffffffff16036119d25760006001826118fc9190613c3b565b90506000600b6000838152602001908152602001600020905080600301805461192490613ab7565b80601f016020809104026020016040519081016040528092919081815260200182805461195090613ab7565b801561199d5780601f106119725761010080835404028352916020019161199d565b820191906000526020600020905b81548152906001019060200180831161198057829003601f168201915b50505050508486815181106119b5576119b4613cb7565b5b60200260200101819052506001856119cd9190613c3b565b945050505b80806119dd90613c6f565b915050611870565b508094505050505090565b611a016119fb611ec8565b83611f97565b611a40576040517f08c379a0000000000000000000000000000000000000000000000000000000008152600401611a3790613d58565b60405180910390fd5b611a4c84848484612a94565b50505050565b600081604051602001611a659190614127565b6040516020818303038152906040528051906020012083604051602001611a8c9190614127565b6040516020818303038152906040528051906020012014905092915050565b6060611ab682611e7d565b6000600660008481526020019081526020016000208054611ad690613ab7565b80601f0160208091040260200160405190810160405280929190818152602001828054611b0290613ab7565b8015611b4f5780601f10611b2457610100808354040283529160200191611b4f565b820191906000526020600020905b815481529060010190602001808311611b3257829003601f168201915b505050505090506000611b60612af0565b90506000815103611b75578192505050611bb8565b600082511115611baa578082604051602001611b9292919061413e565b60405160208183030381529060405292505050611bb8565b611bb384612b07565b925050505b919050565b600034905080600b60008481526020019081526020016000206005016000828254611be89190613c3b565b92505081905550600b600083815260200190815260200160002060040154600b60008481526020019081526020016000206005015410611d125733600b600084815260200190815260200160002060020160006101000a81548173ffffffffffffffffffffffffffffffffffffffff021916908373ffffffffffffffffffffffffffffffffffffffff1602179055506001600b600084815260200190815260200160002060060160146101000a81548160ff0219169083151502179055506000600b600084815260200190815260200160002060010160006101000a81548173ffffffffffffffffffffffffffffffffffffffff021916908373ffffffffffffffffffffffffffffffffffffffff160217905550611d0660086123f3565b611d1130338461202c565b5b600a60009054906101000a900473ffffffffffffffffffffffffffffffffffffffff1673ffffffffffffffffffffffffffffffffffffffff166108fc349081150290604051600060405180830381858888f19350505050158015611d7a573d6000803e3d6000fd5b505050565b6000600560008473ffffffffffffffffffffffffffffffffffffffff1673ffffffffffffffffffffffffffffffffffffffff16815260200190815260200160002060008373ffffffffffffffffffffffffffffffffffffffff1673ffffffffffffffffffffffffffffffffffffffff16815260200190815260200160002060009054906101000a900460ff16905092915050565b60007f01ffc9a7000000000000000000000000000000000000000000000000000000007bffffffffffffffffffffffffffffffffffffffffffffffffffffffff1916827bffffffffffffffffffffffffffffffffffffffffffffffffffffffff1916149050919050565b611e8681612b6f565b611ec5576040517f08c379a0000000000000000000000000000000000000000000000000000000008152600401611ebc90613faf565b60405180910390fd5b50565b600033905090565b816004600083815260200190815260200160002060006101000a81548173ffffffffffffffffffffffffffffffffffffffff021916908373ffffffffffffffffffffffffffffffffffffffff160217905550808273ffffffffffffffffffffffffffffffffffffffff16611f43836110f3565b73ffffffffffffffffffffffffffffffffffffffff167f8c5be1e5ebec7d5bd14f71427d1e84f3dd0314c0f7b2291e5b200ac8c7c3b92560405160405180910390a45050565b600081600001549050919050565b600080611fa3836110f3565b90508073ffffffffffffffffffffffffffffffffffffffff168473ffffffffffffffffffffffffffffffffffffffff161480611fe55750611fe48185611d7f565b5b8061202357508373ffffffffffffffffffffffffffffffffffffffff1661200b846107c9565b73ffffffffffffffffffffffffffffffffffffffff16145b91505092915050565b8273ffffffffffffffffffffffffffffffffffffffff1661204c826110f3565b73ffffffffffffffffffffffffffffffffffffffff16146120a2576040517f08c379a0000000000000000000000000000000000000000000000000000000008152600401612099906141d4565b60405180910390fd5b600073ffffffffffffffffffffffffffffffffffffffff168273ffffffffffffffffffffffffffffffffffffffff1603612111576040517f08c379a000000000000000000000000000000000000000000000000000000000815260040161210890614266565b60405180910390fd5b61211e8383836001612bb0565b8273ffffffffffffffffffffffffffffffffffffffff1661213e826110f3565b73ffffffffffffffffffffffffffffffffffffffff1614612194576040517f08c379a000000000000000000000000000000000000000000000000000000000815260040161218b906141d4565b60405180910390fd5b6004600082815260200190815260200160002060006101000a81549073ffffffffffffffffffffffffffffffffffffffff02191690556001600360008573ffffffffffffffffffffffffffffffffffffffff1673ffffffffffffffffffffffffffffffffffffffff168152602001908152602001600020600082825403925050819055506001600360008473ffffffffffffffffffffffffffffffffffffffff1673ffffffffffffffffffffffffffffffffffffffff16815260200190815260200160002060008282540192505081905550816002600083815260200190815260200160002060006101000a81548173ffffffffffffffffffffffffffffffffffffffff021916908373ffffffffffffffffffffffffffffffffffffffff160217905550808273ffffffffffffffffffffffffffffffffffffffff168473ffffffffffffffffffffffffffffffffffffffff167fddf252ad1be2c89b69c2b068fc378daa952ba7f163c4a11628f55a4df523b3ef60405160405180910390a46123208383836001612cd6565b505050565b60606000600161233484612cdc565b01905060008167ffffffffffffffff81111561235357612352613530565b5b6040519080825280601f01601f1916602001820160405280156123855781602001600182028036833780820191505090505b509050600082602001820190505b6001156123e8578080600190039150507f3031323334353637383961626364656600000000000000000000000000000000600a86061a8153600a85816123dc576123db613e71565b5b04945060008503612393575b819350505050919050565b6001816000016000828254019250508190555050565b600073ffffffffffffffffffffffffffffffffffffffff168273ffffffffffffffffffffffffffffffffffffffff1603612478576040517f08c379a000000000000000000000000000000000000000000000000000000000815260040161246f906142d2565b60405180910390fd5b61248181612b6f565b156124c1576040517f08c379a00000000000000000000000000000000000000000000000000000000081526004016124b89061433e565b60405180910390fd5b6124cf600083836001612bb0565b6124d881612b6f565b15612518576040517f08c379a000000000000000000000000000000000000000000000000000000000815260040161250f9061433e565b60405180910390fd5b6001600360008473ffffffffffffffffffffffffffffffffffffffff1673ffffffffffffffffffffffffffffffffffffffff16815260200190815260200160002060008282540192505081905550816002600083815260200190815260200160002060006101000a81548173ffffffffffffffffffffffffffffffffffffffff021916908373ffffffffffffffffffffffffffffffffffffffff160217905550808273ffffffffffffffffffffffffffffffffffffffff16600073ffffffffffffffffffffffffffffffffffffffff167fddf252ad1be2c89b69c2b068fc378daa952ba7f163c4a11628f55a4df523b3ef60405160405180910390a4612622600083836001612cd6565b5050565b61262f82612b6f565b61266e576040517f08c379a0000000000000000000000000000000000000000000000000000000008152600401612665906143d0565b60405180910390fd5b8060066000848152602001908152602001600020908161268e919061459c565b505050565b600081116126d6576040517f08c379a00000000000000000000000000000000000000000000000000000000081526004016126cd906146ba565b60405180910390fd5b6040518061010001604052808481526020013373ffffffffffffffffffffffffffffffffffffffff1681526020013073ffffffffffffffffffffffffffffffffffffffff168152602001838152602001828152602001600081526020013073ffffffffffffffffffffffffffffffffffffffff16815260200160001515815250600b60008581526020019081526020016000206000820151816000015560208201518160010160006101000a81548173ffffffffffffffffffffffffffffffffffffffff021916908373ffffffffffffffffffffffffffffffffffffffff16021790555060408201518160020160006101000a81548173ffffffffffffffffffffffffffffffffffffffff021916908373ffffffffffffffffffffffffffffffffffffffff1602179055506060820151816003019081612816919061459c565b506080820151816004015560a0820151816005015560c08201518160060160006101000a81548173ffffffffffffffffffffffffffffffffffffffff021916908373ffffffffffffffffffffffffffffffffffffffff16021790555060e08201518160060160146101000a81548160ff0219169083151502179055509050506128a033308561202c565b827f1cf2ed3959854da6bc41a1a81cc41349251fbe5785ba1142a49e500cdb5ab7553330858560003060006040516128de9796959493929190614724565b60405180910390a2505050565b60006002600083815260200190815260200160002060009054906101000a900473ffffffffffffffffffffffffffffffffffffffff169050919050565b8173ffffffffffffffffffffffffffffffffffffffff168373ffffffffffffffffffffffffffffffffffffffff1603612996576040517f08c379a000000000000000000000000000000000000000000000000000000000815260040161298d906147e6565b60405180910390fd5b80600560008573ffffffffffffffffffffffffffffffffffffffff1673ffffffffffffffffffffffffffffffffffffffff16815260200190815260200160002060008473ffffffffffffffffffffffffffffffffffffffff1673ffffffffffffffffffffffffffffffffffffffff16815260200190815260200160002060006101000a81548160ff0219169083151502179055508173ffffffffffffffffffffffffffffffffffffffff168373ffffffffffffffffffffffffffffffffffffffff167f17307eab39ab6107e8899845ad3d59bd9653f200f220920489ca2b5937696c3183604051612a879190613116565b60405180910390a3505050565b612a9f84848461202c565b612aab84848484612e2f565b612aea576040517f08c379a0000000000000000000000000000000000000000000000000000000008152600401612ae190614878565b60405180910390fd5b50505050565b606060405180602001604052806000815250905090565b6060612b1282611e7d565b6000612b1c612af0565b90506000815111612b3c5760405180602001604052806000815250612b67565b80612b4684612325565b604051602001612b5792919061413e565b6040516020818303038152906040525b915050919050565b60008073ffffffffffffffffffffffffffffffffffffffff16612b91836128eb565b73ffffffffffffffffffffffffffffffffffffffff1614159050919050565b6001811115612cd057600073ffffffffffffffffffffffffffffffffffffffff168473ffffffffffffffffffffffffffffffffffffffff1614612c445780600360008673ffffffffffffffffffffffffffffffffffffffff1673ffffffffffffffffffffffffffffffffffffffff1681526020019081526020016000206000828254612c3c91906140f3565b925050819055505b600073ffffffffffffffffffffffffffffffffffffffff168373ffffffffffffffffffffffffffffffffffffffff1614612ccf5780600360008573ffffffffffffffffffffffffffffffffffffffff1673ffffffffffffffffffffffffffffffffffffffff1681526020019081526020016000206000828254612cc79190613c3b565b925050819055505b5b50505050565b50505050565b600080600090507a184f03e93ff9f4daa797ed6e38ed64bf6a1f0100000000000000008310612d3a577a184f03e93ff9f4daa797ed6e38ed64bf6a1f0100000000000000008381612d3057612d2f613e71565b5b0492506040810190505b6d04ee2d6d415b85acef81000000008310612d77576d04ee2d6d415b85acef81000000008381612d6d57612d6c613e71565b5b0492506020810190505b662386f26fc100008310612da657662386f26fc100008381612d9c57612d9b613e71565b5b0492506010810190505b6305f5e1008310612dcf576305f5e1008381612dc557612dc4613e71565b5b0492506008810190505b6127108310612df4576127108381612dea57612de9613e71565b5b0492506004810190505b60648310612e175760648381612e0d57612e0c613e71565b5b0492506002810190505b600a8310612e26576001810190505b80915050919050565b6000612e508473ffffffffffffffffffffffffffffffffffffffff16612fb6565b15612fa9578373ffffffffffffffffffffffffffffffffffffffff1663150b7a02612e79611ec8565b8786866040518563ffffffff1660e01b8152600401612e9b94939291906148ed565b6020604051808303816000875af1925050508015612ed757506040513d601f19601f82011682018060405250810190612ed4919061494e565b60015b612f59573d8060008114612f07576040519150601f19603f3d011682016040523d82523d6000602084013e612f0c565b606091505b506000815103612f51576040517f08c379a0000000000000000000000000000000000000000000000000000000008152600401612f4890614878565b60405180910390fd5b805181602001fd5b63150b7a0260e01b7bffffffffffffffffffffffffffffffffffffffffffffffffffffffff1916817bffffffffffffffffffffffffffffffffffffffffffffffffffffffff191614915050612fae565b600190505b949350505050565b6000808273ffffffffffffffffffffffffffffffffffffffff163b119050919050565b60405180610100016040528060008152602001600073ffffffffffffffffffffffffffffffffffffffff168152602001600073ffffffffffffffffffffffffffffffffffffffff168152602001606081526020016000815260200160008152602001600073ffffffffffffffffffffffffffffffffffffffff1681526020016000151581525090565b6000604051905090565b600080fd5b600080fd5b60007fffffffff0000000000000000000000000000000000000000000000000000000082169050919050565b6130ab81613076565b81146130b657600080fd5b50565b6000813590506130c8816130a2565b92915050565b6000602082840312156130e4576130e361306c565b5b60006130f2848285016130b9565b91505092915050565b60008115159050919050565b613110816130fb565b82525050565b600060208201905061312b6000830184613107565b92915050565b600081519050919050565b600082825260208201905092915050565b60005b8381101561316b578082015181840152602081019050613150565b60008484015250505050565b6000601f19601f8301169050919050565b600061319382613131565b61319d818561313c565b93506131ad81856020860161314d565b6131b681613177565b840191505092915050565b600060208201905081810360008301526131db8184613188565b905092915050565b6000819050919050565b6131f6816131e3565b811461320157600080fd5b50565b600081359050613213816131ed565b92915050565b60006020828403121561322f5761322e61306c565b5b600061323d84828501613204565b91505092915050565b600073ffffffffffffffffffffffffffffffffffffffff82169050919050565b600061327182613246565b9050919050565b61328181613266565b82525050565b600060208201905061329c6000830184613278565b92915050565b6132ab81613266565b81146132b657600080fd5b50565b6000813590506132c8816132a2565b92915050565b600080604083850312156132e5576132e461306c565b5b60006132f3858286016132b9565b925050602061330485828601613204565b9150509250929050565b6000602082840312156133245761332361306c565b5b6000613332848285016132b9565b91505092915050565b600081519050919050565b600082825260208201905092915050565b6000819050602082019050919050565b600082825260208201905092915050565b600061338382613131565b61338d8185613367565b935061339d81856020860161314d565b6133a681613177565b840191505092915050565b60006133bd8383613378565b905092915050565b6000602082019050919050565b60006133dd8261333b565b6133e78185613346565b9350836020820285016133f985613357565b8060005b85811015613435578484038952815161341685826133b1565b9450613421836133c5565b925060208a019950506001810190506133fd565b50829750879550505050505092915050565b6000602082019050818103600083015261346181846133d2565b905092915050565b613472816131e3565b82525050565b600060208201905061348d6000830184613469565b92915050565b600080604083850312156134aa576134a961306c565b5b60006134b885828601613204565b92505060206134c985828601613204565b9150509250929050565b6000806000606084860312156134ec576134eb61306c565b5b60006134fa868287016132b9565b935050602061350b868287016132b9565b925050604061351c86828701613204565b9150509250925092565b600080fd5b600080fd5b7f4e487b7100000000000000000000000000000000000000000000000000000000600052604160045260246000fd5b61356882613177565b810181811067ffffffffffffffff8211171561358757613586613530565b5b80604052505050565b600061359a613062565b90506135a6828261355f565b919050565b600067ffffffffffffffff8211156135c6576135c5613530565b5b6135cf82613177565b9050602081019050919050565b82818337600083830152505050565b60006135fe6135f9846135ab565b613590565b90508281526020810184848401111561361a5761361961352b565b5b6136258482856135dc565b509392505050565b600082601f83011261364257613641613526565b5b81356136528482602086016135eb565b91505092915050565b600080604083850312156136725761367161306c565b5b600083013567ffffffffffffffff8111156136905761368f613071565b5b61369c8582860161362d565b925050602083013567ffffffffffffffff8111156136bd576136bc613071565b5b6136c98582860161362d565b9150509250929050565b6000806000606084860312156136ec576136eb61306c565b5b600084013567ffffffffffffffff81111561370a57613709613071565b5b6137168682870161362d565b935050602084013567ffffffffffffffff81111561373757613736613071565b5b6137438682870161362d565b925050604061375486828701613204565b9150509250925092565b6000602082840312156137745761377361306c565b5b600082013567ffffffffffffffff81111561379257613791613071565b5b61379e8482850161362d565b91505092915050565b6137b0816131e3565b82525050565b60006137c182613246565b9050919050565b6137d1816137b6565b82525050565b6137e0816130fb565b82525050565b6000610100830160008301516137ff60008601826137a7565b50602083015161381260208601826137c8565b50604083015161382560408601826137c8565b506060830151848203606086015261383d8282613378565b915050608083015161385260808601826137a7565b5060a083015161386560a08601826137a7565b5060c083015161387860c08601826137c8565b5060e083015161388b60e08601826137d7565b508091505092915050565b600060208201905081810360008301526138b081846137e6565b905092915050565b6138c1816130fb565b81146138cc57600080fd5b50565b6000813590506138de816138b8565b92915050565b600080604083850312156138fb576138fa61306c565b5b6000613909858286016132b9565b925050602061391a858286016138cf565b9150509250929050565b600067ffffffffffffffff82111561393f5761393e613530565b5b61394882613177565b9050602081019050919050565b600061396861396384613924565b613590565b9050828152602081018484840111156139845761398361352b565b5b61398f8482856135dc565b509392505050565b600082601f8301126139ac576139ab613526565b5b81356139bc848260208601613955565b91505092915050565b600080600080608085870312156139df576139de61306c565b5b60006139ed878288016132b9565b94505060206139fe878288016132b9565b9350506040613a0f87828801613204565b925050606085013567ffffffffffffffff811115613a3057613a2f613071565b5b613a3c87828801613997565b91505092959194509250565b60008060408385031215613a5f57613a5e61306c565b5b6000613a6d858286016132b9565b9250506020613a7e858286016132b9565b9150509250929050565b7f4e487b7100000000000000000000000000000000000000000000000000000000600052602260045260246000fd5b60006002820490506001821680613acf57607f821691505b602082108103613ae257613ae1613a88565b5b50919050565b7f4552433732313a20617070726f76616c20746f2063757272656e74206f776e6560008201527f7200000000000000000000000000000000000000000000000000000000000000602082015250565b6000613b4460218361313c565b9150613b4f82613ae8565b604082019050919050565b60006020820190508181036000830152613b7381613b37565b9050919050565b7f4552433732313a20617070726f76652063616c6c6572206973206e6f7420746f60008201527f6b656e206f776e6572206f7220617070726f76656420666f7220616c6c000000602082015250565b6000613bd6603d8361313c565b9150613be182613b7a565b604082019050919050565b60006020820190508181036000830152613c0581613bc9565b9050919050565b7f4e487b7100000000000000000000000000000000000000000000000000000000600052601160045260246000fd5b6000613c46826131e3565b9150613c51836131e3565b9250828201905080821115613c6957613c68613c0c565b5b92915050565b6000613c7a826131e3565b91507fffffffffffffffffffffffffffffffffffffffffffffffffffffffffffffffff8203613cac57613cab613c0c565b5b600182019050919050565b7f4e487b7100000000000000000000000000000000000000000000000000000000600052603260045260246000fd5b7f4552433732313a2063616c6c6572206973206e6f7420746f6b656e206f776e6560008201527f72206f7220617070726f76656400000000000000000000000000000000000000602082015250565b6000613d42602d8361313c565b9150613d4d82613ce6565b604082019050919050565b60006020820190508181036000830152613d7181613d35565b9050919050565b600081905092915050565b6000613d8e82613131565b613d988185613d78565b9350613da881856020860161314d565b80840191505092915050565b7f2000000000000000000000000000000000000000000000000000000000000000600082015250565b6000613dea600183613d78565b9150613df582613db4565b600182019050919050565b6000613e0c8285613d83565b9150613e1782613ddd565b9150613e238284613d83565b91508190509392505050565b6000613e3a826131e3565b9150613e45836131e3565b9250828202613e53816131e3565b91508282048414831517613e6a57613e69613c0c565b5b5092915050565b7f4e487b7100000000000000000000000000000000000000000000000000000000600052601260045260246000fd5b6000613eab826131e3565b9150613eb6836131e3565b925082613ec657613ec5613e71565b5b828204905092915050565b7f506c6561736520706179207468652066756c6c20616d6f756e7420696e206f7260008201527f64657220746f20636f6d706c65746520746865207472616e73616374696f6e21602082015250565b6000613f2d60408361313c565b9150613f3882613ed1565b604082019050919050565b60006020820190508181036000830152613f5c81613f20565b9050919050565b7f4552433732313a20696e76616c696420746f6b656e2049440000000000000000600082015250565b6000613f9960188361313c565b9150613fa482613f63565b602082019050919050565b60006020820190508181036000830152613fc881613f8c565b9050919050565b7f4552433732313a2061646472657373207a65726f206973206e6f74206120766160008201527f6c6964206f776e65720000000000000000000000000000000000000000000000602082015250565b600061402b60298361313c565b915061403682613fcf565b604082019050919050565b6000602082019050818103600083015261405a8161401e565b9050919050565b7f4f6e6c79206d61726b6574706c616365206f776e65722063616e20757064617460008201527f65206c697374696e672070726963652e00000000000000000000000000000000602082015250565b60006140bd60308361313c565b91506140c882614061565b604082019050919050565b600060208201905081810360008301526140ec816140b0565b9050919050565b60006140fe826131e3565b9150614109836131e3565b925082820390508181111561412157614120613c0c565b5b92915050565b60006141338284613d83565b915081905092915050565b600061414a8285613d83565b91506141568284613d83565b91508190509392505050565b7f4552433732313a207472616e736665722066726f6d20696e636f72726563742060008201527f6f776e6572000000000000000000000000000000000000000000000000000000602082015250565b60006141be60258361313c565b91506141c982614162565b604082019050919050565b600060208201905081810360008301526141ed816141b1565b9050919050565b7f4552433732313a207472616e7366657220746f20746865207a65726f2061646460008201527f7265737300000000000000000000000000000000000000000000000000000000602082015250565b600061425060248361313c565b915061425b826141f4565b604082019050919050565b6000602082019050818103600083015261427f81614243565b9050919050565b7f4552433732313a206d696e7420746f20746865207a65726f2061646472657373600082015250565b60006142bc60208361313c565b91506142c782614286565b602082019050919050565b600060208201905081810360008301526142eb816142af565b9050919050565b7f4552433732313a20746f6b656e20616c7265616479206d696e74656400000000600082015250565b6000614328601c8361313c565b9150614333826142f2565b602082019050919050565b600060208201905081810360008301526143578161431b565b9050919050565b7f45524337323155524953746f726167653a2055524920736574206f66206e6f6e60008201527f6578697374656e7420746f6b656e000000000000000000000000000000000000602082015250565b60006143ba602e8361313c565b91506143c58261435e565b604082019050919050565b600060208201905081810360008301526143e9816143ad565b9050919050565b60008190508160005260206000209050919050565b60006020601f8301049050919050565b600082821b905092915050565b6000600883026144527fffffffffffffffffffffffffffffffffffffffffffffffffffffffffffffffff82614415565b61445c8683614415565b95508019841693508086168417925050509392505050565b6000819050919050565b600061449961449461448f846131e3565b614474565b6131e3565b9050919050565b6000819050919050565b6144b38361447e565b6144c76144bf826144a0565b848454614422565b825550505050565b600090565b6144dc6144cf565b6144e78184846144aa565b505050565b5b8181101561450b576145006000826144d4565b6001810190506144ed565b5050565b601f82111561455057614521816143f0565b61452a84614405565b81016020851015614539578190505b61454d61454585614405565b8301826144ec565b50505b505050565b600082821c905092915050565b600061457360001984600802614555565b1980831691505092915050565b600061458c8383614562565b9150826002028217905092915050565b6145a582613131565b67ffffffffffffffff8111156145be576145bd613530565b5b6145c88254613ab7565b6145d382828561450f565b600060209050601f83116001811461460657600084156145f4578287015190505b6145fe8582614580565b865550614666565b601f198416614614866143f0565b60005b8281101561463c57848901518255600182019150602085019450602081019050614617565b868310156146595784890151614655601f891682614562565b8355505b6001600288020188555050505b505050505050565b7f5072696365206d757374206265206174206c6561737420312077656900000000600082015250565b60006146a4601c8361313c565b91506146af8261466e565b602082019050919050565b600060208201905081810360008301526146d381614697565b9050919050565b6000819050919050565b60006146ff6146fa6146f5846146da565b614474565b6131e3565b9050919050565b61470f816146e4565b82525050565b61471e816137b6565b82525050565b600060e082019050614739600083018a613278565b6147466020830189613278565b81810360408301526147588188613188565b90506147676060830187613469565b6147746080830186614706565b61478160a0830185614715565b61478e60c0830184613107565b98975050505050505050565b7f4552433732313a20617070726f766520746f2063616c6c657200000000000000600082015250565b60006147d060198361313c565b91506147db8261479a565b602082019050919050565b600060208201905081810360008301526147ff816147c3565b9050919050565b7f4552433732313a207472616e7366657220746f206e6f6e20455243373231526560008201527f63656976657220696d706c656d656e7465720000000000000000000000000000602082015250565b600061486260328361313c565b915061486d82614806565b604082019050919050565b6000602082019050818103600083015261489181614855565b9050919050565b600081519050919050565b600082825260208201905092915050565b60006148bf82614898565b6148c981856148a3565b93506148d981856020860161314d565b6148e281613177565b840191505092915050565b60006080820190506149026000830187613278565b61490f6020830186613278565b61491c6040830185613469565b818103606083015261492e81846148b4565b905095945050505050565b600081519050614948816130a2565b92915050565b6000602082840312156149645761496361306c565b5b600061497284828501614939565b9150509291505056fe506c6561736520706179207468652066756c6c20616d6f756e7420696e206f7264657220746f20636f6d706c65746520746865207472616e73616374696f6e21a2646970667358221220ec4576a9dddcca24b5df22bff9dae6ff888b3becbc89804d356d65e3c6a85e7164736f6c63430008110033",
  "linkReferences": {},
  "deployedLinkReferences": {}
}