{
  "_format": "hh-sol-artifact-1",
  "contractName": "NFTPropertyContractSystem",
  "sourceName": "contracts/NFTPropertyContractSystem.sol",
  "abi": [
    {
      "inputs": [],
      "stateMutability": "nonpayable",
      "type": "constructor"
    },
    {
      "anonymous": false,
      "inputs": [
        {
          "indexed": true,
          "internalType": "address",
          "name": "owner",
          "type": "address"
        },
        {
          "indexed": true,
          "internalType": "address",
          "name": "approved",
          "type": "address"
        },
        {
          "indexed": true,
          "internalType": "uint256",
          "name": "tokenId",
          "type": "uint256"
        }
      ],
      "name": "Approval",
      "type": "event"
    },
    {
      "anonymous": false,
      "inputs": [
        {
          "indexed": true,
          "internalType": "address",
          "name": "owner",
          "type": "address"
        },
        {
          "indexed": true,
          "internalType": "address",
          "name": "operator",
          "type": "address"
        },
        {
          "indexed": false,
          "internalType": "bool",
          "name": "approved",
          "type": "bool"
        }
      ],
      "name": "ApprovalForAll",
      "type": "event"
    },
    {
      "anonymous": false,
      "inputs": [
        {
          "indexed": true,
          "internalType": "uint256",
          "name": "tokenId",
          "type": "uint256"
        },
        {
          "indexed": false,
          "internalType": "address",
          "name": "seller",
          "type": "address"
        },
        {
          "indexed": false,
          "internalType": "address",
          "name": "owner",
          "type": "address"
        },
        {
          "indexed": false,
          "internalType": "string",
          "name": "propertyAddress",
          "type": "string"
        },
        {
          "indexed": false,
          "internalType": "uint256",
          "name": "bidPrice",
          "type": "uint256"
        },
        {
          "indexed": false,
          "internalType": "uint256",
          "name": "price",
          "type": "uint256"
        },
        {
          "indexed": false,
          "internalType": "uint256",
          "name": "paidAmount",
          "type": "uint256"
        },
        {
          "indexed": false,
          "internalType": "address payable",
          "name": "currentBidder",
          "type": "address"
        },
        {
          "indexed": false,
          "internalType": "bool",
          "name": "sold",
          "type": "bool"
        }
      ],
      "name": "MarketItemCreated",
      "type": "event"
    },
    {
      "anonymous": false,
      "inputs": [
        {
          "indexed": true,
          "internalType": "address",
          "name": "from",
          "type": "address"
        },
        {
          "indexed": true,
          "internalType": "address",
          "name": "to",
          "type": "address"
        },
        {
          "indexed": true,
          "internalType": "uint256",
          "name": "tokenId",
          "type": "uint256"
        }
      ],
      "name": "Transfer",
      "type": "event"
    },
    {
      "inputs": [
        {
          "internalType": "address",
          "name": "to",
          "type": "address"
        },
        {
          "internalType": "uint256",
          "name": "tokenId",
          "type": "uint256"
        }
      ],
      "name": "approve",
      "outputs": [],
      "stateMutability": "nonpayable",
      "type": "function"
    },
    {
      "inputs": [
        {
          "internalType": "address",
          "name": "owner",
          "type": "address"
        }
      ],
      "name": "balanceOf",
      "outputs": [
        {
          "internalType": "uint256",
          "name": "",
          "type": "uint256"
        }
      ],
      "stateMutability": "view",
      "type": "function"
    },
    {
      "inputs": [
        {
          "internalType": "uint256",
          "name": "tokenId",
          "type": "uint256"
        }
      ],
      "name": "buyBidProperty",
      "outputs": [],
      "stateMutability": "payable",
      "type": "function"
    },
    {
      "inputs": [
        {
          "internalType": "string",
          "name": "a",
          "type": "string"
        },
        {
          "internalType": "string",
          "name": "b",
          "type": "string"
        }
      ],
      "name": "compareStrings",
      "outputs": [
        {
          "internalType": "bool",
          "name": "",
          "type": "bool"
        }
      ],
      "stateMutability": "view",
      "type": "function"
    },
    {
      "inputs": [
        {
          "internalType": "string",
          "name": "a",
          "type": "string"
        },
        {
          "internalType": "string",
          "name": "b",
          "type": "string"
        }
      ],
      "name": "concatenate",
      "outputs": [
        {
          "internalType": "string",
          "name": "",
          "type": "string"
        }
      ],
      "stateMutability": "pure",
      "type": "function"
    },
    {
      "inputs": [
        {
          "internalType": "uint256",
          "name": "tokenId",
          "type": "uint256"
        }
      ],
      "name": "createMarketSale",
      "outputs": [],
      "stateMutability": "payable",
      "type": "function"
    },
    {
      "inputs": [
        {
          "internalType": "string",
          "name": "tokenURI",
          "type": "string"
        },
        {
          "internalType": "uint256",
          "name": "price",
          "type": "uint256"
        },
        {
          "internalType": "string",
          "name": "propertyAddress",
          "type": "string"
        },
        {
          "internalType": "uint256",
          "name": "bidPrice",
          "type": "uint256"
        }
      ],
      "name": "createTokenNFT",
      "outputs": [
        {
          "internalType": "uint256",
          "name": "",
          "type": "uint256"
        }
      ],
      "stateMutability": "payable",
      "type": "function"
    },
    {
      "inputs": [],
      "name": "fetchAllItems",
      "outputs": [
        {
          "internalType": "string[]",
          "name": "",
          "type": "string[]"
        }
      ],
      "stateMutability": "view",
      "type": "function"
    },
    {
      "inputs": [],
      "name": "fetchMarketItems",
      "outputs": [
        {
          "internalType": "string[]",
          "name": "",
          "type": "string[]"
        }
      ],
      "stateMutability": "view",
      "type": "function"
    },
    {
      "inputs": [
        {
          "internalType": "address",
          "name": "buyer",
          "type": "address"
        }
      ],
      "name": "fetchMyNFTs",
      "outputs": [
        {
          "internalType": "string[]",
          "name": "",
          "type": "string[]"
        }
      ],
      "stateMutability": "view",
      "type": "function"
    },
    {
      "inputs": [
        {
          "internalType": "string",
          "name": "propertyAddress",
          "type": "string"
        }
      ],
      "name": "fetchNFTByPropertyAddress",
      "outputs": [
        {
          "components": [
            {
              "internalType": "uint256",
              "name": "tokenId",
              "type": "uint256"
            },
            {
              "internalType": "address payable",
              "name": "seller",
              "type": "address"
            },
            {
              "internalType": "address payable",
              "name": "owner",
              "type": "address"
            },
            {
              "internalType": "string",
              "name": "propertyAddress",
              "type": "string"
            },
            {
              "internalType": "uint256",
              "name": "bidPrice",
              "type": "uint256"
            },
            {
              "internalType": "uint256",
              "name": "price",
              "type": "uint256"
            },
            {
              "internalType": "uint256",
              "name": "paidAmount",
              "type": "uint256"
            },
            {
              "internalType": "address payable",
              "name": "currentBidder",
              "type": "address"
            },
            {
              "internalType": "bool",
              "name": "sold",
              "type": "bool"
            }
          ],
          "internalType": "struct NFTPropertyContractSystem.MarketItem",
          "name": "",
          "type": "tuple"
        }
      ],
      "stateMutability": "view",
      "type": "function"
    },
    {
      "inputs": [
        {
          "internalType": "uint256",
          "name": "tokenId",
          "type": "uint256"
        }
      ],
      "name": "getApproved",
      "outputs": [
        {
          "internalType": "address",
          "name": "",
          "type": "address"
        }
      ],
      "stateMutability": "view",
      "type": "function"
    },
    {
      "inputs": [],
      "name": "getListingPrice",
      "outputs": [
        {
          "internalType": "uint256",
          "name": "",
          "type": "uint256"
        }
      ],
      "stateMutability": "view",
      "type": "function"
    },
    {
      "inputs": [
        {
          "internalType": "address",
          "name": "owner",
          "type": "address"
        },
        {
          "internalType": "address",
          "name": "operator",
          "type": "address"
        }
      ],
      "name": "isApprovedForAll",
      "outputs": [
        {
          "internalType": "bool",
          "name": "",
          "type": "bool"
        }
      ],
      "stateMutability": "view",
      "type": "function"
    },
    {
      "inputs": [],
      "name": "name",
      "outputs": [
        {
          "internalType": "string",
          "name": "",
          "type": "string"
        }
      ],
      "stateMutability": "view",
      "type": "function"
    },
    {
      "inputs": [
        {
          "internalType": "uint256",
          "name": "tokenId",
          "type": "uint256"
        }
      ],
      "name": "ownerOf",
      "outputs": [
        {
          "internalType": "address",
          "name": "",
          "type": "address"
        }
      ],
      "stateMutability": "view",
      "type": "function"
    },
    {
      "inputs": [
        {
          "internalType": "uint256",
          "name": "tokenId",
          "type": "uint256"
        }
      ],
      "name": "payPartSale",
      "outputs": [],
      "stateMutability": "payable",
      "type": "function"
    },
    {
      "inputs": [
        {
          "internalType": "uint256",
          "name": "tokenId",
          "type": "uint256"
        }
      ],
      "name": "placeDeposit",
      "outputs": [],
      "stateMutability": "payable",
      "type": "function"
    },
    {
      "inputs": [
        {
          "internalType": "address",
          "name": "from",
          "type": "address"
        },
        {
          "internalType": "address",
          "name": "to",
          "type": "address"
        },
        {
          "internalType": "uint256",
          "name": "tokenId",
          "type": "uint256"
        }
      ],
      "name": "safeTransferFrom",
      "outputs": [],
      "stateMutability": "nonpayable",
      "type": "function"
    },
    {
      "inputs": [
        {
          "internalType": "address",
          "name": "from",
          "type": "address"
        },
        {
          "internalType": "address",
          "name": "to",
          "type": "address"
        },
        {
          "internalType": "uint256",
          "name": "tokenId",
          "type": "uint256"
        },
        {
          "internalType": "bytes",
          "name": "data",
          "type": "bytes"
        }
      ],
      "name": "safeTransferFrom",
      "outputs": [],
      "stateMutability": "nonpayable",
      "type": "function"
    },
    {
      "inputs": [
        {
          "internalType": "address",
          "name": "operator",
          "type": "address"
        },
        {
          "internalType": "bool",
          "name": "approved",
          "type": "bool"
        }
      ],
      "name": "setApprovalForAll",
      "outputs": [],
      "stateMutability": "nonpayable",
      "type": "function"
    },
    {
      "inputs": [
        {
          "internalType": "bytes4",
          "name": "interfaceId",
          "type": "bytes4"
        }
      ],
      "name": "supportsInterface",
      "outputs": [
        {
          "internalType": "bool",
          "name": "",
          "type": "bool"
        }
      ],
      "stateMutability": "view",
      "type": "function"
    },
    {
      "inputs": [],
      "name": "symbol",
      "outputs": [
        {
          "internalType": "string",
          "name": "",
          "type": "string"
        }
      ],
      "stateMutability": "view",
      "type": "function"
    },
    {
      "inputs": [
        {
          "internalType": "uint256",
          "name": "tokenId",
          "type": "uint256"
        }
      ],
      "name": "tokenURI",
      "outputs": [
        {
          "internalType": "string",
          "name": "",
          "type": "string"
        }
      ],
      "stateMutability": "view",
      "type": "function"
    },
    {
      "inputs": [
        {
          "internalType": "address",
          "name": "from",
          "type": "address"
        },
        {
          "internalType": "address",
          "name": "to",
          "type": "address"
        },
        {
          "internalType": "uint256",
          "name": "tokenId",
          "type": "uint256"
        }
      ],
      "name": "transferFrom",
      "outputs": [],
      "stateMutability": "nonpayable",
      "type": "function"
    },
    {
      "inputs": [
        {
          "internalType": "uint256",
          "name": "tokenId",
          "type": "uint256"
        },
        {
          "internalType": "uint256",
          "name": "updatedPrice",
          "type": "uint256"
        }
      ],
      "name": "updateBidPrice",
      "outputs": [],
      "stateMutability": "nonpayable",
      "type": "function"
    },
    {
      "inputs": [
        {
          "internalType": "uint256",
          "name": "_listingPrice",
          "type": "uint256"
        }
      ],
      "name": "updateListingPrice",
      "outputs": [],
      "stateMutability": "payable",
      "type": "function"
    }
  ],
  "bytecode": "0x60806040526658d15e176280006009553480156200001c57600080fd5b506040518060400160405280601081526020017f4d657461766572736520546f6b656e73000000000000000000000000000000008152506040518060400160405280600481526020017f4d4554540000000000000000000000000000000000000000000000000000000081525081600090816200009a919062000370565b508060019081620000ac919062000370565b50505033600a60006101000a81548173ffffffffffffffffffffffffffffffffffffffff021916908373ffffffffffffffffffffffffffffffffffffffff16021790555062000457565b600081519050919050565b7f4e487b7100000000000000000000000000000000000000000000000000000000600052604160045260246000fd5b7f4e487b7100000000000000000000000000000000000000000000000000000000600052602260045260246000fd5b600060028204905060018216806200017857607f821691505b6020821081036200018e576200018d62000130565b5b50919050565b60008190508160005260206000209050919050565b60006020601f8301049050919050565b600082821b905092915050565b600060088302620001f87fffffffffffffffffffffffffffffffffffffffffffffffffffffffffffffffff82620001b9565b620002048683620001b9565b95508019841693508086168417925050509392505050565b6000819050919050565b6000819050919050565b6000620002516200024b62000245846200021c565b62000226565b6200021c565b9050919050565b6000819050919050565b6200026d8362000230565b620002856200027c8262000258565b848454620001c6565b825550505050565b600090565b6200029c6200028d565b620002a981848462000262565b505050565b5b81811015620002d157620002c560008262000292565b600181019050620002af565b5050565b601f8211156200032057620002ea8162000194565b620002f584620001a9565b8101602085101562000305578190505b6200031d6200031485620001a9565b830182620002ae565b50505b505050565b600082821c905092915050565b6000620003456000198460080262000325565b1980831691505092915050565b600062000360838362000332565b9150826002028217905092915050565b6200037b82620000f6565b67ffffffffffffffff81111562000397576200039662000101565b5b620003a382546200015f565b620003b0828285620002d5565b600060209050601f831160018114620003e85760008415620003d3578287015190505b620003df858262000352565b8655506200044f565b601f198416620003f88662000194565b60005b828110156200042257848901518255600182019150602085019450602081019050620003fb565b868310156200044257848901516200043e601f89168262000332565b8355505b6001600288020188555050505b505050505050565b614c4080620004676000396000f3fe60806040526004361061019c5760003560e01c80636352211e116100ec578063b88d4fde1161008a578063c87b56dd11610064578063c87b56dd146105c6578063e6e1959714610603578063e985e9c51461061f578063f8f07baa1461065c5761019c565b8063b88d4fde14610544578063be9af5361461056d578063bed34bba146105895761019c565b806395d89b41116100c657806395d89b41146104a957806397598cc3146104d4578063a22cb465146104ff578063ae677aa3146105285761019c565b80636352211e146103f257806370a082311461042f5780637ad58c4f1461046c5761019c565b806312e8558511610159578063266001d311610133578063266001d314610354578063278ee9d71461039157806333923862146103ad57806342842e0e146103c95761019c565b806312e85585146102d7578063171fe6181461030257806323b872dd1461032b5761019c565b806301ffc9a7146101a157806306fdde03146101de578063081812fc14610209578063095ea7b3146102465780630f08efe01461026f57806310afee1e1461029a575b600080fd5b3480156101ad57600080fd5b506101c860048036038101906101c391906132e5565b61068c565b6040516101d5919061332d565b60405180910390f35b3480156101ea57600080fd5b506101f361076e565b60405161020091906133d8565b60405180910390f35b34801561021557600080fd5b50610230600480360381019061022b9190613430565b610800565b60405161023d919061349e565b60405180910390f35b34801561025257600080fd5b5061026d600480360381019061026891906134e5565b610846565b005b34801561027b57600080fd5b5061028461095d565b6040516102919190613631565b60405180910390f35b3480156102a657600080fd5b506102c160048036038101906102bc9190613653565b610b65565b6040516102ce9190613631565b60405180910390f35b3480156102e357600080fd5b506102ec610df3565b6040516102f9919061368f565b60405180910390f35b34801561030e57600080fd5b50610329600480360381019061032491906136aa565b610dfd565b005b34801561033757600080fd5b50610352600480360381019061034d91906136ea565b610e1c565b005b34801561036057600080fd5b5061037b60048036038101906103769190613872565b610e7c565b60405161038891906133d8565b60405180910390f35b6103ab60048036038101906103a69190613430565b610ea8565b005b6103c760048036038101906103c29190613430565b611095565b005b3480156103d557600080fd5b506103f060048036038101906103eb91906136ea565b6112ce565b005b3480156103fe57600080fd5b5061041960048036038101906104149190613430565b6112ee565b604051610426919061349e565b60405180910390f35b34801561043b57600080fd5b5061045660048036038101906104519190613653565b611374565b604051610463919061368f565b60405180910390f35b34801561047857600080fd5b50610493600480360381019061048e91906138ea565b61142b565b6040516104a09190613a37565b60405180910390f35b3480156104b557600080fd5b506104be61173c565b6040516104cb91906133d8565b60405180910390f35b3480156104e057600080fd5b506104e96117ce565b6040516104f69190613631565b60405180910390f35b34801561050b57600080fd5b5061052660048036038101906105219190613a85565b61193d565b005b610542600480360381019061053d9190613430565b611953565b005b34801561055057600080fd5b5061056b60048036038101906105669190613b66565b6119ed565b005b61058760048036038101906105829190613430565b611a4f565b005b34801561059557600080fd5b506105b060048036038101906105ab9190613872565b611c08565b6040516105bd919061332d565b60405180910390f35b3480156105d257600080fd5b506105ed60048036038101906105e89190613430565b611c61565b6040516105fa91906133d8565b60405180910390f35b61061d60048036038101906106189190613430565b611d73565b005b34801561062b57600080fd5b5061064660048036038101906106419190613be9565b611f35565b604051610653919061332d565b60405180910390f35b61067660048036038101906106719190613c29565b611fc9565b604051610683919061368f565b60405180910390f35b60007f80ac58cd000000000000000000000000000000000000000000000000000000007bffffffffffffffffffffffffffffffffffffffffffffffffffffffff1916827bffffffffffffffffffffffffffffffffffffffffffffffffffffffff1916148061075757507f5b5e139f000000000000000000000000000000000000000000000000000000007bffffffffffffffffffffffffffffffffffffffffffffffffffffffff1916827bffffffffffffffffffffffffffffffffffffffffffffffffffffffff1916145b8061076757506107668261200f565b5b9050919050565b60606000805461077d90613cf7565b80601f01602080910402602001604051908101604052809291908181526020018280546107a990613cf7565b80156107f65780601f106107cb576101008083540402835291602001916107f6565b820191906000526020600020905b8154815290600101906020018083116107d957829003601f168201915b5050505050905090565b600061080b82612079565b6004600083815260200190815260200160002060009054906101000a900473ffffffffffffffffffffffffffffffffffffffff169050919050565b6000610851826112ee565b90508073ffffffffffffffffffffffffffffffffffffffff168373ffffffffffffffffffffffffffffffffffffffff16036108c1576040517f08c379a00000000000000000000000000000000000000000000000000000000081526004016108b890613d9a565b60405180910390fd5b8073ffffffffffffffffffffffffffffffffffffffff166108e06120c4565b73ffffffffffffffffffffffffffffffffffffffff16148061090f575061090e816109096120c4565b611f35565b5b61094e576040517f08c379a000000000000000000000000000000000000000000000000000000000815260040161094590613e2c565b60405180910390fd5b61095883836120cc565b505050565b6060600061096b6007612185565b905060006109796008612185565b6109836007612185565b61098d9190613e7b565b90506000808267ffffffffffffffff8111156109ac576109ab613747565b5b6040519080825280602002602001820160405280156109df57816020015b60608152602001906001900390816109ca5790505b50905060005b84811015610b5a573073ffffffffffffffffffffffffffffffffffffffff16600b6000600184610a159190613eaf565b815260200190815260200160002060020160009054906101000a900473ffffffffffffffffffffffffffffffffffffffff1673ffffffffffffffffffffffffffffffffffffffff1603610b47576000600182610a719190613eaf565b90506000600b60008381526020019081526020016000209050806003018054610a9990613cf7565b80601f0160208091040260200160405190810160405280929190818152602001828054610ac590613cf7565b8015610b125780601f10610ae757610100808354040283529160200191610b12565b820191906000526020600020905b815481529060010190602001808311610af557829003601f168201915b5050505050848681518110610b2a57610b29613ee3565b5b6020026020010181905250600185610b429190613eaf565b945050505b8080610b5290613f12565b9150506109e5565b508094505050505090565b60606000610b736007612185565b905060008060005b83811015610c1b578573ffffffffffffffffffffffffffffffffffffffff16600b6000600184610bab9190613eaf565b815260200190815260200160002060020160009054906101000a900473ffffffffffffffffffffffffffffffffffffffff1673ffffffffffffffffffffffffffffffffffffffff1603610c0857600183610c059190613eaf565b92505b8080610c1390613f12565b915050610b7b565b5060008267ffffffffffffffff811115610c3857610c37613747565b5b604051908082528060200260200182016040528015610c6b57816020015b6060815260200190600190039081610c565790505b50905060005b84811015610de6578673ffffffffffffffffffffffffffffffffffffffff16600b6000600184610ca19190613eaf565b815260200190815260200160002060020160009054906101000a900473ffffffffffffffffffffffffffffffffffffffff1673ffffffffffffffffffffffffffffffffffffffff1603610dd3576000600182610cfd9190613eaf565b90506000600b60008381526020019081526020016000209050806003018054610d2590613cf7565b80601f0160208091040260200160405190810160405280929190818152602001828054610d5190613cf7565b8015610d9e5780601f10610d7357610100808354040283529160200191610d9e565b820191906000526020600020905b815481529060010190602001808311610d8157829003601f168201915b5050505050848681518110610db657610db5613ee3565b5b6020026020010181905250600185610dce9190613eaf565b945050505b8080610dde90613f12565b915050610c71565b5080945050505050919050565b6000600954905090565b80600b6000848152602001908152602001600020600401819055505050565b610e2d610e276120c4565b82612193565b610e6c576040517f08c379a0000000000000000000000000000000000000000000000000000000008152600401610e6390613fcc565b60405180910390fd5b610e77838383612228565b505050565b60608282604051602001610e91929190614074565b604051602081830303815290604052905092915050565b6000600b60008381526020019081526020016000206004015490506000604051806060016040528060408152602001614bcb60409139905081341015610ef682610ef185612521565b610e7c565b90610f37576040517f08c379a0000000000000000000000000000000000000000000000000000000008152600401610f2e91906133d8565b60405180910390fd5b5033600b600085815260200190815260200160002060020160006101000a81548173ffffffffffffffffffffffffffffffffffffffff021916908373ffffffffffffffffffffffffffffffffffffffff1602179055506001600b600085815260200190815260200160002060070160146101000a81548160ff0219169083151502179055506000600b600085815260200190815260200160002060010160006101000a81548173ffffffffffffffffffffffffffffffffffffffff021916908373ffffffffffffffffffffffffffffffffffffffff16021790555061101c60086125ef565b611027303385612228565b600a60009054906101000a900473ffffffffffffffffffffffffffffffffffffffff1673ffffffffffffffffffffffffffffffffffffffff166108fc349081150290604051600060405180830381858888f1935050505015801561108f573d6000803e3d6000fd5b50505050565b60006064600a600b6000858152602001908152602001600020600401546110bc91906140a3565b6110c69190614114565b90508034101561110b576040517f08c379a0000000000000000000000000000000000000000000000000000000008152600401611102906141b7565b60405180910390fd5b600034905080600b600085815260200190815260200160002060060160008282546111369190613eaf565b92505081905550600b600084815260200190815260200160002060040154600b600085815260200190815260200160002060060154106112605733600b600085815260200190815260200160002060020160006101000a81548173ffffffffffffffffffffffffffffffffffffffff021916908373ffffffffffffffffffffffffffffffffffffffff1602179055506001600b600085815260200190815260200160002060070160146101000a81548160ff0219169083151502179055506000600b600085815260200190815260200160002060010160006101000a81548173ffffffffffffffffffffffffffffffffffffffff021916908373ffffffffffffffffffffffffffffffffffffffff16021790555061125460086125ef565b61125f303385612228565b5b600a60009054906101000a900473ffffffffffffffffffffffffffffffffffffffff1673ffffffffffffffffffffffffffffffffffffffff166108fc349081150290604051600060405180830381858888f193505050501580156112c8573d6000803e3d6000fd5b50505050565b6112e9838383604051806020016040528060008152506119ed565b505050565b6000806112fa83612605565b9050600073ffffffffffffffffffffffffffffffffffffffff168173ffffffffffffffffffffffffffffffffffffffff160361136b576040517f08c379a000000000000000000000000000000000000000000000000000000000815260040161136290614223565b60405180910390fd5b80915050919050565b60008073ffffffffffffffffffffffffffffffffffffffff168273ffffffffffffffffffffffffffffffffffffffff16036113e4576040517f08c379a00000000000000000000000000000000000000000000000000000000081526004016113db906142b5565b60405180910390fd5b600360008373ffffffffffffffffffffffffffffffffffffffff1673ffffffffffffffffffffffffffffffffffffffff168152602001908152602001600020549050919050565b6114336131e9565b600061143f6007612185565b90506114496131e9565b60005b8281101561173157611508600b60006001846114689190613eaf565b8152602001908152602001600020600301805461148490613cf7565b80601f01602080910402602001604051908101604052809291908181526020018280546114b090613cf7565b80156114fd5780601f106114d2576101008083540402835291602001916114fd565b820191906000526020600020905b8154815290600101906020018083116114e057829003601f168201915b505050505086611c08565b1561171e57600060018261151c9190613eaf565b90506000600b600083815260200190815260200160002090508060405180610120016040529081600082015481526020016001820160009054906101000a900473ffffffffffffffffffffffffffffffffffffffff1673ffffffffffffffffffffffffffffffffffffffff1673ffffffffffffffffffffffffffffffffffffffff1681526020016002820160009054906101000a900473ffffffffffffffffffffffffffffffffffffffff1673ffffffffffffffffffffffffffffffffffffffff1673ffffffffffffffffffffffffffffffffffffffff16815260200160038201805461160890613cf7565b80601f016020809104026020016040519081016040528092919081815260200182805461163490613cf7565b80156116815780601f1061165657610100808354040283529160200191611681565b820191906000526020600020905b81548152906001019060200180831161166457829003601f168201915b505050505081526020016004820154815260200160058201548152602001600682015481526020016007820160009054906101000a900473ffffffffffffffffffffffffffffffffffffffff1673ffffffffffffffffffffffffffffffffffffffff1673ffffffffffffffffffffffffffffffffffffffff1681526020016007820160149054906101000a900460ff161515151581525050935050505b808061172990613f12565b91505061144c565b508092505050919050565b60606001805461174b90613cf7565b80601f016020809104026020016040519081016040528092919081815260200182805461177790613cf7565b80156117c45780601f10611799576101008083540402835291602001916117c4565b820191906000526020600020905b8154815290600101906020018083116117a757829003601f168201915b5050505050905090565b606060006117dc6007612185565b90506000808267ffffffffffffffff8111156117fb576117fa613747565b5b60405190808252806020026020018201604052801561182e57816020015b60608152602001906001900390816118195790505b50905060005b8381101561193357600060018261184b9190613eaf565b90506000600b6000838152602001908152602001600020905080600301805461187390613cf7565b80601f016020809104026020016040519081016040528092919081815260200182805461189f90613cf7565b80156118ec5780601f106118c1576101008083540402835291602001916118ec565b820191906000526020600020905b8154815290600101906020018083116118cf57829003601f168201915b505050505084868151811061190457611903613ee3565b5b602002602001018190525060018561191c9190613eaf565b94505050808061192b90613f12565b915050611834565b5080935050505090565b61194f6119486120c4565b8383612642565b5050565b3373ffffffffffffffffffffffffffffffffffffffff16600a60009054906101000a900473ffffffffffffffffffffffffffffffffffffffff1673ffffffffffffffffffffffffffffffffffffffff16146119e3576040517f08c379a00000000000000000000000000000000000000000000000000000000081526004016119da90614347565b60405180910390fd5b8060098190555050565b6119fe6119f86120c4565b83612193565b611a3d576040517f08c379a0000000000000000000000000000000000000000000000000000000008152600401611a3490613fcc565b60405180910390fd5b611a49848484846127ae565b50505050565b6000600b6000838152602001908152602001600020600501549050803414611aac576040517f08c379a0000000000000000000000000000000000000000000000000000000008152600401611aa3906141b7565b60405180910390fd5b33600b600084815260200190815260200160002060020160006101000a81548173ffffffffffffffffffffffffffffffffffffffff021916908373ffffffffffffffffffffffffffffffffffffffff1602179055506001600b600084815260200190815260200160002060070160146101000a81548160ff0219169083151502179055506000600b600084815260200190815260200160002060010160006101000a81548173ffffffffffffffffffffffffffffffffffffffff021916908373ffffffffffffffffffffffffffffffffffffffff160217905550611b9060086125ef565b611b9b303384612228565b600a60009054906101000a900473ffffffffffffffffffffffffffffffffffffffff1673ffffffffffffffffffffffffffffffffffffffff166108fc349081150290604051600060405180830381858888f19350505050158015611c03573d6000803e3d6000fd5b505050565b600081604051602001611c1b9190614367565b6040516020818303038152906040528051906020012083604051602001611c429190614367565b6040516020818303038152906040528051906020012014905092915050565b6060611c6c82612079565b6000600660008481526020019081526020016000208054611c8c90613cf7565b80601f0160208091040260200160405190810160405280929190818152602001828054611cb890613cf7565b8015611d055780601f10611cda57610100808354040283529160200191611d05565b820191906000526020600020905b815481529060010190602001808311611ce857829003601f168201915b505050505090506000611d1661280a565b90506000815103611d2b578192505050611d6e565b600082511115611d60578082604051602001611d4892919061437e565b60405160208183030381529060405292505050611d6e565b611d6984612821565b925050505b919050565b600034905080600b60008481526020019081526020016000206006016000828254611d9e9190613eaf565b92505081905550600b600083815260200190815260200160002060040154600b60008481526020019081526020016000206006015410611ec85733600b600084815260200190815260200160002060020160006101000a81548173ffffffffffffffffffffffffffffffffffffffff021916908373ffffffffffffffffffffffffffffffffffffffff1602179055506001600b600084815260200190815260200160002060070160146101000a81548160ff0219169083151502179055506000600b600084815260200190815260200160002060010160006101000a81548173ffffffffffffffffffffffffffffffffffffffff021916908373ffffffffffffffffffffffffffffffffffffffff160217905550611ebc60086125ef565b611ec7303384612228565b5b600a60009054906101000a900473ffffffffffffffffffffffffffffffffffffffff1673ffffffffffffffffffffffffffffffffffffffff166108fc349081150290604051600060405180830381858888f19350505050158015611f30573d6000803e3d6000fd5b505050565b6000600560008473ffffffffffffffffffffffffffffffffffffffff1673ffffffffffffffffffffffffffffffffffffffff16815260200190815260200160002060008373ffffffffffffffffffffffffffffffffffffffff1673ffffffffffffffffffffffffffffffffffffffff16815260200190815260200160002060009054906101000a900460ff16905092915050565b6000611fd560076125ef565b6000611fe16007612185565b9050611fed3382612889565b611ff78187612aa6565b61200381868686612b13565b80915050949350505050565b60007f01ffc9a7000000000000000000000000000000000000000000000000000000007bffffffffffffffffffffffffffffffffffffffffffffffffffffffff1916827bffffffffffffffffffffffffffffffffffffffffffffffffffffffff1916149050919050565b61208281612d7f565b6120c1576040517f08c379a00000000000000000000000000000000000000000000000000000000081526004016120b890614223565b60405180910390fd5b50565b600033905090565b816004600083815260200190815260200160002060006101000a81548173ffffffffffffffffffffffffffffffffffffffff021916908373ffffffffffffffffffffffffffffffffffffffff160217905550808273ffffffffffffffffffffffffffffffffffffffff1661213f836112ee565b73ffffffffffffffffffffffffffffffffffffffff167f8c5be1e5ebec7d5bd14f71427d1e84f3dd0314c0f7b2291e5b200ac8c7c3b92560405160405180910390a45050565b600081600001549050919050565b60008061219f836112ee565b90508073ffffffffffffffffffffffffffffffffffffffff168473ffffffffffffffffffffffffffffffffffffffff1614806121e157506121e08185611f35565b5b8061221f57508373ffffffffffffffffffffffffffffffffffffffff1661220784610800565b73ffffffffffffffffffffffffffffffffffffffff16145b91505092915050565b8273ffffffffffffffffffffffffffffffffffffffff16612248826112ee565b73ffffffffffffffffffffffffffffffffffffffff161461229e576040517f08c379a000000000000000000000000000000000000000000000000000000000815260040161229590614414565b60405180910390fd5b600073ffffffffffffffffffffffffffffffffffffffff168273ffffffffffffffffffffffffffffffffffffffff160361230d576040517f08c379a0000000000000000000000000000000000000000000000000000000008152600401612304906144a6565b60405180910390fd5b61231a8383836001612dc0565b8273ffffffffffffffffffffffffffffffffffffffff1661233a826112ee565b73ffffffffffffffffffffffffffffffffffffffff1614612390576040517f08c379a000000000000000000000000000000000000000000000000000000000815260040161238790614414565b60405180910390fd5b6004600082815260200190815260200160002060006101000a81549073ffffffffffffffffffffffffffffffffffffffff02191690556001600360008573ffffffffffffffffffffffffffffffffffffffff1673ffffffffffffffffffffffffffffffffffffffff168152602001908152602001600020600082825403925050819055506001600360008473ffffffffffffffffffffffffffffffffffffffff1673ffffffffffffffffffffffffffffffffffffffff16815260200190815260200160002060008282540192505081905550816002600083815260200190815260200160002060006101000a81548173ffffffffffffffffffffffffffffffffffffffff021916908373ffffffffffffffffffffffffffffffffffffffff160217905550808273ffffffffffffffffffffffffffffffffffffffff168473ffffffffffffffffffffffffffffffffffffffff167fddf252ad1be2c89b69c2b068fc378daa952ba7f163c4a11628f55a4df523b3ef60405160405180910390a461251c8383836001612ee6565b505050565b60606000600161253084612eec565b01905060008167ffffffffffffffff81111561254f5761254e613747565b5b6040519080825280601f01601f1916602001820160405280156125815781602001600182028036833780820191505090505b509050600082602001820190505b6001156125e4578080600190039150507f3031323334353637383961626364656600000000000000000000000000000000600a86061a8153600a85816125d8576125d76140e5565b5b0494506000850361258f575b819350505050919050565b6001816000016000828254019250508190555050565b60006002600083815260200190815260200160002060009054906101000a900473ffffffffffffffffffffffffffffffffffffffff169050919050565b8173ffffffffffffffffffffffffffffffffffffffff168373ffffffffffffffffffffffffffffffffffffffff16036126b0576040517f08c379a00000000000000000000000000000000000000000000000000000000081526004016126a790614512565b60405180910390fd5b80600560008573ffffffffffffffffffffffffffffffffffffffff1673ffffffffffffffffffffffffffffffffffffffff16815260200190815260200160002060008473ffffffffffffffffffffffffffffffffffffffff1673ffffffffffffffffffffffffffffffffffffffff16815260200190815260200160002060006101000a81548160ff0219169083151502179055508173ffffffffffffffffffffffffffffffffffffffff168373ffffffffffffffffffffffffffffffffffffffff167f17307eab39ab6107e8899845ad3d59bd9653f200f220920489ca2b5937696c31836040516127a1919061332d565b60405180910390a3505050565b6127b9848484612228565b6127c58484848461303f565b612804576040517f08c379a00000000000000000000000000000000000000000000000000000000081526004016127fb906145a4565b60405180910390fd5b50505050565b606060405180602001604052806000815250905090565b606061282c82612079565b600061283661280a565b905060008151116128565760405180602001604052806000815250612881565b8061286084612521565b60405160200161287192919061437e565b6040516020818303038152906040525b915050919050565b600073ffffffffffffffffffffffffffffffffffffffff168273ffffffffffffffffffffffffffffffffffffffff16036128f8576040517f08c379a00000000000000000000000000000000000000000000000000000000081526004016128ef90614610565b60405180910390fd5b61290181612d7f565b15612941576040517f08c379a00000000000000000000000000000000000000000000000000000000081526004016129389061467c565b60405180910390fd5b61294f600083836001612dc0565b61295881612d7f565b15612998576040517f08c379a000000000000000000000000000000000000000000000000000000000815260040161298f9061467c565b60405180910390fd5b6001600360008473ffffffffffffffffffffffffffffffffffffffff1673ffffffffffffffffffffffffffffffffffffffff16815260200190815260200160002060008282540192505081905550816002600083815260200190815260200160002060006101000a81548173ffffffffffffffffffffffffffffffffffffffff021916908373ffffffffffffffffffffffffffffffffffffffff160217905550808273ffffffffffffffffffffffffffffffffffffffff16600073ffffffffffffffffffffffffffffffffffffffff167fddf252ad1be2c89b69c2b068fc378daa952ba7f163c4a11628f55a4df523b3ef60405160405180910390a4612aa2600083836001612ee6565b5050565b612aaf82612d7f565b612aee576040517f08c379a0000000000000000000000000000000000000000000000000000000008152600401612ae59061470e565b60405180910390fd5b80600660008481526020019081526020016000209081612b0e91906148da565b505050565b60008311612b56576040517f08c379a0000000000000000000000000000000000000000000000000000000008152600401612b4d906149f8565b60405180910390fd5b6040518061012001604052808581526020013373ffffffffffffffffffffffffffffffffffffffff1681526020013073ffffffffffffffffffffffffffffffffffffffff168152602001838152602001828152602001848152602001600081526020013073ffffffffffffffffffffffffffffffffffffffff16815260200160001515815250600b60008681526020019081526020016000206000820151816000015560208201518160010160006101000a81548173ffffffffffffffffffffffffffffffffffffffff021916908373ffffffffffffffffffffffffffffffffffffffff16021790555060408201518160020160006101000a81548173ffffffffffffffffffffffffffffffffffffffff021916908373ffffffffffffffffffffffffffffffffffffffff1602179055506060820151816003019081612c9c91906148da565b506080820151816004015560a0820151816005015560c0820151816006015560e08201518160070160006101000a81548173ffffffffffffffffffffffffffffffffffffffff021916908373ffffffffffffffffffffffffffffffffffffffff1602179055506101008201518160070160146101000a81548160ff021916908315150217905550905050612d31333086612228565b837f458116734b59a1877680c1eff12465fdc98c13aaf438e5aa6bd6f6dcc8be006333308585886000306000604051612d71989796959493929190614a62565b60405180910390a250505050565b60008073ffffffffffffffffffffffffffffffffffffffff16612da183612605565b73ffffffffffffffffffffffffffffffffffffffff1614159050919050565b6001811115612ee057600073ffffffffffffffffffffffffffffffffffffffff168473ffffffffffffffffffffffffffffffffffffffff1614612e545780600360008673ffffffffffffffffffffffffffffffffffffffff1673ffffffffffffffffffffffffffffffffffffffff1681526020019081526020016000206000828254612e4c9190613e7b565b925050819055505b600073ffffffffffffffffffffffffffffffffffffffff168373ffffffffffffffffffffffffffffffffffffffff1614612edf5780600360008573ffffffffffffffffffffffffffffffffffffffff1673ffffffffffffffffffffffffffffffffffffffff1681526020019081526020016000206000828254612ed79190613eaf565b925050819055505b5b50505050565b50505050565b600080600090507a184f03e93ff9f4daa797ed6e38ed64bf6a1f0100000000000000008310612f4a577a184f03e93ff9f4daa797ed6e38ed64bf6a1f0100000000000000008381612f4057612f3f6140e5565b5b0492506040810190505b6d04ee2d6d415b85acef81000000008310612f87576d04ee2d6d415b85acef81000000008381612f7d57612f7c6140e5565b5b0492506020810190505b662386f26fc100008310612fb657662386f26fc100008381612fac57612fab6140e5565b5b0492506010810190505b6305f5e1008310612fdf576305f5e1008381612fd557612fd46140e5565b5b0492506008810190505b6127108310613004576127108381612ffa57612ff96140e5565b5b0492506004810190505b60648310613027576064838161301d5761301c6140e5565b5b0492506002810190505b600a8310613036576001810190505b80915050919050565b60006130608473ffffffffffffffffffffffffffffffffffffffff166131c6565b156131b9578373ffffffffffffffffffffffffffffffffffffffff1663150b7a026130896120c4565b8786866040518563ffffffff1660e01b81526004016130ab9493929190614b3c565b6020604051808303816000875af19250505080156130e757506040513d601f19601f820116820180604052508101906130e49190614b9d565b60015b613169573d8060008114613117576040519150601f19603f3d011682016040523d82523d6000602084013e61311c565b606091505b506000815103613161576040517f08c379a0000000000000000000000000000000000000000000000000000000008152600401613158906145a4565b60405180910390fd5b805181602001fd5b63150b7a0260e01b7bffffffffffffffffffffffffffffffffffffffffffffffffffffffff1916817bffffffffffffffffffffffffffffffffffffffffffffffffffffffff1916149150506131be565b600190505b949350505050565b6000808273ffffffffffffffffffffffffffffffffffffffff163b119050919050565b60405180610120016040528060008152602001600073ffffffffffffffffffffffffffffffffffffffff168152602001600073ffffffffffffffffffffffffffffffffffffffff16815260200160608152602001600081526020016000815260200160008152602001600073ffffffffffffffffffffffffffffffffffffffff1681526020016000151581525090565b6000604051905090565b600080fd5b600080fd5b60007fffffffff0000000000000000000000000000000000000000000000000000000082169050919050565b6132c28161328d565b81146132cd57600080fd5b50565b6000813590506132df816132b9565b92915050565b6000602082840312156132fb576132fa613283565b5b6000613309848285016132d0565b91505092915050565b60008115159050919050565b61332781613312565b82525050565b6000602082019050613342600083018461331e565b92915050565b600081519050919050565b600082825260208201905092915050565b60005b83811015613382578082015181840152602081019050613367565b60008484015250505050565b6000601f19601f8301169050919050565b60006133aa82613348565b6133b48185613353565b93506133c4818560208601613364565b6133cd8161338e565b840191505092915050565b600060208201905081810360008301526133f2818461339f565b905092915050565b6000819050919050565b61340d816133fa565b811461341857600080fd5b50565b60008135905061342a81613404565b92915050565b60006020828403121561344657613445613283565b5b60006134548482850161341b565b91505092915050565b600073ffffffffffffffffffffffffffffffffffffffff82169050919050565b60006134888261345d565b9050919050565b6134988161347d565b82525050565b60006020820190506134b3600083018461348f565b92915050565b6134c28161347d565b81146134cd57600080fd5b50565b6000813590506134df816134b9565b92915050565b600080604083850312156134fc576134fb613283565b5b600061350a858286016134d0565b925050602061351b8582860161341b565b9150509250929050565b600081519050919050565b600082825260208201905092915050565b6000819050602082019050919050565b600082825260208201905092915050565b600061356d82613348565b6135778185613551565b9350613587818560208601613364565b6135908161338e565b840191505092915050565b60006135a78383613562565b905092915050565b6000602082019050919050565b60006135c782613525565b6135d18185613530565b9350836020820285016135e385613541565b8060005b8581101561361f5784840389528151613600858261359b565b945061360b836135af565b925060208a019950506001810190506135e7565b50829750879550505050505092915050565b6000602082019050818103600083015261364b81846135bc565b905092915050565b60006020828403121561366957613668613283565b5b6000613677848285016134d0565b91505092915050565b613689816133fa565b82525050565b60006020820190506136a46000830184613680565b92915050565b600080604083850312156136c1576136c0613283565b5b60006136cf8582860161341b565b92505060206136e08582860161341b565b9150509250929050565b60008060006060848603121561370357613702613283565b5b6000613711868287016134d0565b9350506020613722868287016134d0565b92505060406137338682870161341b565b9150509250925092565b600080fd5b600080fd5b7f4e487b7100000000000000000000000000000000000000000000000000000000600052604160045260246000fd5b61377f8261338e565b810181811067ffffffffffffffff8211171561379e5761379d613747565b5b80604052505050565b60006137b1613279565b90506137bd8282613776565b919050565b600067ffffffffffffffff8211156137dd576137dc613747565b5b6137e68261338e565b9050602081019050919050565b82818337600083830152505050565b6000613815613810846137c2565b6137a7565b90508281526020810184848401111561383157613830613742565b5b61383c8482856137f3565b509392505050565b600082601f8301126138595761385861373d565b5b8135613869848260208601613802565b91505092915050565b6000806040838503121561388957613888613283565b5b600083013567ffffffffffffffff8111156138a7576138a6613288565b5b6138b385828601613844565b925050602083013567ffffffffffffffff8111156138d4576138d3613288565b5b6138e085828601613844565b9150509250929050565b600060208284031215613900576138ff613283565b5b600082013567ffffffffffffffff81111561391e5761391d613288565b5b61392a84828501613844565b91505092915050565b61393c816133fa565b82525050565b600061394d8261345d565b9050919050565b61395d81613942565b82525050565b61396c81613312565b82525050565b60006101208301600083015161398b6000860182613933565b50602083015161399e6020860182613954565b5060408301516139b16040860182613954565b50606083015184820360608601526139c98282613562565b91505060808301516139de6080860182613933565b5060a08301516139f160a0860182613933565b5060c0830151613a0460c0860182613933565b5060e0830151613a1760e0860182613954565b50610100830151613a2c610100860182613963565b508091505092915050565b60006020820190508181036000830152613a518184613972565b905092915050565b613a6281613312565b8114613a6d57600080fd5b50565b600081359050613a7f81613a59565b92915050565b60008060408385031215613a9c57613a9b613283565b5b6000613aaa858286016134d0565b9250506020613abb85828601613a70565b9150509250929050565b600067ffffffffffffffff821115613ae057613adf613747565b5b613ae98261338e565b9050602081019050919050565b6000613b09613b0484613ac5565b6137a7565b905082815260208101848484011115613b2557613b24613742565b5b613b308482856137f3565b509392505050565b600082601f830112613b4d57613b4c61373d565b5b8135613b5d848260208601613af6565b91505092915050565b60008060008060808587031215613b8057613b7f613283565b5b6000613b8e878288016134d0565b9450506020613b9f878288016134d0565b9350506040613bb08782880161341b565b925050606085013567ffffffffffffffff811115613bd157613bd0613288565b5b613bdd87828801613b38565b91505092959194509250565b60008060408385031215613c0057613bff613283565b5b6000613c0e858286016134d0565b9250506020613c1f858286016134d0565b9150509250929050565b60008060008060808587031215613c4357613c42613283565b5b600085013567ffffffffffffffff811115613c6157613c60613288565b5b613c6d87828801613844565b9450506020613c7e8782880161341b565b935050604085013567ffffffffffffffff811115613c9f57613c9e613288565b5b613cab87828801613844565b9250506060613cbc8782880161341b565b91505092959194509250565b7f4e487b7100000000000000000000000000000000000000000000000000000000600052602260045260246000fd5b60006002820490506001821680613d0f57607f821691505b602082108103613d2257613d21613cc8565b5b50919050565b7f4552433732313a20617070726f76616c20746f2063757272656e74206f776e6560008201527f7200000000000000000000000000000000000000000000000000000000000000602082015250565b6000613d84602183613353565b9150613d8f82613d28565b604082019050919050565b60006020820190508181036000830152613db381613d77565b9050919050565b7f4552433732313a20617070726f76652063616c6c6572206973206e6f7420746f60008201527f6b656e206f776e6572206f7220617070726f76656420666f7220616c6c000000602082015250565b6000613e16603d83613353565b9150613e2182613dba565b604082019050919050565b60006020820190508181036000830152613e4581613e09565b9050919050565b7f4e487b7100000000000000000000000000000000000000000000000000000000600052601160045260246000fd5b6000613e86826133fa565b9150613e91836133fa565b9250828203905081811115613ea957613ea8613e4c565b5b92915050565b6000613eba826133fa565b9150613ec5836133fa565b9250828201905080821115613edd57613edc613e4c565b5b92915050565b7f4e487b7100000000000000000000000000000000000000000000000000000000600052603260045260246000fd5b6000613f1d826133fa565b91507fffffffffffffffffffffffffffffffffffffffffffffffffffffffffffffffff8203613f4f57613f4e613e4c565b5b600182019050919050565b7f4552433732313a2063616c6c6572206973206e6f7420746f6b656e206f776e6560008201527f72206f7220617070726f76656400000000000000000000000000000000000000602082015250565b6000613fb6602d83613353565b9150613fc182613f5a565b604082019050919050565b60006020820190508181036000830152613fe581613fa9565b9050919050565b600081905092915050565b600061400282613348565b61400c8185613fec565b935061401c818560208601613364565b80840191505092915050565b7f2000000000000000000000000000000000000000000000000000000000000000600082015250565b600061405e600183613fec565b915061406982614028565b600182019050919050565b60006140808285613ff7565b915061408b82614051565b91506140978284613ff7565b91508190509392505050565b60006140ae826133fa565b91506140b9836133fa565b92508282026140c7816133fa565b915082820484148315176140de576140dd613e4c565b5b5092915050565b7f4e487b7100000000000000000000000000000000000000000000000000000000600052601260045260246000fd5b600061411f826133fa565b915061412a836133fa565b92508261413a576141396140e5565b5b828204905092915050565b7f506c6561736520706179207468652066756c6c20616d6f756e7420696e206f7260008201527f64657220746f20636f6d706c65746520746865207472616e73616374696f6e21602082015250565b60006141a1604083613353565b91506141ac82614145565b604082019050919050565b600060208201905081810360008301526141d081614194565b9050919050565b7f4552433732313a20696e76616c696420746f6b656e2049440000000000000000600082015250565b600061420d601883613353565b9150614218826141d7565b602082019050919050565b6000602082019050818103600083015261423c81614200565b9050919050565b7f4552433732313a2061646472657373207a65726f206973206e6f74206120766160008201527f6c6964206f776e65720000000000000000000000000000000000000000000000602082015250565b600061429f602983613353565b91506142aa82614243565b604082019050919050565b600060208201905081810360008301526142ce81614292565b9050919050565b7f4f6e6c79206d61726b6574706c616365206f776e65722063616e20757064617460008201527f65206c697374696e672070726963652e00000000000000000000000000000000602082015250565b6000614331603083613353565b915061433c826142d5565b604082019050919050565b6000602082019050818103600083015261436081614324565b9050919050565b60006143738284613ff7565b915081905092915050565b600061438a8285613ff7565b91506143968284613ff7565b91508190509392505050565b7f4552433732313a207472616e736665722066726f6d20696e636f72726563742060008201527f6f776e6572000000000000000000000000000000000000000000000000000000602082015250565b60006143fe602583613353565b9150614409826143a2565b604082019050919050565b6000602082019050818103600083015261442d816143f1565b9050919050565b7f4552433732313a207472616e7366657220746f20746865207a65726f2061646460008201527f7265737300000000000000000000000000000000000000000000000000000000602082015250565b6000614490602483613353565b915061449b82614434565b604082019050919050565b600060208201905081810360008301526144bf81614483565b9050919050565b7f4552433732313a20617070726f766520746f2063616c6c657200000000000000600082015250565b60006144fc601983613353565b9150614507826144c6565b602082019050919050565b6000602082019050818103600083015261452b816144ef565b9050919050565b7f4552433732313a207472616e7366657220746f206e6f6e20455243373231526560008201527f63656976657220696d706c656d656e7465720000000000000000000000000000602082015250565b600061458e603283613353565b915061459982614532565b604082019050919050565b600060208201905081810360008301526145bd81614581565b9050919050565b7f4552433732313a206d696e7420746f20746865207a65726f2061646472657373600082015250565b60006145fa602083613353565b9150614605826145c4565b602082019050919050565b60006020820190508181036000830152614629816145ed565b9050919050565b7f4552433732313a20746f6b656e20616c7265616479206d696e74656400000000600082015250565b6000614666601c83613353565b915061467182614630565b602082019050919050565b6000602082019050818103600083015261469581614659565b9050919050565b7f45524337323155524953746f726167653a2055524920736574206f66206e6f6e60008201527f6578697374656e7420746f6b656e000000000000000000000000000000000000602082015250565b60006146f8602e83613353565b91506147038261469c565b604082019050919050565b60006020820190508181036000830152614727816146eb565b9050919050565b60008190508160005260206000209050919050565b60006020601f8301049050919050565b600082821b905092915050565b6000600883026147907fffffffffffffffffffffffffffffffffffffffffffffffffffffffffffffffff82614753565b61479a8683614753565b95508019841693508086168417925050509392505050565b6000819050919050565b60006147d76147d26147cd846133fa565b6147b2565b6133fa565b9050919050565b6000819050919050565b6147f1836147bc565b6148056147fd826147de565b848454614760565b825550505050565b600090565b61481a61480d565b6148258184846147e8565b505050565b5b818110156148495761483e600082614812565b60018101905061482b565b5050565b601f82111561488e5761485f8161472e565b61486884614743565b81016020851015614877578190505b61488b61488385614743565b83018261482a565b50505b505050565b600082821c905092915050565b60006148b160001984600802614893565b1980831691505092915050565b60006148ca83836148a0565b9150826002028217905092915050565b6148e382613348565b67ffffffffffffffff8111156148fc576148fb613747565b5b6149068254613cf7565b61491182828561484d565b600060209050601f8311600181146149445760008415614932578287015190505b61493c85826148be565b8655506149a4565b601f1984166149528661472e565b60005b8281101561497a57848901518255600182019150602085019450602081019050614955565b868310156149975784890151614993601f8916826148a0565b8355505b6001600288020188555050505b505050505050565b7f5072696365206d757374206265206174206c6561737420312077656900000000600082015250565b60006149e2601c83613353565b91506149ed826149ac565b602082019050919050565b60006020820190508181036000830152614a11816149d5565b9050919050565b6000819050919050565b6000614a3d614a38614a3384614a18565b6147b2565b6133fa565b9050919050565b614a4d81614a22565b82525050565b614a5c81613942565b82525050565b600061010082019050614a78600083018b61348f565b614a85602083018a61348f565b8181036040830152614a97818961339f565b9050614aa66060830188613680565b614ab36080830187613680565b614ac060a0830186614a44565b614acd60c0830185614a53565b614ada60e083018461331e565b9998505050505050505050565b600081519050919050565b600082825260208201905092915050565b6000614b0e82614ae7565b614b188185614af2565b9350614b28818560208601613364565b614b318161338e565b840191505092915050565b6000608082019050614b51600083018761348f565b614b5e602083018661348f565b614b6b6040830185613680565b8181036060830152614b7d8184614b03565b905095945050505050565b600081519050614b97816132b9565b92915050565b600060208284031215614bb357614bb2613283565b5b6000614bc184828501614b88565b9150509291505056fe506c6561736520706179207468652066756c6c20616d6f756e7420696e206f7264657220746f20636f6d706c65746520746865207472616e73616374696f6e21a264697066735822122034518bcaa50fa72aba70c0cc214b7566d29fb55a0c68a7d26d1b8f06187033e164736f6c63430008110033",
  "linkReferences": {},
  "deployedLinkReferences": {}
}