{
  "_format": "hh-sol-artifact-1",
  "contractName": "NFTRentalPropertyContractSystem",
  "sourceName": "contracts/NFTRentalPropertyContractSystem.sol",
  "abi": [
    {
      "inputs": [],
      "stateMutability": "nonpayable",
      "type": "constructor"
    },
    {
      "anonymous": false,
      "inputs": [
        {
          "indexed": true,
          "internalType": "address",
          "name": "owner",
          "type": "address"
        },
        {
          "indexed": true,
          "internalType": "address",
          "name": "approved",
          "type": "address"
        },
        {
          "indexed": true,
          "internalType": "uint256",
          "name": "tokenId",
          "type": "uint256"
        }
      ],
      "name": "Approval",
      "type": "event"
    },
    {
      "anonymous": false,
      "inputs": [
        {
          "indexed": true,
          "internalType": "address",
          "name": "owner",
          "type": "address"
        },
        {
          "indexed": true,
          "internalType": "address",
          "name": "operator",
          "type": "address"
        },
        {
          "indexed": false,
          "internalType": "bool",
          "name": "approved",
          "type": "bool"
        }
      ],
      "name": "ApprovalForAll",
      "type": "event"
    },
    {
      "anonymous": false,
      "inputs": [
        {
          "indexed": true,
          "internalType": "address",
          "name": "previousOwner",
          "type": "address"
        },
        {
          "indexed": true,
          "internalType": "address",
          "name": "newOwner",
          "type": "address"
        }
      ],
      "name": "OwnershipTransferred",
      "type": "event"
    },
    {
      "anonymous": false,
      "inputs": [
        {
          "indexed": true,
          "internalType": "address",
          "name": "from",
          "type": "address"
        },
        {
          "indexed": true,
          "internalType": "address",
          "name": "to",
          "type": "address"
        },
        {
          "indexed": true,
          "internalType": "uint256",
          "name": "tokenId",
          "type": "uint256"
        }
      ],
      "name": "Transfer",
      "type": "event"
    },
    {
      "inputs": [
        {
          "internalType": "string",
          "name": "tokenURI",
          "type": "string"
        },
        {
          "internalType": "uint256",
          "name": "rent",
          "type": "uint256"
        },
        {
          "internalType": "uint256",
          "name": "securityDeposit",
          "type": "uint256"
        },
        {
          "internalType": "string",
          "name": "propertyAddress",
          "type": "string"
        }
      ],
      "name": "addProperty",
      "outputs": [
        {
          "internalType": "uint256",
          "name": "",
          "type": "uint256"
        }
      ],
      "stateMutability": "payable",
      "type": "function"
    },
    {
      "inputs": [
        {
          "internalType": "address",
          "name": "to",
          "type": "address"
        },
        {
          "internalType": "uint256",
          "name": "tokenId",
          "type": "uint256"
        }
      ],
      "name": "approve",
      "outputs": [],
      "stateMutability": "nonpayable",
      "type": "function"
    },
    {
      "inputs": [
        {
          "internalType": "address",
          "name": "owner",
          "type": "address"
        }
      ],
      "name": "balanceOf",
      "outputs": [
        {
          "internalType": "uint256",
          "name": "",
          "type": "uint256"
        }
      ],
      "stateMutability": "view",
      "type": "function"
    },
    {
      "inputs": [
        {
          "internalType": "string",
          "name": "a",
          "type": "string"
        },
        {
          "internalType": "string",
          "name": "b",
          "type": "string"
        }
      ],
      "name": "compareStrings",
      "outputs": [
        {
          "internalType": "bool",
          "name": "",
          "type": "bool"
        }
      ],
      "stateMutability": "view",
      "type": "function"
    },
    {
      "inputs": [
        {
          "internalType": "uint256",
          "name": "propertyId",
          "type": "uint256"
        }
      ],
      "name": "endRental",
      "outputs": [],
      "stateMutability": "nonpayable",
      "type": "function"
    },
    {
      "inputs": [
        {
          "internalType": "uint256",
          "name": "tokenId",
          "type": "uint256"
        }
      ],
      "name": "fetchNFTById",
      "outputs": [
        {
          "components": [
            {
              "internalType": "uint256",
              "name": "id",
              "type": "uint256"
            },
            {
              "internalType": "address",
              "name": "owner",
              "type": "address"
            },
            {
              "internalType": "uint256",
              "name": "rent",
              "type": "uint256"
            },
            {
              "internalType": "uint256",
              "name": "securityDeposit",
              "type": "uint256"
            },
            {
              "internalType": "bool",
              "name": "isRented",
              "type": "bool"
            },
            {
              "internalType": "address",
              "name": "renter",
              "type": "address"
            },
            {
              "internalType": "uint256",
              "name": "lastPaidDate",
              "type": "uint256"
            },
            {
              "internalType": "string",
              "name": "propertyAddress",
              "type": "string"
            },
            {
              "internalType": "uint256",
              "name": "contractExpiration",
              "type": "uint256"
            }
          ],
          "internalType": "struct NFTRentalPropertyContractSystem.Property",
          "name": "",
          "type": "tuple"
        }
      ],
      "stateMutability": "view",
      "type": "function"
    },
    {
      "inputs": [
        {
          "internalType": "string",
          "name": "propertyAddress",
          "type": "string"
        }
      ],
      "name": "fetchNFTByPropertyAddress",
      "outputs": [
        {
          "components": [
            {
              "internalType": "uint256",
              "name": "id",
              "type": "uint256"
            },
            {
              "internalType": "address",
              "name": "owner",
              "type": "address"
            },
            {
              "internalType": "uint256",
              "name": "rent",
              "type": "uint256"
            },
            {
              "internalType": "uint256",
              "name": "securityDeposit",
              "type": "uint256"
            },
            {
              "internalType": "bool",
              "name": "isRented",
              "type": "bool"
            },
            {
              "internalType": "address",
              "name": "renter",
              "type": "address"
            },
            {
              "internalType": "uint256",
              "name": "lastPaidDate",
              "type": "uint256"
            },
            {
              "internalType": "string",
              "name": "propertyAddress",
              "type": "string"
            },
            {
              "internalType": "uint256",
              "name": "contractExpiration",
              "type": "uint256"
            }
          ],
          "internalType": "struct NFTRentalPropertyContractSystem.Property",
          "name": "",
          "type": "tuple"
        }
      ],
      "stateMutability": "view",
      "type": "function"
    },
    {
      "inputs": [
        {
          "internalType": "uint256",
          "name": "tokenId",
          "type": "uint256"
        }
      ],
      "name": "getApproved",
      "outputs": [
        {
          "internalType": "address",
          "name": "",
          "type": "address"
        }
      ],
      "stateMutability": "view",
      "type": "function"
    },
    {
      "inputs": [
        {
          "internalType": "address",
          "name": "owner",
          "type": "address"
        },
        {
          "internalType": "address",
          "name": "operator",
          "type": "address"
        }
      ],
      "name": "isApprovedForAll",
      "outputs": [
        {
          "internalType": "bool",
          "name": "",
          "type": "bool"
        }
      ],
      "stateMutability": "view",
      "type": "function"
    },
    {
      "inputs": [],
      "name": "name",
      "outputs": [
        {
          "internalType": "string",
          "name": "",
          "type": "string"
        }
      ],
      "stateMutability": "view",
      "type": "function"
    },
    {
      "inputs": [],
      "name": "owner",
      "outputs": [
        {
          "internalType": "address",
          "name": "",
          "type": "address"
        }
      ],
      "stateMutability": "view",
      "type": "function"
    },
    {
      "inputs": [
        {
          "internalType": "uint256",
          "name": "tokenId",
          "type": "uint256"
        }
      ],
      "name": "ownerOf",
      "outputs": [
        {
          "internalType": "address",
          "name": "",
          "type": "address"
        }
      ],
      "stateMutability": "view",
      "type": "function"
    },
    {
      "inputs": [
        {
          "internalType": "uint256",
          "name": "propertyId",
          "type": "uint256"
        }
      ],
      "name": "payRent",
      "outputs": [],
      "stateMutability": "payable",
      "type": "function"
    },
    {
      "inputs": [
        {
          "internalType": "uint256",
          "name": "",
          "type": "uint256"
        }
      ],
      "name": "properties",
      "outputs": [
        {
          "internalType": "uint256",
          "name": "id",
          "type": "uint256"
        },
        {
          "internalType": "address",
          "name": "owner",
          "type": "address"
        },
        {
          "internalType": "uint256",
          "name": "rent",
          "type": "uint256"
        },
        {
          "internalType": "uint256",
          "name": "securityDeposit",
          "type": "uint256"
        },
        {
          "internalType": "bool",
          "name": "isRented",
          "type": "bool"
        },
        {
          "internalType": "address",
          "name": "renter",
          "type": "address"
        },
        {
          "internalType": "uint256",
          "name": "lastPaidDate",
          "type": "uint256"
        },
        {
          "internalType": "string",
          "name": "propertyAddress",
          "type": "string"
        },
        {
          "internalType": "uint256",
          "name": "contractExpiration",
          "type": "uint256"
        }
      ],
      "stateMutability": "view",
      "type": "function"
    },
    {
      "inputs": [
        {
          "internalType": "uint256",
          "name": "propertyId",
          "type": "uint256"
        }
      ],
      "name": "renewContract",
      "outputs": [],
      "stateMutability": "nonpayable",
      "type": "function"
    },
    {
      "inputs": [],
      "name": "renounceOwnership",
      "outputs": [],
      "stateMutability": "nonpayable",
      "type": "function"
    },
    {
      "inputs": [
        {
          "internalType": "uint256",
          "name": "propertyId",
          "type": "uint256"
        }
      ],
      "name": "rentProperty",
      "outputs": [],
      "stateMutability": "payable",
      "type": "function"
    },
    {
      "inputs": [
        {
          "internalType": "address",
          "name": "from",
          "type": "address"
        },
        {
          "internalType": "address",
          "name": "to",
          "type": "address"
        },
        {
          "internalType": "uint256",
          "name": "tokenId",
          "type": "uint256"
        }
      ],
      "name": "safeTransferFrom",
      "outputs": [],
      "stateMutability": "nonpayable",
      "type": "function"
    },
    {
      "inputs": [
        {
          "internalType": "address",
          "name": "from",
          "type": "address"
        },
        {
          "internalType": "address",
          "name": "to",
          "type": "address"
        },
        {
          "internalType": "uint256",
          "name": "tokenId",
          "type": "uint256"
        },
        {
          "internalType": "bytes",
          "name": "data",
          "type": "bytes"
        }
      ],
      "name": "safeTransferFrom",
      "outputs": [],
      "stateMutability": "nonpayable",
      "type": "function"
    },
    {
      "inputs": [
        {
          "internalType": "address",
          "name": "operator",
          "type": "address"
        },
        {
          "internalType": "bool",
          "name": "approved",
          "type": "bool"
        }
      ],
      "name": "setApprovalForAll",
      "outputs": [],
      "stateMutability": "nonpayable",
      "type": "function"
    },
    {
      "inputs": [
        {
          "internalType": "bytes4",
          "name": "interfaceId",
          "type": "bytes4"
        }
      ],
      "name": "supportsInterface",
      "outputs": [
        {
          "internalType": "bool",
          "name": "",
          "type": "bool"
        }
      ],
      "stateMutability": "view",
      "type": "function"
    },
    {
      "inputs": [],
      "name": "symbol",
      "outputs": [
        {
          "internalType": "string",
          "name": "",
          "type": "string"
        }
      ],
      "stateMutability": "view",
      "type": "function"
    },
    {
      "inputs": [
        {
          "internalType": "uint256",
          "name": "tokenId",
          "type": "uint256"
        }
      ],
      "name": "tokenURI",
      "outputs": [
        {
          "internalType": "string",
          "name": "",
          "type": "string"
        }
      ],
      "stateMutability": "view",
      "type": "function"
    },
    {
      "inputs": [
        {
          "internalType": "address",
          "name": "from",
          "type": "address"
        },
        {
          "internalType": "address",
          "name": "to",
          "type": "address"
        },
        {
          "internalType": "uint256",
          "name": "tokenId",
          "type": "uint256"
        }
      ],
      "name": "transferFrom",
      "outputs": [],
      "stateMutability": "nonpayable",
      "type": "function"
    },
    {
      "inputs": [
        {
          "internalType": "address",
          "name": "newOwner",
          "type": "address"
        }
      ],
      "name": "transferOwnership",
      "outputs": [],
      "stateMutability": "nonpayable",
      "type": "function"
    },
    {
      "inputs": [
        {
          "internalType": "uint256",
          "name": "propertyId",
          "type": "uint256"
        },
        {
          "internalType": "uint256",
          "name": "newRent",
          "type": "uint256"
        },
        {
          "internalType": "uint256",
          "name": "newSecurityDeposit",
          "type": "uint256"
        }
      ],
      "name": "updateRentalProperty",
      "outputs": [],
      "stateMutability": "nonpayable",
      "type": "function"
    },
    {
      "inputs": [
        {
          "internalType": "uint256",
          "name": "propertyId",
          "type": "uint256"
        }
      ],
      "name": "withdrawSecurityDeposit",
      "outputs": [],
      "stateMutability": "nonpayable",
      "type": "function"
    }
  ],
  "bytecode": "0x60806040523480156200001157600080fd5b506040518060400160405280601081526020017f52656e74616c50726f70657274696573000000000000000000000000000000008152506040518060400160405280600381526020017f525052000000000000000000000000000000000000000000000000000000000081525081600090816200008f919062000412565b508060019081620000a1919062000412565b505050620000c4620000b8620000ca60201b60201c565b620000d260201b60201c565b620004f9565b600033905090565b6000600760009054906101000a900473ffffffffffffffffffffffffffffffffffffffff16905081600760006101000a81548173ffffffffffffffffffffffffffffffffffffffff021916908373ffffffffffffffffffffffffffffffffffffffff1602179055508173ffffffffffffffffffffffffffffffffffffffff168173ffffffffffffffffffffffffffffffffffffffff167f8be0079c531659141344cd1fd0a4f28419497f9722a3daafe3b4186f6b6457e060405160405180910390a35050565b600081519050919050565b7f4e487b7100000000000000000000000000000000000000000000000000000000600052604160045260246000fd5b7f4e487b7100000000000000000000000000000000000000000000000000000000600052602260045260246000fd5b600060028204905060018216806200021a57607f821691505b60208210810362000230576200022f620001d2565b5b50919050565b60008190508160005260206000209050919050565b60006020601f8301049050919050565b600082821b905092915050565b6000600883026200029a7fffffffffffffffffffffffffffffffffffffffffffffffffffffffffffffffff826200025b565b620002a686836200025b565b95508019841693508086168417925050509392505050565b6000819050919050565b6000819050919050565b6000620002f3620002ed620002e784620002be565b620002c8565b620002be565b9050919050565b6000819050919050565b6200030f83620002d2565b620003276200031e82620002fa565b84845462000268565b825550505050565b600090565b6200033e6200032f565b6200034b81848462000304565b505050565b5b8181101562000373576200036760008262000334565b60018101905062000351565b5050565b601f821115620003c2576200038c8162000236565b62000397846200024b565b81016020851015620003a7578190505b620003bf620003b6856200024b565b83018262000350565b50505b505050565b600082821c905092915050565b6000620003e760001984600802620003c7565b1980831691505092915050565b6000620004028383620003d4565b9150826002028217905092915050565b6200041d8262000198565b67ffffffffffffffff811115620004395762000438620001a3565b5b62000445825462000201565b6200045282828562000377565b600060209050601f8311600181146200048a576000841562000475578287015190505b620004818582620003f4565b865550620004f1565b601f1984166200049a8662000236565b60005b82811015620004c4578489015182556001820191506020850194506020810190506200049d565b86831015620004e45784890151620004e0601f891682620003d4565b8355505b6001600288020188555050505b505050505050565b614b6480620005096000396000f3fe60806040526004361061019c5760003560e01c806395d89b41116100ec578063c87b56dd1161008a578063d9e8843f11610064578063d9e8843f146105de578063e985e9c5146105fa578063f2fde38b14610637578063f7b10808146106605761019c565b8063c87b56dd1461053b578063cd5b0edd14610578578063d5252dcf146105b55761019c565b80639d36ab6c116100c65780639d36ab6c14610490578063a22cb465146104ac578063b88d4fde146104d5578063bed34bba146104fe5761019c565b806395d89b411461041357806397491d6f1461043e57806398d380e0146104675761019c565b806342842e0e1161015957806370a082311161013357806370a0823114610357578063715018a6146103945780637ad58c4f146103ab5780638da5cb5b146103e85761019c565b806342842e0e146102c157806350b0c647146102ea5780636352211e1461031a5761019c565b806301ffc9a7146101a157806306fdde03146101de578063081812fc14610209578063093cccc414610246578063095ea7b31461026f57806323b872dd14610298575b600080fd5b3480156101ad57600080fd5b506101c860048036038101906101c39190612fda565b6106a5565b6040516101d59190613022565b60405180910390f35b3480156101ea57600080fd5b506101f3610787565b60405161020091906130cd565b60405180910390f35b34801561021557600080fd5b50610230600480360381019061022b9190613125565b610819565b60405161023d9190613193565b60405180910390f35b34801561025257600080fd5b5061026d600480360381019061026891906131ae565b61085f565b005b34801561027b57600080fd5b506102966004803603810190610291919061322d565b61093e565b005b3480156102a457600080fd5b506102bf60048036038101906102ba919061326d565b610a55565b005b3480156102cd57600080fd5b506102e860048036038101906102e3919061326d565b610ab5565b005b61030460048036038101906102ff91906133f5565b610ad5565b60405161031191906134a3565b60405180910390f35b34801561032657600080fd5b50610341600480360381019061033c9190613125565b610c97565b60405161034e9190613193565b60405180910390f35b34801561036357600080fd5b5061037e600480360381019061037991906134be565b610d1d565b60405161038b91906134a3565b60405180910390f35b3480156103a057600080fd5b506103a9610dd4565b005b3480156103b757600080fd5b506103d260048036038101906103cd91906134eb565b610de8565b6040516103df9190613670565b60405180910390f35b3480156103f457600080fd5b506103fd6110a6565b60405161040a9190613193565b60405180910390f35b34801561041f57600080fd5b506104286110d0565b60405161043591906130cd565b60405180910390f35b34801561044a57600080fd5b5061046560048036038101906104609190613125565b611162565b005b34801561047357600080fd5b5061048e60048036038101906104899190613125565b6111de565b005b6104aa60048036038101906104a59190613125565b611338565b005b3480156104b857600080fd5b506104d360048036038101906104ce91906136be565b6114e6565b005b3480156104e157600080fd5b506104fc60048036038101906104f7919061379f565b6114fc565b005b34801561050a57600080fd5b5061052560048036038101906105209190613822565b61155e565b6040516105329190613022565b60405180910390f35b34801561054757600080fd5b50610562600480360381019061055d9190613125565b6115b7565b60405161056f91906130cd565b60405180910390f35b34801561058457600080fd5b5061059f600480360381019061059a9190613125565b6116c9565b6040516105ac9190613670565b60405180910390f35b3480156105c157600080fd5b506105dc60048036038101906105d79190613125565b611888565b005b6105f860048036038101906105f39190613125565b611994565b005b34801561060657600080fd5b50610621600480360381019061061c919061389a565b611bb3565b60405161062e9190613022565b60405180910390f35b34801561064357600080fd5b5061065e600480360381019061065991906134be565b611c47565b005b34801561066c57600080fd5b5061068760048036038101906106829190613125565b611cca565b60405161069c999897969594939291906138da565b60405180910390f35b60007f80ac58cd000000000000000000000000000000000000000000000000000000007bffffffffffffffffffffffffffffffffffffffffffffffffffffffff1916827bffffffffffffffffffffffffffffffffffffffffffffffffffffffff1916148061077057507f5b5e139f000000000000000000000000000000000000000000000000000000007bffffffffffffffffffffffffffffffffffffffffffffffffffffffff1916827bffffffffffffffffffffffffffffffffffffffffffffffffffffffff1916145b80610780575061077f82611ded565b5b9050919050565b6060600080546107969061399d565b80601f01602080910402602001604051908101604052809291908181526020018280546107c29061399d565b801561080f5780601f106107e45761010080835404028352916020019161080f565b820191906000526020600020905b8154815290600101906020018083116107f257829003601f168201915b5050505050905090565b600061082482611e57565b6004600083815260200190815260200160002060009054906101000a900473ffffffffffffffffffffffffffffffffffffffff169050919050565b6009600084815260200190815260200160002060010160009054906101000a900473ffffffffffffffffffffffffffffffffffffffff1673ffffffffffffffffffffffffffffffffffffffff163373ffffffffffffffffffffffffffffffffffffffff1614610903576040517f08c379a00000000000000000000000000000000000000000000000000000000081526004016108fa90613a40565b60405180910390fd5b816009600085815260200190815260200160002060020181905550806009600085815260200190815260200160002060030181905550505050565b600061094982610c97565b90508073ffffffffffffffffffffffffffffffffffffffff168373ffffffffffffffffffffffffffffffffffffffff16036109b9576040517f08c379a00000000000000000000000000000000000000000000000000000000081526004016109b090613ad2565b60405180910390fd5b8073ffffffffffffffffffffffffffffffffffffffff166109d8611ea2565b73ffffffffffffffffffffffffffffffffffffffff161480610a075750610a0681610a01611ea2565b611bb3565b5b610a46576040517f08c379a0000000000000000000000000000000000000000000000000000000008152600401610a3d90613b64565b60405180910390fd5b610a508383611eaa565b505050565b610a66610a60611ea2565b82611f63565b610aa5576040517f08c379a0000000000000000000000000000000000000000000000000000000008152600401610a9c90613bf6565b60405180910390fd5b610ab0838383611ff8565b505050565b610ad0838383604051806020016040528060008152506114fc565b505050565b600060086000815480929190610aea90613c45565b919050555060405180610120016040528060085481526020013373ffffffffffffffffffffffffffffffffffffffff168152602001858152602001848152602001600015158152602001600073ffffffffffffffffffffffffffffffffffffffff1681526020016000815260200183815260200160008152506009600060085481526020019081526020016000206000820151816000015560208201518160010160006101000a81548173ffffffffffffffffffffffffffffffffffffffff021916908373ffffffffffffffffffffffffffffffffffffffff160217905550604082015181600201556060820151816003015560808201518160040160006101000a81548160ff02191690831515021790555060a08201518160040160016101000a81548173ffffffffffffffffffffffffffffffffffffffff021916908373ffffffffffffffffffffffffffffffffffffffff16021790555060c0820151816005015560e0820151816006019081610c639190613e39565b506101008201518160070155905050610c7e336008546122f1565b610c8a6008548661230f565b6008549050949350505050565b600080610ca38361237c565b9050600073ffffffffffffffffffffffffffffffffffffffff168173ffffffffffffffffffffffffffffffffffffffff1603610d14576040517f08c379a0000000000000000000000000000000000000000000000000000000008152600401610d0b90613f57565b60405180910390fd5b80915050919050565b60008073ffffffffffffffffffffffffffffffffffffffff168273ffffffffffffffffffffffffffffffffffffffff1603610d8d576040517f08c379a0000000000000000000000000000000000000000000000000000000008152600401610d8490613fe9565b60405180910390fd5b600360008373ffffffffffffffffffffffffffffffffffffffff1673ffffffffffffffffffffffffffffffffffffffff168152602001908152602001600020549050919050565b610ddc6123b9565b610de66000612437565b565b610df0612ef4565b60006008549050610dff612ef4565b60005b8281101561109b57610ebe60096000600184610e1e9190614009565b81526020019081526020016000206006018054610e3a9061399d565b80601f0160208091040260200160405190810160405280929190818152602001828054610e669061399d565b8015610eb35780601f10610e8857610100808354040283529160200191610eb3565b820191906000526020600020905b815481529060010190602001808311610e9657829003601f168201915b50505050508661155e565b15611088576000600182610ed29190614009565b905060006009600083815260200190815260200160002090508060405180610120016040529081600082015481526020016001820160009054906101000a900473ffffffffffffffffffffffffffffffffffffffff1673ffffffffffffffffffffffffffffffffffffffff1673ffffffffffffffffffffffffffffffffffffffff16815260200160028201548152602001600382015481526020016004820160009054906101000a900460ff161515151581526020016004820160019054906101000a900473ffffffffffffffffffffffffffffffffffffffff1673ffffffffffffffffffffffffffffffffffffffff1673ffffffffffffffffffffffffffffffffffffffff16815260200160058201548152602001600682018054610ff79061399d565b80601f01602080910402602001604051908101604052809291908181526020018280546110239061399d565b80156110705780601f1061104557610100808354040283529160200191611070565b820191906000526020600020905b81548152906001019060200180831161105357829003601f168201915b50505050508152602001600782015481525050935050505b808061109390613c45565b915050610e02565b508092505050919050565b6000600760009054906101000a900473ffffffffffffffffffffffffffffffffffffffff16905090565b6060600180546110df9061399d565b80601f016020809104026020016040519081016040528092919081815260200182805461110b9061399d565b80156111585780601f1061112d57610100808354040283529160200191611158565b820191906000526020600020905b81548152906001019060200180831161113b57829003601f168201915b5050505050905090565b600060096000838152602001908152602001600020905060008160040160006101000a81548160ff02191690831515021790555060008160040160016101000a81548173ffffffffffffffffffffffffffffffffffffffff021916908373ffffffffffffffffffffffffffffffffffffffff1602179055505050565b60006009600083815260200190815260200160002090503373ffffffffffffffffffffffffffffffffffffffff168160010160009054906101000a900473ffffffffffffffffffffffffffffffffffffffff1673ffffffffffffffffffffffffffffffffffffffff1614611287576040517f08c379a000000000000000000000000000000000000000000000000000000000815260040161127e906140af565b60405180910390fd5b8060040160009054906101000a900460ff16156112d9576040517f08c379a00000000000000000000000000000000000000000000000000000000081526004016112d09061411b565b60405180910390fd5b600081600301549050600082600301819055503373ffffffffffffffffffffffffffffffffffffffff166108fc829081150290604051600060405180830381858888f19350505050158015611332573d6000803e3d6000fd5b50505050565b60006009600083815260200190815260200160002090508060040160009054906101000a900460ff16156113a1576040517f08c379a000000000000000000000000000000000000000000000000000000000815260040161139890614187565b60405180910390fd5b806002015481600301546113b59190614009565b34146113f6576040517f08c379a00000000000000000000000000000000000000000000000000000000081526004016113ed906141f3565b60405180910390fd5b60018160040160006101000a81548160ff021916908315150217905550338160040160016101000a81548173ffffffffffffffffffffffffffffffffffffffff021916908373ffffffffffffffffffffffffffffffffffffffff1602179055504281600501819055506301e133804261146f9190614009565b81600701819055508060010160009054906101000a900473ffffffffffffffffffffffffffffffffffffffff1673ffffffffffffffffffffffffffffffffffffffff166108fc349081150290604051600060405180830381858888f193505050501580156114e1573d6000803e3d6000fd5b505050565b6114f86114f1611ea2565b83836124fd565b5050565b61150d611507611ea2565b83611f63565b61154c576040517f08c379a000000000000000000000000000000000000000000000000000000000815260040161154390613bf6565b60405180910390fd5b61155884848484612669565b50505050565b600081604051602001611571919061424f565b6040516020818303038152906040528051906020012083604051602001611598919061424f565b6040516020818303038152906040528051906020012014905092915050565b60606115c282611e57565b60006006600084815260200190815260200160002080546115e29061399d565b80601f016020809104026020016040519081016040528092919081815260200182805461160e9061399d565b801561165b5780601f106116305761010080835404028352916020019161165b565b820191906000526020600020905b81548152906001019060200180831161163e57829003601f168201915b50505050509050600061166c6126c5565b905060008151036116815781925050506116c4565b6000825111156116b657808260405160200161169e929190614266565b604051602081830303815290604052925050506116c4565b6116bf846126dc565b925050505b919050565b6116d1612ef4565b60006009600084815260200190815260200160002060405180610120016040529081600082015481526020016001820160009054906101000a900473ffffffffffffffffffffffffffffffffffffffff1673ffffffffffffffffffffffffffffffffffffffff1673ffffffffffffffffffffffffffffffffffffffff16815260200160028201548152602001600382015481526020016004820160009054906101000a900460ff161515151581526020016004820160019054906101000a900473ffffffffffffffffffffffffffffffffffffffff1673ffffffffffffffffffffffffffffffffffffffff1673ffffffffffffffffffffffffffffffffffffffff168152602001600582015481526020016006820180546117f19061399d565b80601f016020809104026020016040519081016040528092919081815260200182805461181d9061399d565b801561186a5780601f1061183f5761010080835404028352916020019161186a565b820191906000526020600020905b81548152906001019060200180831161184d57829003601f168201915b50505050508152602001600782015481525050905080915050919050565b60006009600083815260200190815260200160002090503373ffffffffffffffffffffffffffffffffffffffff168160040160019054906101000a900473ffffffffffffffffffffffffffffffffffffffff1673ffffffffffffffffffffffffffffffffffffffff1614611931576040517f08c379a0000000000000000000000000000000000000000000000000000000008152600401611928906142fc565b60405180910390fd5b8060070154421015611978576040517f08c379a000000000000000000000000000000000000000000000000000000000815260040161196f90614368565b60405180910390fd5b6301e13380426119889190614009565b81600701819055505050565b60006009600083815260200190815260200160002090508060040160009054906101000a900460ff166119fc576040517f08c379a00000000000000000000000000000000000000000000000000000000081526004016119f3906143d4565b60405180910390fd5b3373ffffffffffffffffffffffffffffffffffffffff168160040160019054906101000a900473ffffffffffffffffffffffffffffffffffffffff1673ffffffffffffffffffffffffffffffffffffffff1614611a8e576040517f08c379a0000000000000000000000000000000000000000000000000000000008152600401611a8590614440565b60405180910390fd5b80600201543414611ad4576040517f08c379a0000000000000000000000000000000000000000000000000000000008152600401611acb906144ac565b60405180910390fd5b62278d008160050154611ae79190614009565b421015611b29576040517f08c379a0000000000000000000000000000000000000000000000000000000008152600401611b209061453e565b60405180910390fd5b62278d008160050154611b3c9190614009565b81600501819055508060010160009054906101000a900473ffffffffffffffffffffffffffffffffffffffff1673ffffffffffffffffffffffffffffffffffffffff166108fc349081150290604051600060405180830381858888f19350505050158015611bae573d6000803e3d6000fd5b505050565b6000600560008473ffffffffffffffffffffffffffffffffffffffff1673ffffffffffffffffffffffffffffffffffffffff16815260200190815260200160002060008373ffffffffffffffffffffffffffffffffffffffff1673ffffffffffffffffffffffffffffffffffffffff16815260200190815260200160002060009054906101000a900460ff16905092915050565b611c4f6123b9565b600073ffffffffffffffffffffffffffffffffffffffff168173ffffffffffffffffffffffffffffffffffffffff1603611cbe576040517f08c379a0000000000000000000000000000000000000000000000000000000008152600401611cb5906145d0565b60405180910390fd5b611cc781612437565b50565b60096020528060005260406000206000915090508060000154908060010160009054906101000a900473ffffffffffffffffffffffffffffffffffffffff16908060020154908060030154908060040160009054906101000a900460ff16908060040160019054906101000a900473ffffffffffffffffffffffffffffffffffffffff1690806005015490806006018054611d649061399d565b80601f0160208091040260200160405190810160405280929190818152602001828054611d909061399d565b8015611ddd5780601f10611db257610100808354040283529160200191611ddd565b820191906000526020600020905b815481529060010190602001808311611dc057829003601f168201915b5050505050908060070154905089565b60007f01ffc9a7000000000000000000000000000000000000000000000000000000007bffffffffffffffffffffffffffffffffffffffffffffffffffffffff1916827bffffffffffffffffffffffffffffffffffffffffffffffffffffffff1916149050919050565b611e6081612744565b611e9f576040517f08c379a0000000000000000000000000000000000000000000000000000000008152600401611e9690613f57565b60405180910390fd5b50565b600033905090565b816004600083815260200190815260200160002060006101000a81548173ffffffffffffffffffffffffffffffffffffffff021916908373ffffffffffffffffffffffffffffffffffffffff160217905550808273ffffffffffffffffffffffffffffffffffffffff16611f1d83610c97565b73ffffffffffffffffffffffffffffffffffffffff167f8c5be1e5ebec7d5bd14f71427d1e84f3dd0314c0f7b2291e5b200ac8c7c3b92560405160405180910390a45050565b600080611f6f83610c97565b90508073ffffffffffffffffffffffffffffffffffffffff168473ffffffffffffffffffffffffffffffffffffffff161480611fb15750611fb08185611bb3565b5b80611fef57508373ffffffffffffffffffffffffffffffffffffffff16611fd784610819565b73ffffffffffffffffffffffffffffffffffffffff16145b91505092915050565b8273ffffffffffffffffffffffffffffffffffffffff1661201882610c97565b73ffffffffffffffffffffffffffffffffffffffff161461206e576040517f08c379a000000000000000000000000000000000000000000000000000000000815260040161206590614662565b60405180910390fd5b600073ffffffffffffffffffffffffffffffffffffffff168273ffffffffffffffffffffffffffffffffffffffff16036120dd576040517f08c379a00000000000000000000000000000000000000000000000000000000081526004016120d4906146f4565b60405180910390fd5b6120ea8383836001612785565b8273ffffffffffffffffffffffffffffffffffffffff1661210a82610c97565b73ffffffffffffffffffffffffffffffffffffffff1614612160576040517f08c379a000000000000000000000000000000000000000000000000000000000815260040161215790614662565b60405180910390fd5b6004600082815260200190815260200160002060006101000a81549073ffffffffffffffffffffffffffffffffffffffff02191690556001600360008573ffffffffffffffffffffffffffffffffffffffff1673ffffffffffffffffffffffffffffffffffffffff168152602001908152602001600020600082825403925050819055506001600360008473ffffffffffffffffffffffffffffffffffffffff1673ffffffffffffffffffffffffffffffffffffffff16815260200190815260200160002060008282540192505081905550816002600083815260200190815260200160002060006101000a81548173ffffffffffffffffffffffffffffffffffffffff021916908373ffffffffffffffffffffffffffffffffffffffff160217905550808273ffffffffffffffffffffffffffffffffffffffff168473ffffffffffffffffffffffffffffffffffffffff167fddf252ad1be2c89b69c2b068fc378daa952ba7f163c4a11628f55a4df523b3ef60405160405180910390a46122ec83838360016128ab565b505050565b61230b8282604051806020016040528060008152506128b1565b5050565b61231882612744565b612357576040517f08c379a000000000000000000000000000000000000000000000000000000000815260040161234e90614786565b60405180910390fd5b806006600084815260200190815260200160002090816123779190613e39565b505050565b60006002600083815260200190815260200160002060009054906101000a900473ffffffffffffffffffffffffffffffffffffffff169050919050565b6123c1611ea2565b73ffffffffffffffffffffffffffffffffffffffff166123df6110a6565b73ffffffffffffffffffffffffffffffffffffffff1614612435576040517f08c379a000000000000000000000000000000000000000000000000000000000815260040161242c906147f2565b60405180910390fd5b565b6000600760009054906101000a900473ffffffffffffffffffffffffffffffffffffffff16905081600760006101000a81548173ffffffffffffffffffffffffffffffffffffffff021916908373ffffffffffffffffffffffffffffffffffffffff1602179055508173ffffffffffffffffffffffffffffffffffffffff168173ffffffffffffffffffffffffffffffffffffffff167f8be0079c531659141344cd1fd0a4f28419497f9722a3daafe3b4186f6b6457e060405160405180910390a35050565b8173ffffffffffffffffffffffffffffffffffffffff168373ffffffffffffffffffffffffffffffffffffffff160361256b576040517f08c379a00000000000000000000000000000000000000000000000000000000081526004016125629061485e565b60405180910390fd5b80600560008573ffffffffffffffffffffffffffffffffffffffff1673ffffffffffffffffffffffffffffffffffffffff16815260200190815260200160002060008473ffffffffffffffffffffffffffffffffffffffff1673ffffffffffffffffffffffffffffffffffffffff16815260200190815260200160002060006101000a81548160ff0219169083151502179055508173ffffffffffffffffffffffffffffffffffffffff168373ffffffffffffffffffffffffffffffffffffffff167f17307eab39ab6107e8899845ad3d59bd9653f200f220920489ca2b5937696c318360405161265c9190613022565b60405180910390a3505050565b612674848484611ff8565b6126808484848461290c565b6126bf576040517f08c379a00000000000000000000000000000000000000000000000000000000081526004016126b6906148f0565b60405180910390fd5b50505050565b606060405180602001604052806000815250905090565b60606126e782611e57565b60006126f16126c5565b90506000815111612711576040518060200160405280600081525061273c565b8061271b84612a93565b60405160200161272c929190614266565b6040516020818303038152906040525b915050919050565b60008073ffffffffffffffffffffffffffffffffffffffff166127668361237c565b73ffffffffffffffffffffffffffffffffffffffff1614159050919050565b60018111156128a557600073ffffffffffffffffffffffffffffffffffffffff168473ffffffffffffffffffffffffffffffffffffffff16146128195780600360008673ffffffffffffffffffffffffffffffffffffffff1673ffffffffffffffffffffffffffffffffffffffff16815260200190815260200160002060008282546128119190614910565b925050819055505b600073ffffffffffffffffffffffffffffffffffffffff168373ffffffffffffffffffffffffffffffffffffffff16146128a45780600360008573ffffffffffffffffffffffffffffffffffffffff1673ffffffffffffffffffffffffffffffffffffffff168152602001908152602001600020600082825461289c9190614009565b925050819055505b5b50505050565b50505050565b6128bb8383612b61565b6128c8600084848461290c565b612907576040517f08c379a00000000000000000000000000000000000000000000000000000000081526004016128fe906148f0565b60405180910390fd5b505050565b600061292d8473ffffffffffffffffffffffffffffffffffffffff16612d7e565b15612a86578373ffffffffffffffffffffffffffffffffffffffff1663150b7a02612956611ea2565b8786866040518563ffffffff1660e01b81526004016129789493929190614999565b6020604051808303816000875af19250505080156129b457506040513d601f19601f820116820180604052508101906129b191906149fa565b60015b612a36573d80600081146129e4576040519150601f19603f3d011682016040523d82523d6000602084013e6129e9565b606091505b506000815103612a2e576040517f08c379a0000000000000000000000000000000000000000000000000000000008152600401612a25906148f0565b60405180910390fd5b805181602001fd5b63150b7a0260e01b7bffffffffffffffffffffffffffffffffffffffffffffffffffffffff1916817bffffffffffffffffffffffffffffffffffffffffffffffffffffffff191614915050612a8b565b600190505b949350505050565b606060006001612aa284612da1565b01905060008167ffffffffffffffff811115612ac157612ac06132ca565b5b6040519080825280601f01601f191660200182016040528015612af35781602001600182028036833780820191505090505b509050600082602001820190505b600115612b56578080600190039150507f3031323334353637383961626364656600000000000000000000000000000000600a86061a8153600a8581612b4a57612b49614a27565b5b04945060008503612b01575b819350505050919050565b600073ffffffffffffffffffffffffffffffffffffffff168273ffffffffffffffffffffffffffffffffffffffff1603612bd0576040517f08c379a0000000000000000000000000000000000000000000000000000000008152600401612bc790614aa2565b60405180910390fd5b612bd981612744565b15612c19576040517f08c379a0000000000000000000000000000000000000000000000000000000008152600401612c1090614b0e565b60405180910390fd5b612c27600083836001612785565b612c3081612744565b15612c70576040517f08c379a0000000000000000000000000000000000000000000000000000000008152600401612c6790614b0e565b60405180910390fd5b6001600360008473ffffffffffffffffffffffffffffffffffffffff1673ffffffffffffffffffffffffffffffffffffffff16815260200190815260200160002060008282540192505081905550816002600083815260200190815260200160002060006101000a81548173ffffffffffffffffffffffffffffffffffffffff021916908373ffffffffffffffffffffffffffffffffffffffff160217905550808273ffffffffffffffffffffffffffffffffffffffff16600073ffffffffffffffffffffffffffffffffffffffff167fddf252ad1be2c89b69c2b068fc378daa952ba7f163c4a11628f55a4df523b3ef60405160405180910390a4612d7a6000838360016128ab565b5050565b6000808273ffffffffffffffffffffffffffffffffffffffff163b119050919050565b600080600090507a184f03e93ff9f4daa797ed6e38ed64bf6a1f0100000000000000008310612dff577a184f03e93ff9f4daa797ed6e38ed64bf6a1f0100000000000000008381612df557612df4614a27565b5b0492506040810190505b6d04ee2d6d415b85acef81000000008310612e3c576d04ee2d6d415b85acef81000000008381612e3257612e31614a27565b5b0492506020810190505b662386f26fc100008310612e6b57662386f26fc100008381612e6157612e60614a27565b5b0492506010810190505b6305f5e1008310612e94576305f5e1008381612e8a57612e89614a27565b5b0492506008810190505b6127108310612eb9576127108381612eaf57612eae614a27565b5b0492506004810190505b60648310612edc5760648381612ed257612ed1614a27565b5b0492506002810190505b600a8310612eeb576001810190505b80915050919050565b60405180610120016040528060008152602001600073ffffffffffffffffffffffffffffffffffffffff1681526020016000815260200160008152602001600015158152602001600073ffffffffffffffffffffffffffffffffffffffff1681526020016000815260200160608152602001600081525090565b6000604051905090565b600080fd5b600080fd5b60007fffffffff0000000000000000000000000000000000000000000000000000000082169050919050565b612fb781612f82565b8114612fc257600080fd5b50565b600081359050612fd481612fae565b92915050565b600060208284031215612ff057612fef612f78565b5b6000612ffe84828501612fc5565b91505092915050565b60008115159050919050565b61301c81613007565b82525050565b60006020820190506130376000830184613013565b92915050565b600081519050919050565b600082825260208201905092915050565b60005b8381101561307757808201518184015260208101905061305c565b60008484015250505050565b6000601f19601f8301169050919050565b600061309f8261303d565b6130a98185613048565b93506130b9818560208601613059565b6130c281613083565b840191505092915050565b600060208201905081810360008301526130e78184613094565b905092915050565b6000819050919050565b613102816130ef565b811461310d57600080fd5b50565b60008135905061311f816130f9565b92915050565b60006020828403121561313b5761313a612f78565b5b600061314984828501613110565b91505092915050565b600073ffffffffffffffffffffffffffffffffffffffff82169050919050565b600061317d82613152565b9050919050565b61318d81613172565b82525050565b60006020820190506131a86000830184613184565b92915050565b6000806000606084860312156131c7576131c6612f78565b5b60006131d586828701613110565b93505060206131e686828701613110565b92505060406131f786828701613110565b9150509250925092565b61320a81613172565b811461321557600080fd5b50565b60008135905061322781613201565b92915050565b6000806040838503121561324457613243612f78565b5b600061325285828601613218565b925050602061326385828601613110565b9150509250929050565b60008060006060848603121561328657613285612f78565b5b600061329486828701613218565b93505060206132a586828701613218565b92505060406132b686828701613110565b9150509250925092565b600080fd5b600080fd5b7f4e487b7100000000000000000000000000000000000000000000000000000000600052604160045260246000fd5b61330282613083565b810181811067ffffffffffffffff82111715613321576133206132ca565b5b80604052505050565b6000613334612f6e565b905061334082826132f9565b919050565b600067ffffffffffffffff8211156133605761335f6132ca565b5b61336982613083565b9050602081019050919050565b82818337600083830152505050565b600061339861339384613345565b61332a565b9050828152602081018484840111156133b4576133b36132c5565b5b6133bf848285613376565b509392505050565b600082601f8301126133dc576133db6132c0565b5b81356133ec848260208601613385565b91505092915050565b6000806000806080858703121561340f5761340e612f78565b5b600085013567ffffffffffffffff81111561342d5761342c612f7d565b5b613439878288016133c7565b945050602061344a87828801613110565b935050604061345b87828801613110565b925050606085013567ffffffffffffffff81111561347c5761347b612f7d565b5b613488878288016133c7565b91505092959194509250565b61349d816130ef565b82525050565b60006020820190506134b86000830184613494565b92915050565b6000602082840312156134d4576134d3612f78565b5b60006134e284828501613218565b91505092915050565b60006020828403121561350157613500612f78565b5b600082013567ffffffffffffffff81111561351f5761351e612f7d565b5b61352b848285016133c7565b91505092915050565b61353d816130ef565b82525050565b61354c81613172565b82525050565b61355b81613007565b82525050565b600082825260208201905092915050565b600061357d8261303d565b6135878185613561565b9350613597818560208601613059565b6135a081613083565b840191505092915050565b6000610120830160008301516135c46000860182613534565b5060208301516135d76020860182613543565b5060408301516135ea6040860182613534565b5060608301516135fd6060860182613534565b5060808301516136106080860182613552565b5060a083015161362360a0860182613543565b5060c083015161363660c0860182613534565b5060e083015184820360e086015261364e8282613572565b915050610100830151613665610100860182613534565b508091505092915050565b6000602082019050818103600083015261368a81846135ab565b905092915050565b61369b81613007565b81146136a657600080fd5b50565b6000813590506136b881613692565b92915050565b600080604083850312156136d5576136d4612f78565b5b60006136e385828601613218565b92505060206136f4858286016136a9565b9150509250929050565b600067ffffffffffffffff821115613719576137186132ca565b5b61372282613083565b9050602081019050919050565b600061374261373d846136fe565b61332a565b90508281526020810184848401111561375e5761375d6132c5565b5b613769848285613376565b509392505050565b600082601f830112613786576137856132c0565b5b813561379684826020860161372f565b91505092915050565b600080600080608085870312156137b9576137b8612f78565b5b60006137c787828801613218565b94505060206137d887828801613218565b93505060406137e987828801613110565b925050606085013567ffffffffffffffff81111561380a57613809612f7d565b5b61381687828801613771565b91505092959194509250565b6000806040838503121561383957613838612f78565b5b600083013567ffffffffffffffff81111561385757613856612f7d565b5b613863858286016133c7565b925050602083013567ffffffffffffffff81111561388457613883612f7d565b5b613890858286016133c7565b9150509250929050565b600080604083850312156138b1576138b0612f78565b5b60006138bf85828601613218565b92505060206138d085828601613218565b9150509250929050565b6000610120820190506138f0600083018c613494565b6138fd602083018b613184565b61390a604083018a613494565b6139176060830189613494565b6139246080830188613013565b61393160a0830187613184565b61393e60c0830186613494565b81810360e08301526139508185613094565b9050613960610100830184613494565b9a9950505050505050505050565b7f4e487b7100000000000000000000000000000000000000000000000000000000600052602260045260246000fd5b600060028204905060018216806139b557607f821691505b6020821081036139c8576139c761396e565b5b50919050565b7f4f6e6c7920746865206f776e65722063616e207570646174652074686520707260008201527f6f70657274790000000000000000000000000000000000000000000000000000602082015250565b6000613a2a602683613048565b9150613a35826139ce565b604082019050919050565b60006020820190508181036000830152613a5981613a1d565b9050919050565b7f4552433732313a20617070726f76616c20746f2063757272656e74206f776e6560008201527f7200000000000000000000000000000000000000000000000000000000000000602082015250565b6000613abc602183613048565b9150613ac782613a60565b604082019050919050565b60006020820190508181036000830152613aeb81613aaf565b9050919050565b7f4552433732313a20617070726f76652063616c6c6572206973206e6f7420746f60008201527f6b656e206f776e6572206f7220617070726f76656420666f7220616c6c000000602082015250565b6000613b4e603d83613048565b9150613b5982613af2565b604082019050919050565b60006020820190508181036000830152613b7d81613b41565b9050919050565b7f4552433732313a2063616c6c6572206973206e6f7420746f6b656e206f776e6560008201527f72206f7220617070726f76656400000000000000000000000000000000000000602082015250565b6000613be0602d83613048565b9150613beb82613b84565b604082019050919050565b60006020820190508181036000830152613c0f81613bd3565b9050919050565b7f4e487b7100000000000000000000000000000000000000000000000000000000600052601160045260246000fd5b6000613c50826130ef565b91507fffffffffffffffffffffffffffffffffffffffffffffffffffffffffffffffff8203613c8257613c81613c16565b5b600182019050919050565b60008190508160005260206000209050919050565b60006020601f8301049050919050565b600082821b905092915050565b600060088302613cef7fffffffffffffffffffffffffffffffffffffffffffffffffffffffffffffffff82613cb2565b613cf98683613cb2565b95508019841693508086168417925050509392505050565b6000819050919050565b6000613d36613d31613d2c846130ef565b613d11565b6130ef565b9050919050565b6000819050919050565b613d5083613d1b565b613d64613d5c82613d3d565b848454613cbf565b825550505050565b600090565b613d79613d6c565b613d84818484613d47565b505050565b5b81811015613da857613d9d600082613d71565b600181019050613d8a565b5050565b601f821115613ded57613dbe81613c8d565b613dc784613ca2565b81016020851015613dd6578190505b613dea613de285613ca2565b830182613d89565b50505b505050565b600082821c905092915050565b6000613e1060001984600802613df2565b1980831691505092915050565b6000613e298383613dff565b9150826002028217905092915050565b613e428261303d565b67ffffffffffffffff811115613e5b57613e5a6132ca565b5b613e65825461399d565b613e70828285613dac565b600060209050601f831160018114613ea35760008415613e91578287015190505b613e9b8582613e1d565b865550613f03565b601f198416613eb186613c8d565b60005b82811015613ed957848901518255600182019150602085019450602081019050613eb4565b86831015613ef65784890151613ef2601f891682613dff565b8355505b6001600288020188555050505b505050505050565b7f4552433732313a20696e76616c696420746f6b656e2049440000000000000000600082015250565b6000613f41601883613048565b9150613f4c82613f0b565b602082019050919050565b60006020820190508181036000830152613f7081613f34565b9050919050565b7f4552433732313a2061646472657373207a65726f206973206e6f74206120766160008201527f6c6964206f776e65720000000000000000000000000000000000000000000000602082015250565b6000613fd3602983613048565b9150613fde82613f77565b604082019050919050565b6000602082019050818103600083015261400281613fc6565b9050919050565b6000614014826130ef565b915061401f836130ef565b925082820190508082111561403757614036613c16565b5b92915050565b7f4f6e6c7920746865206f776e65722063616e207769746864726177207468652060008201527f7365637572697479206465706f73697400000000000000000000000000000000602082015250565b6000614099603083613048565b91506140a48261403d565b604082019050919050565b600060208201905081810360008301526140c88161408c565b9050919050565b7f50726f7065727479206973207374696c6c2072656e7465640000000000000000600082015250565b6000614105601883613048565b9150614110826140cf565b602082019050919050565b60006020820190508181036000830152614134816140f8565b9050919050565b7f50726f706572747920616c72656164792072656e746564000000000000000000600082015250565b6000614171601783613048565b915061417c8261413b565b602082019050919050565b600060208201905081810360008301526141a081614164565b9050919050565b7f496e636f7272656374207365637572697479206465706f736974000000000000600082015250565b60006141dd601a83613048565b91506141e8826141a7565b602082019050919050565b6000602082019050818103600083015261420c816141d0565b9050919050565b600081905092915050565b60006142298261303d565b6142338185614213565b9350614243818560208601613059565b80840191505092915050565b600061425b828461421e565b915081905092915050565b6000614272828561421e565b915061427e828461421e565b91508190509392505050565b7f4f6e6c79207468652072656e7465722063616e2072656e65772074686520636f60008201527f6e74726163740000000000000000000000000000000000000000000000000000602082015250565b60006142e6602683613048565b91506142f18261428a565b604082019050919050565b60006020820190508181036000830152614315816142d9565b9050919050565b7f436f6e747261637420686173206e6f7420657870697265642079657400000000600082015250565b6000614352601c83613048565b915061435d8261431c565b602082019050919050565b6000602082019050818103600083015261438181614345565b9050919050565b7f50726f7065727479206e6f742072656e74656400000000000000000000000000600082015250565b60006143be601383613048565b91506143c982614388565b602082019050919050565b600060208201905081810360008301526143ed816143b1565b9050919050565b7f4f6e6c79207468652072656e7465722063616e207061792072656e7400000000600082015250565b600061442a601c83613048565b9150614435826143f4565b602082019050919050565b600060208201905081810360008301526144598161441d565b9050919050565b7f496e636f72726563742072656e7420616d6f756e740000000000000000000000600082015250565b6000614496601583613048565b91506144a182614460565b602082019050919050565b600060208201905081810360008301526144c581614489565b9050919050565b7f52656e7420616c7265616479207061696420666f72207468652063757272656e60008201527f7420706572696f64000000000000000000000000000000000000000000000000602082015250565b6000614528602883613048565b9150614533826144cc565b604082019050919050565b600060208201905081810360008301526145578161451b565b9050919050565b7f4f776e61626c653a206e6577206f776e657220697320746865207a65726f206160008201527f6464726573730000000000000000000000000000000000000000000000000000602082015250565b60006145ba602683613048565b91506145c58261455e565b604082019050919050565b600060208201905081810360008301526145e9816145ad565b9050919050565b7f4552433732313a207472616e736665722066726f6d20696e636f72726563742060008201527f6f776e6572000000000000000000000000000000000000000000000000000000602082015250565b600061464c602583613048565b9150614657826145f0565b604082019050919050565b6000602082019050818103600083015261467b8161463f565b9050919050565b7f4552433732313a207472616e7366657220746f20746865207a65726f2061646460008201527f7265737300000000000000000000000000000000000000000000000000000000602082015250565b60006146de602483613048565b91506146e982614682565b604082019050919050565b6000602082019050818103600083015261470d816146d1565b9050919050565b7f45524337323155524953746f726167653a2055524920736574206f66206e6f6e60008201527f6578697374656e7420746f6b656e000000000000000000000000000000000000602082015250565b6000614770602e83613048565b915061477b82614714565b604082019050919050565b6000602082019050818103600083015261479f81614763565b9050919050565b7f4f776e61626c653a2063616c6c6572206973206e6f7420746865206f776e6572600082015250565b60006147dc602083613048565b91506147e7826147a6565b602082019050919050565b6000602082019050818103600083015261480b816147cf565b9050919050565b7f4552433732313a20617070726f766520746f2063616c6c657200000000000000600082015250565b6000614848601983613048565b915061485382614812565b602082019050919050565b600060208201905081810360008301526148778161483b565b9050919050565b7f4552433732313a207472616e7366657220746f206e6f6e20455243373231526560008201527f63656976657220696d706c656d656e7465720000000000000000000000000000602082015250565b60006148da603283613048565b91506148e58261487e565b604082019050919050565b60006020820190508181036000830152614909816148cd565b9050919050565b600061491b826130ef565b9150614926836130ef565b925082820390508181111561493e5761493d613c16565b5b92915050565b600081519050919050565b600082825260208201905092915050565b600061496b82614944565b614975818561494f565b9350614985818560208601613059565b61498e81613083565b840191505092915050565b60006080820190506149ae6000830187613184565b6149bb6020830186613184565b6149c86040830185613494565b81810360608301526149da8184614960565b905095945050505050565b6000815190506149f481612fae565b92915050565b600060208284031215614a1057614a0f612f78565b5b6000614a1e848285016149e5565b91505092915050565b7f4e487b7100000000000000000000000000000000000000000000000000000000600052601260045260246000fd5b7f4552433732313a206d696e7420746f20746865207a65726f2061646472657373600082015250565b6000614a8c602083613048565b9150614a9782614a56565b602082019050919050565b60006020820190508181036000830152614abb81614a7f565b9050919050565b7f4552433732313a20746f6b656e20616c7265616479206d696e74656400000000600082015250565b6000614af8601c83613048565b9150614b0382614ac2565b602082019050919050565b60006020820190508181036000830152614b2781614aeb565b905091905056fea2646970667358221220d0f94e1db37d1e9f046df1cb6ed1d8200f67f028ef11eeaed7dbd6b28be3d52464736f6c63430008110033",
  "linkReferences": {},
  "deployedLinkReferences": {}
}