{
  "_format": "hh-sol-artifact-1",
  "contractName": "NFTRentalPropertyContractSystem",
  "sourceName": "contracts/NFTRentalPropertyContractSystem.sol",
  "abi": [
    {
      "inputs": [],
      "stateMutability": "nonpayable",
      "type": "constructor"
    },
    {
      "anonymous": false,
      "inputs": [
        {
          "indexed": true,
          "internalType": "address",
          "name": "owner",
          "type": "address"
        },
        {
          "indexed": true,
          "internalType": "address",
          "name": "approved",
          "type": "address"
        },
        {
          "indexed": true,
          "internalType": "uint256",
          "name": "tokenId",
          "type": "uint256"
        }
      ],
      "name": "Approval",
      "type": "event"
    },
    {
      "anonymous": false,
      "inputs": [
        {
          "indexed": true,
          "internalType": "address",
          "name": "owner",
          "type": "address"
        },
        {
          "indexed": true,
          "internalType": "address",
          "name": "operator",
          "type": "address"
        },
        {
          "indexed": false,
          "internalType": "bool",
          "name": "approved",
          "type": "bool"
        }
      ],
      "name": "ApprovalForAll",
      "type": "event"
    },
    {
      "anonymous": false,
      "inputs": [
        {
          "indexed": true,
          "internalType": "address",
          "name": "previousOwner",
          "type": "address"
        },
        {
          "indexed": true,
          "internalType": "address",
          "name": "newOwner",
          "type": "address"
        }
      ],
      "name": "OwnershipTransferred",
      "type": "event"
    },
    {
      "anonymous": false,
      "inputs": [
        {
          "indexed": true,
          "internalType": "address",
          "name": "from",
          "type": "address"
        },
        {
          "indexed": true,
          "internalType": "address",
          "name": "to",
          "type": "address"
        },
        {
          "indexed": true,
          "internalType": "uint256",
          "name": "tokenId",
          "type": "uint256"
        }
      ],
      "name": "Transfer",
      "type": "event"
    },
    {
      "inputs": [
        {
          "internalType": "string",
          "name": "tokenURI",
          "type": "string"
        },
        {
          "internalType": "uint256",
          "name": "rent",
          "type": "uint256"
        },
        {
          "internalType": "uint256",
          "name": "securityDeposit",
          "type": "uint256"
        },
        {
          "internalType": "string",
          "name": "propertyAddress",
          "type": "string"
        }
      ],
      "name": "addProperty",
      "outputs": [
        {
          "internalType": "uint256",
          "name": "",
          "type": "uint256"
        }
      ],
      "stateMutability": "payable",
      "type": "function"
    },
    {
      "inputs": [
        {
          "internalType": "address",
          "name": "to",
          "type": "address"
        },
        {
          "internalType": "uint256",
          "name": "tokenId",
          "type": "uint256"
        }
      ],
      "name": "approve",
      "outputs": [],
      "stateMutability": "nonpayable",
      "type": "function"
    },
    {
      "inputs": [
        {
          "internalType": "address",
          "name": "owner",
          "type": "address"
        }
      ],
      "name": "balanceOf",
      "outputs": [
        {
          "internalType": "uint256",
          "name": "",
          "type": "uint256"
        }
      ],
      "stateMutability": "view",
      "type": "function"
    },
    {
      "inputs": [
        {
          "internalType": "string",
          "name": "a",
          "type": "string"
        },
        {
          "internalType": "string",
          "name": "b",
          "type": "string"
        }
      ],
      "name": "compareStrings",
      "outputs": [
        {
          "internalType": "bool",
          "name": "",
          "type": "bool"
        }
      ],
      "stateMutability": "view",
      "type": "function"
    },
    {
      "inputs": [
        {
          "internalType": "uint256",
          "name": "propertyId",
          "type": "uint256"
        }
      ],
      "name": "endRental",
      "outputs": [],
      "stateMutability": "nonpayable",
      "type": "function"
    },
    {
      "inputs": [
        {
          "internalType": "string",
          "name": "propertyAddress",
          "type": "string"
        }
      ],
      "name": "fetchNFTByPropertyAddress",
      "outputs": [
        {
          "components": [
            {
              "internalType": "uint256",
              "name": "id",
              "type": "uint256"
            },
            {
              "internalType": "address",
              "name": "owner",
              "type": "address"
            },
            {
              "internalType": "uint256",
              "name": "rent",
              "type": "uint256"
            },
            {
              "internalType": "uint256",
              "name": "securityDeposit",
              "type": "uint256"
            },
            {
              "internalType": "bool",
              "name": "isRented",
              "type": "bool"
            },
            {
              "internalType": "address",
              "name": "renter",
              "type": "address"
            },
            {
              "internalType": "uint256",
              "name": "lastPaidDate",
              "type": "uint256"
            },
            {
              "internalType": "string",
              "name": "propertyAddress",
              "type": "string"
            },
            {
              "internalType": "uint256",
              "name": "contractExpiration",
              "type": "uint256"
            }
          ],
          "internalType": "struct NFTRentalPropertyContractSystem.Property",
          "name": "",
          "type": "tuple"
        }
      ],
      "stateMutability": "view",
      "type": "function"
    },
    {
      "inputs": [
        {
          "internalType": "uint256",
          "name": "tokenId",
          "type": "uint256"
        }
      ],
      "name": "getApproved",
      "outputs": [
        {
          "internalType": "address",
          "name": "",
          "type": "address"
        }
      ],
      "stateMutability": "view",
      "type": "function"
    },
    {
      "inputs": [
        {
          "internalType": "address",
          "name": "owner",
          "type": "address"
        },
        {
          "internalType": "address",
          "name": "operator",
          "type": "address"
        }
      ],
      "name": "isApprovedForAll",
      "outputs": [
        {
          "internalType": "bool",
          "name": "",
          "type": "bool"
        }
      ],
      "stateMutability": "view",
      "type": "function"
    },
    {
      "inputs": [],
      "name": "name",
      "outputs": [
        {
          "internalType": "string",
          "name": "",
          "type": "string"
        }
      ],
      "stateMutability": "view",
      "type": "function"
    },
    {
      "inputs": [],
      "name": "owner",
      "outputs": [
        {
          "internalType": "address",
          "name": "",
          "type": "address"
        }
      ],
      "stateMutability": "view",
      "type": "function"
    },
    {
      "inputs": [
        {
          "internalType": "uint256",
          "name": "tokenId",
          "type": "uint256"
        }
      ],
      "name": "ownerOf",
      "outputs": [
        {
          "internalType": "address",
          "name": "",
          "type": "address"
        }
      ],
      "stateMutability": "view",
      "type": "function"
    },
    {
      "inputs": [
        {
          "internalType": "uint256",
          "name": "propertyId",
          "type": "uint256"
        }
      ],
      "name": "payRent",
      "outputs": [],
      "stateMutability": "payable",
      "type": "function"
    },
    {
      "inputs": [
        {
          "internalType": "uint256",
          "name": "",
          "type": "uint256"
        }
      ],
      "name": "properties",
      "outputs": [
        {
          "internalType": "uint256",
          "name": "id",
          "type": "uint256"
        },
        {
          "internalType": "address",
          "name": "owner",
          "type": "address"
        },
        {
          "internalType": "uint256",
          "name": "rent",
          "type": "uint256"
        },
        {
          "internalType": "uint256",
          "name": "securityDeposit",
          "type": "uint256"
        },
        {
          "internalType": "bool",
          "name": "isRented",
          "type": "bool"
        },
        {
          "internalType": "address",
          "name": "renter",
          "type": "address"
        },
        {
          "internalType": "uint256",
          "name": "lastPaidDate",
          "type": "uint256"
        },
        {
          "internalType": "string",
          "name": "propertyAddress",
          "type": "string"
        },
        {
          "internalType": "uint256",
          "name": "contractExpiration",
          "type": "uint256"
        }
      ],
      "stateMutability": "view",
      "type": "function"
    },
    {
      "inputs": [
        {
          "internalType": "uint256",
          "name": "propertyId",
          "type": "uint256"
        }
      ],
      "name": "renewContract",
      "outputs": [],
      "stateMutability": "nonpayable",
      "type": "function"
    },
    {
      "inputs": [],
      "name": "renounceOwnership",
      "outputs": [],
      "stateMutability": "nonpayable",
      "type": "function"
    },
    {
      "inputs": [
        {
          "internalType": "uint256",
          "name": "propertyId",
          "type": "uint256"
        }
      ],
      "name": "rentProperty",
      "outputs": [],
      "stateMutability": "payable",
      "type": "function"
    },
    {
      "inputs": [
        {
          "internalType": "address",
          "name": "from",
          "type": "address"
        },
        {
          "internalType": "address",
          "name": "to",
          "type": "address"
        },
        {
          "internalType": "uint256",
          "name": "tokenId",
          "type": "uint256"
        }
      ],
      "name": "safeTransferFrom",
      "outputs": [],
      "stateMutability": "nonpayable",
      "type": "function"
    },
    {
      "inputs": [
        {
          "internalType": "address",
          "name": "from",
          "type": "address"
        },
        {
          "internalType": "address",
          "name": "to",
          "type": "address"
        },
        {
          "internalType": "uint256",
          "name": "tokenId",
          "type": "uint256"
        },
        {
          "internalType": "bytes",
          "name": "data",
          "type": "bytes"
        }
      ],
      "name": "safeTransferFrom",
      "outputs": [],
      "stateMutability": "nonpayable",
      "type": "function"
    },
    {
      "inputs": [
        {
          "internalType": "address",
          "name": "operator",
          "type": "address"
        },
        {
          "internalType": "bool",
          "name": "approved",
          "type": "bool"
        }
      ],
      "name": "setApprovalForAll",
      "outputs": [],
      "stateMutability": "nonpayable",
      "type": "function"
    },
    {
      "inputs": [
        {
          "internalType": "bytes4",
          "name": "interfaceId",
          "type": "bytes4"
        }
      ],
      "name": "supportsInterface",
      "outputs": [
        {
          "internalType": "bool",
          "name": "",
          "type": "bool"
        }
      ],
      "stateMutability": "view",
      "type": "function"
    },
    {
      "inputs": [],
      "name": "symbol",
      "outputs": [
        {
          "internalType": "string",
          "name": "",
          "type": "string"
        }
      ],
      "stateMutability": "view",
      "type": "function"
    },
    {
      "inputs": [
        {
          "internalType": "uint256",
          "name": "tokenId",
          "type": "uint256"
        }
      ],
      "name": "tokenURI",
      "outputs": [
        {
          "internalType": "string",
          "name": "",
          "type": "string"
        }
      ],
      "stateMutability": "view",
      "type": "function"
    },
    {
      "inputs": [
        {
          "internalType": "address",
          "name": "from",
          "type": "address"
        },
        {
          "internalType": "address",
          "name": "to",
          "type": "address"
        },
        {
          "internalType": "uint256",
          "name": "tokenId",
          "type": "uint256"
        }
      ],
      "name": "transferFrom",
      "outputs": [],
      "stateMutability": "nonpayable",
      "type": "function"
    },
    {
      "inputs": [
        {
          "internalType": "address",
          "name": "newOwner",
          "type": "address"
        }
      ],
      "name": "transferOwnership",
      "outputs": [],
      "stateMutability": "nonpayable",
      "type": "function"
    },
    {
      "inputs": [
        {
          "internalType": "uint256",
          "name": "propertyId",
          "type": "uint256"
        }
      ],
      "name": "withdrawSecurityDeposit",
      "outputs": [],
      "stateMutability": "nonpayable",
      "type": "function"
    }
  ],
  "bytecode": "0x60806040523480156200001157600080fd5b506040518060400160405280601081526020017f52656e74616c50726f70657274696573000000000000000000000000000000008152506040518060400160405280600381526020017f525052000000000000000000000000000000000000000000000000000000000081525081600090816200008f919062000412565b508060019081620000a1919062000412565b505050620000c4620000b8620000ca60201b60201c565b620000d260201b60201c565b620004f9565b600033905090565b6000600760009054906101000a900473ffffffffffffffffffffffffffffffffffffffff16905081600760006101000a81548173ffffffffffffffffffffffffffffffffffffffff021916908373ffffffffffffffffffffffffffffffffffffffff1602179055508173ffffffffffffffffffffffffffffffffffffffff168173ffffffffffffffffffffffffffffffffffffffff167f8be0079c531659141344cd1fd0a4f28419497f9722a3daafe3b4186f6b6457e060405160405180910390a35050565b600081519050919050565b7f4e487b7100000000000000000000000000000000000000000000000000000000600052604160045260246000fd5b7f4e487b7100000000000000000000000000000000000000000000000000000000600052602260045260246000fd5b600060028204905060018216806200021a57607f821691505b60208210810362000230576200022f620001d2565b5b50919050565b60008190508160005260206000209050919050565b60006020601f8301049050919050565b600082821b905092915050565b6000600883026200029a7fffffffffffffffffffffffffffffffffffffffffffffffffffffffffffffffff826200025b565b620002a686836200025b565b95508019841693508086168417925050509392505050565b6000819050919050565b6000819050919050565b6000620002f3620002ed620002e784620002be565b620002c8565b620002be565b9050919050565b6000819050919050565b6200030f83620002d2565b620003276200031e82620002fa565b84845462000268565b825550505050565b600090565b6200033e6200032f565b6200034b81848462000304565b505050565b5b8181101562000373576200036760008262000334565b60018101905062000351565b5050565b601f821115620003c2576200038c8162000236565b62000397846200024b565b81016020851015620003a7578190505b620003bf620003b6856200024b565b83018262000350565b50505b505050565b600082821c905092915050565b6000620003e760001984600802620003c7565b1980831691505092915050565b6000620004028383620003d4565b9150826002028217905092915050565b6200041d8262000198565b67ffffffffffffffff811115620004395762000438620001a3565b5b62000445825462000201565b6200045282828562000377565b600060209050601f8311600181146200048a576000841562000475578287015190505b620004818582620003f4565b865550620004f1565b601f1984166200049a8662000236565b60005b82811015620004c4578489015182556001820191506020850194506020810190506200049d565b86831015620004e45784890151620004e0601f891682620003d4565b8355505b6001600288020188555050505b505050505050565b61471b80620005096000396000f3fe6080604052600436106101665760003560e01c806395d89b41116100d1578063bed34bba1161008a578063d9e8843f11610064578063d9e8843f14610542578063e985e9c51461055e578063f2fde38b1461059b578063f7b10808146105c457610166565b8063bed34bba1461049f578063c87b56dd146104dc578063d5252dcf1461051957610166565b806395d89b41146103b457806397491d6f146103df57806398d380e0146104085780639d36ab6c14610431578063a22cb4651461044d578063b88d4fde1461047657610166565b806350b0c6471161012357806350b0c6471461028b5780636352211e146102bb57806370a08231146102f8578063715018a6146103355780637ad58c4f1461034c5780638da5cb5b1461038957610166565b806301ffc9a71461016b57806306fdde03146101a8578063081812fc146101d3578063095ea7b31461021057806323b872dd1461023957806342842e0e14610262575b600080fd5b34801561017757600080fd5b50610192600480360381019061018d9190612c76565b610609565b60405161019f9190612cbe565b60405180910390f35b3480156101b457600080fd5b506101bd6106eb565b6040516101ca9190612d69565b60405180910390f35b3480156101df57600080fd5b506101fa60048036038101906101f59190612dc1565b61077d565b6040516102079190612e2f565b60405180910390f35b34801561021c57600080fd5b5061023760048036038101906102329190612e76565b6107c3565b005b34801561024557600080fd5b50610260600480360381019061025b9190612eb6565b6108da565b005b34801561026e57600080fd5b5061028960048036038101906102849190612eb6565b61093a565b005b6102a560048036038101906102a0919061303e565b61095a565b6040516102b291906130ec565b60405180910390f35b3480156102c757600080fd5b506102e260048036038101906102dd9190612dc1565b610b1c565b6040516102ef9190612e2f565b60405180910390f35b34801561030457600080fd5b5061031f600480360381019061031a9190613107565b610ba2565b60405161032c91906130ec565b60405180910390f35b34801561034157600080fd5b5061034a610c59565b005b34801561035857600080fd5b50610373600480360381019061036e9190613134565b610c6d565b60405161038091906132b9565b60405180910390f35b34801561039557600080fd5b5061039e610f2b565b6040516103ab9190612e2f565b60405180910390f35b3480156103c057600080fd5b506103c9610f55565b6040516103d69190612d69565b60405180910390f35b3480156103eb57600080fd5b5061040660048036038101906104019190612dc1565b610fe7565b005b34801561041457600080fd5b5061042f600480360381019061042a9190612dc1565b611063565b005b61044b60048036038101906104469190612dc1565b6111bd565b005b34801561045957600080fd5b50610474600480360381019061046f9190613307565b611353565b005b34801561048257600080fd5b5061049d600480360381019061049891906133e8565b611369565b005b3480156104ab57600080fd5b506104c660048036038101906104c1919061346b565b6113cb565b6040516104d39190612cbe565b60405180910390f35b3480156104e857600080fd5b5061050360048036038101906104fe9190612dc1565b611424565b6040516105109190612d69565b60405180910390f35b34801561052557600080fd5b50610540600480360381019061053b9190612dc1565b611536565b005b61055c60048036038101906105579190612dc1565b611642565b005b34801561056a57600080fd5b50610585600480360381019061058091906134e3565b61184f565b6040516105929190612cbe565b60405180910390f35b3480156105a757600080fd5b506105c260048036038101906105bd9190613107565b6118e3565b005b3480156105d057600080fd5b506105eb60048036038101906105e69190612dc1565b611966565b60405161060099989796959493929190613523565b60405180910390f35b60007f80ac58cd000000000000000000000000000000000000000000000000000000007bffffffffffffffffffffffffffffffffffffffffffffffffffffffff1916827bffffffffffffffffffffffffffffffffffffffffffffffffffffffff191614806106d457507f5b5e139f000000000000000000000000000000000000000000000000000000007bffffffffffffffffffffffffffffffffffffffffffffffffffffffff1916827bffffffffffffffffffffffffffffffffffffffffffffffffffffffff1916145b806106e457506106e382611a89565b5b9050919050565b6060600080546106fa906135e6565b80601f0160208091040260200160405190810160405280929190818152602001828054610726906135e6565b80156107735780601f1061074857610100808354040283529160200191610773565b820191906000526020600020905b81548152906001019060200180831161075657829003601f168201915b5050505050905090565b600061078882611af3565b6004600083815260200190815260200160002060009054906101000a900473ffffffffffffffffffffffffffffffffffffffff169050919050565b60006107ce82610b1c565b90508073ffffffffffffffffffffffffffffffffffffffff168373ffffffffffffffffffffffffffffffffffffffff160361083e576040517f08c379a000000000000000000000000000000000000000000000000000000000815260040161083590613689565b60405180910390fd5b8073ffffffffffffffffffffffffffffffffffffffff1661085d611b3e565b73ffffffffffffffffffffffffffffffffffffffff16148061088c575061088b81610886611b3e565b61184f565b5b6108cb576040517f08c379a00000000000000000000000000000000000000000000000000000000081526004016108c29061371b565b60405180910390fd5b6108d58383611b46565b505050565b6108eb6108e5611b3e565b82611bff565b61092a576040517f08c379a0000000000000000000000000000000000000000000000000000000008152600401610921906137ad565b60405180910390fd5b610935838383611c94565b505050565b61095583838360405180602001604052806000815250611369565b505050565b60006008600081548092919061096f906137fc565b919050555060405180610120016040528060085481526020013373ffffffffffffffffffffffffffffffffffffffff168152602001858152602001848152602001600015158152602001600073ffffffffffffffffffffffffffffffffffffffff1681526020016000815260200183815260200160008152506009600060085481526020019081526020016000206000820151816000015560208201518160010160006101000a81548173ffffffffffffffffffffffffffffffffffffffff021916908373ffffffffffffffffffffffffffffffffffffffff160217905550604082015181600201556060820151816003015560808201518160040160006101000a81548160ff02191690831515021790555060a08201518160040160016101000a81548173ffffffffffffffffffffffffffffffffffffffff021916908373ffffffffffffffffffffffffffffffffffffffff16021790555060c0820151816005015560e0820151816006019081610ae891906139f0565b506101008201518160070155905050610b0333600854611f8d565b610b0f60085486611fab565b6008549050949350505050565b600080610b2883612018565b9050600073ffffffffffffffffffffffffffffffffffffffff168173ffffffffffffffffffffffffffffffffffffffff1603610b99576040517f08c379a0000000000000000000000000000000000000000000000000000000008152600401610b9090613b0e565b60405180910390fd5b80915050919050565b60008073ffffffffffffffffffffffffffffffffffffffff168273ffffffffffffffffffffffffffffffffffffffff1603610c12576040517f08c379a0000000000000000000000000000000000000000000000000000000008152600401610c0990613ba0565b60405180910390fd5b600360008373ffffffffffffffffffffffffffffffffffffffff1673ffffffffffffffffffffffffffffffffffffffff168152602001908152602001600020549050919050565b610c61612055565b610c6b60006120d3565b565b610c75612b90565b60006008549050610c84612b90565b60005b82811015610f2057610d4360096000600184610ca39190613bc0565b81526020019081526020016000206006018054610cbf906135e6565b80601f0160208091040260200160405190810160405280929190818152602001828054610ceb906135e6565b8015610d385780601f10610d0d57610100808354040283529160200191610d38565b820191906000526020600020905b815481529060010190602001808311610d1b57829003601f168201915b5050505050866113cb565b15610f0d576000600182610d579190613bc0565b905060006009600083815260200190815260200160002090508060405180610120016040529081600082015481526020016001820160009054906101000a900473ffffffffffffffffffffffffffffffffffffffff1673ffffffffffffffffffffffffffffffffffffffff1673ffffffffffffffffffffffffffffffffffffffff16815260200160028201548152602001600382015481526020016004820160009054906101000a900460ff161515151581526020016004820160019054906101000a900473ffffffffffffffffffffffffffffffffffffffff1673ffffffffffffffffffffffffffffffffffffffff1673ffffffffffffffffffffffffffffffffffffffff16815260200160058201548152602001600682018054610e7c906135e6565b80601f0160208091040260200160405190810160405280929190818152602001828054610ea8906135e6565b8015610ef55780601f10610eca57610100808354040283529160200191610ef5565b820191906000526020600020905b815481529060010190602001808311610ed857829003601f168201915b50505050508152602001600782015481525050935050505b8080610f18906137fc565b915050610c87565b508092505050919050565b6000600760009054906101000a900473ffffffffffffffffffffffffffffffffffffffff16905090565b606060018054610f64906135e6565b80601f0160208091040260200160405190810160405280929190818152602001828054610f90906135e6565b8015610fdd5780601f10610fb257610100808354040283529160200191610fdd565b820191906000526020600020905b815481529060010190602001808311610fc057829003601f168201915b5050505050905090565b600060096000838152602001908152602001600020905060008160040160006101000a81548160ff02191690831515021790555060008160040160016101000a81548173ffffffffffffffffffffffffffffffffffffffff021916908373ffffffffffffffffffffffffffffffffffffffff1602179055505050565b60006009600083815260200190815260200160002090503373ffffffffffffffffffffffffffffffffffffffff168160010160009054906101000a900473ffffffffffffffffffffffffffffffffffffffff1673ffffffffffffffffffffffffffffffffffffffff161461110c576040517f08c379a000000000000000000000000000000000000000000000000000000000815260040161110390613c66565b60405180910390fd5b8060040160009054906101000a900460ff161561115e576040517f08c379a000000000000000000000000000000000000000000000000000000000815260040161115590613cd2565b60405180910390fd5b600081600301549050600082600301819055503373ffffffffffffffffffffffffffffffffffffffff166108fc829081150290604051600060405180830381858888f193505050501580156111b7573d6000803e3d6000fd5b50505050565b60006009600083815260200190815260200160002090508060040160009054906101000a900460ff1615611226576040517f08c379a000000000000000000000000000000000000000000000000000000000815260040161121d90613d3e565b60405180910390fd5b8060030154341461126c576040517f08c379a000000000000000000000000000000000000000000000000000000000815260040161126390613daa565b60405180910390fd5b60018160040160006101000a81548160ff021916908315150217905550338160040160016101000a81548173ffffffffffffffffffffffffffffffffffffffff021916908373ffffffffffffffffffffffffffffffffffffffff1602179055506301e13380426112dc9190613bc0565b81600701819055508060010160009054906101000a900473ffffffffffffffffffffffffffffffffffffffff1673ffffffffffffffffffffffffffffffffffffffff166108fc349081150290604051600060405180830381858888f1935050505015801561134e573d6000803e3d6000fd5b505050565b61136561135e611b3e565b8383612199565b5050565b61137a611374611b3e565b83611bff565b6113b9576040517f08c379a00000000000000000000000000000000000000000000000000000000081526004016113b0906137ad565b60405180910390fd5b6113c584848484612305565b50505050565b6000816040516020016113de9190613e06565b60405160208183030381529060405280519060200120836040516020016114059190613e06565b6040516020818303038152906040528051906020012014905092915050565b606061142f82611af3565b600060066000848152602001908152602001600020805461144f906135e6565b80601f016020809104026020016040519081016040528092919081815260200182805461147b906135e6565b80156114c85780601f1061149d576101008083540402835291602001916114c8565b820191906000526020600020905b8154815290600101906020018083116114ab57829003601f168201915b5050505050905060006114d9612361565b905060008151036114ee578192505050611531565b60008251111561152357808260405160200161150b929190613e1d565b60405160208183030381529060405292505050611531565b61152c84612378565b925050505b919050565b60006009600083815260200190815260200160002090503373ffffffffffffffffffffffffffffffffffffffff168160040160019054906101000a900473ffffffffffffffffffffffffffffffffffffffff1673ffffffffffffffffffffffffffffffffffffffff16146115df576040517f08c379a00000000000000000000000000000000000000000000000000000000081526004016115d690613eb3565b60405180910390fd5b8060070154421015611626576040517f08c379a000000000000000000000000000000000000000000000000000000000815260040161161d90613f1f565b60405180910390fd5b6301e13380426116369190613bc0565b81600701819055505050565b60006009600083815260200190815260200160002090508060040160009054906101000a900460ff166116aa576040517f08c379a00000000000000000000000000000000000000000000000000000000081526004016116a190613f8b565b60405180910390fd5b3373ffffffffffffffffffffffffffffffffffffffff168160040160019054906101000a900473ffffffffffffffffffffffffffffffffffffffff1673ffffffffffffffffffffffffffffffffffffffff161461173c576040517f08c379a000000000000000000000000000000000000000000000000000000000815260040161173390613ff7565b60405180910390fd5b80600201543414611782576040517f08c379a000000000000000000000000000000000000000000000000000000000815260040161177990614063565b60405180910390fd5b62278d0081600501546117959190613bc0565b4210156117d7576040517f08c379a00000000000000000000000000000000000000000000000000000000081526004016117ce906140f5565b60405180910390fd5b4281600501819055508060010160009054906101000a900473ffffffffffffffffffffffffffffffffffffffff1673ffffffffffffffffffffffffffffffffffffffff166108fc349081150290604051600060405180830381858888f1935050505015801561184a573d6000803e3d6000fd5b505050565b6000600560008473ffffffffffffffffffffffffffffffffffffffff1673ffffffffffffffffffffffffffffffffffffffff16815260200190815260200160002060008373ffffffffffffffffffffffffffffffffffffffff1673ffffffffffffffffffffffffffffffffffffffff16815260200190815260200160002060009054906101000a900460ff16905092915050565b6118eb612055565b600073ffffffffffffffffffffffffffffffffffffffff168173ffffffffffffffffffffffffffffffffffffffff160361195a576040517f08c379a000000000000000000000000000000000000000000000000000000000815260040161195190614187565b60405180910390fd5b611963816120d3565b50565b60096020528060005260406000206000915090508060000154908060010160009054906101000a900473ffffffffffffffffffffffffffffffffffffffff16908060020154908060030154908060040160009054906101000a900460ff16908060040160019054906101000a900473ffffffffffffffffffffffffffffffffffffffff1690806005015490806006018054611a00906135e6565b80601f0160208091040260200160405190810160405280929190818152602001828054611a2c906135e6565b8015611a795780601f10611a4e57610100808354040283529160200191611a79565b820191906000526020600020905b815481529060010190602001808311611a5c57829003601f168201915b5050505050908060070154905089565b60007f01ffc9a7000000000000000000000000000000000000000000000000000000007bffffffffffffffffffffffffffffffffffffffffffffffffffffffff1916827bffffffffffffffffffffffffffffffffffffffffffffffffffffffff1916149050919050565b611afc816123e0565b611b3b576040517f08c379a0000000000000000000000000000000000000000000000000000000008152600401611b3290613b0e565b60405180910390fd5b50565b600033905090565b816004600083815260200190815260200160002060006101000a81548173ffffffffffffffffffffffffffffffffffffffff021916908373ffffffffffffffffffffffffffffffffffffffff160217905550808273ffffffffffffffffffffffffffffffffffffffff16611bb983610b1c565b73ffffffffffffffffffffffffffffffffffffffff167f8c5be1e5ebec7d5bd14f71427d1e84f3dd0314c0f7b2291e5b200ac8c7c3b92560405160405180910390a45050565b600080611c0b83610b1c565b90508073ffffffffffffffffffffffffffffffffffffffff168473ffffffffffffffffffffffffffffffffffffffff161480611c4d5750611c4c818561184f565b5b80611c8b57508373ffffffffffffffffffffffffffffffffffffffff16611c738461077d565b73ffffffffffffffffffffffffffffffffffffffff16145b91505092915050565b8273ffffffffffffffffffffffffffffffffffffffff16611cb482610b1c565b73ffffffffffffffffffffffffffffffffffffffff1614611d0a576040517f08c379a0000000000000000000000000000000000000000000000000000000008152600401611d0190614219565b60405180910390fd5b600073ffffffffffffffffffffffffffffffffffffffff168273ffffffffffffffffffffffffffffffffffffffff1603611d79576040517f08c379a0000000000000000000000000000000000000000000000000000000008152600401611d70906142ab565b60405180910390fd5b611d868383836001612421565b8273ffffffffffffffffffffffffffffffffffffffff16611da682610b1c565b73ffffffffffffffffffffffffffffffffffffffff1614611dfc576040517f08c379a0000000000000000000000000000000000000000000000000000000008152600401611df390614219565b60405180910390fd5b6004600082815260200190815260200160002060006101000a81549073ffffffffffffffffffffffffffffffffffffffff02191690556001600360008573ffffffffffffffffffffffffffffffffffffffff1673ffffffffffffffffffffffffffffffffffffffff168152602001908152602001600020600082825403925050819055506001600360008473ffffffffffffffffffffffffffffffffffffffff1673ffffffffffffffffffffffffffffffffffffffff16815260200190815260200160002060008282540192505081905550816002600083815260200190815260200160002060006101000a81548173ffffffffffffffffffffffffffffffffffffffff021916908373ffffffffffffffffffffffffffffffffffffffff160217905550808273ffffffffffffffffffffffffffffffffffffffff168473ffffffffffffffffffffffffffffffffffffffff167fddf252ad1be2c89b69c2b068fc378daa952ba7f163c4a11628f55a4df523b3ef60405160405180910390a4611f888383836001612547565b505050565b611fa782826040518060200160405280600081525061254d565b5050565b611fb4826123e0565b611ff3576040517f08c379a0000000000000000000000000000000000000000000000000000000008152600401611fea9061433d565b60405180910390fd5b8060066000848152602001908152602001600020908161201391906139f0565b505050565b60006002600083815260200190815260200160002060009054906101000a900473ffffffffffffffffffffffffffffffffffffffff169050919050565b61205d611b3e565b73ffffffffffffffffffffffffffffffffffffffff1661207b610f2b565b73ffffffffffffffffffffffffffffffffffffffff16146120d1576040517f08c379a00000000000000000000000000000000000000000000000000000000081526004016120c8906143a9565b60405180910390fd5b565b6000600760009054906101000a900473ffffffffffffffffffffffffffffffffffffffff16905081600760006101000a81548173ffffffffffffffffffffffffffffffffffffffff021916908373ffffffffffffffffffffffffffffffffffffffff1602179055508173ffffffffffffffffffffffffffffffffffffffff168173ffffffffffffffffffffffffffffffffffffffff167f8be0079c531659141344cd1fd0a4f28419497f9722a3daafe3b4186f6b6457e060405160405180910390a35050565b8173ffffffffffffffffffffffffffffffffffffffff168373ffffffffffffffffffffffffffffffffffffffff1603612207576040517f08c379a00000000000000000000000000000000000000000000000000000000081526004016121fe90614415565b60405180910390fd5b80600560008573ffffffffffffffffffffffffffffffffffffffff1673ffffffffffffffffffffffffffffffffffffffff16815260200190815260200160002060008473ffffffffffffffffffffffffffffffffffffffff1673ffffffffffffffffffffffffffffffffffffffff16815260200190815260200160002060006101000a81548160ff0219169083151502179055508173ffffffffffffffffffffffffffffffffffffffff168373ffffffffffffffffffffffffffffffffffffffff167f17307eab39ab6107e8899845ad3d59bd9653f200f220920489ca2b5937696c31836040516122f89190612cbe565b60405180910390a3505050565b612310848484611c94565b61231c848484846125a8565b61235b576040517f08c379a0000000000000000000000000000000000000000000000000000000008152600401612352906144a7565b60405180910390fd5b50505050565b606060405180602001604052806000815250905090565b606061238382611af3565b600061238d612361565b905060008151116123ad57604051806020016040528060008152506123d8565b806123b78461272f565b6040516020016123c8929190613e1d565b6040516020818303038152906040525b915050919050565b60008073ffffffffffffffffffffffffffffffffffffffff1661240283612018565b73ffffffffffffffffffffffffffffffffffffffff1614159050919050565b600181111561254157600073ffffffffffffffffffffffffffffffffffffffff168473ffffffffffffffffffffffffffffffffffffffff16146124b55780600360008673ffffffffffffffffffffffffffffffffffffffff1673ffffffffffffffffffffffffffffffffffffffff16815260200190815260200160002060008282546124ad91906144c7565b925050819055505b600073ffffffffffffffffffffffffffffffffffffffff168373ffffffffffffffffffffffffffffffffffffffff16146125405780600360008573ffffffffffffffffffffffffffffffffffffffff1673ffffffffffffffffffffffffffffffffffffffff16815260200190815260200160002060008282546125389190613bc0565b925050819055505b5b50505050565b50505050565b61255783836127fd565b61256460008484846125a8565b6125a3576040517f08c379a000000000000000000000000000000000000000000000000000000000815260040161259a906144a7565b60405180910390fd5b505050565b60006125c98473ffffffffffffffffffffffffffffffffffffffff16612a1a565b15612722578373ffffffffffffffffffffffffffffffffffffffff1663150b7a026125f2611b3e565b8786866040518563ffffffff1660e01b81526004016126149493929190614550565b6020604051808303816000875af192505050801561265057506040513d601f19601f8201168201806040525081019061264d91906145b1565b60015b6126d2573d8060008114612680576040519150601f19603f3d011682016040523d82523d6000602084013e612685565b606091505b5060008151036126ca576040517f08c379a00000000000000000000000000000000000000000000000000000000081526004016126c1906144a7565b60405180910390fd5b805181602001fd5b63150b7a0260e01b7bffffffffffffffffffffffffffffffffffffffffffffffffffffffff1916817bffffffffffffffffffffffffffffffffffffffffffffffffffffffff191614915050612727565b600190505b949350505050565b60606000600161273e84612a3d565b01905060008167ffffffffffffffff81111561275d5761275c612f13565b5b6040519080825280601f01601f19166020018201604052801561278f5781602001600182028036833780820191505090505b509050600082602001820190505b6001156127f2578080600190039150507f3031323334353637383961626364656600000000000000000000000000000000600a86061a8153600a85816127e6576127e56145de565b5b0494506000850361279d575b819350505050919050565b600073ffffffffffffffffffffffffffffffffffffffff168273ffffffffffffffffffffffffffffffffffffffff160361286c576040517f08c379a000000000000000000000000000000000000000000000000000000000815260040161286390614659565b60405180910390fd5b612875816123e0565b156128b5576040517f08c379a00000000000000000000000000000000000000000000000000000000081526004016128ac906146c5565b60405180910390fd5b6128c3600083836001612421565b6128cc816123e0565b1561290c576040517f08c379a0000000000000000000000000000000000000000000000000000000008152600401612903906146c5565b60405180910390fd5b6001600360008473ffffffffffffffffffffffffffffffffffffffff1673ffffffffffffffffffffffffffffffffffffffff16815260200190815260200160002060008282540192505081905550816002600083815260200190815260200160002060006101000a81548173ffffffffffffffffffffffffffffffffffffffff021916908373ffffffffffffffffffffffffffffffffffffffff160217905550808273ffffffffffffffffffffffffffffffffffffffff16600073ffffffffffffffffffffffffffffffffffffffff167fddf252ad1be2c89b69c2b068fc378daa952ba7f163c4a11628f55a4df523b3ef60405160405180910390a4612a16600083836001612547565b5050565b6000808273ffffffffffffffffffffffffffffffffffffffff163b119050919050565b600080600090507a184f03e93ff9f4daa797ed6e38ed64bf6a1f0100000000000000008310612a9b577a184f03e93ff9f4daa797ed6e38ed64bf6a1f0100000000000000008381612a9157612a906145de565b5b0492506040810190505b6d04ee2d6d415b85acef81000000008310612ad8576d04ee2d6d415b85acef81000000008381612ace57612acd6145de565b5b0492506020810190505b662386f26fc100008310612b0757662386f26fc100008381612afd57612afc6145de565b5b0492506010810190505b6305f5e1008310612b30576305f5e1008381612b2657612b256145de565b5b0492506008810190505b6127108310612b55576127108381612b4b57612b4a6145de565b5b0492506004810190505b60648310612b785760648381612b6e57612b6d6145de565b5b0492506002810190505b600a8310612b87576001810190505b80915050919050565b60405180610120016040528060008152602001600073ffffffffffffffffffffffffffffffffffffffff1681526020016000815260200160008152602001600015158152602001600073ffffffffffffffffffffffffffffffffffffffff1681526020016000815260200160608152602001600081525090565b6000604051905090565b600080fd5b600080fd5b60007fffffffff0000000000000000000000000000000000000000000000000000000082169050919050565b612c5381612c1e565b8114612c5e57600080fd5b50565b600081359050612c7081612c4a565b92915050565b600060208284031215612c8c57612c8b612c14565b5b6000612c9a84828501612c61565b91505092915050565b60008115159050919050565b612cb881612ca3565b82525050565b6000602082019050612cd36000830184612caf565b92915050565b600081519050919050565b600082825260208201905092915050565b60005b83811015612d13578082015181840152602081019050612cf8565b60008484015250505050565b6000601f19601f8301169050919050565b6000612d3b82612cd9565b612d458185612ce4565b9350612d55818560208601612cf5565b612d5e81612d1f565b840191505092915050565b60006020820190508181036000830152612d838184612d30565b905092915050565b6000819050919050565b612d9e81612d8b565b8114612da957600080fd5b50565b600081359050612dbb81612d95565b92915050565b600060208284031215612dd757612dd6612c14565b5b6000612de584828501612dac565b91505092915050565b600073ffffffffffffffffffffffffffffffffffffffff82169050919050565b6000612e1982612dee565b9050919050565b612e2981612e0e565b82525050565b6000602082019050612e446000830184612e20565b92915050565b612e5381612e0e565b8114612e5e57600080fd5b50565b600081359050612e7081612e4a565b92915050565b60008060408385031215612e8d57612e8c612c14565b5b6000612e9b85828601612e61565b9250506020612eac85828601612dac565b9150509250929050565b600080600060608486031215612ecf57612ece612c14565b5b6000612edd86828701612e61565b9350506020612eee86828701612e61565b9250506040612eff86828701612dac565b9150509250925092565b600080fd5b600080fd5b7f4e487b7100000000000000000000000000000000000000000000000000000000600052604160045260246000fd5b612f4b82612d1f565b810181811067ffffffffffffffff82111715612f6a57612f69612f13565b5b80604052505050565b6000612f7d612c0a565b9050612f898282612f42565b919050565b600067ffffffffffffffff821115612fa957612fa8612f13565b5b612fb282612d1f565b9050602081019050919050565b82818337600083830152505050565b6000612fe1612fdc84612f8e565b612f73565b905082815260208101848484011115612ffd57612ffc612f0e565b5b613008848285612fbf565b509392505050565b600082601f83011261302557613024612f09565b5b8135613035848260208601612fce565b91505092915050565b6000806000806080858703121561305857613057612c14565b5b600085013567ffffffffffffffff81111561307657613075612c19565b5b61308287828801613010565b945050602061309387828801612dac565b93505060406130a487828801612dac565b925050606085013567ffffffffffffffff8111156130c5576130c4612c19565b5b6130d187828801613010565b91505092959194509250565b6130e681612d8b565b82525050565b600060208201905061310160008301846130dd565b92915050565b60006020828403121561311d5761311c612c14565b5b600061312b84828501612e61565b91505092915050565b60006020828403121561314a57613149612c14565b5b600082013567ffffffffffffffff81111561316857613167612c19565b5b61317484828501613010565b91505092915050565b61318681612d8b565b82525050565b61319581612e0e565b82525050565b6131a481612ca3565b82525050565b600082825260208201905092915050565b60006131c682612cd9565b6131d081856131aa565b93506131e0818560208601612cf5565b6131e981612d1f565b840191505092915050565b60006101208301600083015161320d600086018261317d565b506020830151613220602086018261318c565b506040830151613233604086018261317d565b506060830151613246606086018261317d565b506080830151613259608086018261319b565b5060a083015161326c60a086018261318c565b5060c083015161327f60c086018261317d565b5060e083015184820360e086015261329782826131bb565b9150506101008301516132ae61010086018261317d565b508091505092915050565b600060208201905081810360008301526132d381846131f4565b905092915050565b6132e481612ca3565b81146132ef57600080fd5b50565b600081359050613301816132db565b92915050565b6000806040838503121561331e5761331d612c14565b5b600061332c85828601612e61565b925050602061333d858286016132f2565b9150509250929050565b600067ffffffffffffffff82111561336257613361612f13565b5b61336b82612d1f565b9050602081019050919050565b600061338b61338684613347565b612f73565b9050828152602081018484840111156133a7576133a6612f0e565b5b6133b2848285612fbf565b509392505050565b600082601f8301126133cf576133ce612f09565b5b81356133df848260208601613378565b91505092915050565b6000806000806080858703121561340257613401612c14565b5b600061341087828801612e61565b945050602061342187828801612e61565b935050604061343287828801612dac565b925050606085013567ffffffffffffffff81111561345357613452612c19565b5b61345f878288016133ba565b91505092959194509250565b6000806040838503121561348257613481612c14565b5b600083013567ffffffffffffffff8111156134a05761349f612c19565b5b6134ac85828601613010565b925050602083013567ffffffffffffffff8111156134cd576134cc612c19565b5b6134d985828601613010565b9150509250929050565b600080604083850312156134fa576134f9612c14565b5b600061350885828601612e61565b925050602061351985828601612e61565b9150509250929050565b600061012082019050613539600083018c6130dd565b613546602083018b612e20565b613553604083018a6130dd565b61356060608301896130dd565b61356d6080830188612caf565b61357a60a0830187612e20565b61358760c08301866130dd565b81810360e08301526135998185612d30565b90506135a96101008301846130dd565b9a9950505050505050505050565b7f4e487b7100000000000000000000000000000000000000000000000000000000600052602260045260246000fd5b600060028204905060018216806135fe57607f821691505b602082108103613611576136106135b7565b5b50919050565b7f4552433732313a20617070726f76616c20746f2063757272656e74206f776e6560008201527f7200000000000000000000000000000000000000000000000000000000000000602082015250565b6000613673602183612ce4565b915061367e82613617565b604082019050919050565b600060208201905081810360008301526136a281613666565b9050919050565b7f4552433732313a20617070726f76652063616c6c6572206973206e6f7420746f60008201527f6b656e206f776e6572206f7220617070726f76656420666f7220616c6c000000602082015250565b6000613705603d83612ce4565b9150613710826136a9565b604082019050919050565b60006020820190508181036000830152613734816136f8565b9050919050565b7f4552433732313a2063616c6c6572206973206e6f7420746f6b656e206f776e6560008201527f72206f7220617070726f76656400000000000000000000000000000000000000602082015250565b6000613797602d83612ce4565b91506137a28261373b565b604082019050919050565b600060208201905081810360008301526137c68161378a565b9050919050565b7f4e487b7100000000000000000000000000000000000000000000000000000000600052601160045260246000fd5b600061380782612d8b565b91507fffffffffffffffffffffffffffffffffffffffffffffffffffffffffffffffff8203613839576138386137cd565b5b600182019050919050565b60008190508160005260206000209050919050565b60006020601f8301049050919050565b600082821b905092915050565b6000600883026138a67fffffffffffffffffffffffffffffffffffffffffffffffffffffffffffffffff82613869565b6138b08683613869565b95508019841693508086168417925050509392505050565b6000819050919050565b60006138ed6138e86138e384612d8b565b6138c8565b612d8b565b9050919050565b6000819050919050565b613907836138d2565b61391b613913826138f4565b848454613876565b825550505050565b600090565b613930613923565b61393b8184846138fe565b505050565b5b8181101561395f57613954600082613928565b600181019050613941565b5050565b601f8211156139a45761397581613844565b61397e84613859565b8101602085101561398d578190505b6139a161399985613859565b830182613940565b50505b505050565b600082821c905092915050565b60006139c7600019846008026139a9565b1980831691505092915050565b60006139e083836139b6565b9150826002028217905092915050565b6139f982612cd9565b67ffffffffffffffff811115613a1257613a11612f13565b5b613a1c82546135e6565b613a27828285613963565b600060209050601f831160018114613a5a5760008415613a48578287015190505b613a5285826139d4565b865550613aba565b601f198416613a6886613844565b60005b82811015613a9057848901518255600182019150602085019450602081019050613a6b565b86831015613aad5784890151613aa9601f8916826139b6565b8355505b6001600288020188555050505b505050505050565b7f4552433732313a20696e76616c696420746f6b656e2049440000000000000000600082015250565b6000613af8601883612ce4565b9150613b0382613ac2565b602082019050919050565b60006020820190508181036000830152613b2781613aeb565b9050919050565b7f4552433732313a2061646472657373207a65726f206973206e6f74206120766160008201527f6c6964206f776e65720000000000000000000000000000000000000000000000602082015250565b6000613b8a602983612ce4565b9150613b9582613b2e565b604082019050919050565b60006020820190508181036000830152613bb981613b7d565b9050919050565b6000613bcb82612d8b565b9150613bd683612d8b565b9250828201905080821115613bee57613bed6137cd565b5b92915050565b7f4f6e6c7920746865206f776e65722063616e207769746864726177207468652060008201527f7365637572697479206465706f73697400000000000000000000000000000000602082015250565b6000613c50603083612ce4565b9150613c5b82613bf4565b604082019050919050565b60006020820190508181036000830152613c7f81613c43565b9050919050565b7f50726f7065727479206973207374696c6c2072656e7465640000000000000000600082015250565b6000613cbc601883612ce4565b9150613cc782613c86565b602082019050919050565b60006020820190508181036000830152613ceb81613caf565b9050919050565b7f50726f706572747920616c72656164792072656e746564000000000000000000600082015250565b6000613d28601783612ce4565b9150613d3382613cf2565b602082019050919050565b60006020820190508181036000830152613d5781613d1b565b9050919050565b7f496e636f7272656374207365637572697479206465706f736974000000000000600082015250565b6000613d94601a83612ce4565b9150613d9f82613d5e565b602082019050919050565b60006020820190508181036000830152613dc381613d87565b9050919050565b600081905092915050565b6000613de082612cd9565b613dea8185613dca565b9350613dfa818560208601612cf5565b80840191505092915050565b6000613e128284613dd5565b915081905092915050565b6000613e298285613dd5565b9150613e358284613dd5565b91508190509392505050565b7f4f6e6c79207468652072656e7465722063616e2072656e65772074686520636f60008201527f6e74726163740000000000000000000000000000000000000000000000000000602082015250565b6000613e9d602683612ce4565b9150613ea882613e41565b604082019050919050565b60006020820190508181036000830152613ecc81613e90565b9050919050565b7f436f6e747261637420686173206e6f7420657870697265642079657400000000600082015250565b6000613f09601c83612ce4565b9150613f1482613ed3565b602082019050919050565b60006020820190508181036000830152613f3881613efc565b9050919050565b7f50726f7065727479206e6f742072656e74656400000000000000000000000000600082015250565b6000613f75601383612ce4565b9150613f8082613f3f565b602082019050919050565b60006020820190508181036000830152613fa481613f68565b9050919050565b7f4f6e6c79207468652072656e7465722063616e207061792072656e7400000000600082015250565b6000613fe1601c83612ce4565b9150613fec82613fab565b602082019050919050565b6000602082019050818103600083015261401081613fd4565b9050919050565b7f496e636f72726563742072656e7420616d6f756e740000000000000000000000600082015250565b600061404d601583612ce4565b915061405882614017565b602082019050919050565b6000602082019050818103600083015261407c81614040565b9050919050565b7f52656e7420616c7265616479207061696420666f72207468652063757272656e60008201527f7420706572696f64000000000000000000000000000000000000000000000000602082015250565b60006140df602883612ce4565b91506140ea82614083565b604082019050919050565b6000602082019050818103600083015261410e816140d2565b9050919050565b7f4f776e61626c653a206e6577206f776e657220697320746865207a65726f206160008201527f6464726573730000000000000000000000000000000000000000000000000000602082015250565b6000614171602683612ce4565b915061417c82614115565b604082019050919050565b600060208201905081810360008301526141a081614164565b9050919050565b7f4552433732313a207472616e736665722066726f6d20696e636f72726563742060008201527f6f776e6572000000000000000000000000000000000000000000000000000000602082015250565b6000614203602583612ce4565b915061420e826141a7565b604082019050919050565b60006020820190508181036000830152614232816141f6565b9050919050565b7f4552433732313a207472616e7366657220746f20746865207a65726f2061646460008201527f7265737300000000000000000000000000000000000000000000000000000000602082015250565b6000614295602483612ce4565b91506142a082614239565b604082019050919050565b600060208201905081810360008301526142c481614288565b9050919050565b7f45524337323155524953746f726167653a2055524920736574206f66206e6f6e60008201527f6578697374656e7420746f6b656e000000000000000000000000000000000000602082015250565b6000614327602e83612ce4565b9150614332826142cb565b604082019050919050565b600060208201905081810360008301526143568161431a565b9050919050565b7f4f776e61626c653a2063616c6c6572206973206e6f7420746865206f776e6572600082015250565b6000614393602083612ce4565b915061439e8261435d565b602082019050919050565b600060208201905081810360008301526143c281614386565b9050919050565b7f4552433732313a20617070726f766520746f2063616c6c657200000000000000600082015250565b60006143ff601983612ce4565b915061440a826143c9565b602082019050919050565b6000602082019050818103600083015261442e816143f2565b9050919050565b7f4552433732313a207472616e7366657220746f206e6f6e20455243373231526560008201527f63656976657220696d706c656d656e7465720000000000000000000000000000602082015250565b6000614491603283612ce4565b915061449c82614435565b604082019050919050565b600060208201905081810360008301526144c081614484565b9050919050565b60006144d282612d8b565b91506144dd83612d8b565b92508282039050818111156144f5576144f46137cd565b5b92915050565b600081519050919050565b600082825260208201905092915050565b6000614522826144fb565b61452c8185614506565b935061453c818560208601612cf5565b61454581612d1f565b840191505092915050565b60006080820190506145656000830187612e20565b6145726020830186612e20565b61457f60408301856130dd565b81810360608301526145918184614517565b905095945050505050565b6000815190506145ab81612c4a565b92915050565b6000602082840312156145c7576145c6612c14565b5b60006145d58482850161459c565b91505092915050565b7f4e487b7100000000000000000000000000000000000000000000000000000000600052601260045260246000fd5b7f4552433732313a206d696e7420746f20746865207a65726f2061646472657373600082015250565b6000614643602083612ce4565b915061464e8261460d565b602082019050919050565b6000602082019050818103600083015261467281614636565b9050919050565b7f4552433732313a20746f6b656e20616c7265616479206d696e74656400000000600082015250565b60006146af601c83612ce4565b91506146ba82614679565b602082019050919050565b600060208201905081810360008301526146de816146a2565b905091905056fea2646970667358221220d36fe23ac697c97a81ede5138cf3208e58db5928a31e3376369f65946ca5387964736f6c63430008110033",
  "linkReferences": {},
  "deployedLinkReferences": {}
}